TC1502440215011     S02353208  19010001PEREYRA LORENA MARIA M   272981415025      M 010115000   07  14562115  11                0722030025568440255684400182374200255684400438058600112383100325675515001001804100002001804100011000016035020000252574024000500170112000556900199000178907588000250000592000821900602000281252615000127842764000149900774000025000894000129640904000410197                                                                                                                                                                                                                                                                                                                                                                                                                                    9221326
TC1502516515011     S02353208  19010001SEOANE PATRICIA R        272026740175      M 010813000   08         5  11                0722030020927560209275600123436900209275600332712500061003900271708611001001804100002001804100011000016035020000288656199000146434588000250000592000821900602000230203615000104637680000125565834000149634                                                                                                                                                                                                                                                                                                                                                                                                                                                                                    9194134
TC1600389116014     S02353208  04110001CATAN CARLOS ALBERTO     201809092825      V 010813000   08         6  11                0722030043970260439702600410335200439702600850037800074749300775288515001001804100002001804100020000288656024000500170106000721640111000178900112001113800115000082200176001082460199000304006399002174446588000250000602000483672615000219851616000043970                                                                                                                                                                                                                                                                                                                                                                                                                                    9158065
TC7300204473017     H124555    58110001SILVETTI JOSE LUIS       202672291645      V 010712000   0909       5  11                0722030101983491019834900313680501019834901333515400217097201116418221001002981700002002981700014000200000020000536706021001490850052002981700111000178900112001670700113000030100114000090300179000746360185000003207199000713598373001192680375000268353588000250000602001121818615000509917659000312400669000212223920000014614                                                                                                                                                                                                                                                                                                                                                            9005975
TC7300231173017     H124555    58110001TAHHAN PAULA VALERIA     272261864475      M 010113000   0909       5  11                0722030094519890945198900111458100945198901056657000151231700905425313001002981700002002981700014000200000020000536706021001490850052002981700185000003207199000661374373001192680375000268353588000250000602001039718615000472599                                                                                                                                                                                                                                                                                                                                                                                                                                                            9031423
TC7300365573017     I124659    58110001ORELLANA VERONICA P      273308186335      M 010114000   08         5  11                0722030054459290544592900201361400544592900745954300203873200542081123001002020300002002020300011000005345014000200000020000323248022000707105045002020300112001113800114000060200185000003207199000381062300000374976588000250000602000599052615000272296619000080000676000121703677000121703678000000500691000253900692000245578820000120000921000224000                                                                                                                                                                                                                                                                                                                                    9161976
TC7300377373017     I124659    58110001RAMOS ANDREA YUDITH      272434624075      M 010114000   08  13925575  11                0722030058209050582090500146385200582090500728475700315637500412838240001002020300002002020300011000005345014000200000020000323248022000707105045002020300112000556900115000041100185000003207199000407300300000749952588000250000602000640299615000291045619000098602659000181077755000021000767000049500775000025000792000014000793000020000815000049500820000098602827000029000848000035000857000098602865000054999886000033000892000005163893000084000895000056700897000098602918000098602920000098602925000044366947000008792961000074055975000091667980000756600                                                                                                                        9162121
TC7300406273017     H124560    58110001UGOZZOLI LLUGDAR MARIA N.232808616345      M 010114000   08         5  11                0722030074950820749508200276875200749508201026383400140830500885552915001002817700002002817700014000200000020000450832021001408850052002817700112001670700113000030100114000090300185000003207199000524445588000250000602000824459615000374754669000209092                                                                                                                                                                                                                                                                                                                                                                                                                                    9162434
TC7300460173017     I124659    58110001ARAGON PAMELA MARIA S    273173992495      M 010115000   07         5  11                0722030053069190530691900200388700530691900731080600309066600422014043001002020300002002020300011000005345014000200000020000282842022000707105045002020300112001113800114000060200185000003207199000371335300000276372588000250000602000583761615000265345669000069944676000120733677000120733678000000500680000318415754000084518759000025000773000084518775000025000776000030000779000084518789000018000790000120000792000014000793000020000796000047100799000040000849000049500864000084518892000084518893000068400895000084518899000024700905000084518909000055000925000084518940000084518980000313873                                                                                    9162635
TC7300465173017     I124665    58110001BAIGORRIA FLORENCIA G    272965920355      M 010115000   07         5  11                0722030054038080540380800083666700540380800624047500311153900312893625001002009900002002009900011000005345014000200000020000281386024000552722045002009900185000003207199000378115300000549900588000250000602000594418615000270190619000042000659000168564676000116494677000116494678000000500774000025000775000025000820000120000904000907170920000114625925000014300983000596784                                                                                                                                                                                                                                                                                                            9162682
TC7300470373017     I124665    58110001BARRERA MARIA DE LOS A   273131179905      M 010115000   07  14287725  11                0722030056787580567875800085590600567875800653466400270292900383173525001002009900002002009900011000005345014000200000020000281386024000552722045002009900185000003207199000397354300000824850588000250000602000624663615000283937619000002000659000176812676000116494678000000500691000148600692000256056774000025000779000110000904000468000905000222599920000014160980000254108                                                                                                                                                                                                                                                                                                            9162732
TC7300479573017     I124665    58110001CARABAJAL HERMINIA DEL C 272073289665      M 010115000   07         5  11                0722030048539080485390800079818900485390800565209700188047500377162219001002009900002002009900011000005345014000200000020000281386024000552722045002009900185000003207199000339637588000250000602000533929615000242695659000152067669000056168691000109900776000030000876000103700920000266845980000385171                                                                                                                                                                                                                                                                                                                                                                                    9162844
TC7300497373017     U02353208  58110001GALLARDO TERESA DEL C    272914262935      M 010115000   07         5  11                0722030048324150483241500079668500483241500562910000097918500464991514001002001000002002001000011000005345014000200000020000280140024000550275045002001000185000003207199000338133588000250000602000531565615000241620773000086000820000120000                                                                                                                                                                                                                                                                                                                                                                                                                                                9163116
TC7300511573017     U02353208  58110001GONZALEZ GABRIELA A R    272451947365      M 010115000   07         5  11                0722030048824400488244000080018600488244000568262600137181600431081017001002001000002002001000011000005345014000200000020000280140023000600300045002001000185000003207199000341634588000250000602000537068615000244122619000060000676000117179678000000500680000292947820000120000                                                                                                                                                                                                                                                                                                                                                                                                            9163607
TC7300513173017     I124665    58110001GONZALEZ MYRIAN DE LAS M 273277620825      M 010115000   07         5  11                0722030050372080503720800139801500503720800643522300098139600545382719001002009900002002009900011000005345014000200000020000281386024000552722045002009900112000556900114000030100185000003207199000352463300000183300588000250000602000554092615000251860619000040000676000116494678000000500925000018450                                                                                                                                                                                                                                                                                                                                                                                    9163623
TC7300525473017     I124665    58110001LLANOS ROMANO MARIA M    273351960615      M 010115000   07         5  11                0722030052205080522050800082384100522050800604434900134997200469437718001002009900002002009900011000005345014000200000020000281386024000552722045002009900185000003207199000365289300000366600588000250000602000574255615000261025659000163065676000116494678000000500820000120000920000114633                                                                                                                                                                                                                                                                                                                                                                                                9165011
TC7300544573017     I124659    58110001QUIROGA SILVIA MABEL     272495019005      M 010115000   07  14560955  11                0722030052475200524752000313553100524752000838305100227167100611138024001002020300002002020300011000005345014000200000020000282842024000555582045002020300112002227600115000082200185000003207199000367179300000368496588000250000602000577227615000262376619000080000659000163875676000117097677000117097678000000500774000025000820000120000904000794400920000014099                                                                                                                                                                                                                                                                                                                        9165266
TC7300557173017     U02353208  58110001SANCHEZ HERRERA PABLO S  203213202025      V 010115000   07         5  11                0722030048324150483241500079668500483241500562910000110328300452581715001002001000002002001000011000005345014000200000020000280140024000550275045002001000185000003207199000338133588000250000602000531565615000241620659000151422920000014075980000164601                                                                                                                                                                                                                                                                                                                                                                                                                                    9165452
TC7300579173017     I124665    58110001ACU¥A GISELA MARISOL     273381660235      M 010115000   07         5  11                0722030029919280299192800073669600299192800372862400080344200292518215001002009900002002009900011000005345014000200000020000281386026000150742199000209351300000549900588000250000592000072000602000329112615000149596676000058609678000000500983000265625                                                                                                                                                                                                                                                                                                                                                                                                                                    9165765
TC7300584373017     I124665    58110001ARGA¥ARAZ ANDREA DEL C   273305455485      M 010115000   07  14453175  11                0722030053121580531215800083025400531215800614241200313966000300275223001002009900002002009900011000005345014000200000020000281386024000552722045002009900185000003207199000371702300000458250588000250000602000584337615000265607632000292875774000025000776000030000807000049500815000049500876000146200904000329907918000152750943000152750983001061234                                                                                                                                                                                                                                                                                                                                    9165846
TC7300624273017     I124659    58110001NU¥EZ CORREA TRINIDAD E. 232630449245      M 010115000   07  14515545  11                0722030049295320492953200080348100492953200573301300095714400477586914001002020300002002020300011000005345014000200000020000282842023000606090045002020300185000003207199000344929588000250000602000542248615000246476659000154336920000014084                                                                                                                                                                                                                                                                                                                                                                                                                                                9211982
TC7300631573017     I124665    58110001PAZ SILVIA ISABEL        272581959875      M 010115000   07  14386315  11                0722030049101780491017800080212700491017800571230500109335600461894916001002009900002002009900011000005345014000200000020000281386026000150742045002009900185000003207199000343575300000458250588000250000602000540119615000245508659000153756857000139900920000014073                                                                                                                                                                                                                                                                                                                                                                                                                        9212103
TC7300636573017     I124665    58110001RODRIGUEZ MIRYAN ANGELICA271815727665      M 010115000   07         5  11                0722030048185280481852800079571400481852800561424200104066500457357715001002009900002002009900011000005345014000200000020000281386026000150742045002009900185000003207199000337162300000366600588000250000602000530038615000240926619000012001691000257700                                                                                                                                                                                                                                                                                                                                                                                                                                    9212207
TC7300656473017     I124665    58110001BRAVO ALEJANDRA DEL C    273285988045      M 010115000   07         6  11                0722030050372080503720800080681900503720800584402700241441100342961640001002009900002002009900011000005345014000200000020000281386024000552722045002009900185000003207199000348267300000183300588000250000602000554092615000251860616000050372619000060001676000116494678000000500754000061228762000025000767000049500774000025000776000030000779000061228792000014000793000020000807000049500815000049500820000061228849000049500864000061228872000061228876000061228892000061228897000061228899000061228905000061228918000061228943000061228947000012072980000322284                                                                                                                        9212471
TC7300662473017     I124665    58110001GOMEZ PATRICIA DEL C     272677474885      M 010115000   07         5  11                0722030048185280481852800139371400481852800621224200139249100481975121001002009900002002009900011000005345014000200000020000281386026000150742045002009900112000556900115000041100185000003207199000337162300000366600588000250000602000530038615000240926619000060000659000151006676000106846678000000500680000289111920000014064                                                                                                                                                                                                                                                                                                                                                            9212552
TC7300668273017     I124665    58110001ARAUJO ORELLANA MARIA V  273231480025      M 010115000   07  14374965  11                0722030053712510537125100142138900537125100679264000192656400486607626001002009900002002009900011000005345014000200000020000281386022000703465045002009900112000556900114000030100185000003207199000375837300000366600588000250000602000590837615000268562619000045002632000218350659000167587676000120112678000000500680000322275774000025000820000120000920000014139925000024600947000009600                                                                                                                                                                                                                                                                                                9212583
TC7300699173017     H124555    58110001ORTE MARIA SOLEDAD DEL V.272890072595      M 010615040   1111       5  11                0722030103772511037725100117932401037725101155657500166035900989621614001002981700002002981700014000200000020000655974021001490850052002981700179000746360185000003207199000726117373001192680375000327987588000250000602001141497615000518862                                                                                                                                                                                                                                                                                                                                                                                                                                                8819007
TC7300783273017     H124571    58110001CORREA BASUALDO CLARA I. 272971654405      M 010417000   05  15197435  11                0722030069895800698958000152928100698958000851886100111833200740052913001002688300002002688300014000200000020000268830021001344150052002688300112000556900114000030100185000003207199000489074588000250000602000768853615000349479                                                                                                                                                                                                                                                                                                                                                                                                                                                            9213153
TC7300841473017     U02353208  58110001CHAVEZ SUAREZ CLAUDIA M  273534434675      M 010417000   05  15461445  11                0722030042021000420210000193758100420210000613968100204991400408976737001002001000002002001000011000005345014000200000020000200100045002001000112001113800114000030100115000041100185000003207199000294029588000250000602000462231615000210105659000132513751000184129773000053263774000025000779000053263790000120000792000014000793000020000807000049500815000049500849000049500857000053263861000053263892000041017893000053263899000053263904000053263905000053263909000053263918000053263920000053263924000053263943000053263                                                                                                                                                            9213876
TC7300875273017     U11786808  58110001GARCIA REINALDO CESAR F  203008848745      V 010417000   05         5  11                0722030049944960499449600080802600499449600580252200131754400448497819001002001000002002001000011000005345014000200000020000200100045002001000185000003207199000349474300000792396588000250000602000549394615000249724619000040000659000156285676000100850678000000500691000066800857000139900920000014091                                                                                                                                                                                                                                                                                                                                                                                    9214091
TC7523437475016     I124665    63110001GOROSITO ROXANA MARIA C  272491864795      M 010813000   08         5  11         3      0722030028842060288420600065715800489410600555126400290996300264130117001002009900002002009900011000005345014000200000020000321584024000552722045002009900199000201813588000250000601002211713602000317262615000144210619000060000659000092976676000069221678000000500920000014081                                                                                                                                                                                                                                                                                                                                                                                                            8822474
TC7528733575016     I124659    63110001SANTILLAN GRACIELA M     273206109535      M 010115000   07         5  11                0722030061627080616270800148776900616270800765047700200379400564668320001002020300002002020300011000005345014000200000020000282842021001010150045002020300112000556900115000041100185000003207199000431217300000829116588000250000602000677897615000308135619000100000680000369762827000029000858000050000938000469000                                                                                                                                                                                                                                                                                                                                                                        9202097
TC7529870575016     I124659    63110001SANTILLAN VIRGINIA N     273469353705      M 010417000   05         5  11                0722030049497350494973500197889400494973500692862900110004500582858418001002020300002002020300011000005345014000200000020000202030022000707105045002020300112001113800114000060200185000003207199000346342588000250000602000544470615000247486619000070001676000118794677000118794678000000500                                                                                                                                                                                                                                                                                                                                                                                                9284744
TC7530371275016     I124647    63110001HERRERA NATALIA          272945339295      M 010821*NO   *N         5  11 A              0722030020277000202770000014508900202770000217278900032443200184835706001002027700045002027700185000003207199000141882602000223047615000101385                                                                                                                                                                                                                                                                                                                                                                                                                                                                                                                                                9296262
TC7530539575016     I124665    63110001GIMENEZ EDGAR E. IVAN    203159613285      V 010417000   05         5  11                0722030049503800495038000080494000495038000575532000090712400484819615001002009900002002009900011000005345014000200000020000200990024000552722045002009900185000003207199000346388300000176868588000250000602000544541615000247519676000114564678000000500                                                                                                                                                                                                                                                                                                                                                                                                                                    9285113
TC7622027376012     H124555    26110001MANSILLA MAIRA           272244149735      M 010813051   1308       6  11                0722030096607080966070800112113800966070801078184600164231900913952714001002981700002002981700014000200000020000775242021001490850052002981700185000003207199000667931373001192680375000238536588000250000602001062677615000483035616000096607                                                                                                                                                                                                                                                                                                                                                                                                                                                8821753
TC7622111476012     H124555    26110001FERNANDEZ ROSMIRO JAVIER 202370577685      M 010813000   0808       5  11                0722030093625380936253800246122200936253801182376000193976200988399819001002981700002002981700014000200000020000477072021001490850052002981700111000178900112001113800114000060200185000003207199000655115373001192680375000238536588000250000602001029879615000468126659000287326857000139900920000014531                                                                                                                                                                                                                                                                                                                                                                                    8821672
TC7622163576116     H124558    26110001TABOADA MUSSI JUAN FELIPE202466219435      V 271114000   07  11141965  11                0722030069994320699943200399667100699943201099610300153987300945623015001002651300002002651300014000200000020000371182021001325650052002651300111000178900112002784500114000090300185000003207199000489764588000250000602000769937615000349971680000419965                                                                                                                                                                                                                                                                                                                                                                                                                                    9156213
TC7622404476012     H124561    26110001TAGLIAVINI CARLOS LUIS   202056412555      V 010113000   0909       5  11                0722030082593090825930900346132700825930901172063600251683000920380617001002981700002002981700014000200000020000536706021001490850052002981700112002227600113000060200114000060200115000082200185000003207199000577920375000268353588000250000602000908523615000412965622001195342                                                                                                                                                                                                                                                                                                                                                                                                            8824875
TC7622638476012     H124557    26110001SIRENA BEARZI NATALIA M  272636894245      M 010113000   09         5  11                0722030075514360755143600448449600755143601203593200120822801082770415001002817700002002817700014000200000020000507186021001408850052002817700112003341400113000030100114000090300115000041100185000003207199000528389588000250000602000830657615000377571                                                                                                                                                                                                                                                                                                                                                                                                                                    8823021
TC7622784376116     H124555    26110001MASSA FORMICA JOSE E     202979334005      V 010615000   0707       5  11                0722030092730870927308700286306300927308701213615000156432801057182217001002981700002002981700014000200000020000417438021001490850052002981700112001670700113000030100114000060200185000003207199000648856373001192680375000208719588000250000602001020039615000463654669000080635                                                                                                                                                                                                                                                                                                                                                                                                            9245182
TC7622858576565     I124665    26110001LEGUIZAMON MARTHA MABEL  271484679065      M 010113000   09         5  11                0722030045323240453232400077568700453232400530801100118451000412350115001002009900002002009900011000005345014000200000020000361782026000150742045002009900185000003207199000317135588000250000602000498555615000226616680000271939691000067400820000120000                                                                                                                                                                                                                                                                                                                                                                                                                                    8824337
TC7623457376116     H124555    26110001SOSA JUAN MANUEL         202630474525      V 010115000   0707       5  11                0722030092730870927308700165896300927308701093205000148369300944835714001002981700002002981700014000200000020000417438021001490850052002981700112000556900185000003207199000648856373001192680375000208719588000250000602001020039615000463654                                                                                                                                                                                                                                                                                                                                                                                                                                                9155434
TC7623503276116     I124665    26110001ACOSTA MARIELA DEL CARMEN273162112975      M 010115000   07  14429425  11                0722030063678670636786700149112400636786700785899100366249200419649934001002009900002002009900011000005345014000200000020000281386024000552722045002009900112000556900114000030100184000689109185000003207199000445572300000824850588000250000602000700465615000318393619000025002624000254707659000197485676000116494678000000500680000382072691000137500774000025000775000025000779000110000809000012000820000120000834000498375855000036000904000351000905000002500920000014224980000335775                                                                                                                                                                                                9158533
TC7623517176596     U02353208  26110001VILLARREAL RAMIRO NICOLAS203374925425      V 010115000   07         5  11                0722030042821400428214000075818100428214000504032100111610000392422113001002001000002002001000011000005345014000200000020000280140045002001000185000003207199000299629588000250000602000471035615000214107691000234200980000196758                                                                                                                                                                                                                                                                                                                                                                                                                                                            9200906
TC7623585476503     U02353208  26110001LEGUIZAMON SANDRA BEATRIZ273247646615      M 010115000   07  14312445  11         1      0722030048324150483241500138368500483241500621610000171367400450242622001002001000002002001000011000005345014000200000020000280140024000550275045002001000112000556900114000030100185000003207199000338133588000250000601000338133602000531565615000241620619000060000676000115978677000115978678000000500809000020000857000139900953000150000                                                                                                                                                                                                                                                                                                                                                9199626
TC7623746176557     H124555    26110001POLTI ANA NAZARENA       272844463005      M 010115000   070711527555  11                0722030092730870927308700110206300927308701037515000148369300889145713001002981700002002981700014000200000020000417438021001490850052002981700185000003207199000648856373001192680375000208719588000250000602001020039615000463654                                                                                                                                                                                                                                                                                                                                                                                                                                                            9200512
TC7623939576012     U02353208  26110001CORONEL CLAUDIA LEONORA  272300070695      M 010115000   07         5  11                0722030038319150383191500072347100383191500455538600086054900369483715001002001000002002001000011000005345014000200000020000280140024000550275167000400200199000268126376000600300588000250000602000421510615000191595676000091966678000000500983000154978                                                                                                                                                                                                                                                                                                                                                                                                                                    9203425
TC7624164376012     U02353208  26110001SUAREZ RENE ALEJANDRO    203285942785      V 010417000   05         5  11                0722030047523750475237500079108500475237500554346000092347400461998615001002001000002002001000011000005345014000200000020000200100024000550275045002001000185000003207199000332533588000250000602000522761615000237618676000114057678000000500839000048538                                                                                                                                                                                                                                                                                                                                                                                                                                    9245313
TC7624189276012     U02353208  26110001BUSTAMANTE NATALIA S     232815552945      M 010417000   05         6  11                0722030026013000260130000085689600260130000345819600086880100258939517001002001000002002001000011000005345014000200000020000200100167000400200199000179851588000250000592000221700602000286143615000130065616000026013619000090001676000062431678000000500680000156078692000117570                                                                                                                                                                                                                                                                                                                                                                                                            9249961
TC7624210276012     U02353208  26110001CACERES PAMELA DE LOS A  273112007505      M 010417000   05         5  11 5       1      0722028035017500350175000105487100375187500480674600180482600300192022001002001000002002001000011000005345014000200000020000200100024000550275112000556900114000030100167000400200199000262526376000600300601000526340602000385192615000175087619000020000659000111502676000084042678000000500680000210105692000158091820000120000920000013967                                                                                                                                                                                                                                                                                                                                                9247672
TC7624421476526     I124675    26110001D`ALESSANDRO CLAUDIA L   233246269645      M 010417000   05         5  11                0722030042207900422079000195982900422079000618061900082241300535820614001002009900002002009900011000005345014000200000020000200990045002009900180001205940185000003207199000295337588000250000602000464286615000211039659000133074920000014014                                                                                                                                                                                                                                                                                                                                                                                                                                                9290892
TC7624423576484     I124675    26110001PEREZ TOLOZA MARIA DE LOS273112010995      M 010417000   05         5  11                0722030042207900422079000195982900422079000618061900113637300504424617001002009900002002009900011000005345014000200000020000200990045002009900180001205940185000003207199000295337588000250000602000464286615000211039619000020001676000101299678000000500680000253248773000086000                                                                                                                                                                                                                                                                                                                                                                                                            9290571
TC7624453176116     I124675    26110001ORELLANA FERNANDA DEL V  273028883595      M 010417000   05         5  11                0722030042207900422079000195982900422079000618061900082241300535820614001002009900002002009900011000005345014000200000020000200990045002009900180001205940185000003207199000295337588000250000602000464286615000211039659000133074920000014014                                                                                                                                                                                                                                                                                                                                                                                                                                                9291172
TC7624501176012     H124561    26110001COCHERI CRISTIAN CLAUDIO 202506426295      V 010417000   050515878725  11                0722030090941850909418500108954500909418501018373000145506900872866113001002981700002002981700014000200000020000298170021001490850052002981700185000003207199000636338373001192680375000149085588000250000602001000360615000454709                                                                                                                                                                                                                                                                                                                                                                                                                                                            9292183
TC7723287277851     I124665    26110001CAMUS CAROLINA DEL VALLE 273082178985      M 010813000   08         5  11                0722030051807060518070600263415600518070600781486200210394400571091829001002009900002002009900011000005345014000200000020000321584045002009900112001670700113000030100114000030100115000082200185000003207199000362504300000839322588000250000602000569877615000259035624000342382659000161871676000104193678000000500754000110000762000025000790000120000832000018000848000035000857000139900864000099000872000090000920000029186                                                                                                                                                                                                                                                            8824063
TC7723567177023     H124558    26110001PEREZ ABDALA MARTIN G    202419831975      V 010813000   08         5  11                0722030070524580705245800112558100705245800817803900112839200704964712001002651300002002651300014000200000020000424208021001325650052002651300111000178900185000003207199000493474588000250000602000775770615000352622                                                                                                                                                                                                                                                                                                                                                                                                                                                                        8822853
TC7723897577023     H124555    26110001RAMIREZ LUIS ARIEL E     202434613415      V 240414034   1108       5  11                0722030102878001028780000117306401028780001146086400322968700823117715001002981700002002981700014000200000020000655974021001490850052002981700179000746360185000003207199000719857373001192680375000238536588000250000602001131658615000514390669001583639                                                                                                                                                                                                                                                                                                                                                                                                                                    9154013
TC7724125377031     H124555    26110001ESPERGUIN OLMOS MARIA J  232533392845      M 010114040   1208       5  11                0722030119864341198643400247692101198643401446335500191782801254552717001002981700002002981700014000200000020000715608021001490850052002981700112001113800114000030100115000041100185000003207199000838714373001192680374002385360375000238536588000250000602001318507615000599321                                                                                                                                                                                                                                                                                                                                                                                                            9152416
TC7724215277023     I124659    26110001GUZMAN JUAREZ ROXANA M   273024124515      M 010114000   08  14065675  11                0722030049699380496993800080630800496993800577624600177178200400446420001002020300002002020300011000005345014000200000020000323248023000606090052002020300185000003207199000347756588000250000602000546693615000248496619000060000659000155548669000069307676000119279678000000500680000298197920000014117986000259645                                                                                                                                                                                                                                                                                                                                                                        9152327
TC7724236477367     H124578    26110001MICHELINI LUCIANO FABIAN 202941178315      V 010115000   07         5  11                0722030079152520791525200340899300791525201132424500147055400985369119001002776900002002776900014000200000020000388766023000833070045002776900111000178900112000556900180001666140185000003207199000553846300001139616588000250000602000870677615000395762619000016000676000162615678000000500830000025000                                                                                                                                                                                                                                                                                                                                                                                    9202863
TC7724347577023     H124555    26110001SANCHEZ OMINETTI MARIA C 272760861175      M 150514000   0808       5  11                0722030093625380936253800110832200936253801047086000149800500897285513001002981700002002981700014000200000020000477072021001490850052002981700185000003207199000655115373001192680375000238536588000250000602001029879615000468126                                                                                                                                                                                                                                                                                                                                                                                                                                                            9156101
TC7724386577023     H124555    26110001BOYANOVSKY SAMANTA C.    272980623275      M 010115000   0707       5  11                0722030092730870927308700165896300927308701093205000201910800891294215001002981700002002981700014000200000020000417438021001490850052002981700112000556900185000003207199000648856373001192680375000208719588000250000602001020039615000463654669000535415                                                                                                                                                                                                                                                                                                                                                                                                                                    9203104
TC7724437477417     I124665    26110001CHAZARRETA NORMA ISABEL  272436051515      M 010417000   05         5  11                0722030058565470585654700086834600585654700672489300118689600553799717001002009900002002009900011000005345014000200000020000200990026000150742045002009900184000689109185000003207199000409794300000795906588000250000602000644220615000292827659000182146669000053524920000014179                                                                                                                                                                                                                                                                                                                                                                                                            9291493
TC7724441377344     I124665    26110001CHAZARRETA GLENDA MARIBEL272972794385      M 010115000   07         5  11                0722030063678670636786700090412400636786700727199100123057200604141916001002009900002002009900011000005345014000200000020000281386024000552722045002009900184000689109185000003207199000445572300000824850588000250000602000700465615000318393659000197485920000014229                                                                                                                                                                                                                                                                                                                                                                                                                        9203224
TC7724476477201     U11786808  26110001CHAVEZ MARIA DE LOS A.   232977043545      M 010115000   07         5  11                0722030044822400448224000137018300448224000585242300220753000364489327001002001000002002001000011000005345014000200000020000280140045002001000112000556900115000041100178000200100185000003207199000313631588000250000602000493046615000224112619000064000624000166013676000107574678000000500691000215400769000025000774000025000775000025000792000014000879000175000892000097500895000207200904000368185                                                                                                                                                                                                                                                                                    9202824
TC7724901577031     H124566    26110001CAVELLO CAROLINA DEL C   272922419125      M 010114000   08         5  11                0722030070524580705245800094668100705245800799913900112839200687074711001002651300002002651300014000200000020000424208021001325650052002651300185000003207199000493474588000250000602000775770615000352622                                                                                                                                                                                                                                                                                                                                                                                                                                                                                    9152254
TC7724931177031     I124665    26110001CORIA LUCIA RAMONA DEL L 273213229785      M 010114000   08         5  11                0722030044921260449212600077287500449212600526500100157809500368690615001002009900002002009900011000005345014000200000020000321584026000150742045002009900185000003207199000314323588000250000602000494133615000224606809000020000857000139900980000699456                                                                                                                                                                                                                                                                                                                                                                                                                                    9152656
TC7725158377023     H124555    26110001GALVEZ ELKIN MARIA S     202722294315070479M10101150000100707       5     5       3      0722000092730870000000000064885600927308700992194300992194300000000009001002981700002002981700020000417438021001490850052002981700199000648856373001192680375000208719601009921943                                                                                                                                                                                                                                                                                                                                                                                                                                                                                                            8830044
TC7725338177023     I124665    26110001ALBARRACIN MARIELA C     273135229095      M 010417000   05  15203445  11                0722030047735120477351200079256400477351200556607600130653300425954319001002009900002002009900011000005345014000200000020000200990024000552722045002009900185000003207199000334012588000250000602000525086615000238675659000149655675000157525676000114564678000000500795000025000920000014069927000081459                                                                                                                                                                                                                                                                                                                                                                                    9247687
TC7726318277344     I124665    26110001ORELLANA GRACIELA A      233116223745      M 010115000   07         5  11                0722030056787580567875800085590600567875800653466400142214700511251720001002009900002002009900011000005345014000200000020000281386024000552722045002009900185000003207199000397354300000824850588000250000602000624663615000283937619000025003659000176812676000116494678000000500774000025000857000139900920000029838                                                                                                                                                                                                                                                                                                                                                                        9154984
TC7726367477023     H124569    26110001I¥IGUEZ TULLI FLAVIA I   272496743175      M 010115000   07         5  11                0722030073624320736243200096837100736243200833080300212001800621078516001002788800002002788800014000200000020000390432021001394400052002788800185000003207199000515164588000250000602000809867615000368121659000227323669000118732680000441745857000139900920000014330                                                                                                                                                                                                                                                                                                                                                                                                                        9203642
TC7726386577031     H124571    26110001MANSILLA SILVINA DEL V   272290980695      M 010114072   15  11552125  11                0722030075272400752724000156690300752724000909414300156616600752797716001002688300002002688300014000200000020000806490021001344150052002688300112000556900114000030100185000003207199000526696588000250000602000827996615000376362676000180654677000180654678000000500                                                                                                                                                                                                                                                                                                                                                                                                                        9151974
TC7726402377367     G124618    26110001MOSCHINI ALEJANDRO RAUL  202381324105      V 010113000   09         5  11                0722030161773861617738600263225101617738601880963700258838101622125615001002617700002002617700014000200000020000471186021001308850050003926550052002617700134001047080156002617700181002617700185000003207199001131964588000250000602001779512615000808869                                                                                                                                                                                                                                                                                                                                                                                                                                    8823334
TC7726437477023     H124555    26110001PERESSIN PAZ GUIDO A     202747555485      V 010115000   0707       5  11 5       1      0722025077275730772757300085206300927308701012515000346464900666050113001002981700002002981700014000200000020000417438021001490850052002981700185000003207199000648856373001192680375000208719601002228238602000850033615000386378                                                                                                                                                                                                                                                                                                                                                                                                                                                            9203681
TC7726447177031     H124566    26110001ALEGRE APRILE GUSTAVO A  203091772675      V 010115000   07         5  11                0722030069994320699943200094297100699943200794240300111990800682249511001002651300002002651300014000200000020000371182021001325650052002651300185000003207199000489764588000250000602000769937615000349971                                                                                                                                                                                                                                                                                                                                                                                                                                                                                    9203971
TC7726472277023     H124558    26110001LOPEZ VIRGINIA NATIVIDAD 242566572405      M 010113000   09         5  11                0722030071054840710548400095039100710548400805587500137587700667999812001002651300002002651300014000200000020000477234021001325650052002651300185000003207199000497184588000250000602000781603615000355274619000239000                                                                                                                                                                                                                                                                                                                                                                                                                                                                        8824434
TC7726486177023     H124560    26110001GALINDEZ MARCELA DEL C   272643885925      M 010614050   13         5  11                0722030089039320890393200225023300890393201115416500156452800958963715001002817700002002817700014000200000020000732602021001408850052002817700112001113800114000060200185000003207199000623026373001127080588000250000602000979432615000445196857000139900                                                                                                                                                                                                                                                                                                                                                                                                                                    9151533
TC7726513477023     H124555    26110001GARCIA TORTOLA MARIA F   273160406465      M 01071303B   1208       5  11                0722030103474341034743400117723701034743401152467100165558800986908314001002981700002002981700014000200000020000715608021001490850052002981700179000746360185000003207199000724030373001192680375000238536588000250000602001138217615000517371                                                                                                                                                                                                                                                                                                                                                                                                                                                9151823
TC7726664377255     U11786808  26110001ARGA¥ARAZ MONICA A       272828854475      M 010417000   05         5  11                0722030050185080501850800199470700501850800701321500154257300547064225001002001000002002001000011000005345014000200000020000200100045002001000112001113800114000030100115000041100178000200100185000003207199000351155300000616308588000250000602000552035615000250925619000074001659000157005669000078469676000105653678000000500820000120000857000139900858000050000920000014085                                                                                                                                                                                                                                                                                                            9290702
TC7726702177023     I124665    26110001VILLALBA SILVIA PATRICIA 271678257755      M 010113000   09  13552535  11                0722030049343040493430400080381500493430400573811900121752300452059617001002009900002002009900011000005345014000200000020000361782024000552722045002009900185000003207199000345263588000250000602000542773615000246715619000040000659000154479676000118423678000000500920000114633                                                                                                                                                                                                                                                                                                                                                                                                            8821045
TC7726714477255     U02353208  26110001BARRIONUEVO MARISA ANDREA232622068745      M 010417000   05  15336546  11                0722030047523750475237500196112600475237500671350100125875100545475021001002001000002002001000011000005345014000200000020000200100024000550275045002001000112001113800114000060200185000003207199000328574588000250000602000522761615000237618616000047523619000094006659000149022669000079197676000114057678000000500920000014067                                                                                                                                                                                                                                                                                                                                                            9290203
TC7726743277255     I124650    26110001CASTILLO BETIANA MARIA   273306179805      M 010417000   05  15572545  11                0722030050166960501669600139658000501669600641327600100576800540750817001002009900002002009900011000005345014000200000020000200990045002009900112000556900114000030100185000003207199000351028300000795906588000250000602000551836615000250834676000101299677000101299678000000500                                                                                                                                                                                                                                                                                                                                                                                                            9289494
TC7726764477835     I124665    26110001ABREGU BLANCA NEOMILDA   271798758325      M 010417000   05  15578655  11                0722030050166960501669600140758000501669600642427600130663700511763918001002009900002002009900011000005345014000200000020000200990045002009900112000556900115000041100185000003207199000351028300000795906588000250000602000551836615000250834619000032000659000156951680000301002920000014014                                                                                                                                                                                                                                                                                                                                                                                                9289706
TC7726791177201     I124665    26110001SANTILLAN SILVIA MARISA  272284421575      M 010113000   09  13640275  11                0722030054363660543636600083894500543636600627531100169170500458360620001002009900002002009900011000005345014000200000020000361782025000200990045002009900185000003207199000380393300000853794588000250000602000598000615000271818619000032000659000169540669000355828676000109982678000000500857000139900920000014137                                                                                                                                                                                                                                                                                                                                                                        8822621
TC7726792477031     H124558    26110001VILLAVICENCIO CLAUDIA R  272095976705      M 010113000   09         6  11                0722030071054840710548400094447300710548400804995700134783100670212613001002651300002002651300014000200000020000477234021001325650052002651300185000003207199000491266588000250000602000781603615000355274616000071054857000139900                                                                                                                                                                                                                                                                                                                                                                                                                                                            8822041
TC7726964177031     U09460620  26110001BOLZON GIMENEZ AGUSTIN F 203091845575      V 010417000   05         5  11                0722030056511000565110000220687000565110000785797000090417600695379415001002173500002002173500011000005345014000200000020000217350021001086750052002173500111000178900112001113800114000060200185000003207199000395418588000250000602000621621615000282555                                                                                                                                                                                                                                                                                                                                                                                                                                    9287603
TC7726965477344     I124665    26110001PALAVECINO BLANCA MARISA 232078700645      M 010813000   08         6  11                0722030053314480533144800082716300533144800615861100245506600370354520001002009900002002009900011000005345014000200000020000321584026000150742045002009900185000003207199000368611300000839322588000250000602000586459615000266572616000053314619000016000659000166393691000375900820000120000857000139900920000730528                                                                                                                                                                                                                                                                                                                                                                        8821111
TC7726974377023     I124647    26110001BRITOS GERMAN A          203266207275      V 010417000   05         5  11                0722030048664800486648000079906900486648000566554900177005500389549417001002027700002002027700011000005345014000200000020000202770023000608310052002027700185000003207199000340517588000250000602000535312615000243324619000080000669000502135676000116796678000000500680000291988                                                                                                                                                                                                                                                                                                                                                                                                            9287402
TC7726995577344     U11786808  26110001MONTOYA GUILLERMO MAXIMO 201673370755      V 010813000   08         5  11                0722030051577560515775600199345000515775600715120600094547200620573417001002001000002002001000011000005345014000200000020000320160045002001000112001113800114000060200185000003207199000360898300000835596588000250000602000567353615000257887619000016000676000103732678000000500                                                                                                                                                                                                                                                                                                                                                                                                            8825654
TC7727002477201     I124665    26110001CORONEL BARBARA FRANCISCA272282725375      M 010417000   05  15603925  11                0722030055694180556941800084825500556941800641767300247587200394180118001002009900002002009900011000005345014000200000020000200990024000552722045002009900185000003207199000389703300000795906588000250000602000612635615000278470659000173532691000177700774000025000904001194386920000014149                                                                                                                                                                                                                                                                                                                                                                                                9287487
TC7727114377835     I124665    26110001ALBORNOZ EDGARDO ANTONIO 203250623995      V 010417000   05         5  11                0722030051674380516743800217302800516743800734046600117178800616867821001002009900002002009900011000005345014000200000020000200990026000150742045002009900111000178900112001113800114000060200185000003207199000361576300000795906588000250000602000568418615000258371619000064000659000161473676000104917678000000500920000014109                                                                                                                                                                                                                                                                                                                                                            9251685
TC7727132177023     U02353208  26110001CARABAJAL VERONICA V     232570942945      M 010417000   05         5  11                0722030047523750475237500079108500475237500554346000129545600424800416001002001000002002001000011000005345014000200000020000200100024000550275045002001000185000003207199000332533588000250000602000522761615000237618659000149022669000062091920000064319986000259645                                                                                                                                                                                                                                                                                                                                                                                                                        9289196
TC7727141577023     H124557    26110001DIOSQUEZ PATRICIA M      272056446825      M 010113000   09  11539215  11                0722030075514360755143600156859600755143600912003200120822800791180413001002817700002002817700014000200000020000507186021001408850052002817700112000556900114000030100185000003207199000528389588000250000602000830657615000377571                                                                                                                                                                                                                                                                                                                                                                                                                                                            8820637
TC7727142377916     U02353208  26110001CORVALAN MALESPINA SANDRA273289617395      M 010417000   05         5  11                0722030047523750475237500137808500475237500613046000107002500506043519001002001000002002001000011000005345014000200000020000200100024000550275045002001000112000556900114000030100185000003207199000332533588000250000602000522761615000237618619000032000659000149022676000114057678000000500920000014067                                                                                                                                                                                                                                                                                                                                                                                    9289092
TC7727196577023     H124555    26110001MENDEZ JENSEN MARIA F    272657099105      M 010115000   0707       5  11                0722030092730870927308700227606300927308701154915000148369301006545715001002981700002002981700014000200000020000417438021001490850052002981700112001113800114000060200185000003207199000648856373001192680375000208719588000250000602001020039615000463654                                                                                                                                                                                                                                                                                                                                                                                                                                    9203495
TC7727198177023     H124555    26110001PAZ POVEDANO VICTOR A    202867747345      V 030515000   0707       5  11                0722030092730870927308700245496300927308701172805000148369301024435716001002981700002002981700014000200000020000417438021001490850052002981700111000178900112001113800114000060200185000003207199000648856373001192680375000208719588000250000602001020039615000463654                                                                                                                                                                                                                                                                                                                                                                                                                        9245104
TC7727266577031     H124558    26110001DIAZ FERNANDEZ ALICIA C  272550162595      M 020615000   07         5  11                0722030069994320699943200094297100699943200794240300111990800682249511001002651300002002651300014000200000020000371182021001325650052002651300185000003207199000489764588000250000602000769937615000349971                                                                                                                                                                                                                                                                                                                                                                                                                                                                                    9246703
TC7727286477023     H124555    26110001LEGUIZAMON MARIA F       232801089445      M 010915050   110612242575  11                0722030094818060948180600167356800948180601115537400151708800963828614001002981700002002981700014000200000020000655974021001490850052002981700112000556900185000003207199000663461373001192680375000178902588000250000602001042998615000474090                                                                                                                                                                                                                                                                                                                                                                                                                                                9246904
TC7727315377023     H124555    26110001MONTENEGRO DANIEL A      203091824225      V 010715000   0606       5  11                0722030091836360918363600165270400918363601083634000146938000936696014001002981700002002981700014000200000020000357804021001490850052002981700112000556900185000003207199000642597373001192680375000178902588000250000602001010199615000459181                                                                                                                                                                                                                                                                                                                                                                                                                                                9246301
TC7727484577023     H124555    26110001ALCORTA ALONSO CONRADO J.202722300065      V 010115000   0707       5  11                0722030092730870927308700110206300927308701037515000148369300889145713001002981700002002981700014000200000020000417438021001490850052002981700185000003207199000648856373001192680375000208719588000250000602001020039615000463654                                                                                                                                                                                                                                                                                                                                                                                                                                                            9203611
TC7727545177023     H124561    26110001HERRERA LEDESMA JIMENA F 273305458745      M 010417000   0505       5  11                0722030090941850909418500108954500909418501018373000145506900872866113001002981700002002981700014000200000020000298170021001490850052002981700185000003207199000636338373001192680375000149085588000250000602001000360615000454709                                                                                                                                                                                                                                                                                                                                                                                                                                                            9294367
TC7727565577897     I124665    26110001LEGUIZAMON MARIANO E     202996943575      V 010417000   05         5  11                0722030051674380516743800082012800516743800598756600152218400446538219001002009900002002009900011000005345014000200000020000200990026000150742045002009900185000003207199000361576300000795906588000250000602000568418615000258371619000063002659000161473676000104917678000000500920000029184980000336319                                                                                                                                                                                                                                                                                                                                                                                    9294665
TC7727567177313     G124616    26110001MARINARI FABIANA M JOSE  272582851535      M 290815000   06         5  11                0722030160203241602032400506246101602032402108278500256325101851953419001002617700002002617700014000200000020000314124021001308850050003926550052002617700112002227600113000060200114000030100115000123300134001047080156002617700181002617700185000003207199001120974588000250000602001762235615000801016                                                                                                                                                                                                                                                                                                                                                                                    9247165
TC7727575277367     U11786808  26110001LANDRIEL MILEVA EDELVEIS 272941176235      M 010417000   05         6  11                0722030051945960519459600141570100519459600661029700144173900516855823001002001000002002001000011000005345014000200000020000200100045002001000112000556900115000041100178000200100185000003207199000359149300000792396588000250000602000571405615000259729616000051945619000032000659000162288669000077607676000105653678000000500691000166500920000014112                                                                                                                                                                                                                                                                                                                                    9294762
TC7727577377367     G124616    26110001AREVALO SHILLINO GASTON  203417370025      V 290816000   05         5  11                0722030120414201204142000234284901204142001438426900192662701245764214001002617700002002617700014000200000020000261770021001308850052002617700134001047080156002617700181002617700185000003207199000842562588000250000602001324556615000602071                                                                                                                                                                                                                                                                                                                                                                                                                                                9247061
TC7727617277313     G124616    26110001MARQUEZ DIAZ VELIA A     271219453935      M 121016000   05         5  11                0722030094237200942372000215968300942372001158340300154994201003346114001002617700002002617700014000200000020000261770021001308850052002617700134001047080156002617700185000003207199000659396588000250000602001036609615000471186669000042147                                                                                                                                                                                                                                                                                                                                                                                                                                                9247865
TC7727625377336     I124675    26110001LAZARTE JUAN CESAR       203305493015      V 010417000   05         5  11                0722030042207900422079000195982900422079000618061900095721300522340615001002009900002002009900011000005345014000200000020000200990045002009900180001205940185000003207199000295337588000250000602000464286615000211039659000133074691000134800920000014014                                                                                                                                                                                                                                                                                                                                                                                                                                    9295363
TC7727635577201     I124650    26110001MALDONADO MARIA MARLENE  273227711725      M 010417000   05         5  11                0722030042207900422079000075388900422079000497467900082241300415226613001002009900002002009900011000005345014000200000020000200990045002009900185000003207199000295337588000250000602000464286615000211039659000133074920000014014                                                                                                                                                                                                                                                                                                                                                                                                                                                            9295467
TC7727665177851     U11786808  26110001LEGUIZAMON MARIA CESARINA271752330465      M 010417000   05         5  11                0722030042021000420210000135058100420210000555268100081894000473374115001002001000002002001000011000005345014000200000020000200100045002001000112000556900115000041100185000003207199000294029588000250000602000462231615000210105659000132513920000014091                                                                                                                                                                                                                                                                                                                                                                                                                                    9295966
TC7728040177344     I124665    26110001CONTRERAS CLAUDIA BEATRIZ272270525175      M 010115000   07         5  11                0722030056787580567875800085590600567875800653466400150235600503230819001002009900002002009900011000005345014000200000020000281386024000552722045002009900185000003207199000397354300000824850588000250000602000624663615000283937619000080000659000176812676000116494678000000500920000014160983000205790                                                                                                                                                                                                                                                                                                                                                                                    9157015
TC7728050377023     I124665    26110001CONTRERAS GRACIELA T     272808623505      M 010115000   07         5  11                0722030048539080485390800079818900485390800565209700106785800458423913001002009900002002009900011000005345014000200000020000281386024000552722045002009900185000003207199000339637588000250000602000533929615000242695680000291234                                                                                                                                                                                                                                                                                                                                                                                                                                                            9157112
TC7728090177255     I124665    26110001CORDOBA ALICIA DEL C     272277647625      M 010115000   07         5  11                0722030049427360494273600080440500494273600574714100199314600375399521001002009900002002009900011000005345014000200000020000281386045002009900185000003207199000345853300000641550588000250000602000543700615000247136619000154001659000154732676000103228677000103228678000000500680000296563774000025000904000351000920000014058                                                                                                                                                                                                                                                                                                                                                            9157611
TC7728127477031     U11786808  26110001VELEZ RITA ANGELICA V    272427755095      M 010115000   07  14324876  11                0722030048324150483241500134956000483241500618197500249508300368689223001002001000002002001000011000005345014000200000020000280140024000550275045002001000112000556900185000003207199000334108588000250000602000531565615000241620616000048324619000093100659000151422676000115978678000000500680000289945820000120000920000029151923000182933983000690545                                                                                                                                                                                                                                                                                                                                    9155747
TC7728140277023     I124665    26110001CORIA NOEMI DE LOS A     272960472905      M 010115000   07         5  11                0722030048539080485390800198318900485390800683709700158859000524850720001002009900002002009900011000005345014000200000020000281386024000552722045002009900112001113800114000030100115000041100185000003207199000339637588000250000602000533929615000242695659000152067669000054586680000291234920000014079938000300000                                                                                                                                                                                                                                                                                                                                                                        9157224
TC7728193177031     H124555    26110001ARCE CANTERO ANDREA V.   272530191025      M 010115000   070714463525  11                0722030092730870927308700165896300927308701093205000175869300917335715001002981700002002981700014000200000020000417438021001490850052002981700112000556900185000003207199000648856373001192680375000208719588000250000602001020039615000463654632000275000                                                                                                                                                                                                                                                                                                                                                                                                                                    9207431
TC7728213177344     I124665    26110001CARABAJAL GRACIELA A.    272653581315      M 010115000   07         5  11                0722030056787580567875800085590600567875800653466400238396400415070025001002009900002002009900011000005345014000200000020000281386024000552722045002009900185000003207199000397354300000824850588000250000602000624663615000283937659000176812669000041619766000013000774000025000776000030000807000049500815000049500896000023700904000576451918000192250920000105282943000192250                                                                                                                                                                                                                                                                                                            9207937
TC7728216577174     H124557    26110001ORELLANA GALLIANO IRMA N 272471236155      M 010115000   07         5  11                0722030127923581279235800193531301279235801472767100245187101227580017001002817700002002817700014000200000020000394478021001408850050004226550052002817700112000556900114000030100185000003207199000895106373001127080588000250000602001407159615000639617659000390220920000014875                                                                                                                                                                                                                                                                                                                                                                                                            9199843
TC7728221277031     U02353208  26110001GOMEZ NATALIA DE LOS A   272747511725      M 010115000   07  14407657  11                0722030048324150483241500309843500483241500793085000138190300654894717001002001000002002001000011000005345014000200000020000280140024000550275045002001000112002227600115000082200185000003207199000330083588000250000602000531565615000241620616000096648680000289945980000222125                                                                                                                                                                                                                                                                                                                                                                                                            9201523
TC7728223377344     I124665    26110001CASTILLO SILVIA CAROLINA 273254792785      M 010115000   07         5  11                0722030056787580567875800202990600567875800770866400182776800588089628001002009900002002009900011000005345014000200000020000281386024000552722045002009900112001113800114000060200185000003207199000397354300000824850588000250000602000624663615000283937619000069002659000176812676000116494678000000500691000109400764000149900766000013000774000025000775000025000776000030000783000050000857000139900920000014160                                                                                                                                                                                                                                                                        9208032
TC7728225477201     I124665    26110001HERRERA LOURDES DELMIRA  272744849565      M 010115000   07         6  11                0722030056787580567875800144917500567875800712793300208670600504122721001002009900002002009900011000005345014000200000020000281386024000552722045002009900112000556900115000041100185000003207199000392623300000824850588000250000602000624663615000283937616000056787659000176812691000151000774000025000904000685000920000083507                                                                                                                                                                                                                                                                                                                                                            9156244
TC7728287277897     G124616    26110001TAPIA VILLA JUAN ELADIO  203172927095      V 010115000   07         5  11                0722030160726781607267800280382401607267801887650200307546301580103918001002617700002002617700014000200000020000366478021001308850050003926550052002617700111000178900134001047080156002617700181002617700185000003207199001124637588000250000602001767994615000803633659000488631920000015205                                                                                                                                                                                                                                                                                                                                                                                                9207415
TC7728303577344     H124569    26110001AGUERO RITA DE LOS A.    273116226125      M 010115000   07         5  11                0722030068046720680467200152734300680467200833201500139245800693955716001002788800002002788800014000200000020000390432023000836640052002788800112000556900115000041100185000003207199000476136588000250000602000748513615000340233676000163312678000000500857000139900                                                                                                                                                                                                                                                                                                                                                                                                                        9207044
TC7728313277023     I124665    26110001AGUILAR LLANCAO JOSE R   239304041795      V 010115000   07         5  11                0722030048539080485390800079818900485390800565209700094282400470927314001002009900002002009900011000005345014000200000020000281386024000552722045002009900185000003207199000339637588000250000602000533929615000242695659000152067920000014133                                                                                                                                                                                                                                                                                                                                                                                                                                                9207141
