38000131       3816100874060098   5512002001LLANOS,MARGARITA NANCY   517066586       180904193 523170665864M    R           D             0524030 03654657000559934003654657003654657004214591065783800003556753045210036546570000522000559934000060200047510500006150001827330000
38000173       3824209687060098   5512002001CARABAJAL NORMA GRACIELA 525276017       170108163 527252760178M    R           D             0524030 0352786400000000000352786400352786400352786406350150000289284903521003527864000060200045862200006150001763930000
38000262       3816100592060098  15512002001RODRIGUEZ,SILVIA NOEMI   525470711       150611123 627254707118M    R           D             0524030 028938980003502580028938980028938980032441560549841000026943150552100289389800005220003502580000602000376207000061500014469500006160000289390000
38000275       3824209134060098  15512002001TORRES ROSALIA VERONICA  527283990       150811123 527272839900M    R           D             0524030 02893898000350258002893898002893898003244156052090200002723254045210028938980000522000350258000060200037620700006150001446950000
38000534       3819204187060098   5512002001RUIZ,GRACIELA MABEL      525837711       110504193 527258377112M    R           D             0524030 03401070000332458003401070003401070003733528061219300003121335045210034010700000522000332458000060200044213900006150001700540000
38000555       3825710605060098   5512002001SEQUEIRA LILIANA DEL VALL530318111       140112123 523303181113M    R           D             0524030 03908243000577255003908243003908243004485498070348400003782014045210039082430000522000577255000060200050807200006150001954120000
38000631       3819204214060098   5512002001VARGAS,SILVIA SUSANA     521039406       280392323 627210394066M    R           D             0524030 033232430003671000033232430033232430036903430631416000030589270552100332324300005220003671000000602000432022000061500016616200006160000332320000
38000665       3825711721060098   5512002001CORONEL,SUSANA ELIZABETH 527392181       250603203 527273921813M    R           D             0524030 03401672000332458003401672003401672003734130061230100003121829045210034016720000522000332458000060200044221700006150001700840000
38000801       3861309134060098   5512002001VALDEZ JOSE RAMON        528724181       281013103 520287241810V    R           D             0524030 02767104000289154002767104002767104003056258049807900002558179045210027671040000522000289154000060200035972400006150001383550000
38000843       3825710161060098   5512002001ORELLANA SONIA MERCEDES  529613183       290812113 527296131836M    R           D             0524030 03781450000568594003781450003781450004350044068066200003669382045210037814500000522000568594000060200049158900006150001890730000
38001132       3826550057060098   5512002001JAIMES,CLAUDIA NATALI    532685653       020513103 527326856539M    R           D             0524030 02767104000499308002767104002767104003266412049807900002768333045210027671040000522000499308000060200035972400006150001383550000
38001433       3818402045060098   5512002001VILLALBA,EVA EDIT        523017815       180413113 527230178157M    R           D             0524030 02767104000289154002767104002767104003056258049807900002558179045210027671040000522000289154000060200035972400006150001383550000
38001491       3824209207060070   5512001001CARRIZO PATRICIA ALEJANDR529276385       170613103 527292763854M    R           D             0524030 04512087000618501004512087004512087005130588081217500004318413045210045120870000522000618501000060200058657100006150002256040000
38001543       3825723022060098   5512002001NAVARRO MONICA VALERIA   531081528       191212113 523310815284M    R           D             0524030 02767104000499308002767104002767104003266412049807900002768333045210027671040000522000499308000060200035972400006150001383550000
38001645       3825723022060098   5512002001RODRIGUEZ CRISTIAN ANTONI527608059       261212113 520276080599V    R           D             0524030 02767104000289154002767104002767104003056258049807900002558179045210027671040000522000289154000060200035972400006150001383550000
38001695       3824209134060098   5512002001MICHEL ELIANA BEATRIZ    534263660       210513103 527342636603M    R           D             0524030 02767104000499308002767104002767104003266412049807900002768333045210027671040000522000499308000060200035972400006150001383550000
38001844       3822607642060098  15512002001ROMANI MARIA DE LOS ANGEL532438689       181212113 527324386896M    R           D             0524030 02767104000350258002767104002767104003117362049807900002619283045210027671040000522000350258000060200035972400006150001383550000
38001904       3861309826060098   5512002001JAIME SONIA ELIZABETH    532054053       291013103 523320540534M    R           D             0524030 02767104000499308002767104002767104003266412049807900002768333045210027671040000522000499308000060200035972400006150001383550000
38001962       3856303822060098   5512002001VALDIVIA,ROSA CECILIA    531337001       150811123 527313370017M    R           D             0524030 03908243000577255003908243003908243004485498070348400003782014045210039082430000522000577255000060200050807200006150001954120000
38002052       3862112086060098   5512002001VILLALBA IBANA MARIEL    534353129       020513103 527343531295M    R           D             0524030 03781450000568594003781450003781450004350044068066200003669382045210037814500000522000568594000060200049158900006150001890730000
38002264       3819204075060098   5512002001ESPINOLA,MARIA LUJAN     533063163       120811123 527330631630M    R           D             0524030 02893898000297815002893898002893898003191713052090200002670811045210028938980000522000297815000060200037620700006150001446950000
38002293       3824209625060098   5512002001ANASTACIA CARINA MARGARIT526423942       190613103 527264239422M    R           D             0524030 03274277000323797003274277003274277003598074058937000003008704045210032742770000522000323797000060200042565600006150001637140000
38002361       3816100592060098  15512002001SUAREZ,PAMELA SOLEDAD    529453597       150811123 527294535972M    R           D             0524030 02893898000350258002893898002893898003244156052090200002723254045210028938980000522000350258000060200037620700006150001446950000
38002374       3861309583060098   5512002001PINERO CONSOLACION       518252891       230707163 527182528914M    R           D             0524030 04035036000585916004035036004035036004620952072630700003894645045210040350360000522000585916000060200052455500006150002017520000
38002531       3855502327060098   5512002001HOYOS,RITA ALEJANDRA     528744453       010909143 527287444538M    R           D             0524030 03147484000315136003147484003147484003462620056654700002896073045210031474840000522000315136000060200040917300006150001573740000
38002581       3824209714060098   5512002001CABRERA ROBERTA GRACIELA 526909074       031212113 527269090745M    R           D             0524030 03020691000306475003020691003020691003327166054372500002783441045210030206910000522000306475000060200039269000006150001510350000
38002604       3824209826060098   5512002001MEDINA SILVANA LUCRECIA  529123872       011213103 527291238721M    R           D             0524030 02767104000499308002767104002767104003266412049807900002768333045210027671040000522000499308000060200035972400006150001383550000
38002735       3816100827060098   5512002001GUTIERREZ,ANGELA ADRIANA 528944156       301110133 527289441560M    R           D             0524030 03147484000525290003147484003147484003672774056654700003106227045210031474840000522000525290000060200040917300006150001573740000
38002743       3862110621060098   5512002001VILLALBA PABLO ALBERTO   533207764       190411133 520332077644V    R           D             0524030 03147484000525290003147484003147484003672774056654700003106227045210031474840000522000525290000060200040917300006150001573740000
38003045       3825710853060098   5512002001GALVAN ADRIANA AMANDA    521879949       120197273 527218799499M    R           D             0524030 03654657000349779003654657003654657004004436065783800003346598045210036546570000522000349779000060200047510500006150001827330000
38003184       3824209714060098   5512002001CORDOBA MICAELA MAGALI   532108839       201212113 527321088398M    R           D             0524030 03020691000306475003020691003020691003327166054372500002783441045210030206910000522000306475000060200039269000006150001510350000
38003354       3862113035060098   5512002001IBANEZ NOELIA ROSA BEATRI533207731       300213113 527332077312M    R           D             0524030 02767104000499308002767104002767104003266412049807900002768333045210027671040000522000499308000060200035972400006150001383550000
38003684       3856303501060098   5512002001GONZALEZ,NESTOR FABIAN   528143755       051011123 520281437551V    R           D             0524030 03147484000315136003147484003147484003462620056654700002896073045210031474840000522000315136000060200040917300006150001573740000
38004062       3853200715060098   5512002001GOMEZ,VANESS RAFAELA     530773063       190911123 523307730634M    R           D             0524030 03147484000525290003147484003147484003672774056654700003106227045210031474840000522000525290000060200040917300006150001573740000
38004211       3835407746060098  15512002001VILLALOBOS EMMA TERESITA 525992439       290607163 527259924397M    R           D             0524030 03020701000350258003020701003020701003370959054372600002827233045210030207010000522000350258000060200039269100006150001510350000
38004224       3859408146060098   5512002001FUENTES SANDRA MABENL    522177071       181111123 523221770714M    R           D             0524030 02893898000507969002893898002893898003401867052090200002880965045210028938980000522000507969000060200037620700006150001446950000
38004261       3817601502060098   5512002001HERNANDEZ DOMINGUEZ MARIA526636125       120909143 523266361254M    R           D             0524030 02893898000299702002893898002893898003193600052090200002672698045210028938980000522000299702000060200037620700006150001446950000
38004334       3822607506060098   5512002001ARANDA BLANCA ISABEL     526220719       070711123 527262207191M    R           D             0524030 02893898000297815002893898002893898003191713052090200002670811045210028938980000522000297815000060200037620700006150001446950000
38004384       3822608274060098   5512002001RODRIGUEZ LILIA SUSANA   523625834       280905183 627236258349M    R           D             0524030 034010700003324580034010700034010700037335280646204000030873240552100340107000005220003324580000602000442139000061500017005400006160000340110000
38004465       3821106774060098  15512002001PALADEA YANINA ELIZABETH 531417663       180611123 523314176634M    R           D             0524030 02893898000140103002893898002893898003034001052090200002513099045210028938980000522000140103000060200037620700006150001446950000
38004562       3817601452060098   5512002001RAMIREZ KARINA           529236397       090508153 523292363974M    R           D             0524030 03274277000533951003274277003274277003808228058937000003218858045210032742770000522000533951000060200042565600006150001637140000
38004855       3859408316060098   5512002001SALTO VALERIA RUFINA     534310417       191212113 527343104176M    R           D             0524030 03020691000516630003020691003020691003537321054372500002993596045210030206910000522000516630000060200039269000006150001510350000
38004965       3817601637060098  15512002001YTURRE XIMENA SOLEDAD    526094885       090505183 527260948852M    R           D             0524030 03654657000140103003654657003654657003794760065783800003136922045210036546570000522000140103000060200047510500006150001827330000
38005055       3822608371060098   5512002001LEGUIZAMON LAURA VANESA  530318083       050712113 523303180834M    R           D             0524030 03020691000516630003020691003020691003537321054372500002993596045210030206910000522000516630000060200039269000006150001510350000
38005102       3859407634060098  15512002001VISGARRA MARCELA VANESA  531141165       060511123 527311411654M    R           D             0524030 02893898000140103002893898002893898003034001052090200002513099045210028938980000522000140103000060200037620700006150001446950000
38005453       3859407707060098   5512002001CORVALAN ANA MARIA       517675394       240900233 627176753949M    R           D             0524030 040351600003757610040351600040351600044109210766681000036442400552100403516000005220003757610000602000524571000061500020175800006160000403520000
38005885       3822607843060098   5512002001AVILA CESAR DAVID        516310625       251091323 520163106257V    R           D             0524030 03069657000349779003069657003069657003419436055253800002866898045210030696570000522000349779000060200039905500006150001534830000
38006213       3822607611060098   5512002001JUAREZ DEVORA GRACIELA   527037680       150811123 627270376806M    R           D             0524030 028938980002978150028938980028938980031917130549841000026418720552100289389800005220002978150000602000376207000061500014469500006160000289390000
38006234       3822607657060098   5512002001SORIA LIDIA ADRIANA      530443014       260610133 627304430147M    R           D             0524030 028938980002978150028938980028938980031917130549841000026418720552100289389800005220002978150000602000376207000061500014469500006160000289390000
38006734       3859407882060098   5512002001ALVAREZ MARIA ALEJANNDRA 520153929       290111133 527201539299M    R           D             0524030 03401070000542612003401070003401070003943682061219300003331489045210034010700000522000542612000060200044213900006150001700540000
38006852       3822607731060098   5512002001LEGUIZAMON ELDA SILVINA  527793894       020605183 523277938944M    R           D             0524030 03401070000542612003401070003401070003943682061219300003331489045210034010700000522000542612000060200044213900006150001700540000
38006873       3822607522060098   5512002001SUAREZ DEBORA FABIANA    526890392       111209143 527268903920M    R           D             0524030 03147484000525290003147484003147484003672774056654700003106227045210031474840000522000525290000060200040917300006150001573740000
38007104       3835407754060098   5512002001LAFFON NOELIA LUCIANA    526789841       140605183 527267898419M    R           D             0524030 03401672000332458003401672003401672003734130061230100003121829045210034016720000522000332458000060200044221700006150001700840000
38007175       3822608034060098   5512002001BRAVO MARIA SOLEDAD      526396771       251111123 527263967718M    R           D             0524030 02893898000297815002893898002893898003191713052090200002670811045210028938980000522000297815000060200037620700006150001446950000
38007633       3822607642060098   5512002001GOMEZ CLAUDIA ANALIA     534168982       120712113 527341689827M    R           D             0524030 02767104000499308002767104002767104003266412049807900002768333045210027671040000522000499308000060200035972400006150001383550000
38007751       3859408146060098   5512002001CORTES VALERIA ALEJANDRA 533627112       120711123 627336271121M    R           D             0524030 028938980005079690028938980028938980034018670549841000028520260552100289389800005220005079690000602000376207000061500014469500006160000289390000
38007772       3822607897060070   5512002001CEJAS JUAN JOSE          525382884       240604193 520253828847V    R           D             0524030 05471793000684055005471793005471793006155848098492300005170925045210054717930000522000684055000060200071133300006150002735900000
38007992       3822607506060098   5512002001VELARDEZ CLAUDIA PATRICIA520916694       080707163 527209166947M    R           D             0524030 03020691000306475003020691003020691003327166054372500002783441045210030206910000522000306475000060200039269000006150001510350000
38008024       3835407642060098  15512002001JUGO GUILLERMO ARIEL     524233512       250811123 520242335121V    R           D             0524030 02893898000140103002893898002893898003034001052090200002513099045210028938980000522000140103000060200037620700006150001446950000
38008354       3822608316060098   5512002001CORTEZ MARIA CONCEPCION  517655797       100413123 523176557974M    R           D             0524030 02867278000506151002867278002867278003373429051611000002857319045210028672780000522000506151000060200037274600006150001433640000
38008451       3822608653060098   5512002001ZABALA ALBERTO FERNANDO  528400654       260604193 520284006543V    R           D             0524030 04161830000594576004161830004161830004756406074913000004007276045210041618300000522000594576000060200054103800006150002080920000
38008503       3822608413060098   5512002001LANDRIEL SILVIA NOEMI    522425899       070711123 527224258998M    R           D             0524030 03908243000577255003908243003908243004485498070348400003782014045210039082430000522000577255000060200050807200006150001954120000
38008621       3822608107060098   5512002001PEREZ MIRIAM MARCELA     522299784       100804193 523222997844M    R           D             0524030 03655258000559934003655258003655258004215192065794700003557245045210036552580000522000559934000060200047518400006150001827630000
38008702       3822607707060098  15512002001CORVALAN CLAUDIA DOLORES 526351806       140605183 527263518069M    R           D             0524030 03654657000140103003654657003654657003794760065783800003136922045210036546570000522000140103000060200047510500006150001827330000
38008773       3822607611060098   5512001001MENA MARIANA MARIEL      528754719       210512113 627287547191M    R           D             0524030 027671040002891540027671040027671040030562580525750000025305080552100276710400005220002891540000602000359724000061500013835500006160000276710000
38008841       3820305024060098   5512002001ESCALADA ARIEL GUSTAVO   527903926       240506173 520279039263V    R           D             0524030 03655258000559934003655258003655258004215192065794700003557245045210036552580000522000559934000060200047518400006150001827630000
38009033       3822607657060098   5512002001PEREZ EMILIA MERCEDES    529785643       010614113 727297856435M    R           D             0524030 027671040002891540027671040027671040030562580553421000025028370552100276710400005220002891540000602000359724000061500013835500006160000553420000
38009193       3859407673060098   5512002001BARRERA CORINA MARGARITA 531753631       140613103 527317536319M    R           D             0524030 03781450000568594003781450003781450004350044068066200003669382045210037814500000522000568594000060200049158900006150001890730000
38009452       3859408065060098   5512002001CORDOBA MARTA DEL V.     522197948       181108153 627221979481M    R           D             0524030 040356380003757610040356380040356380044113990766771000036446280552100403563800005220003757610000602000524633000061500020178200006160000403560000
38009494       3822607634060098   5512002001GONZALEZ NOELIA VANESA   533385128       231212113 527333851283M    R           D             0524030 02767104000499308002767104002767104003266412049807900002768333045210027671040000522000499308000060200035972400006150001383550000
38009504       3822607827060098   5512002001TOLEDO CARLOS FERNANDO   529930838       120811123 520299308384V    R           D             0524030 03908243000367100003908243003908243004275343070348400003571859045210039082430000522000367100000060200050807200006150001954120000
38009525       3822608556060098   5512002001CAMPOS CLAUDIO HERNAN    532506648       270512113 520325066483V    R           D             0524030 03781450000568594003781450003781450004350044068066200003669382045210037814500000522000568594000060200049158900006150001890730000
38009745       3859407576060098  15512002001NAVARRO CINTHIA ROXANA   531988987       031212113 627319889871M    R           D             0524030 037814500001401030037814500037814500039215530718477000032030760552100378145000005220001401030000602000491589000061500018907300006160000378150000
38009753       3822607715060070   5512002001LEDESMA ALEJANDRA DEL V. 523450999       180413113 527234509999M    R           D             0524030 05663734000697166005663734005663734006360900101947200005341428045210056637340000522000697166000060200073628500006150002831870000
38009805       3822607634060098   5512002001ZERDA IVANA NATALI       531976998       250411133 527319769981M    R           D             0524030 02893898000507969002893898002893898003401867052090200002880965045210028938980000522000507969000060200037620700006150001446950000
38009902       3835407634060098  15512002001BARRIONUEVO CECILIA C.   526368157       160110143 727263681571M    R           D             0524030 028938980001401030028938980028938980030340010578780000024552210552100289389800005220001401030000602000376207000061500014469500006160000578780000
38009923       3822607642060098  15512002001BELTRAN JOSE AUGUSTO     529103417       080612113 623291034179V    R           D             0524030 027671040003502580027671040027671040031173620525750000025916120552100276710400005220003502580000602000359724000061500013835500006160000276710000
38010115       3859408096060070   5512002001LEGUIZAMON LORENA PAOLA  530538652       161210133 527305386524M    R           D             0524030 05855675000710276005855675005855675006565951105402200005511929045210058556750000522000710276000060200076123800006150002927840000
38010212       3859407963060098   5512002001SALTO ROSANA MARILU      524696377       051011123 527246963776M    R           D             0524030 03401070000542612003401070003401070003943682061219300003331489045210034010700000522000542612000060200044213900006150001700540000
38010225       3859407545060098   5512002001PECCI CARLA GISELA       533629156       150612113 527336291564M    R           D             0524030 02767104000289154002767104002767104003056258049807900002558179045210027671040000522000289154000060200035972400006150001383550000
38010521       3822607553060098   5512002001BUTARELLI MONICA A.      527686497       020405193 627276864977M    R           D             0524030 036546570003497790036546570036546570040044360694385000033100510552100365465700005220003497790000602000475105000061500018273300006160000365470000
38010814       3835408243060098   5512002001GARNICA MARCELA ELIZABETH520732380       071011123 527207323808M    R           D             0524030 02893898000297815002893898002893898003191713052090200002670811045210028938980000522000297815000060200037620700006150001446950000
38011205       3822607611060098   5512002001DIAZ SILVIA ELIZABETH    523584077       150811123 623235840774M    R           D             0524030 028938980002978150028938980028938980031917130549841000026418720552100289389800005220002978150000602000376207000061500014469500006160000289390000
38011331       3859407611060098   5512002001ALBARRACIN MARIA ELENA   531391973       041011123 627313919736M    R           D             0524030 028938980002978150028938980028938980031917130549841000026418720552100289389800005220002978150000602000376207000061500014469500006160000289390000
38011611       3822607746060098   5512002001RUIZ ARMINDA CLEMENTINA  521340174       040394303 527213401748M    R           D             0524030 03654657000083947003654657003654657003738604065783800003080766045210036546570000522000083947000060200047510500006150001827330000
38105994       3817601096060070   5512002001SANDEZ JOSE DOMINGO      516404742       230984393 620164047424V    R           D             0524030 070073210007889410070073210070073210077962621331391000064648710552100700732100005220007889410000602000910952000061500035036600006160000700730000
38107522       3833104493060070   5512002001ZERDA GERARDO RAUL       516656733       080683403 620166567336V    R           D             0524030 062395570007364980062395570062395570069760551185516000057905390552100623955700005220007364980000602000811142000061500031197800006160000623960000
38109545       3831503095060070   5512002001PALMAS JULIO LORENZO     516884776       180485393 623168847769V    R           D             0524030 070073210007889410070073210070073210077962621331391000064648710552100700732100005220007889410000602000910952000061500035036600006160000700730000
38111602       3837708773060070  15512002001LEDESMA MOISES APOLINAR  516442670       010285393 520164426700V    R           D             0524030 07007321000133098007007321007007321007140419126131800005879101045210070073210000522000133098000060200091095200006150003503660000
38113612       3829600522060070   5512002001SANTILLAN ZOILO ENRIQUE  516842940       270886373 720168429402V    R           D             0524030 070073210007889410070073210070073210077962621401464000063947980552100700732100005220007889410000602000910952000061500035036600006160001401460000
38113654       3824209753060070   5512002001MORALES VICTOR LIBERATO  517072914       140886373 620170729146V    R           D             0524030 070073210007889410070073210070073210077962621331391000064648710552100700732100005220007889410000602000910952000061500035036600006160000700730000
38113722       3824209873060070   5512001001RIVERO HUGO OSVALDO      516614750       150385393 620166147507V    R           D             0524030 062395570007364980062395570062395570069760551185516000057905390552100623955700005220007364980000602000811142000061500031197800006160000623960000
38117501       3838510764060064   5512002001MANSILLA WALTER FERNANDO 517028814       110386383 523170288149V    R           D             0524030 06612231000761954006612231006612231007374185119020200006183983045210066122310000522000761954000060200085959000006150003306120000
38118463       3838512086060070   5512002001MAGUNA RAUL EULOGIO      514814752       030484403 520148147524V    R           D             0524030 05471793000684055005471793005471793006155848098492300005170925045210054717930000522000684055000060200071133300006150002735900000
38119773       3838510273060047   5512002001LEGUIZAMON WALTER CEFERIN514985104       180287373 620149851047V    R           D             0524030 061947240005232810061947240061947240067180051176997000055410080552100619472400005220005232810000602000805314000061500030973600006160000619470000
38120842       3819203756060098   5512002001SPLANGUNO CLAUDIA DEL R. 518157179       011087363 527181571794M    R           D             0524030 03908484000367100003908484003908484004275584070352700003572057045210039084840000522000367100000060200050810300006150001954240000
38122593       3817601177060070   5512002001JUAREZ SEGUNDO MARIO     516820666       061087363 520168206667V    R           D             0524030 06239557000736498006239557006239557006976055112312000005852935045210062395570000522000736498000060200081114200006150003119780000
38122941       3829600681060064   5512002001PAJON HECTOR ORLANDO     517779283       240987363 520177792838V    R           D             0524030 06612231000551799006612231006612231007164030119020200005973828045210066122310000522000551799000060200085959000006150003306120000
38123471       3819204005060070   5512002001VILLALBA PEDRO ENRIQUE   516885016       070586373 520168850167V    R           D             0524030 07007321000788941007007321007007321007796262126131800006534944045210070073210000522000788941000060200091095200006150003503660000
38125591       3832304214060047   5512002001JIMENEZ MARIA REMBERTO   516280370       110587363 520162803701V    R           D             0524030 06638851000553617006638851006638851007192468119499400005997474045210066388510000522000553617000060200086305100006150003319430000
38125855       3820306027060098   5512002001VILLAGRAN JOSE OMAR      517966808       061087363 520179668085V    R           D             0524030 04669002000629219004669002004669002005298221084042000004457801045210046690020000522000629219000060200060697000006150002334500000
38126903       3833105361060070   5512002001REVAINERA CARLOS A       518479541       120588353 520184795419V    R           D             0524030 07007321000578786007007321007007321007586107126131800006324789045210070073210000522000578786000060200091095200006150003503660000
38128971       3830701444060070   5512002001SABALZA LUIS MARCELO     521343923       270888353 520213439236V    R           D             0524030 05855675000710276005855675005855675006565951105402200005511929045210058556750000522000710276000060200076123800006150002927840000
38133735       3824209826060079   5512001001SORIA WALTER ROGER       514214718       170182423 620142147182V    R           D             0524030 054381680004716040054381680054381680059097721033252000048765200552100543816800005220004716040000602000706962000061500027190800006160000543820000
38134032       3820305585060070   5512002001QUIROGA OMAR OVIDIO      520156187       300389353 520201561877V    R           D             0524030 07007321000788941007007321007007321007796262126131800006534944045210070073210000522000788941000060200091095200006150003503660000
38134223       3821107201060070   5512002001CUELLAR ERASMO DELIVANO  518515014       170588353 520185150144V    R           D             0524030 07007321000788941007007321007007321007796262126131800006534944045210070073210000522000788941000060200091095200006150003503660000
38136843       3833105136060070   5512002001ARGANARAZ VICTOR OMAR    516002765       170389353 520160027658V    R           D             0524030 07007321000788941007007321007007321007796262126131800006534944045210070073210000522000788941000060200091095200006150003503660000
38137195       3820306074060098   5512002001SORIA LUIS OMAR          516526621       280689343 620165266219V    R           D             0524030 036548970003497790036548970036548970040046760694431000033102450552100365489700005220003497790000602000475137000061500018274500006160000365490000
38138785       3825711906060098   5512002001RODRIGUEZ RAMON ROSA     517675352       210390343 520176753529V    R           D             0524030 04669002000629219004669002004669002005298221084042000004457801045210046690020000522000629219000060200060697000006150002334500000
38140091       3830701355060079   5512002001LLINAS VALERIA           518520948       120189353 527185209488M    R           D             0524030 05819248000707788005819248005819248006527036104746400005479572045210058192480000522000707788000060200075650200006150002909620000
38140923       3834607305060070   5512002001SAYAGO MIRIHAM ELIZABETH 517033819       230388363 527170338192M    R           D             0524030 06239557000526343006239557006239557006765900112312000005642780045210062395570000522000526343000060200081114200006150003119780000
38141181       3832304164060070   5512002001BASUALDO,REYNA CRISTINA  518550961       090588353 527185509619M    R           D             0524030 05855675000710276005855675005855675006565951105402200005511929045210058556750000522000710276000060200076123800006150002927840000
38141335       3838510717060064   5512002001GUZMAN PATRICIA LILIA    518300384       070590333 523183003844     R           D             0524030 06201729000733914006201729006201729006935643111631100005819332045210062017290000522000733914000060200080622500006150003100860000
38141644       3835407576060047  15512002001LOPEZ VICTOR MARCELO     516467943       210286383 520164679439V    R           D             0524030 07971230000053239007971230007971230008024469143482200006589647045210079712300000522000053239000060200103626000006150003985620000
38141791       3855502014060079  15512002001OZAN ANTONIO RITO        516910422       140587363 520169104221V    R           D             0524030 054384060001401030054384060054384060055785091223641000043548680552100543840600005220001401030000602000706993000061500027192000006650002447280000
38142763       3835407955060070   5512002001LEIVA ESTELA IBA#EZ DE   517164999       010690333 523171649994M    R           D             0524030 07007321000788941007007321007007321007796262126131800006534944045210070073210000522000788941000060200091095200006150003503660000
38142852       3837709401060064   5512001001MALDONADO NILDA          520220412       090590333 527202204126M    R           D             0524030 05791228000495720005791228005791228006286948104242100005244527045210057912280000522000495720000060200075286000006150002895610000
38142954       3838510226060064   5512002001LUKES HAYDA SUSANA       520604527       110590333 527206045278M    R           D             0524030 07433235000818033007433235007433235008251268133798300006913285045210074332350000522000818033000060200096632100006150003716620000
38143154       3861308815060070   5512002001HERNANDEZ CARLOS MARCIAL 517139851       030888353 520171398518V    R           D             0524030 05855675000710276005855675005855675006565951105402200005511929045210058556750000522000710276000060200076123800006150002927840000
38144032       3822608421060070   5512002001SANTILLAN GLORIA ELENA   518495290       040588353 623184952904M    R           D             0524030 070073210007889410070073210070073210077962621331391000064648710552100700732100005220007889410000602000910952000061500035036600006160000700730000
38144231       3833105794060070   5512002001SANCHEZ REYES ANTONIO    516442696       030489353 620164426964V    R           D             0524030 070073210007889410070073210070073210077962621331391000064648710552100700732100005220007889410000602000910952000061500035036600006160000700730000
38144391       3835407553060064  15512002001ROLDAN ANA SERAFINA      521002629       010690333 527210026296M    R           D             0524030 06612231000350258006612231006612231006962489119020200005772287045210066122310000522000350258000060200085959000006150003306120000
38145295       3838511616060064   5512002001INIGUEZ NORMA DIAZ DE    517840321       110790333 623178403214     R           D             0524030 062017290007339140062017290062017290069356431178328000057573150552100620172900005220007339140000602000806225000061500031008600006160000620170000
38145392       3833104895060070   5512002001NAZAR RAUL RENE          518542714       240487373 720185427146V    R           D             0524030 070073210005787860070073210070073210075861071401464000061846430552100700732100005220005787860000602000910952000061500035036600006160001401460000
38145635       3824209985060070  15512002001GRIGUELI CLAUDIA M.P.DE  518262180       210689343 627182621809M    R           D             0524030 0700732100035025800700732100700732100735757916467200000571085906521007007321000052200035025800006020009109520000615000350366000061600007007300006650003153290000
38145724       3833105256060070  15512002001MALDONADO SARA NOEMI     517563882       180888353 627175638828M    R           D             0524030 058556750002767040058556750058556750061323791112579000050198000552100585567500005220002767040000602000761238000061500029278400006160000585570000
38145745       3833106027060064   5512002001TORREZ LILIANA DEL VALLE 518090722       210189353 527180907225M    R           D             0524030 07433235000818033007433235007433235008251268133798300006913285045210074332350000522000818033000060200096632100006150003716620000
38146534       3818402494060098   5512002001TOTO MARIELA ALEJANDRA   521342371       120390343 627213423717M    R           D             0524030 046690020006292190046690020046690020052982210887110000044111110552100466900200005220006292190000602000606970000061500023345000006160000466900000
38147983       3858606735060079   5512002001JIMENEZ ROSSANA ADRIANA  521609456       160590333 727216094560M    R           D             0524030 054386900004716040054386900054386900059102941087739000048225550552100543869000005220004716040000602000707030000061500027193500006160001087740000
38148175       3856304214060079   5512002001SAYAGO JORGE A           516620043       180887363 720166200432V    R           D             0524030 058192480007077880058192480058192480065270361163849000053631870552100581924800005220007077880000602000756502000061500029096200006160001163850000
38148405       3818402753060070   5512002001ENCALADA ROXANA DEL V    521725640       020591323 727217256408M    R           D             0524030 070073210007889410070073210070073210077962621401464000063947980552100700732100005220007889410000602000910952000061500035036600006160001401460000
38148413       3837709896060070   5512001001VERON GLADYS BEATRIZ     520153669       160189353 727201536699M    R           D             0524030 070073210007889410070073210070073210077962621401464000063947980552100700732100005220007889410000602000910952000061500035036600006160001401460000
38148471       3816100793060098   5512002001BEDU ADRIANA BEATRIZ     528139077       080491333 627281390770M    R           D             0524030 036551700003497790036551700036551700040049490694483000033104660552100365517000005220003497790000602000475172000061500018275900006160000365520000
38148675       3832303822060070   5512002001PALACIOS ADALBERTO       517991464       130489353 620179914647V    R           D             0524030 070073210007889410070073210070073210077962621331391000064648710552100700732100005220007889410000602000910952000061500035036600006160000700730000
38149451       3821107313060098  15512002001SNEIDENIT MARIA ESTHER   521342963       090590333 624213429635M    R           D             0524030 036546570001401030036546570036546570037947600694385000031003750552100365465700005220001401030000602000475105000061500018273300006160000365470000
38149511       3817601606060098  15512002001JIMENEZ MARIA ELENA      520152367       230491333 527201523678M    R           D             0524030 03654815000350258003654815003654815004005073065786700003347206045210036548150000522000350258000060200047512600006150001827410000
38149841       3822607707060098   5512002001OLIVERA VICTORIA DEL C   521179315       150491333 527211793150M    R           D             0524030 04161830000384422004161830004161830004546252074913000003797122045210041618300000522000384422000060200054103800006150002080920000
38150122       3835407916060070   5512002001BAEZ RENE WILFREDO       518254085       260390343 520182540855V    R           D             0524030 07007321000788941007007321007007321007796262126131800006534944045210070073210000522000788941000060200091095200006150003503660000
38150253       3825711253060070   5512002001GALVAN ALBERTO DEL VALLE 517731477       190790333 520177314774V    R           D             0524030 07007321000788941007007321007007321007796262126131800006534944045210070073210000522000788941000060200091095200006150003503660000
38150342       3854701692060079   5512002001SALTO DANIELA LILIANA    520544236       170689343 727205442362M    R           D             0524030 054384060004716040054384060054384060059100101087681000048223290552100543840600005220004716040000602000706993000061500027192000006160001087680000
38151254       3829600715060047   5512002001CHAZARRETA EDITH GRACIELA524175438       280390343 527241754389M    R           D             0524030 06638851000763772006638851006638851007402623119499400006207629045210066388510000522000763772000060200086305100006150003319430000
38151453       3832303756060079   5512002001SANCHEZ SILVIA E         520152362       240487373 827201523627M    R           D             0524030 054381680004716040054381680054381680059097721142015000047677570552100543816800005220004716040000602000706962000061500027190800006160001631450000
38152043       3816100746060070   5512002001SUAREZ RAMON ANGEL       520154684       011091343 520201546843V    R           D             0524030 07007321000788941007007321007007321007796262126131800006534944045210070073210000522000788941000060200091095200006150003503660000
38152051       3825710996060098   5512002001RODRIGUEZ ISOLINA DEL V  520898091       061191323 627208980918M    R           D             0524030 0365469100033827300365469100365469100399296408588530000313411106521003654691000052200033827300006020004751100000615000182735000061600003654700006650001644610000
38152844       3817600986060070   5512002001ACUNA MERCEDES BENITO    518041015       190491333 520180410156V    R           D             0524030 05855675000710276005855675005855675006565951105402200005511929045210058556750000522000710276000060200076123800006150002927840000
38153044       3818402811060098   5512002001INIGO VIVIANA ALEJANDRA  521339530       211090333 527213395306M    R           D             0524030 03655170000349779003655170003655170004004949065793100003347018045210036551700000522000349779000060200047517200006150001827590000
38153785       3821106921060070   5512002001JUAREZ DELIVANO MIGUEL A 521786355       090492323 520217863555V    R           D             0524030 07007321000788941007007321007007321007796262126131800006534944045210070073210000522000788941000060200091095200006150003503660000
38154273       3821107286060098   5512002001ARROYO VICTOR HUGO       517042785       150492323 820170427859V    R           D             0524030 039082430003671000039082430039082430042753430820731000034546120552100390824300005220003671000000602000508072000061500019541200006160001172470000
38154532       3822607657060098   5512002001JIMENEZ HECTOR JESUS     514637020       090583403 523146370209V    R           D             0524030 03654657000349779003654657003654657004004436065783800003346598045210036546570000522000349779000060200047510500006150001827330000
38154553       3835408556060070   5512002001CARO HECTOR RODOLFO      521709081       280492323 720217090815V    R           D             0524030 070073210007889410070073210070073210077962621401464000063947980552100700732100005220007889410000602000910952000061500035036600006160001401460000
38154663       3820304462060098   5512002001OCARANZA NORMA LIZ       518089927       280988353 627180899273M    R           D             0524030 036546570003497790036546570036546570040044360694385000033100510552100365465700005220003497790000602000475105000061500018273300006160000365470000
38154993       3817601622060070   5512002001ROJAS RAINERIO MARIA     518102412       210492323 520181024128V    R           D             0524030 06239557000526343006239557006239557006765900112312000005642780045210062395570000522000526343000060200081114200006150003119780000
38155033       3838511357060070   5512002001BARON LELI M FERREYRA DE 517782969       230791323 727177829698M    R           D             0524030 070073210007889410070073210070073210077962621401464000063947980552100700732100005220007889410000602000910952000061500035036600006160001401460000
38155091       3816100506060070   5512002001ALTAMIRANDA CARLOS A     517511837       160190343 620175118374V    R           D             0524030 070073210007889410070073210070073210077962621331391000064648710552100700732100005220007889410000602000910952000061500035036600006160000700730000
38155274       3824209134060079  15512002001GUERRA CLAUDIA LILIANA   517782993       211188353 527177829930M    R           D             0524030 05438168000140103005438168005438168005578271097887000004599401045210054381680000522000140103000060200070696200006150002719080000
38155813       3822608003060098   5512002001FLAMENCO ANDREA O DE     530590609       010291333 727305906099M    R           D             0524030 039084840003671000039084840039084840042755840781697000034938870552100390848400005220003671000000602000508103000061500019542400006160000781700000
38156084       3821106712060070   5512002001ARIAS RAMON ABELARDO     516638302       050490343 720166383022V    R           D             0524030 070073210005787860070073210070073210075861071401464000061846430552100700732100005220005787860000602000910952000061500035036600006160001401460000
38156351       3820305496060070   5512002001ABREGU VICTOR EDUARDO    520153459       110590333 620201534594V    R           D             0524030 070073210007889410070073210070073210077962621331391000064648710552100700732100005220007889410000602000910952000061500035036600006160000700730000
38156445       3825710675060064   5512002001LEGUIZAMON LUIS JORGE    518101313       150592313 520181013134V    R           D             0524030 06612231000761954006612231006612231007374185119020200006183983045210066122310000522000761954000060200085959000006150003306120000
38156885       3822607611060098  15512002001PUCHETA CLAUDIA MABEL    518310821       160590333 527183108218M    R           D             0524030 0365517000000000000365517000365517000365517006579310000299723903521003655170000060200047517200006150001827590000
38157022       3821106801060098   5512002001SANCHEZ ARTURO ROQUE     516885169       200487373 520168851694V    R           D             0524030 041618300005811690041618300041618300047429990936412000038065870552100416183000005220005811690000602000541038000061500020809200006650001872820000
38157221       3831503296060070   5512002001BARRAZA ELISA VICTORIA   527293236       120891323 527272932366M    R           D             0524030 06239557000736498006239557006239557006976055112312000005852935045210062395570000522000736498000060200081114200006150003119780000
38157284       3818402053060070   5512002001COMAN GREGORIA DEL V     517724700       131188353 527177247001M    R           D             0524030 07007321000788941007007321007007321007796262126131800006534944045210070073210000522000788941000060200091095200006150003503660000
38157535       3820305337060098   5512002001ROCABADO MIRIAN TREJO DE 521044323       120491333 627210443237M    R           D             0524030 041618300005945760041618300041618300047564060790748000039656580552100416183000005220005945760000602000541038000061500020809200006160000416180000
38157962       3818402312060098  15512002001GRAMAJO CRISTINA C DE    520151106       020890333 527201511068M    R           D             0524030 03655170000140103003655170003655170003795273065793100003137342045210036551700000522000140103000060200047517200006150001827590000
38157975       3818402873060070   5512002001CUELLAR JOSE LUCIANO     520578142       150491333 720205781421V    R           D             0524030 070073210007889410070073210070073210077962621401464000063947980552100700732100005220007889410000602000910952000061500035036600006160001401460000
38157983       3817601885060098   5512002001PALOMINO NANCY M PEREYRA 521342759       240791323 527213427593M    R           D             0524030 03908482000367100003908482003908482004275582070352700003572055045210039084820000522000367100000060200050810300006150001954240000
38160952       3824209931060064  15512002001GALVAN DANIEL ALBERTO    520672867       260389353 720206728672V    R           D             0524030 074332350003502580074332350074332350077834931486648000062968450552100743323500005220003502580000602000966321000061500037166200006160001486650000
38162124       3825712167060098   5512002001FRIAS FRANCISCO DANIEL   517908956       210189353 520179089565V    R           D             0524030 03654657000349779003654657003654657004004436065783800003346598045210036546570000522000349779000060200047510500006150001827330000
38189231       3837708854060064   5512002001PALOMO PEDRO FELIX       516715672       061189343 520167156720V    R           D             0524030 066122310007393610066122310066122310073515921487752000058638400552100661223100005220007393610000602000859590000061500033061200006650002975500000
38189422       3833104655060070  15512002001RAMIREZ SUSANA           520589816       230492323 527205898161M    R           D             0524030 07007321000350258007007321007007321007357579126131800006096261045210070073210000522000350258000060200091095200006150003503660000
38189914       3822607746060098   5512002001NERVO MIRIAM MABEL       518514651       240990333 527185146516M    R           D             0524030 03655170000349779003655170003655170004004949065793100003347018045210036551700000522000349779000060200047517200006150001827590000
38190473       3835407681060070   5512002001CHAPARRO MIGUEL R        516212951       251088353 520162129512V    R           D             0524030 07007321000788941007007321007007321007796262126131800006534944045210070073210000522000788941000060200091095200006150003503660000
38191005       3815300271060098   5512002001SAYAGO ZULEMA            520910510       080693303 527209105107M    R           D             0524030 03655258000349779003655258003655258004005037065794700003347090045210036552580000522000349779000060200047518400006150001827630000
38195601       3817601904060070   5512002001SERRANO JOSE E           521910096       050992313 520219100966V    R           D             0524030 07007321000788941007007321007007321007796262126131800006534944045210070073210000522000788941000060200091095200006150003503660000
38196314       3819203981060098   5512002001MESSINA MYRIAM E         517840410       160491333 527178404100M    R           D             0524030 03654657000349779003654657003654657004004436065783800003346598045210036546570000522000349779000060200047510500006150001827330000
38200883       3819203981060098  15512002001DIAZ AIDA MARGARITA      517840685       080693303 527178406855M    R           D             0524030 03654657000140103003654657003654657003794760065783800003136922045210036546570000522000140103000060200047510500006150001827330000
38203593       3824209401060098  15512002001GRAMAJO ELIDA ROSA       521669591       030693303 627216695912M    R           D             0524030 039084820001401030039084820039084820040485850742612000033059730552100390848200005220001401030000602000508103000061500019542400006160000390850000
38205901       3862110621060098   5512002001GALVAN ROXANA R          522415102       121291323 727224151026M    R           D             0524030 039082560005772550039082560039082560044855110781651000037038600552100390825600005220005772550000602000508073000061500019541300006160000781650000
38208072       3824209931060098   5512002001TREZAMI FELIX LUCIO      517322531       200190343 520173225319V    R           D             0524030 046690020006139100046690020046690020052829121050525000042323870552100466900200005220006139100000602000606970000061500023345000006650002101050000
38208394       3820304423060098   5512002001PROKOP MARGARITA Y       520551134       291290333 727205511348M    R           D             0524030 041618300003844220041618300041618300045462520832367000037138850552100416183000005220003844220000602000541038000061500020809200006160000832370000
38208763       3825711616060098   5512002001MUNOZ SILVIA SOSA DE     517677491       290291333 727176774911M    R           D             0524030 041618300003844220041618300041618300045462520832367000037138850552100416183000005220003844220000602000541038000061500020809200006160000832370000
38209073       3828100271060047   5512002001JIMENEZ MARCIA ZULEMA    518157487       030491333 527181574874M    R           D             0524030 06194724000523281006194724006194724006718005111505000005602955045210061947240000522000523281000060200080531400006150003097360000
38209133       3825712144060098   5512002001MORENO ADELMA ISABEL     522722734       150891323 627227227341M    R           D             0524030 036552580003497790036552580036552580040050370694500000033105370552100365525800005220003497790000602000475184000061500018276300006160000365530000
38209175       3817601131060070   5512002001OYARZABAL FRANCISCO DAVID521631180       161189343 623216311809     R           D             0524030 070073210005787860070073210070073210075861071331391000062547160552100700732100005220005787860000602000910952000061500035036600006160000700730000
38209183       3838510733060064   5512002001SANTILLAN OSCAR ALBERTO  517183964       170989343 520171839646V    R           D             0524030 06201729000733914006201729006201729006935643111631100005819332045210062017290000522000733914000060200080622500006150003100860000
38209191       3832304102060070   5512002001JIMENEZ JUAN MARTIN      520170731       110491333 620201707316V    R           D             0524030 062395570007364980062395570062395570069760551185516000057905390552100623955700005220007364980000602000811142000061500031197800006160000623960000
38209455       3819203474060070   5512002001CORIA REGINA MALDONADO   520170658       040491333 527201706586M    R           D             0524030 07007321000788941007007321007007321007796262126131800006534944045210070073210000522000788941000060200091095200006150003503660000
38209683       3838511906060098   5512002001FRIAZ RENE HUMBERTO      517675412       200392323 520176754126V    R           D             0524030 04669002000419065004669002004669002005088067084042000004247647045210046690020000522000419065000060200060697000006150002334500000
38209971       3820306116060070   5512002001PEREZ MIRTA GRACIELA     520686081       100393313 627206860818M    R           D             0524030 070073210007889410070073210070073210077962621331391000064648710552100700732100005220007889410000602000910952000061500035036600006160000700730000
38210215       3838511937060070   5512002001PALAVECINO VICTOR ABEL   520153449       090693303 520201534497V    R           D             0524030 07007321000788941007007321007007321007796262126131800006534944045210070073210000522000788941000060200091095200006150003503660000
38210223       3825712314060070   5512002001RODRIGUEZ GLADYS NOEMI   521678014       160392323 627216780146M    R           D             0524030 070073210007889410070073210070073210077962621331391000064648710552100700732100005220007889410000602000910952000061500035036600006160000700730000
38210325       3815300255060098   5512002001JIMENEZ JUAN CARLOS DEL V516561329       010688353 620165613296V    R           D             0524030 0466924100040375600466924100466924100507299710972710000397572606521004669241000052200040375600006020006070010000615000233462000061600004669200006650002101160000
38210485       3825712295060070   5512002001SUAREZ EDGARDO           516884844       210488363 520168848448V    R           D             0524030 07007321000788941007007321007007321007796262126131800006534944045210070073210000522000788941000060200091095200006150003503660000
38210493       3825712191060098   5512002001JUAREZ CLAUDIA MAGALI    523048319       020693303 527230483197M    R           D             0524030 03655258000349779003655258003655258004005037065794700003347090045210036552580000522000349779000060200047518400006150001827630000
38210671       3859407777060079   5512002001JUAREZ MERI MARCELA      520563976       210392323 823205639764M    R           D             0524030 062003280007338180062003280062003280069341461302069000056320770552100620032800005220007338180000602000806043000061500031001600006160001860100000
38210825       3817601073060070  15512002001GALVAN JULIO CESAR       520333722       280188363 620203337222V    R           D             0524030 066234390003502580066234390066234390069736971258453000057152440552100662343900005220003502580000602000861047000061500033117200006160000662340000
38211465       3837709157060064   5512001001SOSA FELIX SEGUNDO       516858026       220486383 520168580267V    R           D             0524030 07433235000607879007433235007433235008041114133798300006703131045210074332350000522000607879000060200096632100006150003716620000
38211525       3819204075060098   5512002001IBANEZ DAVID RUBEN       521139431       020391333 620211394316V    R           D             0524030 036551700003497790036551700036551700040049490694483000033104660552100365517000005220003497790000602000475172000061500018275900006160000365520000
38211533       3820306027060098   5512002001VALDIVIA VICTOR MARCELINO516524885       231290333 520165248857V    R           D             0524030 04669002000629219004669002004669002005298221084042000004457801045210046690020000522000629219000060200060697000006150002334500000
38211575       3832304075060079  15512002001LEDESMA SILVINA YANEL    522440551       041092313 527224405516M    R           D             0524030 05438168000350258005438168005438168005788426097887000004809556045210054381680000522000350258000060200070696200006150002719080000
38211774       3818403234060070   5512002001SANTOS MILTON ELIAS      521547878       250192323 520215478786V    R           D             0524030 07007321000788941007007321007007321007796262126131800006534944045210070073210000522000788941000060200091095200006150003503660000
38211813       3817601274060079   5512002001PEREZ YOLANDA NORALY     520519475       040191333 623205194754M    R           D             0524030 054381680004716040054381680054381680059097721033252000048765200552100543816800005220004716040000602000706962000061500027190800006160000543820000
38211994       3819204075060098   5512002001SERRANO,MYRIAM DE JESUS  520151225       100588353 527201512250M    R           D             0524030 03654895000349779003654895003654895004004674065788100003346793045210036548950000522000349779000060200047513600006150001827450000
38212092       3822607777060098   5512002001IBARRA SONIA ELIZABETH   524074872       260192323 527240748725M    R           D             0524030 04161830000594576004161830004161830004756406074913000004007276045210041618300000522000594576000060200054103800006150002080920000
38212131       3826550042060092  15512002001VILLARREAL MARIELA A.    521748897       100492323 523217488974M    R           D             0524030 03655258000140103003655258003655258003795361065794700003137414045210036552580000522000140103000060200047518400006150001827630000
38212165       3822608676060098   5512002001CREMONA MARIA DE LOS A   518614002       030693303 527186140023M    R           D             0524030 03908256000577255003908256003908256004485511070348600003782025045210039082560000522000577255000060200050807300006150001954130000
38212173       3835408676060047   5512002001VALOR SANDRA LILIANA     520594805       210291333 727205948053M    R           D             0524030 066388510007637720066388510066388510074026231327771000060748520552100663885100005220007637720000602000863051000061500033194300006160001327770000
38212322       3835407592060070   5512002001ORELLANA NELIDA AZUCENA  521974010       300692313 727219740102M    R           D             0524030 070073210007889410070073210070073210077962621401464000063947980552100700732100005220007889410000602000910952000061500035036600006160001401460000
38212335       3837709857060064   5512002001NAVARRO NILDA SERRANO DE 517467987       180890333 527174679873M    R           D             0524030 07433235000607879007433235007433235008041114133798300006703131045210074332350000522000607879000060200096632100006150003716620000
38212385       3838511953060070   5512002001SOSA FERREYRA OSVALDO    520153622       211091323 520201536228V    R           D             0524030 07007321000578786007007321007007321007586107126131800006324789045210070073210000522000578786000060200091095200006150003503660000
38212393       3825710362060098   5512002001JUAREZ SAUL ALFREDO      517514236       040693303 520175142364V    R           D             0524030 04388796000610080004388796004388796004998876078998300004208893045210043887960000522000610080000060200057054300006150002194400000
38212432       3825711721060098   5512002001PEZZINI MONICA DEL V R   518603699       130588353 527186036994M    R           D             0524030 03654657000349779003654657003654657004004436065783800003346598045210036546570000522000349779000060200047510500006150001827330000
38212445       3838512306060070   5512002001ALBORNOZ MONICA RAMONA   523973877       120991323 527239738775M    R           D             0524030 07007321000578786007007321007007321007586107126131800006324789045210070073210000522000578786000060200091095200006150003503660000
38213085       3825712167060098   5512002001ACOSTA RITA L            520153022       010592323 527201530224M    R           D             0524030 03654706000349779003654706003654706004004485065784700003346638045210036547060000522000349779000060200047511200006150001827350000
38213205       3838511864060070   5512002001LANDRIEL REINA N         521344802       260392323 627213448027M    R           D             0524030 070073210007889410070073210070073210077962621331391000064648710552100700732100005220007889410000602000910952000061500035036600006160000700730000
38213221       3838511713060070   5512002001LEGUIZAMON NESTOR M      522104701       291191323 520221047010V    R           D             0524030 07007321000788941007007321007007321007796262126131800006534944045210070073210000522000788941000060200091095200006150003503660000
38213263       3822607576060098  15512002001RISSO PATRON IMELDA DEL C518611893       240591323 627186118931M    R           D             0524030 046690020003502580046690020046690020050192600887110000041321500552100466900200005220003502580000602000606970000061500023345000006160000466900000
38213394       3838511721060047   5512002001SALTO MARIO D            517890938       070191333 520178909380V    R           D             0524030 06194724000733435006194724006194724006928159111505000005813109045210061947240000522000733435000060200080531400006150003097360000
38213404       3825711752060070   5512002001MALDONADO JOSEFA DEL V   518429793       190392323 527184297936M    R           D             0524030 07007321000578786007007321007007321007586107126131800006324789045210070073210000522000578786000060200091095200006150003503660000
38213412       3825710996060098   5512002001CHAVEZ NORMA A           522547222       220693303 527225472225M    R           D             0524030 03655258000349779003655258003655258004005037065794700003347090045210036552580000522000349779000060200047518400006150001827630000
38213425       3825711632060070   5512002001NUNEZ BEATRIZ DEL V      520334725       201192313 527203347257M    R           D             0524030 07007321000788941007007321007007321007796262126131800006534944045210070073210000522000788941000060200091095200006150003503660000
38213705       3839350057060047   5512002001ALMARAZ ESTHER DEL VALLE 518102497       080693303 527181024971M    R           D             0524030 06194724000523281006194724006194724006718005111505000005602955045210061947240000522000523281000060200080531400006150003097360000
38213865       3825710996060098   5512002001PERALTA REINA VIVIANA    522250618       220693303 627222506188M    R           D             0524030 036552580003497790036552580036552580040050370694500000033105370552100365525800005220003497790000602000475184000061500018276300006160000365530000
38213881       3830701394060064   5512002001SANTILLAN TELMA ROXANA   521910148       260892313 627219101487M    R           D             0524030 066122310007619540066122310066122310073741851256324000061178610552100661223100005220007619540000602000859590000061500033061200006160000661220000
38214023       3824209134060098   5512002001CHAVEZ MARIA I A DE      517502454       071286373 527175024544M    R           D             0524030 03654670000349779003654670003654670004004449065784100003346608045210036546700000522000349779000060200047510700006150001827340000
38214031       3824209134060098   5512002001MARRON FRANKLIN MARCELO  516620015       010987363 520166200157V    R           D             0524030 03654657000349779003654657003654657004004436065783800003346598045210036546570000522000349779000060200047510500006150001827330000
38214094       3825711856060070   5512002001CUELLAR RAUL OSCAR       517966829       070492323 520179668298V    R           D             0524030 07007321000788941007007321007007321007796262126131800006534944045210070073210000522000788941000060200091095200006150003503660000
38214434       3821106221060070   5512002001DIAZ MARIANA GRACIELA    521679050       030493313 527216790508M    R           D             0524030 07007321000788941007007321007007321007796262126131800006534944045210070073210000522000788941000060200091095200006150003503660000
38214565       3832303482060070   5512002001CASTANO ROQUE A          523621778       131091323 520236217788V    R           D             0524030 07007321000788941007007321007007321007796262126131800006534944045210070073210000522000788941000060200091095200006150003503660000
38214654       3825710621060098   5512002001IBARRA SILVIA B          522415131       070793303 523224151314M    R           D             0524030 03908256000577255003908256003908256004485511070348600003782025045210039082560000522000577255000060200050807300006150001954130000
38214743       3822607611060098   5512002001LUNA ELDA JUAREZ DE      518318794       121188353 627183187940M    R           D             0524030 036552580003497790036552580036552580040050370694500000033105370552100365525800005220003497790000602000475184000061500018276300006160000365530000
38215142       3825711736060098   5512002001CASTANO MERCEDES E       522618158       020693303 527226181585M    R           D             0524030 05683949000698505005683949005683949006382454102311000005359344045210056839490000522000698505000060200073891300006150002841970000
38215163       3822607611060098   5512002001TORRES MARCELO DEL V     517215302       130987363 520172153020V    R           D             0524030 03654895000349779003654895003654895004004674065788100003346793045210036548950000522000349779000060200047513600006150001827450000
38215192       3824209857060098   5512002001LUNA GABRIELA DEL V      522941117       070193313 627229411174M    R           D             0524030 046690020004190650046690020046690020050880670887110000042009570552100466900200005220004190650000602000606970000061500023345000006160000466900000
38215294       3817601703060098   5512002001SIERRA MARIA INES        521894340       180693303 527218943409M    R           D             0524030 04669002000629219004669002004669002005298221084042000004457801045210046690020000522000629219000060200060697000006150002334500000
38215304       3824209714060098   5512002001ALDERETE MONICA D B DE   520155634       180990333 527201556347M    R           D             0524030 03908243000367100003908243003908243004275343070348400003571859045210039082430000522000367100000060200050807200006150001954120000
38215341       3817601123060070   5512002001ZABALA ANIBAL OSVALDO    521342296       210892313 620213422961V    R           D             0524030 062395570007364980062395570062395570069760551185516000057905390552100623955700005220007364980000602000811142000061500031197800006160000623960000
38215532       3824208711060098  15512002001GONZALEZ REINA A         518154871       300192323 527181548717M    R           D             0524030 03655258000140103003655258003655258003795361065794700003137414045210036552580000522000140103000060200047518400006150001827630000
38215794       3825711237060098  15512002001SUAREZ ORLANDO DEL V     518376824       060588353 520183768248V    R           D             0524030 04669002000350258004669002004669002005019260084042000004178840045210046690020000522000350258000060200060697000006150002334500000
38215833       3821107487060098   5512002001BARRIENTOS GRACIELA      522422185       150492323 627224221857M    R           D             0524030 039084820003671000039084820039084820042755820742612000035329700552100390848200005220003671000000602000508103000061500019542400006160000390850000
38215862       3837710056060070   5512002001ROMERO LILI Z            523164030       150693303 523231640304M    R           D             0524030 07007321000788941007007321007007321007796262126131800006534944045210070073210000522000788941000060200091095200006150003503660000
38216224       3835408011060070   5512002001FARIAS JOSE LUIS         521562862       180492323 520215628621V    R           D             0524030 06239570000736498006239570006239570006976068112312300005852945045210062395700000522000736498000060200081114400006150003119790000
38216342       3824210095060098   5512002001CRUZ SULMA YOLANDA       518400385       110192323 727184003851M    R           D             0524030 041624310003844220041624310041624310045468530832487000037143660552100416243100005220003844220000602000541116000061500020812200006160000832490000
38216745       3857104462060079   5512002001CUEVA GARCIELA DEL VALLE 522440060       010793303 627224400603M    R           D             0524030 054387690004716040054387690054387690059103731033366000048770070552100543876900005220004716040000602000707040000061500027193800006160000543880000
38216774       3818402881060070   5512001001BRAVO ELMINA DE JESUS    521342256       220491333 527213422567M    R           D             0524030 07007321000788941007007321007007321007796262126131800006534944045210070073210000522000788941000060200091095200006150003503660000
38217173       3829600336060079  15512002001RODRIGUEZ FABIANA M      521726738       100592313 727217267388M    R           D             0524030 054387690001401030054387690054387690055788721087753000044911190552100543876900005220001401030000602000707040000061500027193800006160001087750000
38217335       3835408212060070   5512002001PAZ LUCIA I              518517706       070388363 527185177063M    R           D             0524030 07007321000788941007007321007007321007796262126131800006534944045210070073210000522000788941000060200091095200006150003503660000
38217623       3831502857060070   5512002001ACOSTA VICTOR ROLANDO    514706141       210685383 520147061413V    R           D             0524030 07007321000788941007007321007007321007796262126131800006534944045210070073210000522000788941000060200091095200006150003503660000
38217995       3817601661060098   5512002001MOYANO VICENTE OMAR      517170596       050592313 520171705968V    R           D             0524030 04161830000594576004161830004161830004756406074913000004007276045210041618300000522000594576000060200054103800006150002080920000
38218072       3818403296060098   5512002001BARRAZA SONIA MARIEL     527293237       261092313 627272932374M    R           D             0524030 041618300005945760041618300041618300047564060790748000039656580552100416183000005220005945760000602000541038000061500020809200006160000416180000
38218221       3818403137060098   5512002001MONTES MARIEL E          518537334       180491333 527185373342M    R           D             0524030 03908676000367100003908676003908676004275776070356200003572214045210039086760000522000367100000060200050812800006150001954340000
38218263       3826550073060092   5512002001BRAVO CABRAL ELVA INES   521343949       251291323 627213439494M    R           D             0524030 036552580003497790036552580036552580040050370694500000033105370552100365525800005220003497790000602000475184000061500018276300006160000365530000
38218352       3821107197060047   5512002001VILLARREAL MARIA TERESA  522242423       220992313 527222424238M    R           D             0524030 06194724000523281006194724006194724006718005111505000005602955045210061947240000522000523281000060200080531400006150003097360000
38218412       3822608637060098   5512002001OLMOS MARGARITA          521993608       040693303 627219936082M    R           D             0524030 041618300005945760041618300041618300047564060790748000039656580552100416183000005220005945760000602000541038000061500020809200006160000416180000
38218975       3821106406060070   5512002001GALVAN WALTER R          516620222       150492323 520166202222V    R           D             0524030 07007321000788941007007321007007321007796262126131800006534944045210070073210000522000788941000060200091095200006150003503660000
38218983       3824210095060098   5512002001CASTANO MIRTA VAZQUEZ    518086037       051191323 627180860377M    R           D             0524030 041624310003844220041624310041624310045468530790862000037559910552100416243100005220003844220000602000541116000061500020812200006160000416240000
38219031       3822607777060098   5512002001JUAREZ CARLOS FABIAN     522969327       150991323 520229693272V    R           D             0524030 04161830000594576004161830004161830004756406074913000004007276045210041618300000522000594576000060200054103800006150002080920000
38219141       3815300263060098   5512002001LEDDA MYRIAN ADRIANA     522242568       011293303 827222425684M    R           D             0524030 036546570003497790036546570036546570040044360767478000032369580552100365465700005220003497790000602000475105000061500018273300006160001096400000
38219332       3833105183060070   5512002001LLANOS BLANCA I          520157432       150393313 527201574329M    R           D             0524030 07007321000788941007007321007007321007796262126131800006534944045210070073210000522000788941000060200091095200006150003503660000
38219434       3819203717060098   5512002001MOREIRA JOSE LUIS        518471582       150492323 720184715822V    R           D             0524030 046690020004190650046690020046690020050880670933800000041542670552100466900200005220004190650000602000606970000061500023345000006160000933800000
38219463       3825710822060070  15512002001JUGO FELISA DEL C        520503926       090394303 527205039266M    R           D             0524030 07007321000350258007007321007007321007357579126131800006096261045210070073210000522000350258000060200091095200006150003503660000
38219515       3833105875060070   5512002001GOMEZ ZULEMA ESTHER      523187801       100394303 627231878012M    R           D             0524030 070073210007889410070073210070073210077962621331391000064648710552100700732100005220007889410000602000910952000061500035036600006160000700730000
38219963       3831503192060064   5512002001BAZAN GUSTAVO RICARDO    521631321       100394303 520216313217V    R           D             0524030 07433235000818033007433235007433235008251268133798300006913285045210074332350000522000818033000060200096632100006150003716620000
38219971       3818403192060098   5512002001RODRIGUEZ CARINA E       521112623       160692313 827211126235M    R           D             0524030 046690020006292190046690020046690020052982210980490000043177310552100466900200005220006292190000602000606970000061500023345000006160001400700000
38220105       3818402842060098   5512002001LOISEAU MARIA DE LOS A   520519463       240793303 627205194636M    R           D             0524030 041618300005945760041618300041618300047564060790748000039656580552100416183000005220005945760000602000541038000061500020809200006160000416180000
38220163       3818403281060098   5512002001IBARRA RAMONA LILIANA    518494787       141292313 827184947876M    R           D             0524030 041618300003844220041618300041618300045462520873985000036722670552100416183000005220003844220000602000541038000061500020809200006160001248550000
38220184       3835407537060070   5512002001PEREYRA CARLOS JULIO     527980496       110993303 620279804962V    R           D             0524030 070073210007889410070073210070073210077962621331391000064648710552100700732100005220007889410000602000910952000061500035036600006160000700730000
38220223       3822608251060098   5512002001HERRERA DANIEL A         518603898       240691323 520186038984V    R           D             0524030 04669002000629219004669002004669002005298221084042000004457801045210046690020000522000629219000060200060697000006150002334500000
38220325       3839350034060038   5512002001ESCOBEDO NELIDA A        517889861       060191333 627178898618M    R           D             0524030 061947240005232810061947240061947240067180051176997000055410080552100619472400005220005232810000602000805314000061500030973600006160000619470000
38220333       3817601073060098   5512002001APUD RAMON ANTONIO       522211768       280394303 520222117683V    R           D             0524030 04669002000629219004669002004669002005298221084042000004457801045210046690020000522000629219000060200060697000006150002334500000
38220472       3854701073060070   5512002001JIMENEZ MARTIN R E       520333741       100394303 520203337419V    R           D             0524030 07007321000788941007007321007007321007796262126131800006534944045210070073210000522000788941000060200091095200006150003503660000
38220574       3825710806060098   5512002001HERRERA CLAUDIA A        523335174       290394303 527233351747M    R           D             0524030 04669002000629219004669002004669002005298221084042000004457801045210046690020000522000629219000060200060697000006150002334500000
38220684       3819203501060047   5512002001JIMENEZ MERCEDES DEL C   520151505       200787363 627201515055M    R           D             0524030 066388510005536170066388510066388510071924681261383000059310850552100663885100005220005536170000602000863051000061500033194300006160000663890000
38220773       3833104446060070   5512002001DIAZ MARCELO F           521642943       250294303 520216429436V    R           D             0524030 07007321000788941007007321007007321007796262126131800006534944045210070073210000522000788941000060200091095200006150003503660000
38220794       3815300286060098   5512002001ALVAREZ SILVIA B         521632927       150992313 627216329274M    R           D             0524030 036552580003497790036552580036552580040050370694500000033105370552100365525800005220003497790000602000475184000061500018276300006160000365530000
38220891       3815300127060098   5512002001GOMEZ CORREA MIRTA L     514658798       040693303 623146587984M    R           D             0524030 041618300005945760041618300041618300047564060790748000039656580552100416183000005220005945760000602000541038000061500020809200006160000416180000
38221402       3816100827060098   5512002001GEREZ NANCY ELVECIA      520931091       230492323 527209310916M    R           D             0524030 03908256000577255003908256003908256004485511070348600003782025045210039082560000522000577255000060200050807300006150001954130000
38221431       3817601274060098   5512002001NAVARRO TERESA G DE      517890899       190491333 627178908990M    R           D             0524030 036551700003497790036551700036551700040049490694483000033104660552100365517000005220003497790000602000475172000061500018275900006160000365520000
38221575       3822607611060098   5512002001CRISTINA DEL V. SUAREZ   520594638       020493313 527205946387M    R           D             0524030 03655258000349779003655258003655258004005037065794700003347090045210036552580000522000349779000060200047518400006150001827630000
38221711       3822607576060098  15512002001CONTRERAS CARLOS A       520153672       200993303 620201536724V    R           D             0524030 046690020001401030046690020046690020048091050887110000039219950552100466900200005220001401030000602000606970000061500023345000006160000466900000
38221753       3837709061060070   5512002001FERNANDEZ JOSE D         520557773       070394303 520205577735V    R           D             0524030 07007321000788941007007321007007321007796262126131800006534944045210070073210000522000788941000060200091095200006150003503660000
38222021       3829600472060070   5512002001MANRIQUE ANDREA DE LOS A 523280986       240394303 627232809863M    R           D             0524030 070073210007889410070073210070073210077962621331391000064648710552100700732100005220007889410000602000910952000061500035036600006160000700730000
38222131       3828100305060047   5512002001TOFANELLI MARIA E        524883484       210391333 527248834841M    R           D             0524030 06358645000534478006358645006358645006893123114455600005748567045210063586450000522000534478000060200082662400006150003179320000
38222144       3817600994060098  15512002001DIAZ ALICIA B            520805979       160692313 627208059799M    R           D             0524030 046690020001401030046690020046690020048091050887110000039219950552100466900200005220001401030000602000606970000061500023345000006160000466900000
38222173       3817601355060098   5512002001FEREZ IRIS MARIELA       523808208       300793303 627238082086M    R           D             0524030 039082560005772550039082560039082560044855110742569000037429420552100390825600005220005772550000602000508073000061500019541300006160000390830000
38222212       3822607843060098   5512002001QUINTEROS MARCELA B      522023006       280393313 527220230061M    R           D             0524030 03654657000349779003654657003654657004004436065783800003346598045210036546570000522000349779000060200047510500006150001827330000
38222445       3816100603060098  15512002001MALDONADO MINERVA A C DE 530821796       080793303 627308217960M    R           D             0524030 039082560003502580039082560039082560042585140742569000035159450552100390825600005220003502580000602000508073000061500019541300006160000390830000
38222453       3854701564060079   5512002001BORDA EDITH ISABEL       525002276       101091323 527250022765M    R           D             0524030 05438769000471604005438769005438769005910373097897800004931395045210054387690000522000471604000060200070704000006150002719380000
38222555       3829600843060079   5512002001GOMEZ JORGELINA          522864101       230394303 623228641014M    R           D             0524030 054387690004716040054387690054387690059103731033366000048770070552100543876900005220004716040000602000707040000061500027193800006160000543880000
38222563       3831502014060047   5512002001GOMEZ VIVIANA B DE       518506545       130789343 727185065451M    R           D             0524030 061949650005232810061949650061949650067182461238992000054792540552100619496500005220005232810000602000805345000061500030974800006160001238990000
38222801       3818402374060098   5512002001MEDINA LUCIA V           520564512       240192323 627205645123M    R           D             0524030 036552580003497790036552580036552580040050370694500000033105370552100365525800005220003497790000602000475184000061500018276300006160000365530000
38222893       3835408564060070   5512002001TORRES SANTOS Y.         521181417       130193313 523211814179V    R           D             0524030 07007321000578786007007321007007321007586107126131800006324789045210070073210000522000578786000060200091095200006150003503660000
38222995       3825711326060098   5512002001TREJO MIRIAM R C DE      518157385       100394303 527181573851M    R           D             0524030 03655258000349779003655258003655258004005037065794700003347090045210036552580000522000349779000060200047518400006150001827630000
38223043       3818402432060098   5512002001LEDESMA FANY MARIEL      520156042       140394303 527201560425M    R           D             0524030 03654670000006996003654670003654670003661666065784100003003825045210036546700000522000006996000060200047510700006150001827340000
38223182       3817601885060098   5512002001SALVI SELVA M DEL VALLE  522463945       110394303 527224639452M    R           D             0524030 03908482000367100003908482003908482004275582070352700003572055045210039084820000522000367100000060200050810300006150001954240000
38223213       3859407777060047   5512002001CORONEL MARIO ALFREDO    520151927       160394303 620201519277V    R           D             0524030 070829770007941080070829770070829770078770851345766000065313190552100708297700005220007941080000602000920787000061500035414900006160000708300000
38223221       3818402544060098   5512002001GALVAN MARIA ELENA       521631157       110394303 723216311574M    R           D             0524030 036552580003497790036552580036552580040050370731052000032739850552100365525800005220003497790000602000475184000061500018276300006160000731050000
38223242       3822607843060098   5512002001VILLALBA ELVIO           520154239       040390343 520201542392V    R           D             0524030 03655170000349779003655170003655170004004949065793100003347018045210036551700000522000349779000060200047517200006150001827590000
38223491       3825710273060098   5512002001BARGAS MARTA ALEJANDRA   522154959       181293303 627221549592M    R           D             0524030 036552580003497790036552580036552580040050370694500000033105370552100365525800005220003497790000602000475184000061500018276300006160000365530000
38223522       3838510466060070   5512002001DIAZ SILVIA RAMONA       521597219       110494303 523215972194M    R           D             0524030 07007321000788941007007321007007321007796262126131800006534944045210070073210000522000788941000060200091095200006150003503660000
38223661       3862111655060064   5512002001MEDINA SILVINA ELISA     522336428       180693303 623223364284     R           D             0524030 066122310007619540066122310066122310073741851256324000061178610552100661223100005220007619540000602000859590000061500033061200006160000661220000
38223705       3824209134060098   5512002001CORIA GRACIELA LILIANA   518516274       190290343 527185162740M    R           D             0524030 03655170000349779003655170003655170004004949065793100003347018045210036551700000522000349779000060200047517200006150001827590000
38223771       3825710996060098   5512002001PAZ MERCEDES BEATRIZ     521089487       250192323 627210894875M    R           D             0524030 036552580003497790036552580036552580040050370694500000033105370552100365525800005220003497790000602000475184000061500018276300006160000365530000
38223912       3824209134060098   5512002001DIAZ MARTA MIGUELINA     518575477       280394303 523185754774M    R           D             0524030 03655015000559934003655015003655015004214949065790300003557046045210036550150000522000559934000060200047515200006150001827510000
38223954       3825711616060098   5512002001VILLAVICENCIO MONICA L   517719050       150394303 627177190506M    R           D             0524030 041624310005945760041624310041624310047570070790862000039661450552100416243100005220005945760000602000541116000061500020812200006160000416240000
38223975       3824209931060098   5512002001ORELLANA MARIO LEOCADIO  517739079       121292313 620177390799V    R           D             0524030 046690020004190650046690020046690020050880670887110000042009570552100466900200005220004190650000602000606970000061500023345000006160000466900000
38223983       3853200553060079   5512002001JIMENEZ MARIA EUGENIA    523048375       040793303 527230483758M    R           D             0524030 05438769000471604005438769005438769005910373097897800004931395045210054387690000522000471604000060200070704000006150002719380000
38223991       3824209134060098   5512002001MARRON MARCELO F         516620015       011187363 520166200157V    R           D             0524030 03374451000330639003374451003374451003705090060740200003097688045210033744510000522000330639000060200043867900006150001687230000
38224023       3830701355060047   5512002001URQUIZA RICARDO OMAR     516725733       060589343 520167257330V    R           D             0524030 06638851000763772006638851006638851007402623119499400006207629045210066388510000522000763772000060200086305100006150003319430000
38224285       3854701885060079   5512002001CASTILLO JOSE ALBERTO    517187687       031090333 520171876878V    R           D             0524030 05819248000497633005819248005819248006316881104746400005269417045210058192480000522000497633000060200075650200006150002909620000
38224395       3815300232060098   5512002001PEREYRA FANNY RAQUEL     522617653       120193313 727226176530M    R           D             0524030 036552580003497790036552580036552580040050370731052000032739850552100365525800005220003497790000602000475184000061500018276300006160000731050000
38224405       3830701556060047   5512002001PEREZ MIRIAM INES        521340096       190192323 527213400962M    R           D             0524030 06195326000523281006195326006195326006718607111515800005603449045210061953260000522000523281000060200080539200006150003097660000
38224434       3817601885060098   5512002001LUNA SILVA MARIA E       521112571       190693303 527211125719M    R           D             0524030 03908482000367100003908482003908482004275582070352700003572055045210039084820000522000367100000060200050810300006150001954240000
38226965       3835407603060064   5512002001ANAYA NORA MABEL         518108913       220491333 627181089135M    R           D             0524030 062017290007339140062017290062017290069356431178328000057573150552100620172900005220007339140000602000806225000061500031008600006160000620170000
38231004       3833104311060070   5512002001SUAREZ MARIA LILIANA     520624749       240691323 527206247490M    R           D             0524030 07007321000788941007007321007007321007796262126131800006534944045210070073210000522000788941000060200091095200006150003503660000
38231143       3824209834060070  15512002001BRAVO CARLOS REYMUNDO    517744219       231290333 520177442195V    R           D             0524030 070073210003502580070073210070073210073575791576647000057809320552100700732100005220003502580000602000910952000061500035036600006650003153290000
38258454       3837710064060064   5512002001TEVEZ ALBERTO JUAN       521783672       180494303 620217836728V    R           D             0524030 074332350006078790074332350074332350080411141412315000066287990552100743323500005220006078790000602000966321000061500037166200006160000743320000
38258501       3829600947060070   5512002001SASO JOSE EDUARDO        522070131       210494303 720220701310V    R           D             0524030 070073210007889410070073210070073210077962621401464000063947980552100700732100005220007889410000602000910952000061500035036600006160001401460000
38258543       3816100561060098   5512002001GOMEZ MARI NANCY         527293204       100394303 627272932048M    R           D             0524030 039084820003671000039084820039084820042755820742612000035329700552100390848200005220003671000000602000508103000061500019542400006160000390850000
38258593       3818402277060098   5512002001DIAZ MARIA JOSEFA        522420967       100393313 627224209679M    R           D             0524030 046690020006292190046690020046690020052982210887110000044111110552100466900200005220006292190000602000606970000061500023345000006160000466900000
38258603       3816100561060047   5512002001FARIAS LELIA DEL CARMEN  526852260       150389353 627268522609M    R           D             0524030 066388510005536170066388510066388510071924681261383000059310850552100663885100005220005536170000602000863051000061500033194300006160000663890000
38258632       3835407673060070   5512002001FRIAS EVANGELINA DEL C   522119297       250494303 523221192974M    R           D             0524030 07007321000788941007007321007007321007796262126131800006534944045210070073210000522000788941000060200091095200006150003503660000
38258661       3822608003060098   5512002001DE LA SILVA MANUEL O     526852263       070789343 520268522639V    R           D             0524030 039082430003546430039082430039082430042628860879355000033835310552100390824300005220003546430000602000508072000061500019541200006650001758710000
38258844       3822608301060070   5512002001MARTINEZ SANDRA P DE     522123459       280394303 627221234591M    R           D             0524030 070073210007889410070073210070073210077962621331391000064648710552100700732100005220007889410000602000910952000061500035036600006160000700730000
38258975       3838510211060064   5512002001AGUERO SANDRA O DE       517562225       091089343 527175622255M    R           D             0524030 063320250005111170063320250063320250068431421424705000054184370552100633202500005220005111170000602000823163000061500031660100006650002849410000
38259015       3825710273060098   5512002001MORENO HUGO ORLANDO      521975627       170694293 520219756276V    R           D             0524030 03654706000349779003654706003654706004004485065784700003346638045210036547060000522000349779000060200047511200006150001827350000
38259023       3838510273060098   5512002001MORENO HUGO ORLANDO      521975627       180594293 520219756276V    R           D             0524030 03374451000330639003374451003374451003705090060740200003097688045210033744510000522000330639000060200043867900006150001687230000
38259052       3838510691060070   5512002001BENAVIDEZ CESAR EDGARDO  517911832       190688353 820179118328V    R           D             0524030 070073210007889410070073210070073210077962621471538000063247240552100700732100005220007889410000602000910952000061500035036600006160002102200000
38259214       3817610547060064  15512002001HOYOS SANDRA A DE        518090232       251088353 527180902320M    R           D             0524030 05791228000140103005791228005791228005931331104242100004888910045210057912280000522000140103000060200075286000006150002895610000
38259463       3822608034060098   5512002001TISSERA CARLOS SERGIO    518040501       161188353 520180405012V    R           D             0524030 03654657000349779003654657003654657004004436065783800003346598045210036546570000522000349779000060200047510500006150001827330000
38259772       3830701324060070   5512002001GOROSITO SILVIA ADRIANA  528211848       090394303 527282118489M    R           D             0524030 07007321000578786007007321007007321007586107126131800006324789045210070073210000522000578786000060200091095200006150003503660000
38260401       3816100321060098   5512002001ALVAREZ NORMA B.         522142917       260594293 527221429171M    R           D             0524030 03908482000367100003908482003908482004275582070352700003572055045210039084820000522000367100000060200050810300006150001954240000
38260765       3816100843060098  15512001001CHAPARRO MARIA DE LAS M  518064937       240890333 627180649374M    R           D             0524030 033744510001401030033744510033744510035145540641147000028734070552100337445100005220001401030000602000438679000061500016872300006160000337450000
38260951       3820305724060070   5512002001GOMEZ RAUL E             520422026       050494303 520204220264V    R           D             0524030 07007321000788941007007321007007321007796262126131800006534944045210070073210000522000788941000060200091095200006150003503660000
38261062       3837709722060079   5512002001RUIZ CLAUDIA             520805963       180592313 627208059632M    R           D             0524030 050576890004455740050576890050576890055032630960961000045423020552100505768900005220004455740000602000657500000061500025288400006160000505770000
38261101       3824209134060098   5512002001GUERRA GLORIA BEATRIZ    518183049       270292323 527181830498M    R           D             0524030 03654657000349779003654657003654657004004436065783800003346598045210036546570000522000349779000060200047510500006150001827330000
38261172       3826550107060092   5512002001BARRIONUEVO MARIA DEL V  523373915       310594293 623233739154M    R           D             0524030 036552580003497790036552580036552580040050370694500000033105370552100365525800005220003497790000602000475184000061500018276300006160000365530000
38261533       3828100135060064   5512002001JIMENEZ JUAN PEDRO       520154376       081091323 520201543763V    R           D             0524030 06201729000523759006201729006201729006725488111631100005609177045210062017290000522000523759000060200080622500006150003100860000
38261693       3838511462060070   5512002001CORONEL MARTA I C        518564224       160889343 727185642246M    R           D             0524030 070073210007889410070073210070073210077962621401464000063947980552100700732100005220007889410000602000910952000061500035036600006160001401460000
38262071       3820304992060098   5512002001KRIGER MARIZA DE LAS M   517658153       060686373 527176581536M    R           D             0524030 04161830000594576004161830004161830004756406074913000004007276045210041618300000522000594576000060200054103800006150002080920000
38262173       3833104721060064  15512002001GIMENEZ MARIO ANGEL      517961148       120894293 520179611482V    R           D             0524030 07433235000350258007433235007433235007783493133798300006445510045210074332350000522000350258000060200096632100006150003716620000
38262283       3833105481060070   5512002001VILLARREAL MANUEL RUBEN  517526211       100394303 520175262114V    R           D             0524030 07007321000788941007007321007007321007796262126131800006534944045210070073210000522000788941000060200091095200006150003503660000
38262364       3824209053060070   5512002001PALMAS RAMON ISMAEL      521069529       030693303 520210695290V    R           D             0524030 07007321000578786007007321007007321007586107126131800006324789045210070073210000522000578786000060200091095200006150003503660000
38262411       3816100336060098   5512002001SEQUEIRA AMALIA          522191018       250394303 523221910184M    R           D             0524030 03654657000349779003654657003654657004004436065783800003346598045210036546570000522000349779000060200047510500006150001827330000
38262445       3825710996060098   5512002001CARBALLO MIRIAN L DE P   520158517       070494303 727201585177M    R           D             0524030 036550150003497790036550150036550150040047940731003000032737910552100365501500005220003497790000602000475152000061500018275100006160000731000000
38262542       3829600592060079   5512002001CORDOBA KARINA DEL V     521752245       180793303 527217522450M    R           D             0524030 05438526000681758005438526005438526006120284097893400005141350045210054385260000522000681758000060200070700800006150002719260000
38262704       3838511431060070   5512002001CUELLAR ADLA ROFELIA     522248757       111192313 727222487574M    R           D             0524030 070073210005787860070073210070073210075861071401464000061846430552100700732100005220005787860000602000910952000061500035036600006160001401460000
38262851       3818402277060098   5512002001DIAZ MARIA DE LOS A      521340615       050994293 727213406154M    R           D             0524030 046696040006292190046696040046696040052988230933921000043649020552100466960400005220006292190000602000607049000061500023348000006160000933920000
38263035       3818402134060070   5512002001SALE GRACIELA NOEMI      522463900       170394303 827224639002M    R           D             0524030 070073210007889410070073210070073210077962621471538000063247240552100700732100005220007889410000602000910952000061500035036600006160002102200000
38263051       3816100592060098   5512002001GENEROSO GABRIELA EDITH  522722228       050994293 527227222285M    R           D             0524030 03655015000559934003655015003655015004214949065790300003557046045210036550150000522000559934000060200047515200006150001827510000
38263255       3821107417060070   5512002001ESCOBEDO FERNANDO MARIANO518041036       260193313 720180410369V    R           D             0524030 062395570007364980062395570062395570069760551247911000057281440552100623955700005220007364980000602000811142000061500031197800006160001247910000
38263263       3817601011060098  15512002001ESCOBAR MARIA ANGELICA   523004394       230994293 827230043944M    R           D             0524030 041618300003502580041618300041618300045120880873985000036381030552100416183000005220003502580000602000541038000061500020809200006160001248550000
38263365       3825711624060098   5512002001CHEJOLAN SILVIA DEL V    518090443       040392323 527180904439M    R           D             0524030 03908844000367100003908844003908844004275944070359200003572352045210039088440000522000367100000060200050815000006150001954420000
38263412       3825710482060070   5512002001CORONEL LINDOR MIGUEL    520602675       281291323 520206026759V    R           D             0524030 07007321000578786007007321007007321007586107126131800006324789045210070073210000522000578786000060200091095200006150003503660000
