38000131       3816100874060098   5512002001LLANOS,MARGARITA NANCY   517066586       180904183 523170665864M    R           D             0123030 02214744000414504002214744002214744002629248039865400002230594045210022147440000522000414504000060200028791700006150001107370000
38000173       3824209687060098   5512002001CARABAJAL NORMA GRACIELA 525276017       170108143 527252760178M    R           D             0123030 02079284000469987002079284002079284002549271037427100002175000045210020792840000522000469987000060200027030700006150001039640000
38000262       3853200592060098   5512002001RODRIGUEZ,SILVIA NOEMI   525470711       150611113 627254707118M    R           D             0123030 017794880007336150017794880017794880025131030338102000021750010552100177948800005220007336150000602000231333000061500008897400006160000177950000
38000275       3824209134060098   5512002001TORRES ROSALIA VERONICA  527283990       150811113 527272839900M    R           D             0123030 01740633000747681001740633001740633002488314031331400002175000045210017406330000522000747681000060200022628200006150000870320000
38000534       3819204187060098   5512002001RUIZ,GRACIELA MABEL      525837711       110504183 527258377112M    R           D             0123030 02079284000469987002079284002079284002549271037427100002175000045210020792840000522000469987000060200027030700006150001039640000
38000555       3825710605060098   5512002001SEQUEIRA LILIANA DEL VALL530318111       140112103 523303181113M    R           D             0123030 02282475000419131002282475002282475002701606041084600002290760045210022824750000522000419131000060200029672200006150001141240000
38000631       3819204214060098   5512002001VARGAS,SILVIA SUSANA     521039406       280392303 627210394066M    R           D             0123030 017752050006997780017752050017752050024749830337289000021376940552100177520500005220006997780000602000230777000061500008876000006160000177520000
38000665       3825711721060098   5512002001CORONEL,SUSANA ELIZABETH 527392181       170904183 527273921813M    R           D             0123030 01945828000489749001945828001945828002435577035024900002085328045210019458280000522000489749000060200025295800006150000972910000
38000801       3861309134060098   5512002001VALDEZ JOSE RAMON        528724181       281013093 520287241810V    R           D             0123030 01672903000803220001672903001672903002476123030112200002175001045210016729030000522000803220000060200021747700006150000836450000
38000843       3838510161060098  15512002001ORELLANA SONIA MERCEDES  529613183       290812103 527296131836M    R           D             0123030 02282475000302500002282475002282475002584975041084600002174129045210022824750000522000302500000060200029672200006150001141240000
38001132       3826550057060098   5512002001JAIMES,CLAUDIA NATALI    532685653       020513093 527326856539M    R           D             0123030 01672903000803220001672903001672903002476123030112200002175001045210016729030000522000803220000060200021747700006150000836450000
38001433       3855502045060098   5512002001VILLALBA,EVA EDIT        523017815       180413093 527230178157M    R           D             0123030 01672903000803220001672903001672903002476123030112200002175001045210016729030000522000803220000060200021747700006150000836450000
38001491       3824209207060070   5512001001CARRIZO PATRICIA ALEJANDR529276385       170613093 527292763854M    R           D             0123030 02570234000438787002570234002570234003009021046264200002546379045210025702340000522000438787000060200033413000006150001285120000
38001501       3824209826060098   5512002001BOTTARO ROSANA ANDREA    521440356       091202203 527214403566M    R           D             0123030 01931608000092528001931608001931608002024136034768900001676447045210019316080000522000092528000060200025110900006150000965800000
38001543       3825723022060098   5512002001NAVARRO MONICA VALERIA   531081528       191212103 523310815284M    R           D             0123030 01740633000747681001740633001740633002488314031331400002175000045210017406330000522000747681000060200022628200006150000870320000
38001645       3825723022060098   5512002001RODRIGUEZ CRISTIAN ANTONI527608059       261212103 520276080599V    R           D             0123030 01740633000747681001740633001740633002488314031331400002175000045210017406330000522000747681000060200022628200006150000870320000
38001695       3861309134060098   5512002001MICHEL ELIANA BEATRIZ    534263660       210513093 527342636603M    R           D             0123030 01672903000803220001672903001672903002476123030112200002175001045210016729030000522000803220000060200021747700006150000836450000
38001802       3861309165060098   5512002001YBARRA PAZ MARIELA A.    531962532       120213093 627319625327M    R           D             0123030 018083630003857190018083630018083630021940820343589000018504930552100180836300005220003857190000602000235087000061500009041800006160000180840000
38001844       3822607642060098   5512002001ROMANI MARIA DE LOS ANGEL532438689       181212103 527324386896M    R           D             0123030 01740633000747681001740633001740633002488314031331400002175000045210017406330000522000747681000060200022628200006150000870320000
38001904       3861309826060098   5512002001JAIME SONIA ELIZABETH    532054053       291013093 523320540534M    R           D             0123030 01672903000803220001672903001672903002476123030112200002175001045210016729030000522000803220000060200021747700006150000836450000
38001933       3855503346060098   5512002001MEDINA,DENYS OMAR        527407455       210513093 520274074559V    R           D             0123030 02214744000414504002214744002214744002629248039865400002230594045210022147440000522000414504000060200028791700006150001107370000
38001962       3856303822060098   5512002001VALDIVIA,ROSA CECILIA    531337001       150811113 527313370017M    R           D             0123030 02282475000419131002282475002282475002701606041084600002290760045210022824750000522000419131000060200029672200006150001141240000
38002052       3862112086060098   5512002001VILLALBA IBANA MARIEL    534353129       020513093 527343531295M    R           D             0123030 02214744000414504002214744002214744002629248039865400002230594045210022147440000522000414504000060200028791700006150001107370000
38002264       3819204075060098   5512002001ESPINOLA,MARIA LUJAN     533063163       120811113 627330631630M    R           D             0123030 017406330007650870017406330017406330025057200330720000021750000552100174063300005220007650870000602000226282000061500008703200006160000174060000
38002293       3824209625060098   5512002001ANASTACIA CARINA MARGARIT526423942       190613093 527264239422M    R           D             0123030 01943824000581065001943824001943824002524889034988800002175001045210019438240000522000581065000060200025269700006150000971910000
38002361       3816100592060098   5512002001SUAREZ,PAMELA SOLEDAD    529453597       150811113 527294535972M    R           D             0123030 01779488000384774001779488001779488002164262032030700001843955045210017794880000522000384774000060200023133300006150000889740000
38002374       3861309583060098   5512002001PINERO CONSOLACION       518252891       230707153 527182528914M    R           D             0123030 02417935000428384002417935002417935002846319043522900002411090045210024179350000522000428384000060200031433200006150001208970000
38002531       3855502327060098   5512002001HOYOS,RITA ALEJANDRA     528744453       010909133 527287444538M    R           D             0123030 01943824000581065001943824001943824002524889034988800002175001045210019438240000522000581065000060200025269700006150000971910000
38002565       3816100545060098   5512002001CASTANO,HORACIO EMANUEL  529384437       120811113 520293844373V    R           D             0123030 01919463000671835001919463001919463002591298034550300002245795045210019194630000522000671835000060200024953000006150000959730000
38002581       3824209714060098   5512002001CABRERA ROBERTA GRACIELA 526909074       031212103 527269090745M    R           D             0123030 01876093000636603001876093001876093002512696033769700002174999045210018760930000522000636603000060200024389200006150000938050000
38002604       3824209826060098   5512002001MEDINA SILVANA LUCRECIA  529123872       011213093 527291238721M    R           D             0123030 01672903000803220001672903001672903002476123030112200002175001045210016729030000522000803220000060200021747700006150000836450000
38002735       3816100827060098   5512002001GUTIERREZ,ANGELA ADRIANA 528944156       301110123 527289441560M    R           D             0123030 01989451000543650001989451001989451002533101035810200002174999045210019894510000522000543650000060200025862900006150000994730000
38002743       3862110621060098   5512002001VILLALBA PABLO ALBERTO   533207764       190411113 520332077644V    R           D             0123030 01876093000636603001876093001876093002512696033769700002174999045210018760930000522000636603000060200024389200006150000938050000
38003045       3825710853060098   5512002001GALVAN ADRIANA AMANDA    521879949       120197253 527218799499M    R           D             0123030 02214745000692004002214745002214745002906749039865400002508095045210022147450000522000692004000060200028791700006150001107370000
38003184       3824209714060098   5512002001CORDOBA MICAELA MAGALI   532108839       201212103 527321088398M    R           D             0123030 01876093000668872001876093001876093002544965033769700002207268045210018760930000522000668872000060200024389200006150000938050000
38003354       3862113035060098   5512002001IBANEZ NOELIA ROSA BEATRI533207731       300213093 527332077312M    R           D             0123030 01672903000803220001672903001672903002476123030112200002175001045210016729030000522000803220000060200021747700006150000836450000
38003684       3856303501060098   5512002001GONZALEZ,NESTOR FABIAN   528143755       051011113 520281437551V    R           D             0123030 01876093000668872001876093001876093002544965033769700002207268045210018760930000522000668872000060200024389200006150000938050000
38004062       3853200715060098   5512002001GOMEZ,VANESS RAFAELA     530773063       190911113 523307730634M    R           D             0123030 01876093000636603001876093001876093002512696033769700002174999045210018760930000522000636603000060200024389200006150000938050000
38004211       3835407746060098   5512002001VILLALOBOS EMMA TERESITA 525992439       290607153 527259924397M    R           D             0123030 01876129000636574001876129001876129002512703033770300002175000045210018761290000522000636574000060200024389700006150000938060000
38004224       3859408146060098   5512002001FUENTES SANDRA MABENL    522177071       181111113 523221770714M    R           D             0123030 01740633000747681001740633001740633002488314031331400002175000045210017406330000522000747681000060200022628200006150000870320000
38004261       3817601502060098   5512002001HERNANDEZ DOMINGUEZ MARIA526636125       120909133 523266361254M    R           D             0123030 01808363000692142001808363001808363002500505032550500002175000045210018083630000522000692142000060200023508700006150000904180000
38004334       3822607506060098   5512002001ARANDA BLANCA ISABEL     526220719       070711113 527262207191M    R           D             0123030 01740633000747681001740633001740633002488314031331400002175000045210017406330000522000747681000060200022628200006150000870320000
38004384       3822608274060098   5512002001RODRIGUEZ LILIA SUSANA   523625834       280905173 627236258349M    R           D             0123030 020792840004907800020792840020792840025700640395064000021750000552100207928400005220004907800000602000270307000061500010396400006160000207930000
38004465       3821106774060098   5512002001PALADEA YANINA ELIZABETH 531417663       180611113 523314176634M    R           D             0123030 01740633000747681001740633001740633002488314031331400002175000045210017406330000522000747681000060200022628200006150000870320000
38004562       3817601452060098   5512002001RAMIREZ KARINA           529236397       090508143 523292363974M    R           D             0123030 01943824000581065001943824001943824002524889034988800002175001045210019438240000522000581065000060200025269700006150000971910000
38004855       3859408316060098   5512002001SALTO VALERIA RUFINA     534310417       191212103 527343104176M    R           D             0123030 01919463000601040001919463001919463002520503034550300002175000045210019194630000522000601040000060200024953000006150000959730000
38004965       3817601637060098   5512002001YTURRE XIMENA SOLEDAD    526094885       090505173 527260948852M    R           D             0123030 02214744000414504002214744002214744002629248039865400002230594045210022147440000522000414504000060200028791700006150001107370000
38005055       3822608371060098   5512002001LEGUIZAMON LAURA VANESA  530318083       050712103 523303180834M    R           D             0123030 01876093000584290001876093001876093002460383033769700002122686045210018760930000522000584290000060200024389200006150000938050000
38005102       3859407634060098   5512002001VISGARRA MARCELA VANESA  531141165       060511113 527311411654M    R           D             0123030 01740633000659620001740633001740633002400253031331400002086939045210017406330000522000659620000060200022628200006150000870320000
38005453       3859407707060098   5512002001CORVALAN ANA MARIA       517675394       240900223 627176753949M    R           D             0123030 024183480004268480024183480024183480028451960459485000023857110552100241834800005220004268480000602000314385000061500012091700006160000241830000
38005534       3859407611060098   5512002001ROLDAN KARINA ESTRELLA   521937540       260511113 527219375404M    R           D             0123030 01740633000747681001740633001740633002488314031331400002175000045210017406330000522000747681000060200022628200006150000870320000
38005851       3822608146060098   5512002001CELARIO PAOLA ANDREA     527022447       011204183 623270224474M    R           D             0123030 019458280005988790019458280019458280025447070369707000021750000552100194582800005220005988790000602000252958000061500009729100006160000194580000
38005885       3822607843060098   5512002001AVILA CESAR DAVID        516310625       251091313 520163106257V    R           D             0123030 01639745000692004001639745001639745002331749029515400002036595045210016397450000522000692004000060200021316700006150000819870000
38006213       3822607611060098   5512002001JUAREZ DEVORA GRACIELA   527037680       150811113 627270376806M    R           D             0123030 017406330007650870017406330017406330025057200330720000021750000552100174063300005220007650870000602000226282000061500008703200006160000174060000
38006234       3822607657060098   5512002001SORIA LIDIA ADRIANA      530443014       260610123 527304430147M    R           D             0123030 01808363000692142001808363001808363002500505032550500002175000045210018083630000522000692142000060200023508700006150000904180000
38006352       3822608637060098   5512002001GONZALEZ VALERIA CECILIA 528592711       280312103 627285927116M    R           D             0123030 020115540005456410020115540020115540025571950382196000021749990552100201155400005220005456410000602000261502000061500010057800006160000201160000
38006734       3859407882060098   5512002001ALVAREZ MARIA ALEJANNDRA 520153929       290111113 527201539299M    R           D             0123030 02011554000525526002011554002011554002537080036208000002175000045210020115540000522000525526000060200026150200006150001005780000
38006852       3859407731060098   5512002001LEGUIZAMON ELDA SILVINA  527793894       020605173 523277938944M    R           D             0123030 02079284000469987002079284002079284002549271037427100002175000045210020792840000522000469987000060200027030700006150001039640000
38006873       3822607522060098   5512002001SUAREZ DEBORA FABIANA    526890392       111209133 527268903920M    R           D             0123030 01943824000581065001943824001943824002524889034988800002175001045210019438240000522000581065000060200025269700006150000971910000
38007104       3835407754060098   5512002001LAFFON NOELIA LUCIANA    526789841       140605173 527267898419M    R           D             0123030 02081288000468344002081288002081288002549632037463100002175001045210020812880000522000468344000060200027056700006150001040640000
38007154       3859407665060098   5512002001CORVALAN VERONICA ANALIA 528292274       051211113 527282922741M    R           D             0123030 02011589000525497002011589002011589002537086036208600002175000045210020115890000522000525497000060200026150700006150001005790000
38007175       3822608034060098   5512002001BRAVO MARIA SOLEDAD      526396771       251111113 527263967718M    R           D             0123030 01740633000747681001740633001740633002488314031331400002175000045210017406330000522000747681000060200022628200006150000870320000
38007633       3822607642060098   5512002001GOMEZ CLAUDIA ANALIA     534168982       120712103 527341689827M    R           D             0123030 01740633000747681001740633001740633002488314031331400002175000045210017406330000522000747681000060200022628200006150000870320000
38007751       3859408146060098   5512002001CORTES VALERIA ALEJANDRA 533627112       120711113 627336271121M    R           D             0123030 017406330007650870017406330017406330025057200330720000021750000552100174063300005220007650870000602000226282000061500008703200006160000174060000
38007772       3822607897060070   5512002001CEJAS JUAN JOSE          525382884       240604183 520253828847V    R           D             0123030 03185419000480807003185419003185419003666226057337500003092851045210031854190000522000480807000060200041410400006150001592710000
38007992       3859407506060098   5512002001VELARDEZ CLAUDIA PATRICIA520916694       080707153 527209166947M    R           D             0123030 01876094000636603001876094001876094002512697033769700002175000045210018760940000522000636603000060200024389200006150000938050000
38008024       3835407642060098   5512002001JUGO GUILLERMO ARIEL     524233512       250811113 520242335121V    R           D             0123030 01740633000747681001740633001740633002488314031331400002175000045210017406330000522000747681000060200022628200006150000870320000
38008142       3859408661060098   5512002001TOLEDO ADRIANA ELIZABETH 535177733       020612103 527351777333M    R           D             0123030 02282475000419131002282475002282475002701606041084600002290760045210022824750000522000419131000060200029672200006150001141240000
38008354       3859408316060098   5512002001CORTEZ MARIA CONCEPCION  517655797       100413113 523176557974M    R           D             0123030 01764794000727869001764794001764794002492663031766300002175000045210017647940000522000727869000060200022942300006150000882400000
38008451       3822608653060098   5512002001ZABALA ALBERTO FERNANDO  528400654       260604183 520284006543V    R           D             0123030 02485665000710510002485665002485665003196175044741900002748756045210024856650000522000710510000060200032313600006150001242830000
38008503       3822608413060098   5512002001LANDRIEL SILVIA NOEMI    522425899       070711113 527224258998M    R           D             0123030 02282475000419131002282475002282475002701606041084600002290760045210022824750000522000419131000060200029672200006150001141240000
38008511       3835407746060098   5512002001GOMEZ CARLOS RAMON       522239992       080990323 520222399921V    R           D             0123030 02065065000101780002065065002065065002166845037171100001795134045210020650650000522000101780000060200026845800006150001032530000
38008621       3822608107060098   5512002001PEREZ MIRIAM MARCELA     522299784       100804183 523222997844M    R           D             0123030 02216749000414504002216749002216749002631253039901400002232239045210022167490000522000414504000060200028817700006150001108370000
38008702       3822607707060098   5512002001CORVALAN CLAUDIA DOLORES 526351806       140605173 527263518069M    R           D             0123030 02214744000414504002214744002214744002629248039865400002230594045210022147440000522000414504000060200028791700006150001107370000
38008773       3822607611060098   5512001001MENA MARIANA MARIEL      528754719       210512103 627287547191M    R           D             0123030 017406330007650870017406330017406330025057200330720000021750000552100174063300005220007650870000602000226282000061500008703200006160000174060000
38008841       3820305024060098   5512002001ESCALADA ARIEL GUSTAVO   527903926       240506163 520279039263V    R           D             0123030 02149019000412805002149019002149019002561824038682300002175001045210021490190000522000412805000060200027937200006150001074510000
38008951       3822607723060098   5512002001GUZMAN GLORIA JOSEFINA   517662343       250793293 527176623433M    R           D             0123030 02214745000692004002214745002214745002906749039865400002508095045210022147450000522000692004000060200028791700006150001107370000
38009033       3822607657060098   5512002001PEREZ EMILIA MERCEDES    529785643       010614093 727297856435M    R           D             0123030 016729030008366780016729030016729030025095810334580000021750010552100167290300005220008366780000602000217477000061500008364500006160000334580000
38009193       3859407673060098   5512002001BARRERA CORINA MARGARITA 531753631       140613093 527317536319M    R           D             0123030 02214744000414504002214744002214744002629248039865400002230594045210022147440000522000414504000060200028791700006150001107370000
38009452       3859408065060098   5512002001CORDOBA MARTA DEL V.     522197948       181108143 627221979481M    R           D             0123030 023522090004222780023522090023522090027744870446919000023275680552100235220900005220004222780000602000305787000061500011761000006160000235220000
38009494       3822607634060098   5512002001GONZALEZ NOELIA VANESA   533385128       231212103 527333851283M    R           D             0123030 01740633000747681001740633001740633002488314031331400002175000045210017406330000522000747681000060200022628200006150000870320000
38009504       3822607827060098   5512002001TOLEDO CARLOS FERNANDO   529930838       120811113 520299308384V    R           D             0123030 02282475000419131002282475002282475002701606041084600002290760045210022824750000522000419131000060200029672200006150001141240000
38009525       3822608556060098   5512002001CAMPOS CLAUDIO HERNAN    532506648       270512103 520325066483V    R           D             0123030 02282475000419131002282475002282475002701606041084600002290760045210022824750000522000419131000060200029672200006150001141240000
38009745       3859407576060098   5512002001NAVARRO CINTHIA ROXANA   531988987       031212103 627319889871M    R           D             0123030 022824750004177080022824750022824750027001830433671000022665120552100228247500005220004177080000602000296722000061500011412400006160000228250000
38009753       3822607715060070   5512002001LEDESMA ALEJANDRA DEL V. 523450999       180413093 527234509999M    R           D             0123030 03185419000480807003185419003185419003666226057337500003092851045210031854190000522000480807000060200041410400006150001592710000
38009805       3822607634060098   5512002001ZERDA IVANA NATALI       531976998       250411113 527319769981M    R           D             0123030 01740633000747681001740633001740633002488314031331400002175000045210017406330000522000747681000060200022628200006150000870320000
38009902       3835407634060098   5512002001BARRIONUEVO CECILIA C.   526368157       160110123 727263681571M    R           D             0123030 018083630007283090018083630018083630025366720361672000021750000552100180836300005220007283090000602000235087000061500009041800006160000361670000
38009923       3822607642060098   5512002001BELTRAN JOSE AUGUSTO     529103417       080612103 523291034179V    R           D             0123030 01740633000747681001740633001740633002488314031331400002175000045210017406330000522000747681000060200022628200006150000870320000
38010115       3859408096060070   5512002001LEGUIZAMON LORENA PAOLA  530538652       161210123 527305386524M    R           D             0123030 03390481000494814003390481003390481003885295061028700003275008045210033904810000522000494814000060200044076300006150001695240000
38010204       3822607634060098   5512002001ROMANI MURIEL ELIZABETH  530742349       120511113 527307423494M    R           D             0123030 01740633000747681001740633001740633002488314031331400002175000045210017406330000522000747681000060200022628200006150000870320000
38010212       3859407963060098   5512002001SALTO ROSANA MARILU      524696377       051011113 527246963776M    R           D             0123030 02011554000525526002011554002011554002537080036208000002175000045210020115540000522000525526000060200026150200006150001005780000
38010225       3859407545060098   5512002001PECCI CARLA GISELA       533629156       150612103 527336291564M    R           D             0123030 01740633000747681001740633001740633002488314031331400002175000045210017406330000522000747681000060200022628200006150000870320000
38010495       3822607665060098   5512002001VEGA YANINA TERESA ANDREA527906967       280613093 527279069671M    R           D             0123030 01989451000543650001989451001989451002533101035810200002174999045210019894510000522000543650000060200025862900006150000994730000
38010521       3822607553060098   5512002001BUTARELLI MONICA A.      527686497       020405173 627276864977M    R           D             0123030 022147440004131380022147440022147440026278820420801000022070810552100221474400005220004131380000602000287917000061500011073700006160000221470000
38010814       3835408243060098   5512002001GARNICA MARCELA ELIZABETH520732380       071011113 527207323808M    R           D             0123030 01740633000747681001740633001740633002488314031331400002175000045210017406330000522000747681000060200022628200006150000870320000
38011205       3822607611060098   5512002001DIAZ SILVIA ELIZABETH    523584077       150811113 623235840774M    R           D             0123030 017406330007650870017406330017406330025057200330720000021750000552100174063300005220007650870000602000226282000061500008703200006160000174060000
38011331       3859407611060098   5512002001ALBARRACIN MARIA ELENA   531391973       041011113 627313919736M    R           D             0123030 017406330007650870017406330017406330025057200330720000021750000552100174063300005220007650870000602000226282000061500008703200006160000174060000
38011441       3822607723060098   5512002001SEPULVEDA MARIA DE LOS A.525584202       101012103 527255842027M    R           D             0123030 01740633000747681001740633001740633002488314031331400002175000045210017406330000522000747681000060200022628200006150000870320000
38011611       3822607746060098   5512002001RUIZ ARMINDA CLEMENTINA  521340174       040394283 527213401748M    R           D             0123030 0221474500000000000221474500221474500221474503986540000181609103521002214745000060200028791700006150001107370000
38011742       3822607592060098   5512002001PONCE NORMA BEATRIZ      516330628       150987353 827163306285M    R           D             0123030 027565860004460640027565860027565860032026500578883000026237670552100275658600005220004460640000602000358356000061500013782900006160000826980000
38092015       3834607182060047   5512002001SOSA DIOSQUEZ NIEVES E   516309440       060983393 527163094407M    R           D             0123030 03671480000514008003671480003671480004185488066086600003524622045210036714800000522000514008000060200047729200006150001835740000
38105994       3817601096060070   5512002001SANDEZ JOSE DOMINGO      516404742       230984383 620164047424V    R           D             0123030 040056650008114770040056650040056650048171420761076000040560660552100400566500005220008114770000602000520736000061500020028300006160000400570000
38107035       3856304187060079   5512002001ARIAS JOSEFINA BEATRIZ   517211951       260784383 623172119514M    R           D             0123030 033710220001886560033710220033710220035596780640494000029191840552100337102200005220001886560000602000438233000061500016855100006160000337100000
38107522       3833104493060070   5512002001ZERDA GERARDO RAUL       516656733       080683393 720166567336V    R           D             0123030 035955420007812890035955420035955420043768310719108000036577230552100359554200005220007812890000602000467420000061500017977700006160000719110000
38107705       3817601185060070   5512002001MOUKARZEL JORGE DEL VALLE513304983       081284383 520133049836V    R           D             0123030 04005665000536835004005665004005665004542500072101900003821481045210040056650000522000536835000060200052073600006150002002830000
38109061       3820305763060070   5512002001GONGORA NORA RAQUEL      516351220       070386363 527163512209M    R           D             0123030 04005665000536835004005665004005665004542500072101900003821481045210040056650000522000536835000060200052073600006150002002830000
38109545       3831503095060070   5512002001PALMAS JULIO LORENZO     516884776       180485373 623168847769V    R           D             0123030 040056650005339770040056650040056650045396420761076000037785660552100400566500005220005339770000602000520736000061500020028300006160000400570000
38111602       3837708773060070   5512002001LEDESMA MOISES APOLINAR  516442670       010285373 520164426700V    R           D             0123030 04005665000814335004005665004005665004820000072101900004098981045210040056650000522000814335000060200052073600006150002002830000
38112043       3837709745060064   5512002001GONZALEZ ESTER DEL VALLE 517779167       140786363 727177791674M    R           D             0123030 037946170005170550037946170037946170043116720758923000035527490552100379461700005220005170550000602000493300000061500018973100006160000758920000
38112174       3818402045060098   5512002001LEDESMA LUISA I          517685365       070785373 723176853654M    R           D             0123030 022147450004117730022147450022147450026265180442949000021835690552100221474500005220004117730000602000287917000061500011073700006160000442950000
38113251       3819204187060098   5512002001RIOS MIRTA ELIZABETH     517217321       140784383 627172173212M    R           D             0123030 023502050004222780023502050023502050027724830446539000023259440552100235020500005220004222780000602000305527000061500011751000006160000235020000
38113594       3817601703060079   5512002001ARIAS RAMON EDUARDO      514818196       201184383 523148181969V    R           D             0123030 03981717000812699003981717003981717004794416071670900004077707045210039817170000522000812699000060200051762300006150001990860000
38113612       3829600522060070   5512002001SANTILLAN ZOILO ENRIQUE  516842940       270886363 720168429402V    R           D             0123030 040056650005311200040056650040056650045367850801132000037356530552100400566500005220005311200000602000520736000061500020028300006160000801130000
38113654       3824209753060070   5512002001MORALES VICTOR LIBERATO  517072914       140886363 620170729146V    R           D             0123030 040056650008114770040056650040056650048171420761076000040560660552100400566500005220008114770000602000520736000061500020028300006160000400570000
38113722       3824209873060070   5512001001RIVERO HUGO OSVALDO      516614750       150385373 620166147507V    R           D             0123030 035955420005063050035955420035955420041018470683152000034186950552100359554200005220005063050000602000467420000061500017977700006160000359550000
38114333       3822607642060098   5512002001GARNICA SILVIA A DE      517840580       111186363 527178405808M    R           D             0123030 02215417000414504002215417002215417002629921039877500002231146045210022154170000522000414504000060200028800400006150001107710000
38115224       3835407506060047   5512002001BIZCARRA GABRIELA DEL C  517765930       011086363 623177659304M    R           D             0123030 035715940007515030035715940035715940043230970678603000036444940552100357159400005220007515030000602000464307000061500017858000006160000357160000
38116393       3822608003060098   5512002001ZERDA NILDA TEJEDA DE    517453217       160486363 627174532171M    R           D             0123030 023502050006997780023502050023502050030499830446539000026034440552100235020500005220006997780000602000305527000061500011751000006160000235020000
38117501       3838510764060064   5512002001MANSILLA WALTER FERNANDO 517028814       110386363 523170288149V    R           D             0123030 03794617000522419003794617003794617004317036068303100003634005045210037946170000522000522419000060200049330000006150001897310000
38117603       3821107182060098   5512002001MESSINA TERESA ESTHER    517438106       250387353 627174381068M    R           D             0123030 022155400006906390022155400022155400029061790420952000024852270552100221554000005220006906390000602000288020000061500011077700006160000221550000
38117645       3833105287060070   5512002001MEDINA JULIO CESAR       516732783       300285373 520167327835V    R           D             0123030 04005665000234335004005665004005665004240000072101900003518981045210040056650000522000234335000060200052073600006150002002830000
38118293       3833104825060064   5512002001NEDER ALICIA ELIZABETH   517491052       290986363 527174910524M    R           D             0123030 03575335000784941003575335003575335004360276064356100003716715045210035753350000522000784941000060200046479400006150001787670000
38118463       3838512086060070   5512002001MAGUNA RAUL EULOGIO      514814752       030484383 620148147524V    R           D             0123030 031854190004786330031854190031854190036640520605229000030588230552100318541900005220004786330000602000414104000061500015927100006160000318540000
38118641       3821107077060070   5512002001PALAVECINO MIRNA DEL VALL516439574       140785373 527164395745M    R           D             0123030 03595542000508821003595542003595542004104363064719700003457166045210035955420000522000508821000060200046742000006150001797770000
38118785       3830701734060070   5512002001SUAREZ ISAURO            516198505       160486363 620161985059V    R           D             0123030 0400566500064164200400566500400566500464730709413310000370597606521004005665000052200064164200006020005207360000615000200283000061600004005700006650001802550000
38119304       3825711736060098   5512002001BAZAN TERESA DEL VALLE   517765969       010587353 727177659695M    R           D             0123030 022155400006892730022155400022155400029048130443108000024617050552100221554000005220006892730000602000288020000061500011077700006160000443110000
38119773       3838510273060047   5512002001LEGUIZAMON WALTER CEFERIN514985104       180287353 620149851047V    R           D             0123030 035715940007821890035715940035715940043537830678603000036751800552100357159400005220007821890000602000464307000061500017858000006160000357160000
38119972       3815300062060098   5512002001AGUDO DORA MERCEDES      517563917       100887353 527175639174M    R           D             0123030 02485665000433010002485665002485665002918675044741900002471256045210024856650000522000433010000060200032313600006150001242830000
38122593       3817601177060070   5512002001JUAREZ SEGUNDO MARIO     516820666       061087353 520168206667V    R           D             0123030 03595542000725071003595542003595542004320613064719700003673416045210035955420000522000725071000060200046742000006150001797770000
38122624       3818402262060098   5512002001LEDESMA EMMA VIRGINIA    517498192       300487353 527174981928M    R           D             0123030 02215540000692004002215540002215540002907544039879700002508747045210022155400000522000692004000060200028802000006150001107770000
38122823       3819203884060098   5512002001SERRANO RAUL ERNESTO     516538512       220987353 720165385129V    R           D             0123030 0221555500068312600221555500221555500289868105428110000235587006521002215555000052200068312600006020002880220000615000110778000061600004431100006650000997000000
38122941       3829600681060064   5512002001PAJON HECTOR ORLANDO     517779283       240987353 520177792838V    R           D             0123030 03794617000522419003794617003794617004317036068303100003634005045210037946170000522000522419000060200049330000006150001897310000
38123471       3819204005060070   5512002001VILLALBA PEDRO ENRIQUE   516885016       070586363 520168850167V    R           D             0123030 04005665000536835004005665004005665004542500072101900003821481045210040056650000522000536835000060200052073600006150002002830000
38123824       3833104744060064   5512002001SILVA NORA NANCY         517164990       030486363 527171649906M    R           D             0123030 04233179000672901004233179004233179004906080076197200004144108045210042331790000522000672901000060200055031300006150002116590000
38125591       3832304214060047   5512002001JIMENEZ MARIA REMBERTO   516280370       110587353 620162803701V    R           D             0123030 038088360005206970038088360038088360043295330723679000036058540552100380883600005220005206970000602000495149000061500019044200006160000380880000
38125855       3820306027060098   5512002001VILLAGRAN JOSE OMAR      517966808       061087353 520179668085V    R           D             0123030 02756586000451515002756586002756586003208101049618500002711916045210027565860000522000451515000060200035835600006150001378290000
38125892       3835408316060047   5512002001LOTO SONIA NANCY         517123884       130986363 527171238841M    R           D             0123030 03916631000530753003916631003916631004447384070499400003742390045210039166310000522000530753000060200050916200006150001958320000
38126055       3822607642060098   5512002001CARPIO SILVIA VIVIANA    517438019       041187353 627174380193M    R           D             0123030 0221547900040699200221547900221547900262247105206380000210183306521002215479000052200040699200006020002880120000615000110774000061600002215500006650000996970000
38126351       3837708711060047   5512002001MURAD PEDRO JORGE        517235784       021086363 523172357849V    R           D             0123030 03571594000507185003571594003571594004078779064288700003435892045210035715940000522000507185000060200046430700006150001785800000
38126903       3833105361060070   5512002001REVAINERA CARLOS A       518479541       120588343 520184795419V    R           D             0123030 04005665000536835004005665004005665004542500072101900003821481045210040056650000522000536835000060200052073600006150002002830000
38128971       3830701444060070   5512002001SABALZA LUIS MARCELO     521343923       270888343 520213439236V    R           D             0123030 03390481000772314003390481003390481004162795061028700003552508045210033904810000522000772314000060200044076300006150001695240000
38133735       3824209826060079   5512001001SORIA WALTER ROGER       514214718       170182403 620142147182V    R           D             0123030 031674580004774210031674580031674580036448790601818000030430610552100316745800005220004774210000602000411770000061500015837300006160000316750000
38134032       3820305585060070   5512002001QUIROGA OMAR OVIDIO      520156187       300389333 520201561877V    R           D             0123030 04005665000536835004005665004005665004542500072101900003821481045210040056650000522000536835000060200052073600006150002002830000
38134223       3821107201060070   5512002001CUELLAR ERASMO DELIVANO  518515014       170588343 520185150144V    R           D             0123030 04005665000536835004005665004005665004542500072101900003821481045210040056650000522000536835000060200052073600006150002002830000
38135643       3833105531060070   5512002001PECORINI ANGELICA ACOSTA 517247950       040286363 527172479508M    R           D             0123030 04005665000203997004005665004005665004209662072101900003488643045210040056650000522000203997000060200052073600006150002002830000
38135944       3829600793060098   5512002001VILLARREAL,ROSANA DEL V. 517816790       050588343 527178167907M    R           D             0123030 02215540000414504002215540002215540002630044039879700002231247045210022155400000522000414504000060200028802000006150001107770000
38136741       3822607665060098   5512002001GONZALEZ OSCAR A         517429579       100888343 520174295795V    R           D             0123030 02485665000433010002485665002485665002918675044741900002471256045210024856650000522000433010000060200032313600006150001242830000
38136843       3833105136060070   5512002001ARGANARAZ VICTOR OMAR    516002765       170389333 520160027658V    R           D             0123030 04005665000536835004005665004005665004542500072101900003821481045210040056650000522000536835000060200052073600006150002002830000
38137195       3820306074060098   5512002001SORIA LUIS OMAR          516526621       280689333 620165266219V    R           D             0123030 022155470004131390022155470022155470026286860420953000022077330552100221554700005220004131390000602000288021000061500011077700006160000221550000
38137462       3821106372060070   5512002001PALAVECINO SILVIA SUSANA 517716087       021087353 527177160879M    R           D             0123030 04005665000536835004005665004005665004542500072101900003821481045210040056650000522000536835000060200052073600006150002002830000
38138785       3825711906060098   5512002001RODRIGUEZ RAMON ROSA     517675352       210390323 520176753529V    R           D             0123030 02756586000729015002756586002756586003485601049618500002989416045210027565860000522000729015000060200035835600006150001378290000
38139841       3822608316060098   5512002001GONZALEZ GLORIA LOTO DE  516457005       010690323 527164570059M    R           D             0123030 02350205000121257002350205002350205002471462042303700002048425045210023502050000522000121257000060200030552700006150001175100000
38140091       3830701355060079   5512002001LLINAS VALERIA           518520948       120189333 527185209488M    R           D             0123030 03371022000770985003371022003371022004142007060678400003535223045210033710220000522000770985000060200043823300006150001685510000
38140884       3838511624060079   5512002001DIAS ADRIANA INES CAMPOS 517750451       100887353 727177504519M    R           D             0123030 033710220007663270033710220033710220041373490674204000034631450552100337102200005220007663270000602000438233000061500016855100006160000674200000
38140892       3816100696060098   5512002001PALLARES TERESITA E      516802258       280889333 627168022587M    R           D             0123030 023502050004222780023502050023502050027724830446539000023259440552100235020500005220004222780000602000305527000061500011751000006160000235020000
38140923       3834607305060070   5512002001SAYAGO MIRIHAM ELIZABETH 517033819       230388343 527170338192M    R           D             0123030 03595542000206321003595542003595542003801863064719700003154666045210035955420000522000206321000060200046742000006150001797770000
38141181       3832304164060070   5512002001BASUALDO,REYNA CRISTINA  518550961       090588343 527185509619M    R           D             0123030 03390481000772314003390481003390481004162795061028700003552508045210033904810000522000772314000060200044076300006150001695240000
38141335       3838510717060064   5512002001GUZMAN PATRICIA LILIA    518300384       070590323 523183003844     R           D             0123030 03575335000507441003575335003575335004082776064356100003439215045210035753350000522000507441000060200046479400006150001787670000
38141644       3835407576060047   5512002001LOPEZ VICTOR MARCELO     516467943       210286363 520164679439V    R           D             0123030 04520565000849506004520565004520565005370071081370100004556370045210045205650000522000849506000060200058767300006150002260280000
38141791       3855502014060079   5512002001OZAN ANTONIO RITO        516910422       140587353 520169104221V    R           D             0123030 031682530007473630031682530031682530039156160712857000032027590552100316825300005220007473630000602000411873000061500015841300006650001425710000
38142763       3835407955060070   5512002001LEIVA ESTELA IBA#EZ DE   517164999       010690323 523171649994M    R           D             0123030 04005665000536835004005665004005665004542500072101900003821481045210040056650000522000536835000060200052073600006150002002830000
38142852       3837709401060064   5512001001MALDONADO NILDA          520220412       090590323 527202204126M    R           D             0123030 03356054000769963003356054003356054004126017060409000003521927045210033560540000522000769963000060200043628700006150001678030000
38142954       3825710226060098   5512002001LUKES HAYDA SUSANA       520604527       110590323 527206045278M    R           D             0123030 02756586000451515002756586002756586003208101049618500002711916045210027565860000522000451515000060200035835600006150001378290000
38143154       3861308815060070   5512002001HERNANDEZ CARLOS MARCIAL 517139851       030888343 520171398518V    R           D             0123030 03390481000734829003390481003390481004125310061028700003515023045210033904810000522000734829000060200044076300006150001695240000
38144032       3822608421060070   5512002001SANTILLAN GLORIA ELENA   518495290       040588343 623184952904M    R           D             0123030 040056650005339770040056650040056650045396420761076000037785660552100400566500005220005339770000602000520736000061500020028300006160000400570000
38144231       3833105794060070   5512002001SANCHEZ REYES ANTONIO    516442696       030489333 620164426964V    R           D             0123030 040056650006545020040056650040056650046601670761076000038990910552100400566500005220006545020000602000520736000061500020028300006160000400570000
38144391       3835407553060064   5512002001ROLDAN ANA SERAFINA      521002629       010690323 527210026296M    R           D             0123030 03794617000799919003794617003794617004594536068303100003911505045210037946170000522000799919000060200049330000006150001897310000
38144422       3834606743060064   5512002001FERNANDEZ CARLOTA B DEL V517124089       290787353 727171240897M    R           D             0123030 037946170007945550037946170037946170045891720758923000038302490552100379461700005220007945550000602000493300000061500018973100006160000758920000
38145295       3838511616060064   5512002001INIGUEZ NORMA DIAZ DE    517840321       110790323 623178403214     R           D             0123030 035753360005049420035753360035753360040802780679314000034009640552100357533600005220005049420000602000464794000061500017876700006160000357530000
38145392       3833104895060070   5512002001NAZAR RAUL RENE          518542714       240487353 620185427146V    R           D             0123030 040056650008114770040056650040056650048171420761076000040560660552100400566500005220008114770000602000520736000061500020028300006160000400570000
38145635       3824209985060070   5512002001GRIGUELI CLAUDIA M.P.DE  518262180       210689333 627182621809M    R           D             0123030 0400566500052111700400566500400566500452678209413310000358545106521004005665000052200052111700006020005207360000615000200283000061600004005700006650001802550000
38145724       3833105256060070   5512002001MALDONADO SARA NOEMI     517563882       180888343 827175638828M    R           D             0123030 033904810007652780033904810033904810041557590712001000034437580552100339048100005220007652780000602000440763000061500016952400006160001017140000
38145745       3833106027060064   5512002001TORREZ LILIANA DEL VALLE 518090722       210189333 527180907225M    R           D             0123030 04233179000829876004233179004233179005063055076197200004301083045210042331790000522000829876000060200055031300006150002116590000
38146534       3881402494060098   5512002001TOTO MARIELA ALEJANDRA   521342371       120390323 627213423717M    R           D             0123030 027565860004496980027565860027565860032062840523751000026825330552100275658600005220004496980000602000358356000061500013782900006160000275660000
38147983       3858606735060079   5512002001JIMENEZ ROSSANA ADRIANA  521609456       160590323 827216094560M    R           D             0123030 031691990007506020031691990031691990039198010665532000032542690552100316919900005220007506020000602000411996000061500015846000006160000950760000
38148175       3856304214060079   5512002001SAYAGO JORGE A           516620043       180887353 720166200432V    R           D             0123030 033710220001863270033710220033710220035573490674204000028831450552100337102200005220001863270000602000438233000061500016855100006160000674200000
38148405       3818402753060070   5512002001ENCALADA ROXANA DEL V    521725640       020591313 727217256408M    R           D             0123030 040056650005311200040056650040056650045367850801132000037356530552100400566500005220005311200000602000520736000061500020028300006160000801130000
38148413       3837709896060070   5512001001VERON GLADYS BEATRIZ     520153669       160189333 727201536699M    R           D             0123030 040056650005311200040056650040056650045367850801132000037356530552100400566500005220005311200000602000520736000061500020028300006160000801130000
38148471       3816100793060098   5512002001BEDU ADRIANA BEATRIZ     528139077       080491313 627281390770M    R           D             0123030 022164570004131390022164570022164570026295960421127000022084690552100221645700005220004131390000602000288139000061500011082300006160000221650000
38148675       3832303822060070   5512002001PALACIOS ADALBERTO       517991464       130489333 620179914647V    R           D             0123030 040056650005339770040056650040056650045396420761076000037785660552100400566500005220005339770000602000520736000061500020028300006160000400570000
38149451       3821107313060098   5512002001SNEIDENIT MARIA ESTHER   521342963       110888343 727213429634M    R           D             0123030 022694030006929150022694030022694030029623180453880000025084380552100226940300005220006929150000602000295022000061500011347000006160000453880000
38149511       3817601606060098   5512002001JIMENEZ MARIA ELENA      520152367       230491313 527201523678M    R           D             0123030 02215272000692004002215272002215272002907276039874900002508527045210022152720000522000692004000060200028798500006150001107640000
38149841       3822607707060098   5512002001OLIVERA VICTORIA DEL C   521179315       150491313 527211793150M    R           D             0123030 02485665000473124002485665002485665002958789044741900002511370045210024856650000522000473124000060200032313600006150001242830000
38150122       3835407916060070   5512002001BAEZ RENE WILFREDO       518254085       260390323 520182540855V    R           D             0123030 04005665000536835004005665004005665004542500072101900003821481045210040056650000522000536835000060200052073600006150002002830000
38150253       3825711253060070   5512002001GALVAN ALBERTO DEL VALLE 517731477       190790323 520177314774V    R           D             0123030 04005665000536835004005665004005665004542500072101900003821481045210040056650000522000536835000060200052073600006150002002830000
38150342       3854701692060079   5512002001SALTO DANIELA LILIANA    520544236       170689333 627205442362M    R           D             0123030 031682530007549210031682530031682530039231740601969000033212050552100316825300005220007549210000602000411873000061500015841300006160000316830000
38150795       3835408003060064   5512002001CAMPOS TERESITA LUCIA    527293275       260291313 627272932757M    R           D             0123030 035756550005049420035756550035756550040805970679375000034012220552100357565500005220005049420000602000464835000061500017878300006160000357570000
38151254       3829600715060047   5512002001CHAZARRETA EDITH GRACIELA524175438       280390323 527241754389M    R           D             0123030 03808836000678390003808836003808836004487226068559100003801635045210038088360000522000678390000060200049514900006150001904420000
38151453       3832303756060079   5512002001SANCHEZ SILVIA E         520152362       240487353 827201523627M    R           D             0123030 031674580007506020031674580031674580039180600665167000032528930552100316745800005220007506020000602000411770000061500015837300006160000950240000
38152035       3816100673060098   5512002001MATTJE JORGE GUSTAVO     520719052       160491313 620207190528V    R           D             0123030 023502050006997780023502050023502050030499830446539000026034440552100235020500005220006997780000602000305527000061500011751000006160000235020000
38152043       3816100746060070   5512002001SUAREZ RAMON ANGEL       520154684       011091323 520201546843V    R           D             0123030 04005665000536835004005665004005665004542500072101900003821481045210040056650000522000536835000060200052073600006150002002830000
38152051       3825710996060098   5512002001RODRIGUEZ ISOLINA DEL V  520898091       061191313 627208980918M    R           D             0123030 0221485800068449200221485800221485800289935005204930000237885706521002214858000052200068449200006020002879320000615000110743000061600002214900006650000996690000
38152844       3817600986060070   5512002001ACUNA MERCEDES BENITO    518041015       190491313 520180410156V    R           D             0123030 03390481000494814003390481003390481003885295061028700003275008045210033904810000522000494814000060200044076300006150001695240000
38153044       3818402811060098   5512002001INIGO VIVIANA ALEJANDRA  521339530       211090323 527213395306M    R           D             0123030 02216457000630754002216457002216457002847211039896200002448249045210022164570000522000630754000060200028813900006150001108230000
38153484       3833105701060070   5512002001BRUCHMANN PEDRO EDGARDO  516098878       080488343 523160988789V    R           D             0123030 04005665000536835004005665004005665004542500072101900003821481045210040056650000522000536835000060200052073600006150002002830000
38153641       3818402374060098   5512002001ALMIRON SILVINA AMALIA   517889725       050586363 527178897255M    R           D             0123030 02214745000692004002214745002214745002906749039865400002508095045210022147450000522000692004000060200028791700006150001107370000
38153772       3837710025060064   5512002001TORRES ORQUIDIA ENRIQUETA516107426       231089333 827161074263M    R           D             0123030 037946170007918730037946170037946170045864900796870000037896200552100379461700005220007918730000602000493300000061500018973100006160001138390000
38153785       3821106921060070   5512002001JUAREZ DELIVANO MIGUEL A 521786355       090492303 520217863555V    R           D             0123030 04005665000814335004005665004005665004820000072101900004098981045210040056650000522000814335000060200052073600006150002002830000
38154273       3821107286060098   5512002001ARROYO VICTOR HUGO       517042785       150492303 820170427859V    R           D             0123030 023502050001168210023502050023502050024670260493543000019734830552100235020500005220001168210000602000305527000061500011751000006160000705060000
38154414       3822607611060098   5512002001SALAZAR CLARA DE LA M    517783896       031191313 527177838964M    R           D             0123030 02216749000414504002216749002216749002631253039901400002232239045210022167490000522000414504000060200028817700006150001108370000
38154532       3822607657060098   5512002001JIMENEZ HECTOR JESUS     514637020       090583393 523146370209V    R           D             0123030 02214745000414504002214745002214745002629249039865400002230595045210022147450000522000414504000060200028791700006150001107370000
38154545       3833104462060079   5512002001FERNANDEZ MARCELA A.     517663336       020588343 527176633366M    R           D             0123030 02964695000465676002964695002964695003430371053364500002896726045210029646950000522000465676000060200038541000006150001482350000
38154553       3835408556060070   5512002001CARO HECTOR RODOLFO      521709081       280492303 720217090815V    R           D             0123030 040056650005311200040056650040056650045367850801132000037356530552100400566500005220005311200000602000520736000061500020028300006160000801130000
38154663       3820304462060098   5512002001OCARANZA NORMA LIZ       518089927       280988343 627180899273M    R           D             0123030 022147450004131390022147450022147450026278840420801000022070830552100221474500005220004131390000602000287917000061500011073700006160000221470000
38154993       3817601622060070   5512002001ROJAS RAINERIO MARIA     518102412       210492303 620181024128V    R           D             0123030 035955420005063050035955420035955420041018470683152000034186950552100359554200005220005063050000602000467420000061500017977700006160000359550000
38155033       3838511357060070   5512002001BARON LELI M FERREYRA DE 517782969       230791313 727177829698M    R           D             0123030 040056650005311200040056650040056650045367850801132000037356530552100400566500005220005311200000602000520736000061500020028300006160000801130000
38155062       3837709617060070   5512002001SANCHEZ LILIANA BEATRIZ  517491018       271287353 527174910184M    R           D             0123030 03390481000494814003390481003390481003885295061028700003275008045210033904810000522000494814000060200044076300006150001695240000
38155091       3816100506060070   5512002001ALTAMIRANDA CARLOS A     517511837       160190323 620175118374V    R           D             0123030 040056650007739920040056650040056650047796570761076000040185810552100400566500005220007739920000602000520736000061500020028300006160000400570000
38155274       3824209134060079   5512002001GUERRA CLAUDIA LILIANA   517782993       211188343 527177829930M    R           D             0123030 03167458000719595003167458003167458003887053057014300003316910045210031674580000522000719595000060200041177000006150001583730000
38155295       3824209134060098   5512002001SAYAGO NORMA MARISABEL   516620228       251288343 527166202286M    R           D             0123030 02214745000692004002214745002214745002906749039865400002508095045210022147450000522000692004000060200028791700006150001107370000
38155813       3822608003060098   5512002001FLAMENCO ANDREA O DE     530590609       010291313 727305906099M    R           D             0123030 023510090004208000023510090023510090027718090470201000023016080552100235100900005220004208000000602000305631000061500011755000006160000470200000
38156055       3825711396060070   5512002001DEMEZYSZYN VICTOR R      516661653       090492303 520166616531V    R           D             0123030 04005665000536835004005665004005665004542500072101900003821481045210040056650000522000536835000060200052073600006150002002830000
38156084       3821106712060070   5512002001ARIAS RAMON ABELARDO     516638302       050490323 720166383022V    R           D             0123030 040056650005311200040056650040056650045367850801132000037356530552100400566500005220005311200000602000520736000061500020028300006160000801130000
38156351       3820305496060070   5512002001ABREGU VICTOR EDUARDO    520153459       110590323 620201534594V    R           D             0123030 040056650005339770040056650040056650045396420761076000037785660552100400566500005220005339770000602000520736000061500020028300006160000400570000
38156445       3825710675060064   5512002001LEGUIZAMON LUIS JORGE    518101313       150592303 520181013134V    R           D             0123030 03794617000522419003794617003794617004317036068303100003634005045210037946170000522000522419000060200049330000006150001897310000
38156885       3822607611060098   5512002001PUCHETA CLAUDIA MABEL    518310821       160590323 627183108218M    R           D             0123030 022164570006906390022164570022164570029070960421127000024859690552100221645700005220006906390000602000288139000061500011082300006160000221650000
38157022       3821106801060098   5512002001SANCHEZ ARTURO ROQUE     516885169       200487353 520168851694V    R           D             0123030 024856650004258480024856650024856650029115130559274000023522390552100248566500005220004258480000602000323136000061500012428300006650001118550000
38157221       3831503296060070   5512002001BARRAZA ELISA VICTORIA   527293236       120891313 527272932366M    R           D             0123030 03595542000508821003595542003595542004104363064719700003457166045210035955420000522000508821000060200046742000006150001797770000
38157284       3818402053060070   5512002001COMAN GREGORIA DEL V     517724700       131188343 527177247001M    R           D             0123030 04005665000814335004005665004005665004820000072101900004098981045210040056650000522000814335000060200052073600006150002002830000
38157483       3815300286060098   5512002001AGUERO MARIO ALBERTO     518090978       270389333 520180909789V    R           D             0123030 02214745000692004002214745002214745002906749039865400002508095045210022147450000522000692004000060200028791700006150001107370000
38157535       3820305337060098   5512002001ROCABADO MIRIAN TREJO DE 521044323       120491313 627210443237M    R           D             0123030 024856650007089180024856650024856650031945830472276000027223070552100248566500005220007089180000602000323136000061500012428300006160000248570000
38157962       3818402312060098   5512002001GRAMAJO CRISTINA C DE    520151106       020890323 627201511068M    R           D             0123030 022164570006906390022164570022164570029070960421127000024859690552100221645700005220006906390000602000288139000061500011082300006160000221650000
38157975       3818402873060070   5512002001CUELLAR JOSE LUCIANO     520578142       150491313 720205781421V    R           D             0123030 040056650005311200040056650040056650045367850801132000037356530552100400566500005220005311200000602000520736000061500020028300006160000801130000
38157983       3817601885060098   5512002001PALOMINO NANCY M PEREYRA 521342759       240791313 527213427593M    R           D             0123030 02351000000423757002351000002351000002774757042318000002351577045210023510000000522000423757000060200030563000006150001175500000
38160282       3861308711060079   5512002001MURAD LUIS ADOLFO        516194546       090287353 520161945464V    R           D             0123030 03167458000479580003167458003167458003647038057014300003076895045210031674580000522000479580000060200041177000006150001583730000
38160952       3824209931060064   5512002001GALVAN DANIEL ALBERTO    520672867       260389333 720206728672V    R           D             0123030 042331790008237810042331790042331790050569600846636000042103240552100423317900005220008237810000602000550313000061500021165900006160000846640000
38162124       3825712167060098   5512002001FRIAS FRANCISCO DANIEL   517908956       210189333 520179089565V    R           D             0123030 02214745000692004002214745002214745002906749039865400002508095045210022147450000522000692004000060200028791700006150001107370000
38172234       3828100143060064   5512002001KOLEFF VICTOR ANTONIO    516221594       190485373 523162215949V    R           D             0123030 03575335000204941003575335003575335003780276064356100003136715045210035753350000522000204941000060200046479400006150001787670000
38189231       3837708854060064   5512002001PALOMO PEDRO FELIX       516715672       061189333 520167156720V    R           D             0123030 037946170007878500037946170037946170045824670853789000037286780552100379461700005220007878500000602000493300000061500018973100006650001707580000
38189422       3833104655060070   5512002001RAMIREZ SUSANA           520589816       230492303 527205898161M    R           D             0123030 04005665000536835004005665004005665004542500072101900003821481045210040056650000522000536835000060200052073600006150002002830000
38189914       3822607746060098   5512002001NERVO MIRIAM MABEL       518514651       240990323 527185146516M    R           D             0123030 02216457000414504002216457002216457002630961039896200002231999045210022164570000522000414504000060200028813900006150001108230000
38190473       3835407681060070   5512002001CHAPARRO MIGUEL R        516212951       251088343 520162129512V    R           D             0123030 04005665000536835004005665004005665004542500072101900003821481045210040056650000522000536835000060200052073600006150002002830000
38190643       3837708757060070   5512002001NUNEZ BETI S             517583311       210389333 927175833116M    R           D             0123030 040056650005254040040056650040056650045310690881246000036498230552100400566500005220005254040000602000520736000061500020028300006160001602270000
38191005       3852400271060079   5512002001SAYAGO ZULEMA            520910510       080693293 527209105107M    R           D             0123030 03169462000663330003169462003169462003832792057050300003262289045210031694620000522000663330000060200041203000006150001584730000
38191152       3883704342060098   5512002001JUAREZ MARTA N           516561388       040693293 527165613886M    R           D             0123030 02351000000423757002351000002351000002774757042318000002351577045210023510000000522000423757000060200030563000006150001175500000
38194634       3820305604060098   5512002001BETANCOURT JOSE A        520127846       260592303 620201278466V    R           D             0123030 027565860004496980027565860027565860032062840523751000026825330552100275658600005220004496980000602000358356000061500013782900006160000275660000
38195601       3817601904060070   5512002001SERRANO JOSE E           521910096       050992303 520219100966V    R           D             0123030 04005665000536835004005665004005665004542500072101900003821481045210040056650000522000536835000060200052073600006150002002830000
38196314       3819203981060098   5512002001MESSINA MYRIAM E         517840410       160491313 627178404100M    R           D             0123030 022147450006293890022147450022147450028441340420801000024233330552100221474500005220006293890000602000287917000061500011073700006160000221470000
38200883       3819203981060098   5512002001DIAZ AIDA MARGARITA      517840685       080693293 527178406855M    R           D             0123030 02214745000692004002214745002214745002906749039865400002508095045210022147450000522000692004000060200028791700006150001107370000
38203593       3824209401060098   5512002001GRAMAJO ELIDA ROSA       521669591       030693293 527216695912M    R           D             0123030 02351000000423757002351000002351000002774757042318000002351577045210023510000000522000423757000060200030563000006150001175500000
38205901       3862110621060079   5512002001GALVAN ROXANA R          522415102       121291313 727224151026M    R           D             0123030 033710660004888270033710660033710660038598930674213000031856800552100337106600005220004888270000602000438239000061500016855300006160000674210000
38206305       3822607947060098   5512002001ACOSTA ROSANA A          522032071       121092303 527220320710M    R           D             0123030 02756586000451515002756586002756586003208101049618500002711916045210027565860000522000451515000060200035835600006150001378290000
38208072       3824209931060098   5512002001TREZAMI FELIX LUCIO      517322531       200190323 620173225319V    R           D             0123030 0275658600044152100275658600275658600319810706477970000255031006521002756586000052200044152100006020003583560000615000137829000061600002756600006650001240460000
38208394       3820304423060098   5512002001PROKOP MARGARITA Y       520551134       291290323 727205511348M    R           D             0123030 024856650006698420024856650024856650031555070497132000026583750552100248566500005220006698420000602000323136000061500012428300006160000497130000
38208763       3825711616060098   5512002001MUNOZ SILVIA SOSA DE     517677491       290291313 627176774911M    R           D             0123030 024856650004314180024856650024856650029170830472276000024448070552100248566500005220004314180000602000323136000061500012428300006160000248570000
38209031       3834607375060047   5512002001GALEANO MABEL            516661917       140486363 527166619179M    R           D             0123030 03571594000627710003571594003571594004199304064288700003556417045210035715940000522000627710000060200046430700006150001785800000
38209073       3828100271060047   5512002001JIMENEZ MARCIA ZULEMA    518157487       030491313 527181574874M    R           D             0123030 03571594000507185003571594003571594004078779064288700003435892045210035715940000522000507185000060200046430700006150001785800000
38209133       3825712144060098   5512002001MORENO ADELMA ISABEL     522722734       150891313 627227227341M    R           D             0123030 022167490006906390022167490022167490029073880421181000024862070552100221674900005220006906390000602000288177000061500011083700006160000221670000
38209154       3834606395060070   5512002001CORONEL JUAN FELIX       514279444       100491313 520142794447V    R           D             0123030 04005665000536835004005665004005665004542500072101900003821481045210040056650000522000536835000060200052073600006150002002830000
38209175       3817601131060070   5512002001OYARZABAL FRANCISCO DAVID521631180       161189333 623216311809     R           D             0123030 040056650005339770040056650040056650045396420761076000037785660552100400566500005220005339770000602000520736000061500020028300006160000400570000
38209183       3838510733060064   5512002001SANTILLAN OSCAR ALBERTO  517183964       170989333 520171839646V    R           D             0123030 03575335000784941003575335003575335004360276064356100003716715045210035753350000522000784941000060200046479400006150001787670000
38209191       3832304102060070   5512002001JIMENEZ JUAN MARTIN      520170731       110491313 620201707316V    R           D             0123030 035955420005063050035955420035955420041018470683152000034186950552100359554200005220005063050000602000467420000061500017977700006160000359550000
38209455       3819203474060070   5512002001CORIA REGINA MALDONADO   520170658       040491313 527201706586M    R           D             0123030 04005665000536835004005665004005665004542500072101900003821481045210040056650000522000536835000060200052073600006150002002830000
38209683       3838511906060098   5512002001FRIAZ RENE HUMBERTO      517675412       200392303 520176754126V    R           D             0123030 02756586000149015002756586002756586002905601049618500002409416045210027565860000522000149015000060200035835600006150001378290000
38209832       3821106774060098   5512002001JIMENEZ LUCAS OMAR       520307207       250690323 620203072075V    R           D             0123030 022164570004131390022164570022164570026295960421127000022084690552100221645700005220004131390000602000288139000061500011082300006160000221650000
38209971       3820306116060070   5512002001PEREZ MIRTA GRACIELA     520686081       100393293 727206860818M    R           D             0123030 040056650005311200040056650040056650045367850801132000037356530552100400566500005220005311200000602000520736000061500020028300006160000801130000
38210215       3838511937060070   5512002001PALAVECINO VICTOR ABEL   520153449       090693293 520201534497V    R           D             0123030 04005665000814335004005665004005665004820000072101900004098981045210040056650000522000814335000060200052073600006150002002830000
38210223       3825712314060070   5512002001RODRIGUEZ GLADYS NOEMI   521678014       160392303 627216780146M    R           D             0123030 040056650005339770040056650040056650045396420761076000037785660552100400566500005220005339770000602000520736000061500020028300006160000400570000
38210325       3815300255060098   5512002001JIMENEZ JUAN CARLOS DEL V516561329       010688343 620165613296V    R           D             0123030 0275738100044152100275738100275738100319890206479850000255091706521002757381000052200044152100006020003584600000615000137869000061600002757400006650001240820000
38210391       3838512167060098   5512002001PALAVECINO DARIO ALONSO  514754487       120289333 620147544872V    R           D             0123030 022147450006906390022147450022147450029053840420801000024845830552100221474500005220006906390000602000287917000061500011073700006160000221470000
38210485       3825712295060070   5512002001SUAREZ EDGARDO           516884844       210488343 520168848448V    R           D             0123030 04005665000536835004005665004005665004542500072101900003821481045210040056650000522000536835000060200052073600006150002002830000
38210493       3825712191060098   5512002001JUAREZ CLAUDIA MAGALI    523048319       020693293 527230483197M    R           D             0123030 02216749000325242002216749002216749002541991039901400002142977045210022167490000522000325242000060200028817700006150001108370000
38210671       3859407777060079   5512002001JUAREZ MERI MARCELA      520563976       210392303 723205639764M    R           D             0123030 035745870007798930035745870035745870043544800714917000036395630552100357458700005220007798930000602000464696000061500017872900006160000714920000
38210825       3817601073060070   5512002001GALVAN JULIO CESAR       520333722       280188343 620203337222V    R           D             0123030 038006040005201410038006040038006040043207450722115000035986300552100380060400005220005201410000602000494079000061500019003000006160000380060000
38210854       3815300166060070   5512002001COSTAS NOEMI PONCE DE    517910476       251192303 527179104763M    R           D             0123030 03800604000522828003800604003800604004323432068410900003639323045210038006040000522000522828000060200049407900006150001900300000
38211465       3837709157060064   5512001001SOSA FELIX SEGUNDO       516858026       220486363 520168580267V    R           D             0123030 04233179000672901004233179004233179004906080076197200004144108045210042331790000522000672901000060200055031300006150002116590000
38211533       3820306027060098   5512002001VALDIVIA VICTOR MARCELINO516524885       231290323 520165248857V    R           D             0123030 02756586000729015002756586002756586003485601049618500002989416045210027565860000522000729015000060200035835600006150001378290000
38211575       3832304075060079   5512002001LEDESMA SILVINA YANEL    522440551       041092303 527224405516M    R           D             0123030 03167458000757080003167458003167458003924538057014300003354395045210031674580000522000757080000060200041177000006150001583730000
38211774       3818403234060070   5512002001SANTOS MILTON ELIAS      521547878       250192303 520215478786V    R           D             0123030 04005665000814335004005665004005665004820000072101900004098981045210040056650000522000814335000060200052073600006150002002830000
38211813       3817601274060079   5512002001PEREZ YOLANDA NORALY     520519475       040191313 623205194754M    R           D             0123030 031674580007549210031674580031674580039223790601818000033205610552100316745800005220007549210000602000411770000061500015837300006160000316750000
38211994       3819204075060098   5512002001SERRANO,MYRIAM DE JESUS  520151225       100588343 527201512250M    R           D             0123030 02215540000414504002215540002215540002630044039879700002231247045210022155400000522000414504000060200028802000006150001107770000
38212092       3822607777060098   5512002001IBARRA SONIA ELIZABETH   524074872       260192303 527240748725M    R           D             0123030 02485665000433010002485665002485665002918675044741900002471256045210024856650000522000433010000060200032313600006150001242830000
38212165       3822608676060098   5512002001CREMONA MARIA DE LOS A   518614002       030693293 527186140023M    R           D             0123030 02350248000423757002350248002350248002774005042304400002350961045210023502480000522000423757000060200030553200006150001175120000
38212173       3835408676060047   5512002001VALOR SANDRA LILIANA     520594805       210291313 727205948053M    R           D             0123030 038088360007955030038088360038088360046043390761768000038425710552100380883600005220007955030000602000495149000061500019044200006160000761770000
38212322       3835407592060070   5512002001ORELLANA NELIDA AZUCENA  521974010       300692303 727219740102M    R           D             0123030 040056650006516450040056650040056650046573100801132000038561780552100400566500005220006516450000602000520736000061500020028300006160000801130000
38212335       3837709857060064   5512002001NAVARRO NILDA SERRANO DE 517467987       180890323 527174679873M    R           D             0123030 04233179000552376004233179004233179004785555076197200004023583045210042331790000522000552376000060200055031300006150002116590000
38212385       3838511953060070   5512002001SOSA FERREYRA OSVALDO    520153622       211091313 520201536228V    R           D             0123030 04005665000536835004005665004005665004542500072101900003821481045210040056650000522000536835000060200052073600006150002002830000
38212393       3825710362060098   5512002001JUAREZ SAUL ALFREDO      517514236       040693293 520175142364V    R           D             0123030 02606906000138791002606906002606906002745697046924300002276454045210026069060000522000138791000060200033889800006150001303450000
38212432       3825711721060098   5512002001PEZZINI MONICA DEL V R   518603699       130588343 627186036994M    R           D             0123030 022147450006906390022147450022147450029053840420801000024845830552100221474500005220006906390000602000287917000061500011073700006160000221470000
38212445       3838512306060070   5512002001ALBORNOZ MONICA RAMONA   523973877       120991313 527239738775M    R           D             0123030 04005665000814335004005665004005665004820000072101900004098981045210040056650000522000814335000060200052073600006150002002830000
38213085       3825712167060098   5512002001ACOSTA RITA L            520153022       010592303 527201530224M    R           D             0123030 02214908000692004002214908002214908002906912039868300002508229045210022149080000522000692004000060200028793800006150001107450000
38213205       3838511864060070   5512002001LANDRIEL REINA N         521344802       260392303 627213448027M    R           D             0123030 040056650005339770040056650040056650045396420761076000037785660552100400566500005220005339770000602000520736000061500020028300006160000400570000
38213221       3838511713060070   5512002001LEGUIZAMON NESTOR M      522104701       291191313 520221047010V    R           D             0123030 04005665000783833004005665004005665004789498072101900004068479045210040056650000522000783833000060200052073600006150002002830000
38213263       3822607576060098   5512002001RISSO PATRON IMELDA DEL C518611893       240591313 627186118931M    R           D             0123030 027565860007271980027565860027565860034837840523751000029600330552100275658600005220007271980000602000358356000061500013782900006160000275660000
38213394       3838511721060047   5512002001SALTO MARIO D            517890938       070191313 520178909380V    R           D             0123030 03571594000784685003571594003571594004356279064288700003713392045210035715940000522000784685000060200046430700006150001785800000
38213404       3825711752060070   5512002001MALDONADO JOSEFA DEL V   518429793       190392303 527184297936M    R           D             0123030 04005665000536835004005665004005665004542500072101900003821481045210040056650000522000536835000060200052073600006150002002830000
38213412       3825710996060098   5512002001CHAVEZ NORMA A           522547222       220693293 527225472225M    R           D             0123030 02216749000414504002216749002216749002631253039901400002232239045210022167490000522000414504000060200028817700006150001108370000
38213425       3825711632060070   5512002001NUNEZ BEATRIZ DEL V      520334725       201192303 527203347257M    R           D             0123030 04005665000536835004005665004005665004542500072101900003821481045210040056650000522000536835000060200052073600006150002002830000
38213543       3824209304060098   5512002001SOSA MARCELO G           520959905       210891313 520209599059V    R           D             0123030 02756586000729015002756586002756586003485601049618500002989416045210027565860000522000729015000060200035835600006150001378290000
38213705       3839350057060047   5512002001ALMARAZ ESTHER DEL VALLE 518102497       080693293 527181024971M    R           D             0123030 03571594000780643003571594003571594004352237064288700003709350045210035715940000522000780643000060200046430700006150001785800000
38213865       3825710996060098   5512002001PERALTA REINA VIVIANA    522250618       220693293 627222506188M    R           D             0123030 022167490004131390022167490022167490026298880421181000022087070552100221674900005220004131390000602000288177000061500011083700006160000221670000
38213881       3830701394060064   5512002001SANTILLAN TELMA ROXANA   521910148       260892303 527219101487M    R           D             0123030 03794617000642944003794617003794617004437561068303100003754530045210037946170000522000642944000060200049330000006150001897310000
38214023       3824209134060098   5512002001CHAVEZ MARIA I A DE      517502454       071286363 527175024544M    R           D             0123030 02214788000414504002214788002214788002629292039866100002230631045210022147880000522000414504000060200028792200006150001107390000
38214031       3824209134060098   5512002001MARRON FRANKLIN MARCELO  516620015       010987353 520166200157V    R           D             0123030 02214745000692004002214745002214745002906749039865400002508095045210022147450000522000692004000060200028791700006150001107370000
38214094       3825711856060070   5512002001CUELLAR RAUL OSCAR       517966829       070492303 520179668298V    R           D             0123030 04005665000536835004005665004005665004542500072101900003821481045210040056650000522000536835000060200052073600006150002002830000
38214434       3821106221060070   5512002001DIAZ MARIANA GRACIELA    521679050       030493293 527216790508M    R           D             0123030 04005665000536835004005665004005665004542500072101900003821481045210040056650000522000536835000060200052073600006150002002830000
38214565       3832303482060070   5512002001CASTANO ROQUE A          523621778       131091313 620236217788V    R           D             0123030 040056650008114770040056650040056650048171420761076000040560660552100400566500005220008114770000602000520736000061500020028300006160000400570000
38214654       3825710621060098   5512002001IBARRA SILVIA B          522415131       070793293 523224151314M    R           D             0123030 02350248000423757002350248002350248002774005042304400002350961045210023502480000522000423757000060200030553200006150001175120000
38214743       3822607611060098   5512002001LUNA ELDA JUAREZ DE      518318794       121188343 527183187940M    R           D             0123030 02216749000414504002216749002216749002631253039901400002232239045210022167490000522000414504000060200028817700006150001108370000
38215142       3825711736060098   5512002001CASTANO MERCEDES E       522618158       020693293 527226181585M    R           D             0123030 03300432000186026003300432003300432003486458059407800002892380045210033004320000522000186026000060200042905600006150001650220000
38215163       3822607611060098   5512002001TORRES MARCELO DEL V     517215302       130987353 520172153020V    R           D             0123030 02215540000414504002215540002215540002630044039879700002231247045210022155400000522000414504000060200028802000006150001107770000
38215192       3824209857060098   5512002001LUNA GABRIELA DEL V      522941117       070193293 627229411174M    R           D             0123030 027565860006659480027565860027565860034225340523751000028987830552100275658600005220006659480000602000358356000061500013782900006160000275660000
38215294       3817601703060098   5512002001SIERRA MARIA INES        521894340       180693293 527218943409M    R           D             0123030 02756586000451515002756586002756586003208101049618500002711916045210027565860000522000451515000060200035835600006150001378290000
38215304       3824209714060098   5512002001ALDERETE MONICA D B DE   520155634       180990323 527201556347M    R           D             0123030 02350205000701257002350205002350205003051462042303700002628425045210023502050000522000701257000060200030552700006150001175100000
38215341       3817601123060070   5512002001ZABALA ANIBAL OSVALDO    521342296       210892303 520213422961V    R           D             0123030 03595542000508821003595542003595542004104363064719700003457166045210035955420000522000508821000060200046742000006150001797770000
38215532       3824208711060098  15512002001GONZALEZ REINA A         518154871       300192303 527181548717M    R           D             0123030 02216749000396250002216749002216749002612999039901400002213985045210022167490000522000396250000060200028817700006150001108370000
38215781       3821106751060098   5512002001LLARULL ELVIRA MERCEDES  517164992       210693293 527171649922M    R           D             0123030 02216749000414504002216749002216749002631253039901400002232239045210022167490000522000414504000060200028817700006150001108370000
38215794       3825711237060098  15512002001SUAREZ ORLANDO DEL V     518376824       060588343 520183768248V    R           D             0123030 02756586000302500002756586002756586003059086049618500002562901045210027565860000522000302500000060200035835600006150001378290000
38215833       3821107487060098   5512002001BARRIENTOS GRACIELA      522422185       150492303 627224221857M    R           D             0123030 023510000005160280023510000023510000028670280446690000024203380552100235100000005220005160280000602000305630000061500011755000006160000235100000
38215862       3837710056060070   5512002001ROMERO LILI Z            523164030       150693293 523231640304M    R           D             0123030 04005665000536835004005665004005665004542500072101900003821481045210040056650000522000536835000060200052073600006150002002830000
38216224       3835408011060070   5512002001FARIAS JOSE LUIS         521562862       180492303 520215628621V    R           D             0123030 03595586000786321003595586003595586004381907064720500003734702045210035955860000522000786321000060200046742600006150001797790000
38216342       3824210095060098   5512002001CRUZ SULMA YOLANDA       518400385       110192303 727184003851M    R           D             0123030 024876700004298270024876700024876700029174970497534000024199630552100248767000005220004298270000602000323397000061500012438400006160000497530000
38216745       3857104462060079   5512002001CUEVA GARCIELA DEL VALLE 522440060       010793293 627224400603M    R           D             0123030 029658970007411860029658970029658970037070830563521000031435620552100296589700005220007411860000602000385567000061500014829500006160000296590000
38216774       3818402881060070   5512001001BRAVO ELMINA DE JESUS    521342256       220491313 527213422567M    R           D             0123030 04005665000536835004005665004005665004542500072101900003821481045210040056650000522000536835000060200052073600006150002002830000
38217173       3829600336060079   5512002001RODRIGUEZ FABIANA M      521726738       100592303 727217267388M    R           D             0123030 031694620007527610031694620031694620039222230633892000032883310552100316946200005220007527610000602000412030000061500015847300006160000633890000
38217335       3835408212060070   5512002001PAZ LUCIA I              518517706       070388343 527185177063M    R           D             0123030 04005665000536835004005665004005665004542500072101900003821481045210040056650000522000536835000060200052073600006150002002830000
38217623       3831502857060070   5512002001ACOSTA VICTOR ROLANDO    514706141       210685373 520147061413V    R           D             0123030 04005665000536835004005665004005665004542500072101900003821481045210040056650000522000536835000060200052073600006150002002830000
38217995       3817601661060098  15512002001MOYANO VICENTE OMAR      517170596       050592303 520171705968V    R           D             0123030 02485665000580000002485665002485665003065665044741900002618246045210024856650000522000580000000060200032313600006150001242830000
38218072       3818403296060098   5512002001BARRAZA SONIA MARIEL     527293237       261092303 627272932374M    R           D             0123030 024856650004314180024856650024856650029170830472276000024448070552100248566500005220004314180000602000323136000061500012428300006160000248570000
38218221       3818403137060098   5512002001MONTES MARIEL E          518537334       180491313 527185373342M    R           D             0123030 02351648000423757002351648002351648002775405042329600002352109045210023516480000522000423757000060200030571400006150001175820000
38218352       3821107197060047   5512002001VILLARREAL MARIA TERESA  522242423       220992303 627222424238M    R           D             0123030 036714800007889290036714800036714800044604090697581000037628280552100367148000005220007889290000602000477292000061500018357400006160000367150000
38218412       3822608637060098   5512002001OLMOS MARGARITA          521993608       040693293 627219936082M    R           D             0123030 024856650007089180024856650024856650031945830472276000027223070552100248566500005220007089180000602000323136000061500012428300006160000248570000
38218603       3818403064060070   5512002001FERNANDEZ HORTENCIA      520578102       050291313 627205781027M    R           D             0123030 031854190004725080031854190031854190036579270605229000030526980552100318541900005220004725080000602000414104000061500015927100006160000318540000
38218674       3825711326060098   5512002001RODRIGUEZ ADRIANA E      522390580       240693293 527223905809M    R           D             0123030 02215951000414504002215951002215951002630455039887200002231583045210022159510000522000414504000060200028807400006150001107980000
38218975       3821106406060070   5512002001GALVAN WALTER R          516620222       150492303 520166202222V    R           D             0123030 04005665000536835004005665004005665004542500072101900003821481045210040056650000522000536835000060200052073600006150002002830000
38218983       3824210095060098   5512002001CASTANO MIRTA VAZQUEZ    518086037       051191313 627180860377M    R           D             0123030 024876700007089180024876700024876700031965880472658000027239300552100248767000005220007089180000602000323397000061500012438400006160000248770000
38218991       3825711326060098   5512002001MALDONADO LILIANA I DE   518037051       071093293 727180370515M    R           D             0123030 022167490004117730022167490022167490026285220443349000021851730552100221674900005220004117730000602000288177000061500011083700006160000443350000
38219031       3822607777060098   5512002001JUAREZ CARLOS FABIAN     522969327       150991313 520229693272V    R           D             0123030 02485665000673025002485665002485665003158690044741900002711271045210024856650000522000673025000060200032313600006150001242830000
38219332       3833105183060070   5512002001LLANOS BLANCA I          520157432       150393293 527201574329M    R           D             0123030 04005665000814335004005665004005665004820000072101900004098981045210040056650000522000814335000060200052073600006150002002830000
38219434       3819203717060098   5512002001MOREIRA JOSE LUIS        518471582       150492303 720184715822V    R           D             0123030 027565860007253810027565860027565860034819670551317000029306500552100275658600005220007253810000602000358356000061500013782900006160000551320000
38219463       3825710822060070   5512002001JUGO FELISA DEL C        520503926       090394283 627205039266M    R           D             0123030 040056650005339770040056650040056650045396420761076000037785660552100400566500005220005339770000602000520736000061500020028300006160000400570000
38219515       3833105875060070   5512002001GOMEZ ZULEMA ESTHER      523187801       100394283 527231878012M    R           D             0123030 04005665000536835004005665004005665004542500072101900003821481045210040056650000522000536835000060200052073600006150002002830000
38219604       3824210025060098   5512002001TABORDA ROSA DEL C V DE  517215405       110992303 527172154056M    R           D             0123030 02485665000710510002485665002485665003196175044741900002748756045210024856650000522000710510000060200032313600006150001242830000
38219942       3834606735060079   5512002001CAMPOS MARIA INES        520594816       030192303 527205948169M    R           D             0123030 03169462000479580003169462003169462003649042057050300003078539045210031694620000522000479580000060200041203000006150001584730000
38219963       3831503192060064   5512002001BAZAN GUSTAVO RICARDO    521631321       100394283 520216313217V    R           D             0123030 04233179000829876004233179004233179005063055076197200004301083045210042331790000522000829876000060200055031300006150002116590000
38219971       3818403192060098   5512002001RODRIGUEZ CARINA E       521112623       160692303 727211126235M    R           D             0123030 027565860004478810027565860027565860032044670551317000026531500552100275658600005220004478810000602000358356000061500013782900006160000551320000
38220105       3818402842060098  15512002001LOISEAU MARIA DE LOS A   520519463       240793293 627205194636M    R           D             0123030 024856650005800000024856650024856650030656650472276000025933890552100248566500005220005800000000602000323136000061500012428300006160000248570000
38220163       3818403281060098   5512002001IBARRA RAMONA LILIANA    518494787       141292303 827184947876M    R           D             0123030 024856650007057350024856650024856650031914000521989000026694110552100248566500005220007057350000602000323136000061500012428300006160000745700000
38220184       3835407537060070   5512002001PEREYRA CARLOS JULIO     527980496       110993293 620279804962V    R           D             0123030 040056650005339770040056650040056650045396420761076000037785660552100400566500005220005339770000602000520736000061500020028300006160000400570000
38220223       3822608251060098   5512002001HERRERA DANIEL A         518603898       240691313 520186038984V    R           D             0123030 02756586000451515002756586002756586003208101049618500002711916045210027565860000522000451515000060200035835600006150001378290000
38220325       3839350034060038   5512002001ESCOBEDO NELIDA A        517889861       060191313 627178898618M    R           D             0123030 035715940007821890035715940035715940043537830678603000036751800552100357159400005220007821890000602000464307000061500017858000006160000357160000
38220333       3817601073060098   5512002001APUD RAMON ANTONIO       522211768       280394283 520222117683V    R           D             0123030 02756586000451515002756586002756586003208101049618500002711916045210027565860000522000451515000060200035835600006150001378290000
38220472       3854701073060070   5512002001JIMENEZ MARTIN R E       520333741       100394283 520203337419V    R           D             0123030 04005665000799084004005665004005665004804749072101900004083730045210040056650000522000799084000060200052073600006150002002830000
38220574       3825710806060098   5512002001HERRERA CLAUDIA A        523335174       290394283 527233351747M    R           D             0123030 02756586000451515002756586002756586003208101049618500002711916045210027565860000522000451515000060200035835600006150001378290000
38220684       3819203501060047   5512002001JIMENEZ MERCEDES DEL C   520151505       200787353 627201515055M    R           D             0123030 038088360007981970038088360038088360046070330723679000038833540552100380883600005220007981970000602000495149000061500019044200006160000380880000
38220773       3833104446060070   5512002001DIAZ MARCELO F           521642943       250294283 520216429436V    R           D             0123030 04005665000536835004005665004005665004542500072101900003821481045210040056650000522000536835000060200052073600006150002002830000
38220794       3815300286060098   5512002001ALVAREZ SILVIA B         521632927       150992303 627216329274M    R           D             0123030 022167490004131390022167490022167490026298880421181000022087070552100221674900005220004131390000602000288177000061500011083700006160000221670000
38220891       3815300127060098   5512002001GOMEZ CORREA MIRTA L     514658798       040693293 523146587984M    R           D             0123030 02485665000433010002485665002485665002918675044741900002471256045210024856650000522000433010000060200032313600006150001242830000
38221402       3816100827060098   5512002001GEREZ NANCY ELVECIA      520931091       230492303 527209310916M    R           D             0123030 02409422000705299002409422002409422003114721043369600002681025045210024094220000522000705299000060200031322500006150001204710000
38221423       3816100827060098   5512002001LOBOS OLGA B             517547498       270293293 527175474981M    R           D             0123030 02350248000701257002350248002350248003051505042304400002628461045210023502480000522000701257000060200030553200006150001175120000
38221431       3817601274060098   5512002001NAVARRO TERESA G DE      517890899       190491313 627178908990M    R           D             0123030 022164570006906390022164570022164570029070960421127000024859690552100221645700005220006906390000602000288139000061500011082300006160000221650000
38221452       3822607843060098   5512002001TAIGUAN NOEMI            520151748       091290323 527201517481M    R           D             0123030 02216457000414504002216457002216457002630961039896200002231999045210022164570000522000414504000060200028813900006150001108230000
38221575       3822607611060098   5512002001CRISTINA DEL V. SUAREZ   520594638       020493293 527205946387M    R           D             0123030 02216749000692004002216749002216749002908753039901400002509739045210022167490000522000692004000060200028817700006150001108370000
38221685       3815300174060098   5512002001RODRIGUEZ SILVIA Z       517548207       261291313 527175482070M    R           D             0123030 02214788000414504002214788002214788002629292039866100002230631045210022147880000522000414504000060200028792200006150001107390000
38221711       3822607576060098   5512002001CONTRERAS CARLOS A       520153672       200993293 620201536724V    R           D             0123030 027565860007271980027565860027565860034837840523751000029600330552100275658600005220007271980000602000358356000061500013782900006160000275660000
