38000131       3816100874060098   5512002001LLANOS,MARGARITA NANCY   517066586       180904183 523170665864M    R           D             0823030 037725450005832620037725450037725450043558070876158000034796490552100377254500005220005832620000602000490431000061500018862700007460001971000000
38000173       3824209687060098   5512002001CARABAJAL NORMA GRACIELA 525276017       170108153 527252760178M    R           D             0823030 036404700005742400036404700036404700042147100852385000033623250552100364047000005220005742400000602000473261000061500018202400007460001971000000
38000262       3816100592060098  15512002001RODRIGUEZ,SILVIA NOEMI   525470711       150611123 627254707118M    R           D             0823030 0298009100036485000298009100298009100334494109236810000242126006521002980091000052200036485000006020003874120000615000149005000061600002980100007460003574630000
38000275       3824209134060098   5512002001TORRES ROSALIA VERONICA  527283990       150811113 527272839900M    R           D             0823030 028480160005201110028480160028480160033681270851729000025163980552100284801600005220005201110000602000370242000061500014240100007460003390860000
38000534       3819204187060098   5512002001RUIZ,GRACIELA MABEL      525837711       110504193 527258377112M    R           D             0823030 035083940003463080035083940035083940038547020828611000030260910552100350839400005220003463080000602000456091000061500017542000007460001971000000
38000631       3819204214060098   5512002001VARGAS,SILVIA SUSANA     521039406       280392313 627210394066M    R           D             0823030 0346169700037951100346169700346169700384120810372340000280397406521003461697000052200037951100006020004500210000615000173085000061600003461700007460003795110000
38000665       3825711721060098  15512002001CORONEL,SUSANA ELIZABETH 527392181       170904183 527273921813M    R           D             0823030 032462470001459400032462470032462470033921870730264000026619230552100324624700005220001459400000602000422012000061500016231200007460001459400000
38000801       3861309134060098   5512002001VALDEZ JOSE RAMON        528724181       281013093 520287241810V    R           D             0823030 027159400002921790027159400027159400030081190781048000022270710552100271594000005220002921790000602000353072000061500013579700007460002921790000
38000843       3838510161060098   5512002001ORELLANA SONIA MERCEDES  529613183       290812103 527296131836M    R           D             0823030 039046210005922830039046210039046210044969040899932000035969720552100390462100005220005922830000602000507601000061500019523100007460001971000000
38001132       3826550057060098  15512002001JAIMES,CLAUDIA NATALI    532685653       020513103 527326856539M    R           D             0823030 028480160003648500028480160028480160032128660877493000023353730552100284801600005220003648500000602000370242000061500014240100007460003648500000
38001433       3818402045060098   5512002001VILLALBA,EVA EDIT        523017815       180413103 527230178157M    R           D             0823030 028480160003012010028480160028480160031492170813844000023353730552100284801600005220003012010000602000370242000061500014240100007460003012010000
38001491       3824209207060070   5512001001CARRIZO PATRICIA ALEJANDR529276385       170613103 527292763854M    R           D             0823030 046656980006442690046656980046656980053099671036926000042730410552100466569800005220006442690000602000606541000061500023328500007460001971000000
38001501       3824209826060098   5512002001BOTTARO ROSANA ANDREA    521440356       091202203 527214403566M    R           D             0823030 03218518000326371003218518003218518003544889057933300002965556045210032185180000522000326371000060200041840700006150001609260000
38001543       3825723022060098  15512002001NAVARRO MONICA VALERIA   531081528       191212103 523310815284M    R           D             0823030 028480160003648500028480160028480160032128660877493000023353730552100284801600005220003648500000602000370242000061500014240100007460003648500000
38001645       3825723022060098   5512002001RODRIGUEZ CRISTIAN ANTONI527608059       261212103 520276080599V    R           D             0823030 028480160003012010028480160028480160031492170813844000023353730552100284801600005220003012010000602000370242000061500014240100007460003012010000
38001695       3824209134060098   5512002001MICHEL ELIANA BEATRIZ    534263660       210513103 527342636603M    R           D             0823030 028480160005201110028480160028480160033681271024155000023439720552100284801600005220005201110000602000370242000061500014240100007460005115120000
38001844       3822607642060098   5512002001ROMANI MARIA DE LOS ANGEL532438689       181212103 527324386896M    R           D             0823030 028480160005201110028480160028480160033681270911895000024562320552100284801600005220005201110000602000370242000061500014240100007460003992520000
38001904       3861309826060098   5512002001JAIME SONIA ELIZABETH    532054053       291013093 523320540534M    R           D             0823030 027159400005110890027159400027159400032270290888121000023389080552100271594000005220005110890000602000353072000061500013579700007460003992520000
38001933       3855503346060098   5512002001MEDINA,DENYS OMAR        527407455       210513103 520274074559V    R           D             0823030 03904621000373373003904621003904621004277994070283200003575162045210039046210000522000373373000060200050760100006150001952310000
38001962       3856303822060098   5512002001VALDIVIA,ROSA CECILIA    531337001       150811113 527313370017M    R           D             0823030 039046210005922830039046210039046210044969040899932000035969720552100390462100005220005922830000602000507601000061500019523100007460001971000000
38002052       3862112086060098   5512002001VILLALBA IBANA MARIEL    534353129       020513103 527343531295M    R           D             0823030 039046210005922830039046210039046210044969040899932000035969720552100390462100005220005922830000602000507601000061500019523100007460001971000000
38002264       3819204075060098   5512002001ESPINOLA,MARIA LUJAN     533063163       120811113 527330631630M    R           D             0823030 028480160003012010028480160028480160031492170813844000023353730552100284801600005220003012010000602000370242000061500014240100007460003012010000
38002293       3824209625060098   5512002001ANASTACIA CARINA MARGARIT526423942       190613103 527264239422M    R           D             0823030 033763180003372870033763180033763180037136050878588000028350170552100337631800005220003372870000602000438921000061500016881600007460002708510000
38002361       3816100592060098  15512002001SUAREZ,PAMELA SOLEDAD    529453597       150811113 527294535972M    R           D             0823030 028480160003502560028480160028480160031982720709743000024885290552100284801600005220003502560000602000370242000061500014240100007460001971000000
38002374       3861309583060098   5512002001PINERO CONSOLACION       518252891       230707163 527182528914M    R           D             0823030 041687730006103260041687730041687730047790990947479000038316200552100416877300005220006103260000602000541940000061500020843900007460001971000000
38002531       3855502327060098   5512002001HOYOS,RITA ALEJANDRA     528744453       010909133 527287444538M    R           D             0823030 032442430003282650032442430032442430035725080854815000027176930552100324424300005220003282650000602000421752000061500016221200007460002708510000
38002565       3816100545060098  15512002001CASTANO,HORACIO EMANUEL  529384437       120811113 520293844373V    R           D             0823030 031121670001459400031121670031121670032581070706130000025519770552100311216700005220001459400000602000404582000061500015560800007460001459400000
38002581       3824209714060098   5512002001CABRERA ROBERTA GRACIELA 526909074       031212103 527269090745M    R           D             0823030 031121670003192440031121670031121670034314110879434000025519770552100311216700005220003192440000602000404582000061500015560800007460003192440000
38002604       3824209826060098   5512002001MEDINA SILVANA LUCRECIA  529123872       011213093 527291238721M    R           D             0823030 027159400005110890027159400027159400032270290888121000023389080552100271594000005220005110890000602000353072000061500013579700007460003992520000
38002735       3816100827060098   5512002001GUTIERREZ,ANGELA ADRIANA 528944156       301110123 527289441560M    R           D             0823030 032442430005471750032442430032442430037914180781064000030103540552100324424300005220005471750000602000421752000061500016221200007460001971000000
38002743       3862110621060098   5512002001VILLALBA PABLO ALBERTO   533207764       190411123 520332077644V    R           D             0823030 032442430005471750032442430032442430037914180802720000029886980552100324424300005220005471750000602000421752000061500016221200007460002187560000
38003045       3825710853060098   5512002001GALVAN ADRIANA AMANDA    521879949       120197263 527218799499M    R           D             0823030 037725460003643520037725460037725460041368981043410000030934880552100377254600005220003643520000602000490431000061500018862700007460003643520000
38003184       3824209714060098   5512002001CORDOBA MICAELA MAGALI   532108839       201212103 527321088398M    R           D             0823030 031121670003192440031121670031121670034314110879434000025519770552100311216700005220003192440000602000404582000061500015560800007460003192440000
38003354       3862113035060098   5512002001IBANEZ NOELIA ROSA BEATRI533207731       300213103 527332077312M    R           D             0823030 028480160005201110028480160028480160033681270911895000024562320552100284801600005220005201110000602000370242000061500014240100007460003992520000
38003684       3856303501060098   5512002001GONZALEZ,NESTOR FABIAN   528143755       051011113 520281437551V    R           D             0823030 031121670003192440031121670031121670034314110879434000025519770552100311216700005220003192440000602000404582000061500015560800007460003192440000
38004062       3853200715060098   5512002001GOMEZ,VANESS RAFAELA     530773063       190911113 523307730634M    R           D             0823030 031121670005381540031121670031121670036503210778946000028713750552100311216700005220005381540000602000404582000061500015560800007460002187560000
38004211       3835407746060098   5512002001VILLALOBOS EMMA TERESITA 525992439       290607163 527259924397M    R           D             0823030 031122020005381540031122020031122020036503560778922000028714340552100311220200005220005381540000602000404586000061500015561000007460002187260000
38004224       3859408146060098   5512002001FUENTES SANDRA MABENL    522177071       181111113 523221770714M    R           D             0823030 028480160005201110028480160028480160033681270851729000025163980552100284801600005220005201110000602000370242000061500014240100007460003390860000
38004261       3817601502060098   5512002001HERNANDEZ DOMINGUEZ MARIA526636125       120909133 523266361254M    R           D             0823030 029800910005291320029800910029800910035092230815338000026938850552100298009100005220005291320000602000387412000061500014900500007460002789210000
38004334       3822607506060098   5512002001ARANDA BLANCA ISABEL     526220719       070711123 527262207191M    R           D             0823030 029800910003102220029800910029800910032903130846639000024436740552100298009100005220003102220000602000387412000061500014900500007460003102220000
38004384       3822608274060098   5512002001RODRIGUEZ LILIA SUSANA   523625834       280905173 627236258349M    R           D             0823030 0350839400034386500350839400350839400385225908636950000298856406521003508394000052200034386500006020004560910000615000175420000061600003508400007460001971000000
38004465       3821106774060098  15512002001PALADEA YANINA ELIZABETH 531417663       180611123 523314176634M    R           D             0823030 029800910001459400029800910029800910031260310682357000024436740552100298009100005220001459400000602000387412000061500014900500007460001459400000
38004562       3817601452060098   5512002001RAMIREZ KARINA           529236397       090508153 523292363974M    R           D             0823030 033763180005561970033763180033763180039325150804837000031276780552100337631800005220005561970000602000438921000061500016881600007460001971000000
38004855       3859408316060098   5512002001SALTO VALERIA RUFINA     534310417       191212103 527343104176M    R           D             0823030 031121670005381540031121670031121670036503210839111000028112100552100311216700005220005381540000602000404582000061500015560800007460002789210000
38004965       3817601637060098   5512002001YTURRE XIMENA SOLEDAD    526094885       090505183 527260948852M    R           D             0823030 037725450003643520037725450037725450041368970876158000032607390552100377254500005220003643520000602000490431000061500018862700007460001971000000
38005055       3822608371060098   5512002001LEGUIZAMON LAURA VANESA  530318083       050712113 523303180834M    R           D             0823030 031121670005381540031121670031121670036503210899107000027512140552100311216700005220005381540000602000404582000061500015560800007460003389170000
38005102       3859407634060098   5512002001VISGARRA MARCELA VANESA  531141165       060511123 527311411654M    R           D             0823030 029800910003102220029800910029800910032903130846639000024436740552100298009100005220003102220000602000387412000061500014900500007460003102220000
38005453       3859407707060098   5512002001CORVALAN ANA MARIA       517675394       240900223 627176753949M    R           D             0823030 0416918600038842300416918600416918600455760909892450000356836406521004169186000052200038842300006020005419940000615000208459000061600004169200007460001971000000
38005534       3822607611060098   5512002001ROLDAN KARINA ESTRELLA   521937540       260511123 527219375404M    R           D             0823030 029800910003102220029800910029800910032903130846639000024436740552100298009100005220003102220000602000387412000061500014900500007460003102220000
38005851       3822608146060098   5512002001CELARIO PAOLA ANDREA     527022447       011204183 623270224474M    R           D             0823030 0324624700032604200324624700324624700357228909428280000262946106521003246247000052200032604200006020004220120000615000162312000061600003246200007460003260420000
38005885       3822607843060098   5512002001AVILA CESAR DAVID        516310625       251091313 520163106257V    R           D             0823030 031975460003643520031975460031975460035618980939910000026219880552100319754600005220003643520000602000415681000061500015987700007460003643520000
38006213       3822607611060098   5512002001JUAREZ DEVORA GRACIELA   527037680       150811113 627270376806M    R           D             0823030 0284801600029930700284801600284801600314732308404300000230689306521002848016000052200029930700006020003702420000615000142401000061600002848000007460002993070000
38006234       3822607657060098   5512002001SORIA LIDIA ADRIANA      530443014       260610133 527304430147M    R           D             0823030 029800910003102220029800910029800910032903130846639000024436740552100298009100005220003102220000602000387412000061500014900500007460003102220000
38006352       3822608637060098   5512002001GONZALEZ VALERIA CECILIA 528592711       280312113 627285927116M    R           D             0823030 0337631800055386300337631800337631800393018108386000000309158106521003376318000052200055386300006020004389210000615000168816000061600003376300007460001971000000
38006734       3859407882060098   5512002001ALVAREZ MARIA ALEJANNDRA 520153929       290111123 527201539299M    R           D             0823030 035083940005652180035083940035083940040736120828611000032450010552100350839400005220005652180000602000456091000061500017542000007460001971000000
38006852       3822607731060098   5512002001LEGUIZAMON ELDA SILVINA  527793894       020605183 523277938944M    R           D             0823030 035083940005652180035083940035083940040736120828611000032450010552100350839400005220005652180000602000456091000061500017542000007460001971000000
38006873       3822607522060098   5512002001SUAREZ DEBORA FABIANA    526890392       111209133 527268903920M    R           D             0823030 032442430005471750032442430032442430037914180781064000030103540552100324424300005220005471750000602000421752000061500016221200007460001971000000
38007104       3835407754060098   5512002001LAFFON NOELIA LUCIANA    526789841       140605183 527267898419M    R           D             0823030 035103980003463080035103980035103980038567060828972000030277340552100351039800005220003463080000602000456352000061500017552000007460001971000000
38007154       3859407665060098   5512002001CORVALAN VERONICA ANALIA 528292274       051211113 527282922741M    R           D             0823030 033763530005561970033763530033763530039325500804844000031277060552100337635300005220005561970000602000438926000061500016881800007460001971000000
38007175       3822608034060098   5512002001BRAVO MARIA SOLEDAD      526396771       251111113 527263967718M    R           D             0823030 028480160003012010028480160028480160031492170813844000023353730552100284801600005220003012010000602000370242000061500014240100007460003012010000
38007633       3822607642060098   5512002001GOMEZ CLAUDIA ANALIA     534168982       120712113 527341689827M    R           D             0823030 028480160005201110028480160028480160033681270851729000025163980552100284801600005220005201110000602000370242000061500014240100007460003390860000
38007751       3859408146060098   5512002001CORTES VALERIA ALEJANDRA 533627112       120711123 627336271121M    R           D             0823030 0298009100052712900298009100298009100350722009236810000258353906521002980091000052200052712900006020003874120000615000149005000061600002980100007460003574630000
38007772       3822607897060070   5512002001CEJAS JUAN JOSE          525382884       240604193 520253828847V    R           D             0823030 056653870007125540056653870056653870063779411216869000051610720552100566538700005220007125540000602000736500000061500028326900007460001971000000
38007992       3859407506060098   5512002001VELARDEZ CLAUDIA PATRICIA520916694       080707163 527209166947M    R           D             0823030 031121670003192440031121670031121670034314110879434000025519770552100311216700005220003192440000602000404582000061500015560800007460003192440000
38008024       3835407642060098   5512002001JUGO GUILLERMO ARIEL     524233512       250811113 520242335121V    R           D             0823030 028480160003012010028480160028480160031492170813844000023353730552100284801600005220003012010000602000370242000061500014240100007460003012010000
38008142       3859408661060098   5512002001TOLEDO ADRIANA ELIZABETH 535177733       020612113 527351777333M    R           D             0823030 039046210005922830039046210039046210044969040899932000035969720552100390462100005220005922830000602000507601000061500019523100007460001971000000
38008354       3822608316060098   5512002001CORTEZ MARIA CONCEPCION  517655797       100413123 523176557974M    R           D             0823030 029523630005272380029523630029523630034796010883143000025964580552100295236300005220005272380000602000383807000061500014761800007460003517180000
38008451       3822608653060098   5512002001ZABALA ALBERTO FERNANDO  528400654       260604193 520284006543V    R           D             0823030 043008480006193480043008480043008480049201961168352000037518440552100430084800005220006193480000602000559110000061500021504200007460003942000000
38008621       3822608107060098   5512002001PEREZ MIRIAM MARCELA     522299784       100804183 523222997844M    R           D             0823030 037745500005832620037745500037745500043578120876520000034812920552100377455000005220005832620000602000490692000061500018872800007460001971000000
38008702       3822607707060098   5512002001CORVALAN CLAUDIA DOLORES 526351806       140605183 527263518069M    R           D             0823030 037725450003643520037725450037725450041368970876158000032607390552100377254500005220003643520000602000490431000061500018862700007460001971000000
38008773       3822607611060098   5512001001MENA MARIANA MARIEL      528754719       210512113 627287547191M    R           D             0823030 0284801600029930700284801600284801600314732308404300000230689306521002848016000052200029930700006020003702420000615000142401000061600002848000007460002993070000
38008841       3820305024060098   5512002001ESCALADA ARIEL GUSTAVO   527903926       240506173 520279039263V    R           D             0823030 037745500005832620037745500037745500043578120876520000034812920552100377455000005220005832620000602000490692000061500018872800007460001971000000
38008951       3822607723060098   5512002001GUZMAN GLORIA JOSEFINA   517662343       250793303 527176623433M    R           D             0823030 037725460003643520037725460037725460041368981043410000030934880552100377254600005220003643520000602000490431000061500018862700007460003643520000
38009033       3822607657060098   5512002001PEREZ EMILIA MERCEDES    529785643       010614103 727297856435M    R           D             0823030 0284801600029741400284801600284801600314543008670170000227841306521002848016000052200029741400006020003702420000615000142401000061600005696000007460002974140000
38009193       3859407673060098   5512002001BARRERA CORINA MARGARITA 531753631       140613103 527317536319M    R           D             0823030 039046210005922830039046210039046210044969040899932000035969720552100390462100005220005922830000602000507601000061500019523100007460001971000000
38009452       3859408065060098   5512002001CORDOBA MARTA DEL V.     522197948       181108143 627221979481M    R           D             0823030 0403870100037951100403870100403870100441821209644530000345375906521004038701000052200037951100006020005250310000615000201935000061600004038700007460001971000000
38009494       3822607634060098   5512002001GONZALEZ NOELIA VANESA   533385128       231212103 527333851283M    R           D             0823030 028480160005201110028480160028480160033681270911895000024562320552100284801600005220005201110000602000370242000061500014240100007460003992520000
38009504       3822607827060098   5512002001TOLEDO CARLOS FERNANDO   529930838       120811113 520299308384V    R           D             0823030 039046210003733730039046210039046210042779940899932000033780620552100390462100005220003733730000602000507601000061500019523100007460001971000000
38009525       3822608556060098   5512002001CAMPOS CLAUDIO HERNAN    532506648       270512113 520325066483V    R           D             0823030 039046210005922830039046210039046210044969040899932000035969720552100390462100005220005922830000602000507601000061500019523100007460001971000000
38009745       3859407576060098   5512002001NAVARRO CINTHIA ROXANA   531988987       031212103 627319889871M    R           D             0823030 0390462100037060000390462100390462100427522109389780000333624306521003904621000052200037060000006020005076010000615000195231000061600003904600007460001971000000
38009753       3822607715060070   5512002001LEDESMA ALEJANDRA DEL V. 523450999       180413103 527234509999M    R           D             0823030 058653250007262110058653250058653250065915361252858000053386780552100586532500005220007262110000602000762492000061500029326600007460001971000000
38009902       3835407634060098   5512002001BARRIONUEVO CECILIA C.   526368157       160110133 727263681571M    R           D             0823030 0298009100030621500298009100298009100328630609022340000238407206521002980091000052200030621500006020003874120000615000149005000061600005960200007460003062150000
38009923       3822607642060098   5512002001BELTRAN JOSE AUGUSTO     529103417       080612113 623291034179V    R           D             0823030 0284801600051821700284801600284801600336623309924690000237376406521002848016000052200051821700006020003702420000615000142401000061600002848000007460004513460000
38010115       3859408096060070   5512002001LEGUIZAMON LORENA PAOLA  530538652       161210123 527305386524M    R           D             0823030 060652630007398680060652630060652630068051311288847000055162840552100606526300005220007398680000602000788484000061500030326300007460001971000000
38010204       3822607634060098   5512002001ROMANI MURIEL ELIZABETH  530742349       120511123 527307423494M    R           D             0823030 029800910005291320029800910029800910035092230875503000026337200552100298009100005220005291320000602000387412000061500014900500007460003390860000
38010212       3859407963060098   5512002001SALTO ROSANA MARILU      524696377       051011113 527246963776M    R           D             0823030 033763180005561970033763180033763180039325150804837000031276780552100337631800005220005561970000602000438921000061500016881600007460001971000000
38010225       3859407545060098   5512002001PECCI CARLA GISELA       533629156       150612113 527336291564M    R           D             0823030 028480160003012010028480160028480160031492170813844000023353730552100284801600005220003012010000602000370242000061500014240100007460003012010000
38010495       3822607665060098   5512002001VEGA YANINA TERESA ANDREA527906967       280613103 527279069671M    R           D             0823030 033763180005561970033763180033763180039325150804837000031276780552100337631800005220005561970000602000438921000061500016881600007460001971000000
38010521       3822607553060098   5512002001BUTARELLI MONICA A.      527686497       020405183 627276864977M    R           D             0823030 0377254500036168800377254500377254500413423309138830000322035006521003772545000052200036168800006020004904310000615000188627000061600003772500007460001971000000
38010814       3835408243060098   5512002001GARNICA MARCELA ELIZABETH520732380       071011113 527207323808M    R           D             0823030 028480160003012010028480160028480160031492170813844000023353730552100284801600005220003012010000602000370242000061500014240100007460003012010000
38011205       3822607611060098   5512002001DIAZ SILVIA ELIZABETH    523584077       150811113 623235840774M    R           D             0823030 0284801600029930700284801600284801600314732308404300000230689306521002848016000052200029930700006020003702420000615000142401000061600002848000007460002993070000
38011331       3859407611060098   5512002001ALBARRACIN MARIA ELENA   531391973       041011113 627313919736M    R           D             0823030 0284801600029930700284801600284801600314732308404300000230689306521002848016000052200029930700006020003702420000615000142401000061600002848000007460002993070000
38011441       3822607723060098   5512002001SEPULVEDA MARIA DE LOS A.525584202       101012103 527255842027M    R           D             0823030 028480160005201110028480160028480160033681270851729000025163980552100284801600005220005201110000602000370242000061500014240100007460003390860000
38011742       3822607592060098   5512002001PONCE NORMA BEATRIZ      516330628       150987353 827163306285M    R           D             0823030 0482915100042589300482915100482915100525504412112230000404382106521004829151000052200042589300006020006277900000615000241458000061600014487500007460001971000000
38092015       3834607182060047   5512002001SOSA DIOSQUEZ NIEVES E   516309440       060983393 527163094407M    R           D             0823030 064184380005450820064184380064184380069635201352419000056111010552100641843800005220005450820000602000834397000061500032092200007460001971000000
38105994       3817601096060070   5512002001SANDEZ JOSE DOMINGO      516404742       230984383 620164047424V    R           D             0823030 0726488900081623700726488900726488900808112617745290000630659706521007264889000052200081623700006020009444360000615000363244000061600007264900007460003942000000
38107035       3856304187060079   5512002001ARIAS JOSEFINA BEATRIZ   517211951       260784393 623172119514M    R           D             0823030 060273180005138240060273180060273180065411421145190000053959520552100602731800005220005138240000602000783551000061500030136600006160000602730000
38107522       3833104493060070   5512002001ZERDA GERARDO RAUL       516656733       080683403 720166567336V    R           D             0823030 0646513800075736900646513800646513800722250716853630000553714406521006465138000052200075736900006020008404680000615000323257000061600012930300007460003923350000
38109545       3831503095060070   5512002001PALMAS JULIO LORENZO     516884776       180485383 623168847769V    R           D             0823030 0726488900081623700726488900726488900808112615774290000650369706521007264889000052200081623700006020009444360000615000363244000061600007264900007460001971000000
38111602       3837708773060070   5512002001LEDESMA MOISES APOLINAR  516442670       010285383 520164426700V    R           D             0823030 072648890008218100072648890072648890080866991701880000063848190552100726488900005220008218100000602000944436000061500036324400007460003942000000
38112043       3837709745060064   5512002001GONZALEZ ESTER DEL VALLE 517779167       140786373 727177791674M    R           D             0823030 0685333900056432800685333900685333900741766715677680000584989906521006853339000052200056432800006020008909340000615000342667000061600013706700007460001971000000
38113594       3817601703060079   5512002001ARIAS RAMON EDUARDO      514818196       201184383 523148181969V    R           D             0823030 072181890008186200072181890072181890080368091693474000063433350552100721818900005220008186200000602000938365000061500036090900007460003942000000
38113612       3829600522060070   5512002001SANTILLAN ZOILO ENRIQUE  516842940       270886363 720168429402V    R           D             0823030 0726488900081066400726488900726488900807555316500780000642547506521007264889000052200081066400006020009444360000615000363244000061600014529800007460001971000000
38113654       3824209753060070   5512002001MORALES VICTOR LIBERATO  517072914       140886363 620170729146V    R           D             0823030 0726488900081623700726488900726488900808112617717320000630939406521007264889000052200081623700006020009444360000615000363244000061600007264900007460003914030000
38113722       3824209873060070   5512001001RIVERO HUGO OSVALDO      516614750       150385383 620166147507V    R           D             0823030 0646513800076227500646513800646513800722741314254760000580193706521006465138000052200076227500006020008404680000615000323257000061600006465100007460001971000000
38115224       3835407506060047   5512002001BIZCARRA GABRIELA DEL C  517765930       011086363 623177659304M    R           D             0823030 0641843800054021400641843800641843800695865215806190000537803306521006418438000052200054021400006020008343970000615000320922000061600006418400007460003611160000
38116393       3822608003060098   5512002001ZERDA NILDA TEJEDA DE    517453217       160486373 627174532171M    R           D             0823030 0403669700059842100403669700403669700463511811583760000347674206521004036697000052200059842100006020005247710000615000201835000061600004036700007460003914030000
38117501       3838510764060064   5512002001MANSILLA WALTER FERNANDO 517028814       110386373 523170288149V    R           D             0823030 068533390007936980068533390068533390076470371430701000062163360552100685333900005220007936980000602000890934000061500034266700007460001971000000
38117645       3833105287060070  15512002001MEDINA JULIO CESAR       516732783       300285383 520167327835V    R           D             0823030 07264889000364850007264889007264889007629739130768000006322059045210072648890000522000364850000060200094443600006150003632440000
38118463       3838512086060070   5512002001MAGUNA RAUL EULOGIO      514814752       030484393 520148147524V    R           D             0823030 056653870007125540056653870056653870063779411216869000051610720552100566538700005220007125540000602000736500000061500028326900007460001971000000
38118785       3830701734060070   5512002001SUAREZ ISAURO            516198505       160486373 620161985059V    R           D             0823030 07264889000791160007264889007264889008056049198296400006073085075210072648890000522000791160000060200094443600006150003632440000616000072649000066500032692000007460002757150000
38119304       3825711736060098   5512002001BAZAN TERESA DEL VALLE   517765969       010587363 627177659695M    R           D             0823030 0377334100036168800377334100377334100413502910786220000305640706521003773341000052200036168800006020004905340000615000188667000061600003773300007460003616880000
38119773       3838510273060047   5512002001LEGUIZAMON WALTER CEFERIN514985104       180287363 620149851047V    R           D             0823030 0641843800054021400641843800641843800695865216137030000534494906521006418438000052200054021400006020008343970000615000320922000061600006418400007460003942000000
38119972       3815300062060098   5512002001AGUDO DORA MERCEDES      517563917       100887353 527175639174M    R           D             0823030 043008480006193480043008480043008480049201960971252000039489440552100430084800005220006193480000602000559110000061500021504200007460001971000000
38122593       3817601177060070   5512002001JUAREZ SEGUNDO MARIO     516820666       061087353 520168206667V    R           D             0823030 064651380007671820064651380064651380072323201413657000058186630552100646513800005220007671820000602000840468000061500032325700007460002499320000
38122624       3818402262060098   5512002001LEDESMA EMMA VIRGINIA    517498192       300487363 527174981928M    R           D             0823030 037733410003643520037733410037733410041376931043553000030941400552100377334100005220003643520000602000490534000061500018866700007460003643520000
38122941       3829600681060064   5512002001PAJON HECTOR ORLANDO     517779283       240987353 520177792838V    R           D             0823030 068533390005747880068533390068533390074281271430701000059974260552100685333900005220005747880000602000890934000061500034266700007460001971000000
38123471       3819204005060070  15512002001VILLALBA PEDRO ENRIQUE   516885016       070586373 520168850167V    R           D             0823030 072648890003648500072648890072648890076297391504780000061249590552100726488900005220003648500000602000944436000061500036324400007460001971000000
38125591       3832304214060047   5512002001JIMENEZ MARIA REMBERTO   516280370       110587363 520162803701V    R           D             0823030 068810670005766820068810670068810670074577491435692000060220570552100688106700005220005766820000602000894539000061500034405300007460001971000000
38125855       3820306027060098   5512002001VILLAGRAN JOSE OMAR      517966808       061087353 520179668085V    R           D             0823030 048291510006554340048291510048291510054845851066348000044182370552100482915100005220006554340000602000627790000061500024145800007460001971000000
38126055       3822607642060098   5512002001CARPIO SILVIA VIVIANA    517438019       041187353 527174380193M    R           D             0823030 0377328000035236600377328000377328000412564610460880000307955806521003773280000052200035236600006020004905260000615000188664000066500016979800007460001971000000
38126351       3837708711060047   5512002001MURAD PEDRO JORGE        517235784       021086363 523172357849V    R           D             0823030 064184380005450820064184380064184380069635201352419000056111010552100641843800005220005450820000602000834397000061500032092200007460001971000000
38126903       3833105361060070   5512002001REVAINERA CARLOS A       518479541       120588353 520184795419V    R           D             0823030 072648890006029000072648890072648890078677891504780000063630090552100726488900005220006029000000602000944436000061500036324400007460001971000000
38128971       3830701444060070   5512002001SABALZA LUIS MARCELO     521343923       270888343 520213439236V    R           D             0823030 060652630007398680060652630060652630068051311485947000053191840552100606526300005220007398680000602000788484000061500030326300007460003942000000
38133735       3824209826060079   5512001001SORIA WALTER ROGER       514214718       170182413 620142147182V    R           D             0823030 0563036200048704000563036200563036200611740212668690000485053306521005630362000052200048704000006020007319470000615000281518000061600005630400007460001971000000
38134032       3820305585060070   5512002001QUIROGA OMAR OVIDIO      520156187       300389343 520201561877V    R           D             0823030 072648890008218100072648890072648890080866991504780000065819190552100726488900005220008218100000602000944436000061500036324400007460001971000000
38134223       3821107201060070   5512002001CUELLAR ERASMO DELIVANO  518515014       170588353 520185150144V    R           D             0823030 072648890008218100072648890072648890080866991504780000065819190552100726488900005220008218100000602000944436000061500036324400007460001971000000
38135944       3829600793060098  15512002001VILLARREAL,ROSANA DEL V. 517816790       050588353 527178167907M    R           D             0823030 037733410001459400037733410037733410039192810825141000030941400552100377334100005220001459400000602000490534000061500018866700007460001459400000
38136741       3822607665060098   5512002001GONZALEZ OSCAR A         517429579       100888343 520174295795V    R           D             0823030 043008480004004380043008480043008480047012860971252000037300340552100430084800005220004004380000602000559110000061500021504200007460001971000000
38136843       3833105136060070   5512002001ARGANARAZ VICTOR OMAR    516002765       170389343 520160027658V    R           D             0823030 072648890008218100072648890072648890080866991504780000065819190552100726488900005220008218100000602000944436000061500036324400007460001971000000
38137195       3820306074060098   5512002001SORIA LUIS OMAR          516526621       280689343 620165266219V    R           D             0823030 0377334800036168800377334800377334800413503609140350000322100106521003773348000052200036168800006020004905350000615000188667000061600003773300007460001971000000
38137462       3821106372060070   5512002001PALAVECINO SILVIA SUSANA 517716087       021087353 527177160879M    R           D             0823030 072648890006029000072648890072648890078677891504780000063630090552100726488900005220006029000000602000944436000061500036324400007460001971000000
38138785       3825711906060098   5512002001RODRIGUEZ RAMON ROSA     517675352       210390333 520176753529V    R           D             0823030 048291510006554340048291510048291510054845851263448000042211370552100482915100005220006554340000602000627790000061500024145800007460003942000000
38139841       3822608316060098   5512002001GONZALEZ GLORIA LOTO DE  516457005       010690333 527164570059M    R           D             0823030 04036697000382395004036697004036697004419092072660600003692486045210040366970000522000382395000060200052477100006150002018350000
38140091       3830701355060079   5512002001LLINAS VALERIA           518520948       120189343 527185209488M    R           D             0823030 060273180007372760060273180060273180067645941479117000052854770552100602731800005220007372760000602000783551000061500030136600007460003942000000
38140884       3838511624060079   5512002001DIAS ADRIANA INES CAMPOS 517750451       100887353 727177504519M    R           D             0823030 0602731800050928300602731800602731800653660115996630000493693806521006027318000052200050928300006020007835510000615000301366000061600012054600007460003942000000
38140892       3816100696060098   5512002001PALLARES TERESITA E      516802258       280889333 627168022587M    R           D             0823030 0403669700059842100403669700403669700463511809640730000367104506521004036697000052200059842100006020005247710000615000201835000061600004036700007460001971000000
38140923       3834607305060070   5512002001SAYAGO MIRIHAM ELIZABETH 517033819       230388353 527170338192M    R           D             0823030 06465138000548272006465138006465138007013410116372500005849685045210064651380000522000548272000060200084046800006150003232570000
38141181       3832304164060070   5512002001BASUALDO,REYNA CRISTINA  518550961       090588353 527185509619M    R           D             0823030 060652630007398680060652630060652630068051311485947000053191840552100606526300005220007398680000602000788484000061500030326300007460003942000000
38141335       3838510717060064   5512002001GUZMAN PATRICIA LILIA    518300384       070590333 523183003844     R           D             0823030 064257340007644900064257340064257340071902241353732000058364920552100642573400005220007644900000602000835345000061500032128700007460001971000000
38141644       3835407576060047   5512002001LOPEZ VICTOR MARCELO     516467943       210286373 520164679439V    R           D             0823030 082689570006714830082689570082689570089404401882612000070578280552100826895700005220006714830000602001074964000061500041344800007460003942000000
38141791       3855502014060079  15512002001OZAN ANTONIO RITO        516910422       140587363 520169104221V    R           D             0823030 0563115700014594000563115700563115700577709714129500000436414706521005631157000052200014594000006020007320500000615000281558000066500025340200007460001459400000
38142763       3835407955060070   5512002001LEIVA ESTELA IBA#EZ DE   517164999       010690333 523171649994M    R           D             0823030 072648890008218100072648890072648890080866991504780000065819190552100726488900005220008218100000602000944436000061500036324400007460001971000000
38142852       3837709401060064   5512001001MALDONADO NILDA          520220412       090590333 527202204126M    R           D             0823030 059981300005163720059981300059981300065145021473864000050406380552100599813000005220005163720000602000779757000061500029990700007460003942000000
38142954       3825710226060098   5512002001LUKES HAYDA SUSANA       520604527       110590333 527206045278M    R           D             0823030 048291510006554340048291510048291510054845851066348000044182370552100482915100005220006554340000602000627790000061500024145800007460001971000000
38143154       3861308815060070   5512002001HERNANDEZ CARLOS MARCIAL 517139851       030888343 520171398518V    R           D             0823030 060652630007398680060652630060652630068051311445715000053594160552100606526300005220007398680000602000788484000061500030326300007460003539680000
38144032       3822608421060070   5512002001SANTILLAN GLORIA ELENA   518495290       040588353 623184952904M    R           D             0823030 0726488900081623700726488900726488900808112615774290000650369706521007264889000052200081623700006020009444360000615000363244000061600007264900007460001971000000
38144231       3833105794060070   5512002001SANCHEZ REYES ANTONIO    516442696       030489343 620164426964V    R           D             0823030 0726488900081623700726488900726488900808112616560440000642508206521007264889000052200081623700006020009444360000615000363244000061600007264900007460002757150000
38144391       3835407553060064   5512002001ROLDAN ANA SERAFINA      521002629       010690333 527210026296M    R           D             0823030 068533390007936980068533390068533390076470371627801000060192360552100685333900005220007936980000602000890934000061500034266700007460003942000000
38144422       3834606743060064   5512002001FERNANDEZ CARLOTA B DEL V517124089       290787363 727171240897M    R           D             0823030 0685333900078323800685333900685333900763657717648680000587170906521006853339000052200078323800006020008909340000615000342667000061600013706700007460003942000000
38145295       3838511616060064   5512002001INIGUEZ NORMA DIAZ DE    517840321       110790333 623178403214     R           D             0823030 0642573500075961700642573500642573500718535214179900000576736206521006425735000052200075961700006020008353460000615000321287000061600006425700007460001971000000
38145392       3833104895060070   5512002001NAZAR RAUL RENE          518542714       240487363 620185427146V    R           D             0823030 0726488900059732700726488900726488900786221617745290000608768706521007264889000052200059732700006020009444360000615000363244000061600007264900007460003942000000
38145635       3824209985060070   5512002001GRIGUELI CLAUDIA M.P.DE  518262180       210689343 627182621809M    R           D             0823030 07264889000791160007264889007264889008056049190434900006151700075210072648890000522000791160000060200094443600006150003632440000616000072649000066500032692000007460001971000000
38145724       3833105256060070   5512002001MALDONADO SARA NOEMI     517563882       180888343 627175638828M    R           D             0823030 0606526300073529500606526300606526300680055815466000000525395806521006065263000052200073529500006020007884840000615000303263000061600006065300007460003942000000
38145745       3833106027060064   5512002001TORREZ LILIANA DEL VALLE 518090722       210189343 527180907225M    R           D             0823030 077085470008521140077085470077085470085606611781738000067789230552100770854700005220008521140000602001002111000061500038542700007460003942000000
38146534       3881402494060098   5512002001TOTO MARIELA ALEJANDRA   521342371       120390333 627213423717M    R           D             0823030 0482915100065189000482915100482915100548104111146400000436640106521004829151000052200065189000006020006277900000615000241458000061600004829200007460001971000000
38147983       3858606735060079   5512002001JIMENEZ ROSSANA ADRIANA  521609456       160590333 827216094560M    R           D             0823030 0563210300047861800563210300563210300611072115769410000453378006521005632103000052200047861800006020007321730000615000281605000061600016896300007460003942000000
38148175       3856304214060079   5512002001SAYAGO JORGE A           516620043       180887353 720166200432V    R           D             0823030 060273180007281930060273180060273180067555111205463000055500480552100602731800005220007281930000602000783551000061500030136600006160001205460000
38148405       3818402753060070   5512002001ENCALADA ROXANA DEL V    521725640       020591323 727217256408M    R           D             0823030 0726488900081066400726488900726488900807555316500780000642547506521007264889000052200081066400006020009444360000615000363244000061600014529800007460001971000000
38148413       3837709896060070   5512001001VERON GLADYS BEATRIZ     520153669       160189343 727201536699M    R           D             0823030 0726488900081066400726488900726488900807555316500780000642547506521007264889000052200081066400006020009444360000615000363244000061600014529800007460001971000000
38148471       3816100793060098   5512002001BEDU ADRIANA BEATRIZ     528139077       080491323 627281390770M    R           D             0823030 0377425800036168800377425800377425800413594609142100000322173606521003774258000052200036168800006020004906540000615000188713000061600003774300007460001971000000
38148675       3832303822060070   5512002001PALACIOS ADALBERTO       517991464       130489343 620179914647V    R           D             0823030 0726488900081623700726488900726488900808112615774290000650369706521007264889000052200081623700006020009444360000615000363244000061600007264900007460001971000000
38149451       3821107313060098  15512002001SNEIDENIT MARIA ESTHER   521342963       110888343 727213429634M    R           D             0823030 0377254600014594000377254600377254600391848609004490000301803706521003772546000052200014594000006020004904310000615000188627000061600007545100007460001459400000
38149511       3817601606060098   5512002001JIMENEZ MARIA ELENA      520152367       230491323 527201523678M    R           D             0823030 037730730005832620037730730037730730043563351073353000032829820552100377307300005220005832620000602000490499000061500018865400007460003942000000
38149841       3822607707060098   5512002001OLIVERA VICTORIA DEL C   521179315       150491323 527211793150M    R           D             0823030 043008480004004380043008480043008480047012860997410000037038760552100430084800005220004004380000602000559110000061500021504200007460002232580000
38150122       3835407916060070   5512002001BAEZ RENE WILFREDO       518254085       260390333 520182540855V    R           D             0823030 072648890008218100072648890072648890080866991504780000065819190552100726488900005220008218100000602000944436000061500036324400007460001971000000
38150253       3825711253060070   5512002001GALVAN ALBERTO DEL VALLE 517731477       190790333 520177314774V    R           D             0823030 072648890008218100072648890072648890080866991504780000065819190552100726488900005220008218100000602000944436000061500036324400007460001971000000
38150342       3854701692060079   5512002001SALTO DANIELA LILIANA    520544236       170689343 727205442362M    R           D             0823030 0563115700048282900563115700563115700611398615204310000459355506521005631157000052200048282900006020007320500000615000281558000061600011262300007460003942000000
38150795       3835408003060064   5512002001CAMPOS TERESITA LUCIA    527293275       260291323 627272932757M    R           D             0823030 0642605400054070700642605400642605400696676114180510000554871006521006426054000052200054070700006020008353870000615000321303000061600006426100007460001971000000
38151254       3829600715060047   5512002001CHAZARRETA EDITH GRACIELA524175438       280390333 527241754389M    R           D             0823030 068810670007955920068810670068810670076766591491942000061847170552100688106700005220007955920000602000894539000061500034405300007460002533500000
38151453       3832303756060079  15512002001SANCHEZ SILVIA E         520152362       240487363 827201523627M    R           D             0823030 0563036200014594000563036200563036200577630213283160000444798606521005630362000052200014594000006020007319470000615000281518000061600016891100007460001459400000
38152043       3816100746060070   5512002001SUAREZ RAMON ANGEL       520154684       011091333 520201546843V    R           D             0823030 072648890008218100072648890072648890080866991504780000065819190552100726488900005220008218100000602000944436000061500036324400007460001971000000
38152051       3825710996060098   5512002001RODRIGUEZ ISOLINA DEL V  520898091       061191313 627208980918M    R           D             0823030 03772659000349702003772659003772659004122361123627800002886083075210037726590000522000349702000060200049044600006150001886330000616000037727000066500016977000007460003497020000
38152844       3817600986060070   5512002001ACUNA MERCEDES BENITO    518041015       190491323 520180410156V    R           D             0823030 060652630007398680060652630060652630068051311288847000055162840552100606526300005220007398680000602000788484000061500030326300007460001971000000
38153044       3818402811060098   5512002001INIGO VIVIANA ALEJANDRA  521339530       211090323 527213395306M    R           D             0823030 037742580003643520037742580037742580041386100932717000032058930552100377425800005220003643520000602000490654000061500018871300007460002533500000
38153772       3837710025060064   5512002001TORRES ORQUIDIA ENRIQUETA516107426       231089333 827161074263M    R           D             0823030 0685333900077800900685333900685333900763134818334010000579794706521006853339000052200077800900006020008909340000615000342667000061600020560000007460003942000000
38153785       3821106921060070   5512002001JUAREZ DELIVANO MIGUEL A 521786355       090492313 520217863555V    R           D             0823030 072648890008218100072648890072648890080866991701880000063848190552100726488900005220008218100000602000944436000061500036324400007460003942000000
38154273       3821107286060098   5512002001ARROYO VICTOR HUGO       517042785       150492313 820170427859V    R           D             0823030 040366970003737440040366970040366970044104410847707000035627340552100403669700005220003737440000602000524771000061500020183500006160001211010000
38154532       3822607657060098   5512002001JIMENEZ HECTOR JESUS     514637020       090583403 523146370209V    R           D             0823030 037725460003643520037725460037725460041368980876158000032607400552100377254600005220003643520000602000490431000061500018862700007460001971000000
38154553       3835408556060070   5512002001CARO HECTOR RODOLFO      521709081       280492313 720217090815V    R           D             0823030 0726488900081066400726488900726488900807555316500780000642547506521007264889000052200081066400006020009444360000615000363244000061600014529800007460001971000000
38154663       3820304462060098   5512002001OCARANZA NORMA LIZ       518089927       280988343 627180899273M    R           D             0823030 0377254600036168800377254600377254600413423409138830000322035106521003772546000052200036168800006020004904310000615000188627000061600003772500007460001971000000
38154993       3817601622060070   5512002001ROJAS RAINERIO MARIA     518102412       210492313 520181024128V    R           D             0823030 064651380005482720064651380064651380070134101360825000056525850552100646513800005220005482720000602000840468000061500032325700007460001971000000
38155033       3838511357060070   5512002001BARON LELI M FERREYRA DE 517782969       230791323 727177829698M    R           D             0823030 0726488900081066400726488900726488900807555316500780000642547506521007264889000052200081066400006020009444360000615000363244000061600014529800007460001971000000
38155091       3816100506060070   5512002001ALTAMIRANDA CARLOS A     517511837       160190333 620175118374V    R           D             0823030 0726488900081623700726488900726488900808112617342980000634682806521007264889000052200081623700006020009444360000615000363244000061600007264900007460003539690000
38155274       3824209134060079   5512002001GUERRA CLAUDIA LILIANA   517782993       211188343 527177829930M    R           D             0823030 056303620004912520056303620056303620061216141367434000047541800552100563036200005220004912520000602000731947000061500028151800007460003539690000
38155295       3824209134060098   5512002001SAYAGO NORMA MARISABEL   516620228       251288343 527166202286M    R           D             0823030 037725460003643520037725460037725460041368981043410000030934880552100377254600005220003643520000602000490431000061500018862700007460003643520000
38155813       3822608003060098   5512002001FLAMENCO ANDREA O DE     530590609       010291323 727305906099M    R           D             0823030 0403750100037662800403750100403750100441412910046000000340952906521004037501000052200037662800006020005248750000615000201875000061600008075000007460001971000000
38156084       3821106712060070   5512002001ARIAS RAMON ABELARDO     516638302       050490333 720166383022V    R           D             0823030 0726488900059175400726488900726488900785664316500780000620656506521007264889000052200059175400006020009444360000615000363244000061600014529800007460001971000000
38156351       3820305496060070   5512002001ABREGU VICTOR EDUARDO    520153459       110590333 620201534594V    R           D             0823030 0726488900081623700726488900726488900808112615774290000650369706521007264889000052200081623700006020009444360000615000363244000061600007264900007460001971000000
38156445       3825710675060064   5512002001LEGUIZAMON LUIS JORGE    518101313       150592313 520181013134V    R           D             0823030 068533390007936980068533390068533390076470371430701000062163360552100685333900005220007936980000602000890934000061500034266700007460001971000000
38156885       3822607611060098   5512002001PUCHETA CLAUDIA MABEL    518310821       160590333 527183108218M    R           D             0823030 037742580003643520037742580037742580041386101043719000030948910552100377425800005220003643520000602000490654000061500018871300007460003643520000
38157022       3821106801060098   5512002001SANCHEZ ARTURO ROQUE     516885169       200487363 520168851694V    R           D             0823030 0430084800060538100430084800430084800490622911647900000374143906521004300848000052200060538100006020005591100000615000215042000066500019353800007460001971000000
38157221       3831503296060070   5512002001BARRAZA ELISA VICTORIA   527293236       120891313 527272932366M    R           D             0823030 064651380007671820064651380064651380072323201360825000058714950552100646513800005220007671820000602000840468000061500032325700007460001971000000
38157284       3818402053060070   5512002001COMAN GREGORIA DEL V     517724700       131188343 527177247001M    R           D             0823030 072648890008218100072648890072648890080866991701880000063848190552100726488900005220008218100000602000944436000061500036324400007460003942000000
38157483       3815300286060098   5512002001AGUERO MARIO ALBERTO     518090978       270389343 520180909789V    R           D             0823030 037725460003643520037725460037725460041368981043410000030934880552100377254600005220003643520000602000490431000061500018862700007460003643520000
38157535       3820305337060098   5512002001ROCABADO MIRIAN TREJO DE 521044323       120491323 627210443237M    R           D             0823030 0430084800061624400430084800430084800491709212070100000371008206521004300848000052200061624400006020005591100000615000215042000061600004300800007460003898500000
38157962       3818402312060098   5512002001GRAMAJO CRISTINA C DE    520151106       020890323 527201511068M    R           D             0823030 037742580003643520037742580037742580041386101043719000030948910552100377425800005220003643520000602000490654000061500018871300007460003643520000
38157975       3818402873060070   5512002001CUELLAR JOSE LUCIANO     520578142       150491323 720205781421V    R           D             0823030 0726488900081066400726488900726488900807555316500780000642547506521007264889000052200081066400006020009444360000615000363244000061600014529800007460001971000000
38157983       3817601885060098   5512002001PALOMINO NANCY M PEREYRA 521342759       240791323 527213427593M    R           D             0823030 040374920003823950040374920040374920044198870923849000034960380552100403749200005220003823950000602000524874000061500020187500007460001971000000
38160282       3861308711060079   5512002001MURAD LUIS ADOLFO        516194546       090287363 520161945464V    R           D             0823030 056303620004912520056303620056303620061216141210565000049110490552100563036200005220004912520000602000731947000061500028151800007460001971000000
38160952       3824209931060064   5512002001GALVAN DANIEL ALBERTO    520672867       260389343 720206728672V    R           D             0823030 0770854700084023000770854700770854700854877719324910000661628606521007708547000052200084023000006020010021110000615000385427000061600015417100007460003907820000
38162124       3825712167060098   5512002001FRIAS FRANCISCO DANIEL   517908956       210189343 520179089565V    R           D             0823030 037725460003643520037725460037725460041368981043410000030934880552100377254600005220003643520000602000490431000061500018862700007460003643520000
38172234       3828100143060064   5512002001KOLEFF VICTOR ANTONIO    516221594       190485383 523162215949V    R           D             0823030 06425734000764490006425734006425734007190224115663200006033592045210064257340000522000764490000060200083534500006150003212870000
38189422       3833104655060070   5512002001RAMIREZ SUSANA           520589816       230492313 527205898161M    R           D             0823030 072648890008218100072648890072648890080866991504780000065819190552100726488900005220008218100000602000944436000061500036324400007460001971000000
38189914       3822607746060098   5512002001NERVO MIRIAM MABEL       518514651       240990323 527185146516M    R           D             0823030 037742580003643520037742580037742580041386100876467000032621430552100377425800005220003643520000602000490654000061500018871300007460001971000000
38190473       3835407681060070   5512002001CHAPARRO MIGUEL R        516212951       251088343 520162129512V    R           D             0823030 072648890008218100072648890072648890080866991504780000065819190552100726488900005220008218100000602000944436000061500036324400007460001971000000
38190643       3837708757060070   5512002001NUNEZ BETI S             517583311       210389343 827175833116M    R           D             0823030 0726488900080509200726488900726488900806998117227270000634725406521007264889000052200080509200006020009444360000615000363244000061600021794700007460001971000000
38191005       3852400271060079   5512002001SAYAGO ZULEMA            520910510       080693303 527209105107M    R           D             0823030 056323660004912520056323660056323660061236181267176000048564420552100563236600005220004912520000602000732208000061500028161800007460002533500000
38191152       3883704342060098   5512002001JUAREZ MARTA N           516561388       040693303 527165613886M    R           D             0823030 040374920003823950040374920040374920044198870923849000034960380552100403749200005220003823950000602000524874000061500020187500007460001971000000
38195601       3817601904060070   5512002001SERRANO JOSE E           521910096       050992303 520219100966V    R           D             0823030 072648890008218100072648890072648890080866991504780000065819190552100726488900005220008218100000602000944436000061500036324400007460001971000000
38196314       3819203981060098   5512002001MESSINA MYRIAM E         517840410       160491323 527178404100M    R           D             0823030 037725460003643520037725460037725460041368980932408000032044900552100377254600005220003643520000602000490431000061500018862700007460002533500000
38200883       3819203981060098   5512002001DIAZ AIDA MARGARITA      517840685       080693303 527178406855M    R           D             0823030 037725460003643520037725460037725460041368981043410000030934880552100377254600005220003643520000602000490431000061500018862700007460003643520000
38203593       3824209401060098   5512002001GRAMAJO ELIDA ROSA       521669591       030693303 527216695912M    R           D             0823030 040374920003823950040374920040374920044198870923849000034960380552100403749200005220003823950000602000524874000061500020187500007460001971000000
38205901       3862110621060079   5512002001GALVAN ROXANA R          522415102       121291313 727224151026M    R           D             0823030 0602736200072819300602736200602736200675555514025720000535298306521006027362000052200072819300006020007835570000615000301368000061600012054700007460001971000000
38206305       3822607947060098   5512002001ACOSTA ROSANA A          522032071       121092303 527220320710M    R           D             0823030 048291510006554340048291510048291510054845851066348000044182370552100482915100005220006554340000602000627790000061500024145800007460001971000000
38208072       3824209931060098   5512002001TREZAMI FELIX LUCIO      517322531       200190333 620173225319V    R           D             0823030 04829151000635944004829151004829151005465095133195200004133143075210048291510000522000635944000060200062779000006150002414580000616000048292000066500021731200007460001971000000
38208394       3820304423060098   5512002001PROKOP MARGARITA Y       520551134       291290323 727205511348M    R           D             0823030 0430084800039423100430084800430084800469507912141370000348094206521004300848000052200039423100006020005591100000615000215042000061600008601700007460003539680000
38208763       3825711616060098   5512002001MUNOZ SILVIA SOSA DE     517677491       290291323 627176774911M    R           D             0823030 0430084800039733400430084800430084800469818210142600000368392206521004300848000052200039733400006020005591100000615000215042000061600004300800007460001971000000
38209031       3834607375060047   5512002001GALEANO MABEL            516661917       140486373 527166619179M    R           D             0823030 064184380005450820064184380064184380069635201431034000055324860552100641843800005220005450820000602000834397000061500032092200007460002757150000
38209073       3828100271060047   5512002001JIMENEZ MARCIA ZULEMA    518157487       030491323 527181574874M    R           D             0823030 064184380005450820064184380064184380069635201352419000056111010552100641843800005220005450820000602000834397000061500032092200007460001971000000
38209133       3825712144060098  15512002001MORENO ADELMA ISABEL     522722734       150891313 627227227341M    R           D             0823030 0377455000014594000377455000377455000392049008631060000305738406521003774550000052200014594000006020004906920000615000188728000061600003774600007460001459400000
38209175       3817601131060070   5512002001OYARZABAL FRANCISCO DAVID521631180       161189333 623216311809     R           D             0823030 0726488900059732700726488900726488900786221615774290000628478706521007264889000052200059732700006020009444360000615000363244000061600007264900007460001971000000
38209183       3838510733060064   5512002001SANTILLAN OSCAR ALBERTO  517183964       170989333 520171839646V    R           D             0823030 064257340007644900064257340064257340071902241550832000056393920552100642573400005220007644900000602000835345000061500032128700007460003942000000
38209191       3832304102060070   5512002001JIMENEZ JUAN MARTIN      520170731       110491323 620201707316V    R           D             0823030 0646513800076227500646513800646513800722741314254760000580193706521006465138000052200076227500006020008404680000615000323257000061600006465100007460001971000000
38209455       3819203474060070   5512002001CORIA REGINA MALDONADO   520170658       040491323 527201706586M    R           D             0823030 072648890008218100072648890072648890080866991504780000065819190552100726488900005220008218100000602000944436000061500036324400007460001971000000
38209683       3838511906060098   5512002001FRIAZ RENE HUMBERTO      517675412       200392313 520176754126V    R           D             0823030 04829151000436524004829151004829151005265675086924800004396427045210048291510000522000436524000060200062779000006150002414580000
38209832       3821106774060098   5512002001JIMENEZ LUCAS OMAR       520307207       250690333 620203072075V    R           D             0823030 0377425800036168800377425800377425800413594609142100000322173606521003774258000052200036168800006020004906540000615000188713000061600003774300007460001971000000
38209971       3820306116060070   5512002001PEREZ MIRTA GRACIELA     520686081       100393303 627206860818M    R           D             0823030 0726488900081623700726488900726488900808112615774290000650369706521007264889000052200081623700006020009444360000615000363244000061600007264900007460001971000000
38210215       3838511937060070   5512002001PALAVECINO VICTOR ABEL   520153449       090693303 520201534497V    R           D             0823030 072648890008218100072648890072648890080866991701880000063848190552100726488900005220008218100000602000944436000061500036324400007460003942000000
38210223       3825712314060070   5512002001RODRIGUEZ GLADYS NOEMI   521678014       160392313 627216780146M    R           D             0823030 0726488900081623700726488900726488900808112615774290000650369706521007264889000052200081623700006020009444360000615000363244000061600007264900007460001971000000
38210325       3815300255060098  15512002001JIMENEZ JUAN CARLOS DEL V516561329       010688353 620165613296V    R           D             0823030 04829946000145940004829946004829946004975886128097700003694909075210048299460000522000145940000060200062789300006150002414970000616000048299000066500021734800007460001459400000
38210485       3825712295060070   5512002001SUAREZ EDGARDO           516884844       210488353 520168848448V    R           D             0823030 072648890008218100072648890072648890080866991504780000065819190552100726488900005220008218100000602000944436000061500036324400007460001971000000
38210493       3825712191060098   5512002001JUAREZ CLAUDIA MAGALI    523048319       020693303 527230483197M    R           D             0823030 037745500001493840037745500037745500039239340828804000030951300552100377455000005220001493840000602000490692000061500018872800007460001493840000
38210671       3859407777060079   5512002001JUAREZ MERI MARCELA      520563976       210392313 823205639764M    R           D             0823030 0642427500074977300642427500642427500717404817432980000543075006521006424275000052200074977300006020008351560000615000321214000061600019272800007460003942000000
38210825       3817601073060070   5512002001GALVAN JULIO CESAR       520333722       280188353 620203337222V    R           D             0823030 0686501400078925600686501400686501400765427015014530000615281706521006865014000052200078925600006020008924520000615000343251000061600006865000007460001971000000
38211465       3837709157060064   5512001001SOSA FELIX SEGUNDO       516858026       220486373 520168580267V    R           D             0823030 077085470006332040077085470077085470083417511663253000066784980552100770854700005220006332040000602001002111000061500038542700007460002757150000
38211533       3820306027060098   5512002001VALDIVIA VICTOR MARCELINO516524885       231290323 520165248857V    R           D             0823030 048291510006554340048291510048291510054845851263448000042211370552100482915100005220006554340000602000627790000061500024145800007460003942000000
38211575       3832304075060079   5512002001LEDESMA SILVINA YANEL    522440551       041092303 527224405516M    R           D             0823030 056303620007101620056303620056303620063405241404247000049362770552100563036200005220007101620000602000731947000061500028151800007460003907820000
38211774       3818403234060070   5512002001SANTOS MILTON ELIAS      521547878       250192313 520215478786V    R           D             0823030 072648890008218100072648890072648890080866991701880000063848190552100726488900005220008218100000602000944436000061500036324400007460003942000000
38211813       3817601274060079   5512002001PEREZ YOLANDA NORALY     520519475       040191323 623205194754M    R           D             0823030 0563036200048704000563036200563036200611740214639690000465343306521005630362000052200048704000006020007319470000615000281518000061600005630400007460003942000000
38211994       3819204075060098   5512002001SERRANO,MYRIAM DE JESUS  520151225       100588353 527201512250M    R           D             0823030 037733410003643520037733410037733410041376930876301000032613920552100377334100005220003643520000602000490534000061500018866700007460001971000000
38212092       3822607777060098   5512002001IBARRA SONIA ELIZABETH   524074872       260192313 527240748725M    R           D             0823030 043008480006193480043008480043008480049201960971252000039489440552100430084800005220006193480000602000559110000061500021504200007460001971000000
38212131       3826550042060092   5512002001VILLARREAL MARIELA A.    521748897       100492313 523217488974M    R           D             0823030 03774550000364352003774550003774550004138902067942000003459482045210037745500000522000364352000060200049069200006150001887280000
38212165       3822608676060098   5512002001CREMONA MARIA DE LOS A   518614002       030693303 527186140023M    R           D             0823030 040367400006013050040367400040367400046380450923713000037143320552100403674000005220006013050000602000524776000061500020183700007460001971000000
38212173       3835408676060047   5512002001VALOR SANDRA LILIANA     520594805       210291323 727205948053M    R           D             0823030 0688106700078508600688106700688106700766615317704130000589574006521006881067000052200078508600006020008945390000615000344053000061600013762100007460003942000000
38212322       3835407592060070   5512002001ORELLANA NELIDA AZUCENA  521974010       300692313 727219740102M    R           D             0823030 0726488900081066400726488900726488900807555317286930000634686006521007264889000052200081066400006020009444360000615000363244000061600014529800007460002757150000
38212335       3837709857060064   5512002001NAVARRO NILDA SERRANO DE 517467987       180890323 527174679873M    R           D             0823030 077085470006332040077085470077085470083417511725488000066162630552100770854700005220006332040000602001002111000061500038542700007460003379500000
38212385       3838511953060070   5512002001SOSA FERREYRA OSVALDO    520153622       211091313 520201536228V    R           D             0823030 072648890006029000072648890072648890078677891504780000063630090552100726488900005220006029000000602000944436000061500036324400007460001971000000
38212393       3825710362060098   5512002001JUAREZ SAUL ALFREDO      517514236       040693303 520175142364V    R           D             0823030 04537271000635497004537271004537271005172768081670900004356059045210045372710000522000635497000060200058984500006150002268640000
38212432       3825711721060098  15512002001PEZZINI MONICA DEL V R   518603699       130588353 527186036994M    R           D             0823030 037725460001459400037725460037725460039184860824998000030934880552100377254600005220001459400000602000490431000061500018862700007460001459400000
38212445       3838512306060070   5512002001ALBORNOZ MONICA RAMONA   523973877       120991313 527239738775M    R           D             0823030 072648890006029000072648890072648890078677891701880000061659090552100726488900005220006029000000602000944436000061500036324400007460003942000000
38213085       3825712167060098   5512002001ACOSTA RITA L            520153022       010592313 527201530224M    R           D             0823030 037727090003643520037727090037727090041370611043439000030936220552100377270900005220003643520000602000490452000061500018863500007460003643520000
38213205       3838511864060070   5512002001LANDRIEL REINA N         521344802       260392313 627213448027M    R           D             0823030 0726488900081623700726488900726488900808112615774290000650369706521007264889000052200081623700006020009444360000615000363244000061600007264900007460001971000000
38213221       3838511713060070   5512002001LEGUIZAMON NESTOR M      522104701       291191313 520221047010V    R           D             0823030 072648890008218100072648890072648890080866991668937000064177620552100726488900005220008218100000602000944436000061500036324400007460003612570000
38213263       3822607576060098   5512002001RISSO PATRON IMELDA DEL C518611893       240591323 627186118931M    R           D             0823030 0482915100065189000482915100482915100548104112647900000421625106521004829151000052200065189000006020006277900000615000241458000061600004829200007460003472500000
38213394       3838511721060047   5512002001SALTO MARIO D            517890938       070191323 520178909380V    R           D             0823030 064184380007639920064184380064184380071824301548957000056334730552100641843800005220007639920000602000834397000061500032092200007460003936380000
38213404       3825711752060070   5512002001MALDONADO JOSEFA DEL V   518429793       190392313 527184297936M    R           D             0823030 072648890006029000072648890072648890078677891504780000063630090552100726488900005220006029000000602000944436000061500036324400007460001971000000
38213412       3825710996060098   5512002001CHAVEZ NORMA A           522547222       220693303 527225472225M    R           D             0823030 037745500003643520037745500037745500041389020876520000032623820552100377455000005220003643520000602000490692000061500018872800007460001971000000
38213425       3825711632060070  15512002001NUNEZ BEATRIZ DEL V      520334725       201192303 527203347257M    R           D             0823030 072648890003648500072648890072648890076297391504780000061249590552100726488900005220003648500000602000944436000061500036324400007460001971000000
38213543       3824209304060098   5512002001SOSA MARCELO G           520959905       210891313 520209599059V    R           D             0823030 048291510006554340048291510048291510054845851263448000042211370552100482915100005220006554340000602000627790000061500024145800007460003942000000
38213705       3839350057060047   5512002001ALMARAZ ESTHER DEL VALLE 518102497       080693303 527181024971M    R           D             0823030 064184380005450820064184380064184380069635201545178000054183420552100641843800005220005450820000602000834397000061500032092200007460003898590000
38213865       3825710996060098   5512002001PERALTA REINA VIVIANA    522250618       220693303 627222506188M    R           D             0823030 0377455000036168800377455000377455000413623809142660000322197206521003774550000052200036168800006020004906920000615000188728000061600003774600007460001971000000
38213881       3830701394060064   5512002001SANTILLAN TELMA ROXANA   521910148       260892303 527219101487M    R           D             0823030 068533390007936980068533390068533390076470371509316000061377210552100685333900005220007936980000602000890934000061500034266700007460002757150000
38214023       3824209134060098   5512002001CHAVEZ MARIA I A DE      517502454       071286363 527175024544M    R           D             0823030 037725890005832620037725890037725890043558510876166000034796850552100377258900005220005832620000602000490437000061500018862900007460001971000000
38214031       3824209134060098   5512002001MARRON FRANKLIN MARCELO  516620015       010987353 520166200157V    R           D             0823030 037725460003643520037725460037725460041368981043410000030934880552100377254600005220003643520000602000490431000061500018862700007460003643520000
38214094       3825711856060070   5512002001CUELLAR RAUL OSCAR       517966829       070492313 520179668298V    R           D             0823030 072648890008218100072648890072648890080866991504780000065819190552100726488900005220008218100000602000944436000061500036324400007460001971000000
38214434       3821106221060070  15512002001DIAZ MARIANA GRACIELA    521679050       030493303 527216790508M    R           D             0823030 072648890002882320072648890072648890075531211504780000060483410552100726488900005220002882320000602000944436000061500036324400007460001971000000
38214565       3832303482060070   5512002001CASTANO ROQUE A          523621778       131091313 620236217788V    R           D             0823030 0726488900081623700726488900726488900808112617745290000630659706521007264889000052200081623700006020009444360000615000363244000061600007264900007460003942000000
38214654       3825710621060098   5512002001IBARRA SILVIA B          522415131       070793303 523224151314M    R           D             0823030 040367400006013050040367400040367400046380450923713000037143320552100403674000005220006013050000602000524776000061500020183700007460001971000000
38214743       3822607611060098   5512002001LUNA ELDA JUAREZ DE      518318794       121188343 527183187940M    R           D             0823030 037745500003643520037745500037745500041389020876520000032623820552100377455000005220003643520000602000490692000061500018872800007460001971000000
38215142       3825711736060098   5512002001CASTANO MERCEDES E       522618158       020693303 527226181585M    R           D             0823030 05887761000727607005887761005887761006615368105979700005555571045210058877610000522000727607000060200076540900006150002943880000
38215163       3822607611060098   5512002001TORRES MARCELO DEL V     517215302       130987353 520172153020V    R           D             0823030 037733410003643520037733410037733410041376930876301000032613920552100377334100005220003643520000602000490534000061500018866700007460001971000000
38215192       3824209857060098   5512002001LUNA GABRIELA DEL V      522941117       070193303 627229411174M    R           D             0823030 0482915100043298000482915100482915100526213111708900000409124106521004829151000052200043298000006020006277900000615000241458000061600004829200007460002533500000
38215294       3817601703060098   5512002001SIERRA MARIA INES        521894340       180693303 527218943409M    R           D             0823030 048291510006554340048291510048291510054845851066348000044182370552100482915100005220006554340000602000627790000061500024145800007460001971000000
38215304       3824209714060098   5512002001ALDERETE MONICA D B DE   520155634       180990323 527201556347M    R           D             0823030 040366970003823950040366970040366970044190921109001000033100910552100403669700005220003823950000602000524771000061500020183500007460003823950000
38215341       3817601123060070   5512002001ZABALA ANIBAL OSVALDO    521342296       210892303 620213422961V    R           D             0823030 0646513800076227500646513800646513800722741314254760000580193706521006465138000052200076227500006020008404680000615000323257000061600006465100007460001971000000
38215532       3824208711060098  15512002001GONZALEZ REINA A         518154871       300192313 527181548717M    R           D             0823030 037745500001459400037745500037745500039204900825360000030951300552100377455000005220001459400000602000490692000061500018872800007460001459400000
38215794       3825711237060098  15512002001SUAREZ ORLANDO DEL V     518376824       060588353 520183768248V    R           D             0823030 04829151000364850004829151004829151005194001086924800004324753045210048291510000522000364850000060200062779000006150002414580000
38215833       3821107487060098   5512002001BARRIENTOS GRACIELA      522422185       150492313 627224221857M    R           D             0823030 0403749200037951100403749200403749200441700309642240000345277906521004037492000052200037951100006020005248740000615000201875000061600004037500007460001971000000
38215862       3837710056060070   5512002001ROMERO LILI Z            523164030       150693303 523231640304M    R           D             0823030 072648890008218100072648890072648890080866991504780000065819190552100726488900005220008218100000602000944436000061500036324400007460001971000000
38216224       3835408011060070   5512002001FARIAS JOSE LUIS         521562862       180492313 520215628621V    R           D             0823030 064651820007671820064651820064651820072323641557933000056744310552100646518200005220007671820000602000840474000061500032325900007460003942000000
38216342       3824210095060098   5512002001CRUZ SULMA YOLANDA       518400385       110192313 727184003851M    R           D             0823030 0430285300039423100430285300430285300469708410576710000363941306521004302853000052200039423100006020005593710000615000215143000061600008605700007460001971000000
38216745       3857104462060079   5512002001CUEVA GARCIELA DEL VALLE 522440060       010793303 627224400603M    R           D             0823030 0563236600048704000563236600563236600611940614643500000465505606521005632366000052200048704000006020007322080000615000281618000061600005632400007460003942000000
38216774       3818402881060070   5512001001BRAVO ELMINA DE JESUS    521342256       220491323 527213422567M    R           D             0823030 072648890008218100072648890072648890080866991504780000065819190552100726488900005220008218100000602000944436000061500036324400007460001971000000
38217173       3829600336060079   5512002001RODRIGUEZ FABIANA M      521726738       100592313 727217267388M    R           D             0823030 0563236600048282900563236600563236600611519515178760000459731906521005632366000052200048282900006020007322080000615000281618000061600011264700007460003914030000
38217335       3835408212060070   5512002001PAZ LUCIA I              518517706       070388353 527185177063M    R           D             0823030 072648890008218100072648890072648890080866991504780000065819190552100726488900005220008218100000602000944436000061500036324400007460001971000000
38217623       3831502857060070   5512002001ACOSTA VICTOR ROLANDO    514706141       210685383 520147061413V    R           D             0823030 072648890008218100072648890072648890080866991504780000065819190552100726488900005220008218100000602000944436000061500036324400007460001971000000
38217995       3817601661060098   5512002001MOYANO VICENTE OMAR      517170596       050592313 520171705968V    R           D             0823030 043008480006193480043008480043008480049201961168352000037518440552100430084800005220006193480000602000559110000061500021504200007460003942000000
38218072       3818403296060098   5512002001BARRAZA SONIA MARIEL     527293237       261092303 627272932374M    R           D             0823030 0430084800061624400430084800430084800491709210142600000390283206521004300848000052200061624400006020005591100000615000215042000061600004300800007460001971000000
38218221       3818403137060098   5512002001MONTES MARIEL E          518537334       180491323 527185373342M    R           D             0823030 040381400003823950040381400040381400044205350923965000034965700552100403814000005220003823950000602000524958000061500020190700007460001971000000
38218263       3826550073060092   5512002001BRAVO CABRAL ELVA INES   521343949       251291313 627213439494M    R           D             0823030 037745500003616880037745500037745500041362380717166000034190720552100377455000005220003616880000602000490692000061500018872800006160000377460000
38218352       3821107197060047   5512002001VILLARREAL MARIA TERESA  522242423       220992303 527222424238M    R           D             0823030 064184380005450820064184380064184380069635201549294000054142260552100641843800005220005450820000602000834397000061500032092200007460003939750000
38218412       3822608637060098   5512002001OLMOS MARGARITA          521993608       040693303 627219936082M    R           D             0823030 0430084800061624400430084800430084800491709212113600000370573206521004300848000052200061624400006020005591100000615000215042000061600004300800007460003942000000
38218674       3825711326060098   5512002001RODRIGUEZ ADRIANA E      522390580       240693303 527223905809M    R           D             0823030 03773752000583262003773752003773752004357014067927600003677738045210037737520000522000583262000060200049058800006150001886880000
38218975       3821106406060070   5512002001GALVAN WALTER R          516620222       150492313 520166202222V    R           D             0823030 072648890008218100072648890072648890080866991504780000065819190552100726488900005220008218100000602000944436000061500036324400007460001971000000
38218983       3824210095060098   5512002001CASTANO MIRTA VAZQUEZ    518086037       051191313 627180860377M    R           D             0823030 0430285300039733400430285300430285300470018712085980000349158906521004302853000052200039733400006020005593710000615000215143000061600004302900007460003910550000
38218991       3825711326060098  15512002001MALDONADO LILIANA I DE   518037051       071093293 727180370515M    R           D             0823030 0377455000014594000377455000377455000392049009008510000301963906521003774550000052200014594000006020004906920000615000188728000061600007549100007460001459400000
38219031       3822607777060098   5512002001JUAREZ CARLOS FABIAN     522969327       150991313 520229693272V    R           D             0823030 043008480006193480043008480043008480049201961128120000037920760552100430084800005220006193480000602000559110000061500021504200007460003539680000
38219141       3815300263060098   5512002001LEDDA MYRIAN ADRIANA     522242568       011293293 727222425684M    R           D             0823030 037725460003590240037725460037725460041315700754509000033770610552100377254600005220003590240000602000490431000061500018862700006160000754510000
38219332       3833105183060070   5512002001LLANOS BLANCA I          520157432       150393303 527201574329M    R           D             0823030 072648890008218100072648890072648890080866991701880000063848190552100726488900005220008218100000602000944436000061500036324400007460003942000000
38219434       3819203717060098   5512002001MOREIRA JOSE LUIS        518471582       150492313 720184715822V    R           D             0823030 0482915100042943700482915100482915100525858813572340000390135406521004829151000052200042943700006020006277900000615000241458000061600009658300007460003914030000
38219463       3825710822060070   5512002001JUGO FELISA DEL C        520503926       090394293 527205039266M    R           D             0823030 072648890008218100072648890072648890080866991504780000065819190552100726488900005220008218100000602000944436000061500036324400007460001971000000
38219515       3833105875060070   5512002001GOMEZ ZULEMA ESTHER      523187801       100394293 627231878012M    R           D             0823030 0726488900081623700726488900726488900808112615774290000650369706521007264889000052200081623700006020009444360000615000363244000061600007264900007460001971000000
38219963       3831503192060064   5512002001BAZAN GUSTAVO RICARDO    521631321       100394293 520216313217V    R           D             0823030 077085470008521140077085470077085470085606611781738000067789230552100770854700005220008521140000602001002111000061500038542700007460003942000000
38219971       3818403192060098   5512002001RODRIGUEZ CARINA E       521112623       160692313 727211126235M    R           D             0823030 0482915100064834700482915100482915100547749811629310000431456706521004829151000052200064834700006020006277900000615000241458000061600009658300007460001971000000
38220105       3818402842060098   5512002001LOISEAU MARIA DE LOS A   520519463       240793303 627205194636M    R           D             0823030 0430084800061624400430084800430084800491709212085630000370852906521004300848000052200061624400006020005591100000615000215042000061600004300800007460003914030000
38220163       3818403281060098   5512002001IBARRA RAMONA LILIANA    518494787       141292303 827184947876M    R           D             0823030 0430084800039112700430084800430084800469197512943040000339767106521004300848000052200039112700006020005591100000615000215042000061600012902500007460003911270000
38220184       3835407537060070   5512002001PEREYRA CARLOS JULIO     527980496       110993293 720279804962V    R           D             0823030 0726488900081066400726488900726488900807555316500780000642547506521007264889000052200081066400006020009444360000615000363244000061600014529800007460001971000000
38220223       3822608251060098   5512002001HERRERA DANIEL A         518603898       240691323 520186038984V    R           D             0823030 048291510006554340048291510048291510054845851066348000044182370552100482915100005220006554340000602000627790000061500024145800007460001971000000
38220325       3839350034060038  15512002001ESCOBEDO NELIDA A        517889861       060191323 627178898618M    R           D             0823030 0641843800014594000641843800641843800656437813654430000519893506521006418438000052200014594000006020008343970000615000320922000061600006418400007460001459400000
38220333       3817601073060098   5512002001APUD RAMON ANTONIO       522211768       280394293 520222117683V    R           D             0823030 048291510006554340048291510048291510054845851066348000044182370552100482915100005220006554340000602000627790000061500024145800007460001971000000
38220472       3854701073060070   5512002001JIMENEZ MARTIN R E       520333741       100394293 520203337419V    R           D             0823030 072648890008218100072648890072648890080866991685296000064014030552100726488900005220008218100000602000944436000061500036324400007460003776160000
38220574       3825710806060098   5512002001HERRERA CLAUDIA A        523335174       290394293 527233351747M    R           D             0823030 048291510006554340048291510048291510054845851066348000044182370552100482915100005220006554340000602000627790000061500024145800007460001971000000
38220684       3819203501060047   5512002001JIMENEZ MERCEDES DEL C   520151505       200787363 627201515055M    R           D             0823030 0688106700057142900688106700688106700745249617016030000575089306521006881067000052200057142900006020008945390000615000344053000061600006881100007460003942000000
38220773       3833104446060070   5512002001DIAZ MARCELO F           521642943       250294293 520216429436V    R           D             0823030 072648890008218100072648890072648890080866991504780000065819190552100726488900005220008218100000602000944436000061500036324400007460001971000000
38220794       3815300286060098   5512002001ALVAREZ SILVIA B         521632927       150992303 627216329274M    R           D             0823030 0377455000036168800377455000377455000413623809142660000322197206521003774550000052200036168800006020004906920000615000188728000061600003774600007460001971000000
38220891       3815300127060098  15512002001GOMEZ CORREA MIRTA L     514658798       040693303 623146587984M    R           D             0823030 0430084800036485000430084800430084800466569810142600000365143806521004300848000052200036485000006020005591100000615000215042000061600004300800007460001971000000
38221402       3816100827060098   5512002001GEREZ NANCY ELVECIA      520931091       230492313 527209310916M    R           D             0823030 040367400006013050040367400040367400046380451120813000035172320552100403674000005220006013050000602000524776000061500020183700007460003942000000
38221423       3816100827060098  15512002001LOBOS OLGA B             517547498       270293303 527175474981M    R           D             0823030 040367400003648500040367400040367400044015901091463000033101270552100403674000005220003648500000602000524776000061500020183700007460003648500000
38221431       3817601274060098   5512002001NAVARRO TERESA G DE      517890899       190491323 627178908990M    R           D             0823030 0377425800036168800377425800377425800413594610787980000305714806521003774258000052200036168800006020004906540000615000188713000061600003774300007460003616880000
38221452       3822607843060098   5512002001TAIGUAN NOEMI            520151748       091290323 527201517481M    R           D             0823030 037742580003643520037742580037742580041386100876467000032621430552100377425800005220003643520000602000490654000061500018871300007460001971000000
38221575       3822607611060098   5512002001CRISTINA DEL V. SUAREZ   520594638       020493303 527205946387M    R           D             0823030 037745500003643520037745500037745500041389021043772000030951300552100377455000005220003643520000602000490692000061500018872800007460003643520000
38221685       3815300174060098  15512002001RODRIGUEZ SILVIA Z       517548207       261291313 527175482070M    R           D             0823030 037725890001459400037725890037725890039185290825006000030935230552100377258900005220001459400000602000490437000061500018862900007460001459400000
38221711       3822607576060098   5512002001CONTRERAS CARLOS A       520153672       200993293 620201536724V    R           D             0823030 0482915100043298000482915100482915100526213112554900000400664106521004829151000052200043298000006020006277900000615000241458000061600004829200007460003379500000
38221724       3822608115060070   5512002001AYALA LUISA HAIDEE       517910859       170394293 627179108599M    R           D             0823030 0726488900081623700726488900726488900808112615774290000650369706521007264889000052200081623700006020009444360000615000363244000061600007264900007460001971000000
38221753       3837709061060070   5512002001FERNANDEZ JOSE D         520557773       070394293 520205577735V    R           D             0823030 072648890008218100072648890072648890080866991583395000065033040552100726488900005220008218100000602000944436000061500036324400007460002757150000
38222021       3829600472060070   5512002001MANRIQUE ANDREA DE LOS A 523280986       240394293 827232809863M    R           D             0823030 0726488900080509200726488900726488900806998119198270000615015406521007264889000052200080509200006020009444360000615000363244000061600021794700007460003942000000
38222131       3828100305060047   5512002001TOFANELLI MARIA E        524883484       210391323 527248834841M    R           D             0823030 065891870005567450065891870065891870071459321383153000057627790552100658918700005220005567450000602000856594000061500032945900007460001971000000
38222144       3817600994060098  15512002001DIAZ ALICIA B            520805979       160692313 627208059799M    R           D             0823030 0482915100014594000482915100482915100497509110634800000391161106521004829151000052200014594000006020006277900000615000241458000061600004829200007460001459400000
38222173       3817601355060098   5512002001FEREZ IRIS MARIELA       523808208       300793303 627238082086M    R           D             0823030 0403674000059842100403674000403674000463516109640800000367108106521004036740000052200059842100006020005247760000615000201837000061600004036700007460001971000000
38222212       3822607843060098   5512002001QUINTEROS MARCELA B      522023006       280393303 527220230061M    R           D             0823030 037725460003643520037725460037725460041368981043410000030934880552100377254600005220003643520000602000490431000061500018862700007460003643520000
38222445       3816100603060098  15512002001MALDONADO MINERVA A C DE 530821796       080793303 627308217960M    R           D             0823030 0403674000036485000403674000403674000440159009640800000343751006521004036740000052200036485000006020005247760000615000201837000061600004036700007460001971000000
38222453       3854701564060079   5512002001BORDA EDITH ISABEL       525002276       101091313 527250022765M    R           D             0823030 056323660004912520056323660056323660061236181210926000049126920552100563236600005220004912520000602000732208000061500028161800007460001971000000
38222555       3829600843060079   5512002001GOMEZ JORGELINA          522864101       230394293 523228641014M    R           D             0823030 056323660004912520056323660056323660061236181210926000049126920552100563236600005220004912520000602000732208000061500028161800007460001971000000
38222563       3831502014060047   5512002001GOMEZ VIVIANA B DE       518506545       130789343 727185065451M    R           D             0823030 0641924000053534700641924000641924000695458714809480000547363906521006419240000052200053534700006020008345010000615000320962000061600012838500007460001971000000
38222801       3818402374060098   5512002001MEDINA LUCIA V           520564512       240192313 627205645123M    R           D             0823030 0377455000036168800377455000377455000413623810551160000308112206521003774550000052200036168800006020004906920000615000188728000061600003774600007460003379500000
38222893       3835408564060070   5512002001TORRES SANTOS Y.         521181417       130193303 523211814179V    R           D             0823030 072648890006029000072648890072648890078677891504780000063630090552100726488900005220006029000000602000944436000061500036324400007460001971000000
