38000131       3816100874060098   5512002001LLANOS,MARGARITA NANCY   517066586       180904193 523170665864M    R           D             0224030 03197546000948111003197546003197546004145657057555800003570099045210031975460000522000948111000060200041568100006150001598770000
38000173       3824209687060098   5512002001CARABAJAL NORMA GRACIELA 525276017       170108163 527252760178M    R           D             0224030 0306546900000000000306546900306546900306546905517840000251368503521003065469000060200039851100006150001532730000
38000262       3816100592060098   5512002001RODRIGUEZ,SILVIA NOEMI   525470711       150611123 627254707118M    R           D             0224030 024050920009066610024050920024050920033117530456968000028547850552100240509200005220009066610000602000312662000061500012025500006160000240510000
38000275       3824209134060098   5512002001TORRES ROSALIA VERONICA  527283990       150811123 527272839900M    R           D             0224030 02405092000893982002405092002405092003299074043291700002866157045210024050920000522000893982000060200031266200006150001202550000
38000534       3819204187060098   5512002001RUIZ,GRACIELA MABEL      525837711       110504193 527258377112M    R           D             0224030 02933394000492249002933394002933394003425643052801100002897632045210029333940000522000492249000060200038134100006150001466700000
38000555       3825710605060098   5512002001SEQUEIRA LILIANA DEL VALL530318111       140112123 523303181113M    R           D             0224030 08873394001202609008873394008873394010076003159721100008478792045210088733940000522001202609000060200115354100006150004436700000
38000631       3819204214060098   5512002001VARGAS,SILVIA SUSANA     521039406       280392313 627210394066M    R           D             0224030 034616970005254510034616970034616970039871480657723000033294250552100346169700005220005254510000602000450021000061500017308500006160000346170000
38000665       3825711721060098   5512002001CORONEL,SUSANA ELIZABETH 527392181       250603203 527273921813M    R           D             0224030 02933394000692617002933394002933394003626011052801100003098000045210029333940000522000692617000060200038134100006150001466700000
38000801       3861309134060098   5512002001VALDEZ JOSE RAMON        528724181       281013103 520287241810V    R           D             0224030 02273015000447140002273015002273015002720155040914300002311012045210022730150000522000447140000060200029549200006150001136510000
38000843       3825710161060098   5512002001ORELLANA SONIA MERCEDES  529613183       290812113 527296131836M    R           D             0224030 03329621000957133003329621003329621004286754059933200003687422045210033296210000522000957133000060200043285100006150001664810000
38001132       3826550057060098   5512002001JAIMES,CLAUDIA NATALI    532685653       020513103 527326856539M    R           D             0224030 02273015001040221002273015002273015003313236040914300002904093045210022730150000522001040221000060200029549200006150001136510000
38001433       3818402045060098   5512002001VILLALBA,EVA EDIT        523017815       180413103 527230178157M    R           D             0224030 02273015000602401002273015002273015002875416040914300002466273045210022730150000522000602401000060200029549200006150001136510000
38001491       3824209207060070   5512001001CARRIZO PATRICIA ALEJANDR529276385       170613103 527292763854M    R           D             0224030 04090698001009119004090698004090698005099817073632600004363491045210040906980000522001009119000060200053179100006150002045350000
38001543       3825723022060098   5512002001NAVARRO MONICA VALERIA   531081528       191212113 523310815284M    R           D             0224030 02273015000884960002273015002273015003157975040914300002748832045210022730150000522000884960000060200029549200006150001136510000
38001645       3825723022060098   5512002001RODRIGUEZ CRISTIAN ANTONI527608059       261212113 520276080599V    R           D             0224030 02273015000447140002273015002273015002720155040914300002311012045210022730150000522000447140000060200029549200006150001136510000
38001695       3824209134060098   5512002001MICHEL ELIANA BEATRIZ    534263660       210513103 527342636603M    R           D             0224030 02273015001040221002273015002273015003313236040914300002904093045210022730150000522001040221000060200029549200006150001136510000
38001844       3822607642060098   5512002001ROMANI MARIA DE LOS ANGEL532438689       181212113 527324386896M    R           D             0224030 02273015000884960002273015002273015003157975040914300002748832045210022730150000522000884960000060200029549200006150001136510000
38001904       3861309826060098   5512002001JAIME SONIA ELIZABETH    532054053       291013103 523320540534M    R           D             0224030 02273015000884960002273015002273015003157975040914300002748832045210022730150000522000884960000060200029549200006150001136510000
38001933       3855503346060098  15512002001MEDINA,DENYS OMAR        527407455       210513103 520274074559V   7R           D             0224030 04132436000291880004132436004132436004424316074383900003680477045210041324360000522000291880000060200053721700006150002066220000
38001962       3856303822060098   5512002001VALDIVIA,ROSA CECILIA    531337001       150811123 527313370017M    R           D             0224030 03461697000966154003461697003461697004427851062310600003804745045210034616970000522000966154000060200045002100006150001730850000
38002052       3862112086060098   5512002001VILLALBA IBANA MARIEL    534353129       020513103 527343531295M    R           D             0224030 03329621000957133003329621003329621004286754059933200003687422045210033296210000522000957133000060200043285100006150001664810000
38002264       3819204075060098   5512002001ESPINOLA,MARIA LUJAN     533063163       120811123 527330631630M    R           D             0224030 02405092000456162002405092002405092002861254043291700002428337045210024050920000522000456162000060200031266200006150001202550000
38002293       3824209625060098   5512002001ANASTACIA CARINA MARGARIT526423942       190613103 527264239422M    R           D             0224030 02801319000483227002801319002801319003284546050423700002780309045210028013190000522000483227000060200036417100006150001400660000
38002361       3816100592060098   5512002001SUAREZ,PAMELA SOLEDAD    529453597       150811123 527294535972M    R           D             0224030 02405092000893982002405092002405092003299074043291700002866157045210024050920000522000893982000060200031266200006150001202550000
38002374       3861309583060098   5512002001PINERO CONSOLACION       518252891       230707163 527182528914M    R           D             0224030 03593772000975176003593772003593772004568948064687900003922069045210035937720000522000975176000060200046719000006150001796890000
38002531       3855502327060098   5512002001HOYOS,RITA ALEJANDRA     528744453       010909143 527287444538M    R           D             0224030 02669242000474206002669242002669242003143448048046300002662985045210026692420000522000474206000060200034700100006150001334620000
38002581       3824209714060098   5512002001CABRERA ROBERTA GRACIELA 526909074       031212113 527269090745M    R           D             0224030 02537167000465183002537167002537167003002350045669000002545660045210025371670000522000465183000060200032983200006150001268580000
38002604       3824209826060098   5512002001MEDINA SILVANA LUCRECIA  529123872       011213103 527291238721M    R           D             0224030 02273015001040221002273015002273015003313236040914300002904093045210022730150000522001040221000060200029549200006150001136510000
38002735       3816100827060098   5512002001GUTIERREZ,ANGELA ADRIANA 528944156       301110133 527289441560M    R           D             0224030 02669242000912026002669242002669242003581268048046300003100805045210026692420000522000912026000060200034700100006150001334620000
38002743       3862110621060098   5512002001VILLALBA PABLO ALBERTO   533207764       190411123 520332077644V    R           D             0224030 02669242000912026002669242002669242003581268048046300003100805045210026692420000522000912026000060200034700100006150001334620000
38003045       3825710853060098   5512002001GALVAN ADRIANA AMANDA    521879949       120197273 527218799499M    R           D             0224030 03197545000510291003197545003197545003707836057555800003132278045210031975450000522000510291000060200041568100006150001598770000
38003184       3824209714060098   5512002001CORDOBA MICAELA MAGALI   532108839       201212113 527321088398M    R           D             0224030 02537167000465183002537167002537167003002350045669000002545660045210025371670000522000465183000060200032983200006150001268580000
38003354       3862113035060098   5512002001IBANEZ NOELIA ROSA BEATRI533207731       300213103 527332077312M    R           D             0224030 02273015000884960002273015002273015003157975040914300002748832045210022730150000522000884960000060200029549200006150001136510000
38003684       3856303501060098   5512002001GONZALEZ,NESTOR FABIAN   528143755       051011123 520281437551V    R           D             0224030 02669242000656531002669242002669242003325773048046300002845310045210026692420000522000656531000060200034700100006150001334620000
38004062       3853200715060098   5512002001GOMEZ,VANESS RAFAELA     530773063       190911123 523307730634M    R           D             0224030 02669242000912026002669242002669242003581268048046300003100805045210026692420000522000912026000060200034700100006150001334620000
38004211       3835407746060098   5512002001VILLALOBOS EMMA TERESITA 525992439       290607163 527259924397M    R           D             0224030 02537167000903003002537167002537167003440170045669000002983480045210025371670000522000903003000060200032983200006150001268580000
38004224       3859408146060098   5512002001FUENTES SANDRA MABENL    522177071       181111123 523221770714M    R           D             0224030 02405092000893982002405092002405092003299074043291700002866157045210024050920000522000893982000060200031266200006150001202550000
38004261       3817601502060098   5512002001HERNANDEZ DOMINGUEZ MARIA526636125       120909143 523266361254M    R           D             0224030 02405092000893982002405092002405092003299074043291700002866157045210024050920000522000893982000060200031266200006150001202550000
38004334       3822607506060098   5512002001ARANDA BLANCA ISABEL     526220719       070711123 527262207191M    R           D             0224030 02405092000456162002405092002405092002861254043291700002428337045210024050920000522000456162000060200031266200006150001202550000
38004384       3822608274060098   5512002001RODRIGUEZ LILIA SUSANA   523625834       280905183 627236258349M    R           D             0224030 029333940004898050029333940029333940034231990557345000028658540552100293339400005220004898050000602000381341000061500014667000006160000293340000
38004465       3821106774060098  15512002001PALADEA YANINA ELIZABETH 531417663       180611123 523314176634M    R           D             0224030 02405092000291880002405092002405092002696972043291700002264055045210024050920000522000291880000060200031266200006150001202550000
38004562       3817601452060098   5512002001RAMIREZ KARINA           529236397       090508153 523292363974M    R           D             0224030 02801319000921047002801319002801319003722366050423700003218129045210028013190000522000921047000060200036417100006150001400660000
38004855       3859408316060098   5512002001SALTO VALERIA RUFINA     534310417       191212113 527343104176M    R           D             0224030 02537167000903003002537167002537167003440170045669000002983480045210025371670000522000903003000060200032983200006150001268580000
38004965       3817601637060098   5512002001YTURRE XIMENA SOLEDAD    526094885       090505183 527260948852M    R           D             0224030 03197546000510291003197546003197546003707837057555800003132279045210031975460000522000510291000060200041568100006150001598770000
38005055       3822608371060098   5512002001LEGUIZAMON LAURA VANESA  530318083       050712113 523303180834M    R           D             0224030 02537167000903003002537167002537167003440170045669000002983480045210025371670000522000903003000060200032983200006150001268580000
38005102       3859407634060098   5512002001VISGARRA MARCELA VANESA  531141165       060511123 527311411654M    R           D             0224030 02405092000620444002405092002405092003025536043291700002592619045210024050920000522000620444000060200031266200006150001202550000
38005453       3859407707060098   5512002001CORVALAN ANA MARIA       517675394       240900233 627176753949M    R           D             0224030 035937720005343620035937720035937720041281340682817000034453170552100359377200005220005343620000602000467190000061500017968900006160000359380000
38005534       3822607611060098   5512002001ROLDAN KARINA ESTRELLA   521937540       260511123 527219375404M    R           D             0224030 02405092000456162002405092002405092002861254043291700002428337045210024050920000522000456162000060200031266200006150001202550000
38005885       3822607843060098   5512002001AVILA CESAR DAVID        516310625       251091323 520163106257V    R           D             0224030 03197545000510291003197545003197545003707836057555800003132278045210031975450000522000510291000060200041568100006150001598770000
38006213       3822607611060098   5512002001JUAREZ DEVORA GRACIELA   527037680       150811123 627270376806M    R           D             0224030 024050920006164370024050920024050920030215290456968000025645610552100240509200005220006164370000602000312662000061500012025500006160000240510000
38006234       3822607657060098   5512002001SORIA LIDIA ADRIANA      530443014       260610133 527304430147M    R           D             0224030 02405092000456162002405092002405092002861254043291700002428337045210024050920000522000456162000060200031266200006150001202550000
38006734       3859407882060098   5512002001ALVAREZ MARIA ALEJANNDRA 520153929       290111133 527201539299M    R           D             0224030 02933394000930069002933394002933394003863463052801100003335452045210029333940000522000930069000060200038134100006150001466700000
38006852       3822607731060098   5512002001LEGUIZAMON ELDA SILVINA  527793894       020605183 523277938944M    R           D             0224030 02933394000930069002933394002933394003863463052801100003335452045210029333940000522000930069000060200038134100006150001466700000
38006873       3822607522060098   5512002001SUAREZ DEBORA FABIANA    526890392       111209143 527268903920M    R           D             0224030 02669242000912026002669242002669242003581268048046300003100805045210026692420000522000912026000060200034700100006150001334620000
38007104       3835407754060098  15512002001LAFFON NOELIA LUCIANA    526789841       140605183 527267898419M    R           D             0224030 02933394000091512002933394002933394003024906052801100002496895045210029333940000522000091512000060200038134100006150001466700000
38007175       3822608034060098   5512002001BRAVO MARIA SOLEDAD      526396771       251111123 527263967718M    R           D             0224030 02405092000456162002405092002405092002861254043291700002428337045210024050920000522000456162000060200031266200006150001202550000
38007633       3822607642060098   5512002001GOMEZ CLAUDIA ANALIA     534168982       120712113 527341689827M    R           D             0224030 02273015000884960002273015002273015003157975040914300002748832045210022730150000522000884960000060200029549200006150001136510000
38007751       3859408146060098  15512002001CORTES VALERIA ALEJANDRA 533627112       120711123 627336271121M    R           D             0224030 024050920005674210024050920024050920029725130456968000025155450552100240509200005220005674210000602000312662000061500012025500006160000240510000
38007772       3822607897060070   5512002001CEJAS JUAN JOSE          525382884       240604193 520253828847V    R           D             0224030 05090387001077404005090387005090387006167791091626900005251522045210050903870000522001077404000060200066175000006150002545190000
38007992       3822607506060098   5512002001VELARDEZ CLAUDIA PATRICIA520916694       080707163 527209166947M    R           D             0224030 02537167000465183002537167002537167003002350045669000002545660045210025371670000522000465183000060200032983200006150001268580000
38008024       3835407642060098   5512002001JUGO GUILLERMO ARIEL     524233512       250811123 520242335121V    R           D             0224030 02405092000620444002405092002405092003025536043291700002592619045210024050920000522000620444000060200031266200006150001202550000
38008142       3859408661060098   5512002001TOLEDO ADRIANA ELIZABETH 535177733       020612113 527351777333M    R           D             0224030 03329621000957133003329621003329621004286754059933200003687422045210033296210000522000957133000060200043285100006150001664810000
38008354       3822608316060098  15512002001CORTEZ MARIA CONCEPCION  517655797       100413123 523176557974M    R           D             0224030 02377362000567312002377362002377362002944674042792500002516749045210023773620000522000567312000060200030905700006150001188680000
38008451       3822608653060098   5512002001ZABALA ALBERTO FERNANDO  528400654       260604193 520284006543V    R           D             0224030 03725848000984198003725848003725848004710046067065200004039394045210037258480000522000984198000060200048436000006150001862920000
38008503       3822608413060098   5512002001LANDRIEL SILVIA NOEMI    522425899       070711123 527224258998M    R           D             0224030 03461697000002974003461697003461697003464671062310600002841565045210034616970000522000002974000060200045002100006150001730850000
38008621       3822608107060098   5512002001PEREZ MIRIAM MARCELA     522299784       100804193 523222997844M    R           D             0224030 03197545000948111003197545003197545004145656057555800003570098045210031975450000522000948111000060200041568100006150001598770000
38008702       3822607707060098   5512002001CORVALAN CLAUDIA DOLORES 526351806       140605183 527263518069M    R           D             0224030 03197546000510291003197546003197546003707837057555800003132279045210031975460000522000510291000060200041568100006150001598770000
38008773       3822607611060098   5512001001MENA MARIANA MARIEL      528754719       210512113 627287547191M    R           D             0224030 022730150005986140022730150022730150028716290431873000024397560552100227301500005220005986140000602000295492000061500011365100006160000227300000
38008841       3820305024060098   5512002001ESCALADA ARIEL GUSTAVO   527903926       240506173 520279039263V    R           D             0224030 03197545000948111003197545003197545004145656057555800003570098045210031975450000522000948111000060200041568100006150001598770000
38009033       3822607657060098   5512002001PEREZ EMILIA MERCEDES    529785643       010614103 727297856435M    R           D             0224030 022730150005948280022730150022730150028678430454603000024132400552100227301500005220005948280000602000295492000061500011365100006160000454600000
38009193       3859407673060098   5512002001BARRERA CORINA MARGARITA 531753631       140613103 527317536319M    R           D             0224030 03329621000957133003329621003329621004286754059933200003687422045210033296210000522000957133000060200043285100006150001664810000
38009452       3859408065060098   5512002001CORDOBA MARTA DEL V.     522197948       181108153 627221979481M    R           D             0224030 035937720005343620035937720035937720041281340682817000034453170552100359377200005220005343620000602000467190000061500017968900006160000359380000
38009494       3822607634060098   5512002001GONZALEZ NOELIA VANESA   533385128       231212113 527333851283M    R           D             0224030 02273015000884960002273015002273015003157975040914300002748832045210022730150000522000884960000060200029549200006150001136510000
38009504       3822607827060098   5512002001TOLEDO CARLOS FERNANDO   529930838       120811123 520299308384V    R           D             0224030 03461697000528334003461697003461697003990031062310600003366925045210034616970000522000528334000060200045002100006150001730850000
38009525       3822608556060098   5512002001CAMPOS CLAUDIO HERNAN    532506648       270512113 520325066483V    R           D             0224030 03329621000957133003329621003329621004286754059933200003687422045210033296210000522000957133000060200043285100006150001664810000
38009745       3859407576060098   5512002001NAVARRO CINTHIA ROXANA   531988987       031212113 627319889871M    R           D             0224030 033296210005165390033296210033296210038461600632628000032135320552100332962100005220005165390000602000432851000061500016648100006160000332960000
38009753       3822607715060070   5512002001LEDESMA ALEJANDRA DEL V. 523450999       180413103 527234509999M    R           D             0224030 05290325001091061005290325005290325006381386095225800005429128045210052903250000522001091061000060200068774200006150002645160000
38009805       3822607634060098   5512002001ZERDA IVANA NATALI       531976998       250411123 527319769981M    R           D             0224030 02405092000893982002405092002405092003299074043291700002866157045210024050920000522000893982000060200031266200006150001202550000
38009902       3835407634060098   5512002001BARRIONUEVO CECILIA C.   526368157       160110143 727263681571M    R           D             0224030 024050920004521560024050920024050920028572480481019000023762290552100240509200005220004521560000602000312662000061500012025500006160000481020000
38009923       3822607642060098   5512002001BELTRAN JOSE AUGUSTO     529103417       080612113 623291034179V    R           D             0224030 022730150008830670022730150022730150031560820431873000027242090552100227301500005220008830670000602000295492000061500011365100006160000227300000
38010115       3859408096060070   5512002001LEGUIZAMON LORENA PAOLA  530538652       161210133 527305386524M    R           D             0224030 05490262001104718005490262005490262006594980098824700005606733045210054902620000522001104718000060200071373400006150002745130000
38010212       3859407963060098   5512002001SALTO ROSANA MARILU      524696377       051011123 527246963776M    R           D             0224030 02933394000930069002933394002933394003863463052801100003335452045210029333940000522000930069000060200038134100006150001466700000
38010225       3859407545060098   5512002001PECCI CARLA GISELA       533629156       150612113 527336291564M    R           D             0224030 02273015000447140002273015002273015002720155040914300002311012045210022730150000522000447140000060200029549200006150001136510000
38010495       3822607665060098   5512002001VEGA YANINA TERESA ANDREA527906967       280613103 527279069671M    R           D             0224030 02801319000921047002801319002801319003722366050423700003218129045210028013190000522000921047000060200036417100006150001400660000
38010521       3822607553060098   5512002001BUTARELLI MONICA A.      527686497       020405183 627276864977M    R           D             0224030 031975460005076280031975460031975460037051740607533000030976410552100319754600005220005076280000602000415681000061500015987700006160000319750000
38010814       3835408243060098   5512002001GARNICA MARCELA ELIZABETH520732380       071011123 527207323808M    R           D             0224030 02405092000456162002405092002405092002861254043291700002428337045210024050920000522000456162000060200031266200006150001202550000
38011205       3822607611060098   5512002001DIAZ SILVIA ELIZABETH    523584077       150811123 623235840774M    R           D             0224030 024050920004541580024050920024050920028592500456968000024022820552100240509200005220004541580000602000312662000061500012025500006160000240510000
38011331       3859407611060098   5512002001ALBARRACIN MARIA ELENA   531391973       041011123 627313919736M    R           D             0224030 024050920004541580024050920024050920028592500456968000024022820552100240509200005220004541580000602000312662000061500012025500006160000240510000
38092015       3834607182060047   5512002001SOSA DIOSQUEZ NIEVES E   516309440       060983403 527163094407M    R           D             0224030 05843437000691022005843437005843437006534459105181900005482640045210058434370000522000691022000060200075964700006150002921720000
38105994       3817601096060070   5512002001SANDEZ JOSE DOMINGO      516404742       230984393 620164047424V    R           D             0224030 066898900011810870066898900066898900078709771271080000065998970552100668989000005220011810870000602000869686000061500033449500006160000668990000
38107522       3833104493060070   5512002001ZERDA GERARDO RAUL       516656733       080683403 620166567336V    R           D             0224030 058901390011271260058901390058901390070172651119126000058981390552100589013900005220011271260000602000765718000061500029450700006160000589010000
38109545       3831503095060070   5512002001PALMAS JULIO LORENZO     516884776       180485383 623168847769V    R           D             0224030 066898900011810870066898900066898900078709771271080000065998970552100668989000005220011810870000602000869686000061500033449500006160000668990000
38111602       3837708773060070   5512002001LEDESMA MOISES APOLINAR  516442670       010285393 520164426700V    R           D             0224030 06689890001211976006689890006689890007901866120418100006697685045210066898900000522001211976000060200086968600006150003344950000
38112043       3837709745060064   5512002001GONZALEZ ESTER DEL VALLE 517779167       140786373 727177791674M    R           D             0224030 062783390007102690062783390062783390069886081255668000057329400552100627833900005220007102690000602000816184000061500031391700006160001255670000
38113612       3829600522060070   5512002001SANTILLAN ZOILO ENRIQUE  516842940       270886373 720168429402V    R           D             0224030 066898900011755140066898900066898900078654041337979000065274250552100668989000005220011755140000602000869686000061500033449500006160001337980000
38113654       3824209753060070   5512002001MORALES VICTOR LIBERATO  517072914       140886373 620170729146V    R           D             0224030 066898900011905870066898900066898900078804771271080000066093970552100668989000005220011905870000602000869686000061500033449500006160000668990000
38113722       3824209873060070   5512001001RIVERO HUGO OSVALDO      516614750       150385383 620166147507V    R           D             0224030 058901390011271260058901390058901390070172651119126000058981390552100589013900005220011271260000602000765718000061500029450700006160000589010000
38117501       3838510764060064   5512002001MANSILLA WALTER FERNANDO 517028814       110386373 523170288149V    R           D             0224030 06278339001158548006278339006278339007436887113010100006306786045210062783390000522001158548000060200081618400006150003139170000
38118463       3838512086060070   5512002001MAGUNA RAUL EULOGIO      514814752       030484393 520148147524V    R           D             0224030 05090387001077404005090387005090387006167791091626900005251522045210050903870000522001077404000060200066175000006150002545190000
38119773       3838510273060047   5512002001LEGUIZAMON WALTER CEFERIN514985104       180287363 620149851047V    R           D             0224030 058434370006861550058434370058434370065295921110253000054193390552100584343700005220006861550000602000759647000061500029217200006160000584340000
38122593       3817601177060070   5512002001JUAREZ SEGUNDO MARIO     516820666       061087363 520168206667V    R           D             0224030 05890139001132032005890139005890139007022171106022500005961946045210058901390000522001132032000060200076571800006150002945070000
38122941       3829600681060064   5512002001PAJON HECTOR ORLANDO     517779283       240987363 520177792838V    R           D             0224030 06278339000720728006278339006278339006999067113010100005868966045210062783390000522000720728000060200081618400006150003139170000
38123471       3819204005060070  15512002001VILLALBA PEDRO ENRIQUE   516885016       070586373 520168850167V   7R           D             0224030 04083828000729700004083828004083828004813528073508900004078439045210040838280000522000729700000060200053089800006150002041910000
38125591       3832304214060047   5512002001JIMENEZ MARIA REMBERTO   516280370       110587363 520162803701V    R           D             0224030 06306068000722622006306068006306068007028690113509200005893598045210063060680000522000722622000060200081978900006150003153030000
38125855       3820306027060098   5512002001VILLAGRAN JOSE OMAR      517966808       061087363 520179668085V    R           D             0224030 04254151001020284004254151004254151005274435076574800004508687045210042541510000522001020284000060200055304000006150002127080000
38126055       3822607642060098   5512002001CARPIO SILVIA VIVIANA    517438019       041187363 527174380193M    R           D             0224030 031975450007047310031975450031975450039022760719448000031828280552100319754500005220007047310000602000415681000061500015987700006650001438900000
38126351       3837708711060047   5512002001MURAD PEDRO JORGE        517235784       021086373 523172357849V    R           D             0224030 13636875001090164013636875013636875014727039245463800012272401045210136368750000522001090164000060200177279400006150006818440000
38126903       3833105361060070   5512002001REVAINERA CARLOS A       518479541       120588353 520184795419V    R           D             0224030 06689890000748839006689890006689890007438729120418100006234548045210066898900000522000748839000060200086968600006150003344950000
38128971       3830701444060070   5512002001SABALZA LUIS MARCELO     521343923       270888353 520213439236V    R           D             0224030 05490263001104718005490263005490263006594981098824700005606734045210054902630000522001104718000060200071373400006150002745130000
38133735       3824209826060079  15512001001SORIA WALTER ROGER       514214718       170182423 620142147182V    R           D             0224030 05055361000000000005055361005055361005055361096051900004094842045210050553610000602000657197000061500025276800006160000505540000
38134032       3820305585060070   5512002001QUIROGA OMAR OVIDIO      520156187       300389343 520201561877V    R           D             0224030 06689890001186659006689890006689890007876549120418100006672368045210066898900000522001186659000060200086968600006150003344950000
38134223       3821107201060070   5512002001CUELLAR ERASMO DELIVANO  518515014       170588353 520185150144V    R           D             0224030 06689890001186659006689890006689890007876549120418100006672368045210066898900000522001186659000060200086968600006150003344950000
38136843       3833105136060070   5512002001ARGANARAZ VICTOR OMAR    516002765       170389343 520160027658V    R           D             0224030 06689890001186659006689890006689890007876549120418100006672368045210066898900000522001186659000060200086968600006150003344950000
38137195       3820306074060098   5512002001SORIA LUIS OMAR          516526621       280689343 620165266219V    R           D             0224030 031975450005076280031975450031975450037051730607533000030976400552100319754500005220005076280000602000415681000061500015987700006160000319750000
38138785       3825711906060098   5512002001RODRIGUEZ RAMON ROSA     517675352       210390333 520176753529V    R           D             0224030 04254151001020284004254151004254151005274435076574800004508687045210042541510000522001020284000060200055304000006150002127080000
38140091       3830701355060079   5512002001LLINAS VALERIA           518520948       120189353 527185209488M    R           D             0224030 05452319001102126005452319005452319006554445098141700005573028045210054523190000522001102126000060200070880100006150002726160000
38140923       3834607305060070   5512002001SAYAGO MIRIHAM ELIZABETH 517033819       230388353 527170338192M    R           D             0224030 05890139000695304005890139005890139006585443106022500005525218045210058901390000522000695304000060200076571800006150002945070000
38141181       3832304164060070   5512002001BASUALDO,REYNA CRISTINA  518550961       090588353 527185509619M    R           D             0224030 05490262001104718005490262005490262006594980098824700005606733045210054902620000522001104718000060200071373400006150002745130000
38141335       3838510717060064   5512002001GUZMAN PATRICIA LILIA    518300384       070590333 523183003844     R           D             0224030 05850735001129341005850735005850735006980076105313300005926943045210058507350000522001129341000060200076059600006150002925370000
38141644       3835407576060047   5512002001LOPEZ VICTOR MARCELO     516467943       210286373 520164679439V    R           D             0224030 07693956000847305007693956007693956008541261138491200007156349045210076939560000522000847305000060200100021400006150003846980000
38141791       3855502014060079  15512002001OZAN ANTONIO RITO        516910422       140587363 520169104221V   7R           D             0224030 00000000000145940000000000000000000000145940000000000000145940015220001459400000
38142763       3835407955060070   5512002001LEIVA ESTELA IBA#EZ DE   517164999       010690333 523171649994M    R           D             0224030 06689890001186659006689890006689890007876549120418100006672368045210066898900000522001186659000060200086968600006150003344950000
38142852       3837709401060064  15512001001MALDONADO NILDA          520220412       090590333 527202204126M   5R           D             0224030 0497619300000000000497619300497619300497619308957150000408047803521004976193000060200064690500006150002488100000
38142954       3838510226060064   5512002001LUKES HAYDA SUSANA       520604527       110590333 527206045278M    R           D             0224030 07133547001216964007133547007133547008350511128403800007066473045210071335470000522001216964000060200092736100006150003566770000
38143154       3861308815060070   5512002001HERNANDEZ CARLOS MARCIAL 517139851       030888353 520171398518V    R           D             0224030 05490263001104718005490263005490263006594981098824700005606734045210054902630000522001104718000060200071373400006150002745130000
38144032       3822608421060070   5512002001SANTILLAN GLORIA ELENA   518495290       040588353 623184952904M    R           D             0224030 066898900011810870066898900066898900078709771271080000065998970552100668989000005220011810870000602000869686000061500033449500006160000668990000
38144231       3833105794060070   5512002001SANCHEZ REYES ANTONIO    516442696       030489343 620164426964V    R           D             0224030 066898900011810870066898900066898900078709771271080000065998970552100668989000005220011810870000602000869686000061500033449500006160000668990000
38144391       3835407553060064   5512002001ROLDAN ANA SERAFINA      521002629       010690333 527210026296M    R           D             0224030 06278339001588483006278339006278339007866822113010100006736721045210062783390000522001588483000060200081618400006150003139170000
38145295       3838511616060064   5512002001INIGUEZ NORMA DIAZ DE    517840321       110790333 623178403214     R           D             0224030 058507340011244660058507340058507340069752001111639000058635610552100585073400005220011244660000602000760595000061500029253700006160000585070000
38145392       3833104895060070   5512002001NAZAR RAUL RENE          518542714       240487363 720185427146V    R           D             0224030 066898900007458890066898900066898900074357791337979000060978000552100668989000005220007458890000602000869686000061500033449500006160001337980000
38145635       3824209985060070   5512002001GRIGUELI CLAUDIA M.P.DE  518262180       210689343 627182621809M    R           D             0224030 0668989000115601000668989000668989000784590015721250000627377506521006689890000052200115601000006020008696860000615000334495000061600006689900006650003010450000
38145724       3833105256060070   5512002001MALDONADO SARA NOEMI     517563882       180888353 627175638828M    R           D             0224030 054902620011001440054902620054902620065904061043150000055472560552100549026200005220011001440000602000713734000061500027451300006160000549030000
38145745       3833106027060064   5512002001TORREZ LILIANA DEL VALLE 518090722       210189353 527180907225M    R           D             0224030 07133547001268123007133547007133547008401670128403800007117632045210071335470000522001268123000060200092736100006150003566770000
38146534       3818402494060098   5512002001TOTO MARIELA ALEJANDRA   521342371       120390333 627213423717M    R           D             0224030 042541510010167410042541510042541510052708920808290000044626020552100425415100005220010167410000602000553040000061500021270800006160000425420000
38147983       3858606735060079   5512002001JIMENEZ ROSSANA ADRIANA  521609456       160590333 727216094560M    R           D             0224030 050553610006287700050553610050553610056841311011072000046730590552100505536100005220006287700000602000657197000061500025276800006160001011070000
38148175       3856304214060079   5512002001SAYAGO JORGE A           516620043       180887363 720166200432V    R           D             0224030 054523190010930420054523190054523190065453611090463000054548980552100545231900005220010930420000602000708801000061500027261600006160001090460000
38148405       3818402753060070   5512002001ENCALADA ROXANA DEL V    521725640       020591323 727217256408M    R           D             0224030 066898900011755140066898900066898900078654041337979000065274250552100668989000005220011755140000602000869686000061500033449500006160001337980000
38148413       3837709896060070   5512001001VERON GLADYS BEATRIZ     520153669       160189353 727201536699M    R           D             0224030 066898900011755140066898900066898900078654041337979000065274250552100668989000005220011755140000602000869686000061500033449500006160001337980000
38148471       3816100793060098   5512002001BEDU ADRIANA BEATRIZ     528139077       080491323 627281390770M    R           D             0224030 031975450005076280031975450031975450037051730607533000030976400552100319754500005220005076280000602000415681000061500015987700006160000319750000
38148675       3832303822060070   5512002001PALACIOS ADALBERTO       517991464       130489343 620179914647V    R           D             0224030 066898900011810870066898900066898900078709771271080000065998970552100668989000005220011810870000602000869686000061500033449500006160000668990000
38149451       3821107313060098  15512002001SNEIDENIT MARIA ESTHER   521342963       090590333 624213429635M    R           D             0224030 031975450000761320031975450031975450032736770607533000026661440552100319754500005220000761320000602000415681000061500015987700006160000319750000
38149511       3817601606060098   5512002001JIMENEZ MARIA ELENA      520152367       230491323 527201523678M    R           D             0224030 03197545000948111003197545003197545004145656057555800003570098045210031975450000522000948111000060200041568100006150001598770000
38149841       3822607707060098   5512002001OLIVERA VICTORIA DEL C   521179315       150491323 527211793150M    R           D             0224030 03725848000546378003725848003725848004272226067065200003601574045210037258480000522000546378000060200048436000006150001862920000
38150122       3835407916060070   5512002001BAEZ RENE WILFREDO       518254085       260390333 520182540855V    R           D             0224030 06689890001186659006689890006689890007876549120418100006672368045210066898900000522001186659000060200086968600006150003344950000
38150253       3825711253060070   5512002001GALVAN ALBERTO DEL VALLE 517731477       190790333 520177314774V    R           D             0224030 06689890001186659006689890006689890007876549120418100006672368045210066898900000522001186659000060200086968600006150003344950000
38150342       3854701692060079   5512002001SALTO DANIELA LILIANA    520544236       170689343 727205442362M    R           D             0224030 050553610006287700050553610050553610056841311011072000046730590552100505536100005220006287700000602000657197000061500025276800006160001011070000
38151254       3829600715060047   5512002001CHAZARRETA EDITH GRACIELA524175438       280390333 527241754389M    R           D             0224030 06306068001160442006306068006306068007466510113509200006331418045210063060680000522001160442000060200081978900006150003153030000
38151453       3832303756060079   5512002001SANCHEZ SILVIA E         520152362       240487363 827201523627M    R           D             0224030 050553610009572360050553610050553610060125971061626000049509710552100505536100005220009572360000602000657197000061500025276800006160001516610000
38152043       3816100746060070   5512002001SUAREZ RAMON ANGEL       520154684       011091333 520201546843V    R           D             0224030 06689890001186659006689890006689890007876549120418100006672368045210066898900000522001186659000060200086968600006150003344950000
38152051       3825710996060098   5512002001RODRIGUEZ ISOLINA DEL V  520898091       061191323 627208980918M    R           D             0224030 0319754600049564200319754600319754600369318807514230000294176506521003197546000052200049564200006020004156810000615000159877000061600003197500006650001438900000
38152844       3817600986060070   5512002001ACUNA MERCEDES BENITO    518041015       190491323 520180410156V    R           D             0224030 05490262001104718005490262005490262006594980098824700005606733045210054902620000522001104718000060200071373400006150002745130000
38153044       3818402811060098   5512002001INIGO VIVIANA ALEJANDRA  521339530       211090333 527213395306M    R           D             0224030 03197545000510291003197545003197545003707836057555800003132278045210031975450000522000510291000060200041568100006150001598770000
38153772       3837710025060064   5512002001TORRES ORQUIDIA ENRIQUETA516107426       231089343 727161074263M    R           D             0224030 062783390011721220062783390062783390074504611255668000061947930552100627833900005220011721220000602000816184000061500031391700006160001255670000
38153785       3821106921060070   5512002001JUAREZ DELIVANO MIGUEL A 521786355       090492313 520217863555V    R           D             0224030 06689890001217637006689890006689890007907527120418100006703346045210066898900000522001217637000060200086968600006150003344950000
38154273       3821107286060098   5512002001ARROYO VICTOR HUGO       517042785       150492313 820170427859V    R           D             0224030 034616970005196840034616970034616970039813810726957000032544240552100346169700005220005196840000602000450021000061500017308500006160001038510000
38154532       3822607657060098   5512002001JIMENEZ HECTOR JESUS     514637020       090583403 523146370209V    R           D             0224030 03197545000728703003197545003197545003926248057555800003350690045210031975450000522000728703000060200041568100006150001598770000
38154553       3835408556060070   5512002001CARO HECTOR RODOLFO      521709081       280492313 720217090815V    R           D             0224030 066898900011755140066898900066898900078654041337979000065274250552100668989000005220011755140000602000869686000061500033449500006160001337980000
38154663       3820304462060098   5512002001OCARANZA NORMA LIZ       518089927       280988353 627180899273M    R           D             0224030 031975450005076280031975450031975450037051730607533000030976400552100319754500005220005076280000602000415681000061500015987700006160000319750000
38154993       3817601622060070   5512002001ROJAS RAINERIO MARIA     518102412       210492313 520181024128V    R           D             0224030 05890139000694212005890139005890139006584351106022500005524126045210058901390000522000694212000060200076571800006150002945070000
38155033       3838511357060070   5512002001BARON LELI M FERREYRA DE 517782969       230791323 727177829698M    R           D             0224030 066898900011755140066898900066898900078654041337979000065274250552100668989000005220011755140000602000869686000061500033449500006160001337980000
38155091       3816100506060070   5512002001ALTAMIRANDA CARLOS A     517511837       160190343 620175118374V    R           D             0224030 066898900011810870066898900066898900078709771271080000065998970552100668989000005220011810870000602000869686000061500033449500006160000668990000
38155274       3824209134060079   5512002001GUERRA CLAUDIA LILIANA   517782993       211188353 527177829930M    R           D             0224030 05055361000637191005055361005055361005692552090996500004782587045210050553610000522000637191000060200065719700006150002527680000
38155813       3822608003060098   5512002001FLAMENCO ANDREA O DE     530590609       010291333 727305906099M    R           D             0224030 034616970005225670034616970034616970039842640692340000032919240552100346169700005220005225670000602000450021000061500017308500006160000692340000
38156084       3821106712060070   5512002001ARIAS RAMON ABELARDO     516638302       050490333 720166383022V    R           D             0224030 066898900007376940066898900066898900074275841337979000060896050552100668989000005220007376940000602000869686000061500033449500006160001337980000
38156351       3820305496060070   5512002001ABREGU VICTOR EDUARDO    520153459       110590333 620201534594V    R           D             0224030 066898900011810870066898900066898900078709771271080000065998970552100668989000005220011810870000602000869686000061500033449500006160000668990000
38156445       3825710675060064   5512002001LEGUIZAMON LUIS JORGE    518101313       150592313 520181013134V    R           D             0224030 06278339001158548006278339006278339007436887113010100006306786045210062783390000522001158548000060200081618400006150003139170000
38156885       3822607611060098   5512002001PUCHETA CLAUDIA MABEL    518310821       160590333 527183108218M    R           D             0224030 0319754500000000000319754500319754500319754505755580000262198703521003197545000060200041568100006150001598770000
38157022       3821106801060098   5512002001SANCHEZ ARTURO ROQUE     516885169       200487363 520168851694V    R           D             0224030 037258480009702320037258480037258480046960800838315000038577650552100372584800005220009702320000602000484360000061500018629200006650001676630000
38157221       3831503296060070   5512002001BARRAZA ELISA VICTORIA   527293236       120891323 527272932366M    R           D             0224030 05890139001132032005890139005890139007022171106022500005961946045210058901390000522001132032000060200076571800006150002945070000
38157284       3818402053060070   5512002001COMAN GREGORIA DEL V     517724700       131188353 527177247001M    R           D             0224030 06689890001186659006689890006689890007876549120418100006672368045210066898900000522001186659000060200086968600006150003344950000
38157535       3820305337060098   5512002001ROCABADO MIRIAN TREJO DE 521044323       120491323 627210443237M    R           D             0224030 037258480009810940037258480037258480047069420707910000039990320552100372584800005220009810940000602000484360000061500018629200006160000372580000
38157962       3818402312060098   5512002001GRAMAJO CRISTINA C DE    520151106       020890333 527201511068M    R           D             0224030 03197545000510291003197545003197545003707836057555800003132278045210031975450000522000510291000060200041568100006150001598770000
38157975       3818402873060070   5512002001CUELLAR JOSE LUCIANO     520578142       150491323 720205781421V    R           D             0224030 066898900011755140066898900066898900078654041337979000065274250552100668989000005220011755140000602000869686000061500033449500006160001337980000
38157983       3817601885060098   5512002001PALOMINO NANCY M PEREYRA 521342759       240791323 527213427593M    R           D             0224030 03461697000528334003461697003461697003990031062310600003366925045210034616970000522000528334000060200045002100006150001730850000
38160952       3824209931060064   5512002001GALVAN DANIEL ALBERTO    520672867       260389343 720206728672V    R           D             0224030 071335470012050790071335470071335470083386261426709000069119170552100713354700005220012050790000602000927361000061500035667700006160001426710000
38162124       3825712167060098   5512002001FRIAS FRANCISCO DANIEL   517908956       210189353 520179089565V    R           D             0224030 03197545000510291003197545003197545003707836057555800003132278045210031975450000522000510291000060200041568100006150001598770000
38189422       3833104655060070   5512002001RAMIREZ SUSANA           520589816       230492313 527205898161M    R           D             0224030 06689890001186659006689890006689890007876549120418100006672368045210066898900000522001186659000060200086968600006150003344950000
38189914       3822607746060098   5512002001NERVO MIRIAM MABEL       518514651       240990333 527185146516M    R           D             0224030 03197545000510291003197545003197545003707836057555800003132278045210031975450000522000510291000060200041568100006150001598770000
38190473       3835407681060070   5512002001CHAPARRO MIGUEL R        516212951       251088353 520162129512V    R           D             0224030 06689890001186659006689890006689890007876549120418100006672368045210066898900000522001186659000060200086968600006150003344950000
38190643       3837708757060070   5512002001NUNEZ BETI S             517583311       210389343 827175833116M    R           D             0224030 066898900011699410066898900066898900078598311404878000064549530552100668989000005220011699410000602000869686000061500033449500006160002006970000
38191005       3815300271060098   5512002001SAYAGO ZULEMA            520910510       080693303 527209105107M    R           D             0224030 03197545000510291003197545003197545003707836057555800003132278045210031975450000522000510291000060200041568100006150001598770000
38195601       3817601904060070   5512002001SERRANO JOSE E           521910096       050992313 520219100966V    R           D             0224030 06689890001186659006689890006689890007876549120418100006672368045210066898900000522001186659000060200086968600006150003344950000
38196314       3819203981060098   5512002001MESSINA MYRIAM E         517840410       160491323 527178404100M    R           D             0224030 03197545000510291003197545003197545003707836057555800003132278045210031975450000522000510291000060200041568100006150001598770000
38200883       3819203981060098   5512002001DIAZ AIDA MARGARITA      517840685       080693303 527178406855M    R           D             0224030 03197545000510291003197545003197545003707836057555800003132278045210031975450000522000510291000060200041568100006150001598770000
38203593       3824209401060098   5512002001GRAMAJO ELIDA ROSA       521669591       030693303 627216695912M    R           D             0224030 034616970005254510034616970034616970039871480657723000033294250552100346169700005220005254510000602000450021000061500017308500006160000346170000
38205901       3862110621060098   5512002001GALVAN ROXANA R          522415102       121291323 727224151026M    R           D             0224030 014710750008277320014710750014710750022988070294216000020045910552100147107500005220008277320000602000191240000061500007355400006160000294220000
38208072       3824209931060098   5512002001TREZAMI FELIX LUCIO      517322531       200190343 520173225319V    R           D             0224030 042541510010078810042541510042541510052620320957185000043048470552100425415100005220010078810000602000553040000061500021270800006650001914370000
38208394       3820304423060098   5512002001PROKOP MARGARITA Y       520551134       291290333 727205511348M    R           D             0224030 037258480005401700037258480037258480042660180745169000035208490552100372584800005220005401700000602000484360000061500018629200006160000745170000
38208763       3825711616060098   5512002001MUNOZ SILVIA SOSA DE     517677491       290291323 627176774911M    R           D             0224030 037258480005432740037258480037258480042691220707910000035612120552100372584800005220005432740000602000484360000061500018629200006160000372580000
38209073       3828100271060047   5512002001JIMENEZ MARCIA ZULEMA    518157487       030491323 527181574874M    R           D             0224030 05843437000691022005843437005843437006534459105181900005482640045210058434370000522000691022000060200075964700006150002921720000
38209133       3825712144060098   5512002001MORENO ADELMA ISABEL     522722734       150891323 627227227341M    R           D             0224030 031975450007233760031975450031975450039209210607533000033133880552100319754500005220007233760000602000415681000061500015987700006160000319750000
38209175       3817601131060070   5512002001OYARZABAL FRANCISCO DAVID521631180       161189343 623216311809     R           D             0224030 066898900007432670066898900066898900074331571271080000061620770552100668989000005220007432670000602000869686000061500033449500006160000668990000
38209183       3838510733060064   5512002001SANTILLAN OSCAR ALBERTO  517183964       170989343 520171839646V    R           D             0224030 05850735001129341005850735005850735006980076105313300005926943045210058507350000522001129341000060200076059600006150002925370000
38209191       3832304102060070   5512002001JIMENEZ JUAN MARTIN      520170731       110491323 620201707316V    R           D             0224030 058901390011271260058901390058901390070172651119126000058981390552100589013900005220011271260000602000765718000061500029450700006160000589010000
38209455       3819203474060070   5512002001CORIA REGINA MALDONADO   520170658       040491323 527201706586M    R           D             0224030 06689890001186659006689890006689890007876549120418100006672368045210066898900000522001186659000060200086968600006150003344950000
38209683       3838511906060098   5512002001FRIAZ RENE HUMBERTO      517675412       200392313 520176754126V    R           D             0224030 04254151000582464004254151004254151004836615076574800004070867045210042541510000522000582464000060200055304000006150002127080000
38209832       3821106774060098   5512002001JIMENEZ LUCAS OMAR       520307207       250690333 620203072075V    R           D             0224030 031975450005076280031975450031975450037051730607533000030976400552100319754500005220005076280000602000415681000061500015987700006160000319750000
38209971       3820306116060070   5512002001PEREZ MIRTA GRACIELA     520686081       100393303 627206860818M    R           D             0224030 066898900011810870066898900066898900078709771271080000065998970552100668989000005220011810870000602000869686000061500033449500006160000668990000
38210215       3838511937060070   5512002001PALAVECINO VICTOR ABEL   520153449       090693303 520201534497V    R           D             0224030 06689890001217637006689890006689890007907527120418100006703346045210066898900000522001217637000060200086968600006150003344950000
38210223       3825712314060070   5512002001RODRIGUEZ GLADYS NOEMI   521678014       160392313 627216780146M    R           D             0224030 066898900011810870066898900066898900078709771271080000065998970552100668989000005220011810870000602000869686000061500033449500006160000668990000
38210325       3815300255060098  15512002001JIMENEZ JUAN CARLOS DEL V516561329       010688353 620165613296V   7R           D             0224030 00000000000291880000000000000000000000291880000000000000291880015220002918800000
38210485       3825712295060070   5512002001SUAREZ EDGARDO           516884844       210488353 520168848448V    R           D             0224030 06689890001186659006689890006689890007876549120418100006672368045210066898900000522001186659000060200086968600006150003344950000
38210493       3825712191060098   5512002001JUAREZ CLAUDIA MAGALI    523048319       020693303 527230483197M    R           D             0224030 0319754500000000000319754500319754500319754505755580000262198703521003197545000060200041568100006150001598770000
38210671       3859407777060079   5512002001JUAREZ MERI MARCELA      520563976       210392313 823205639764M    R           D             0224030 058492750011146230058492750058492750069638981228348000057355500552100584927500005220011146230000602000760406000061500029246400006160001754780000
38210825       3817601073060070   5512002001GALVAN JULIO CESAR       520333722       280188363 620203337222V    R           D             0224030 062900140011541060062900140062900140074441201195103000062490170552100629001400005220011541060000602000817702000061500031450100006160000629000000
38211465       3837709157060064   5512001001SOSA FELIX SEGUNDO       516858026       220486373 520168580267V    R           D             0224030 07133547000779144007133547007133547007912691128403800006628653045210071335470000522000779144000060200092736100006150003566770000
38211525       3819204075060098   5512002001IBANEZ DAVID RUBEN       521139431       020391323 620211394316V    R           D             0224030 031975450005076280031975450031975450037051730607533000030976400552100319754500005220005076280000602000415681000061500015987700006160000319750000
38211533       3820306027060098   5512002001VALDIVIA VICTOR MARCELINO516524885       231290333 520165248857V    R           D             0224030 04254151001020284004254151004254151005274435076574800004508687045210042541510000522001020284000060200055304000006150002127080000
38211575       3832304075060079   5512002001LEDESMA SILVINA YANEL    522440551       041092313 527224405516M    R           D             0224030 05055361001075011005055361005055361006130372090996500005220407045210050553610000522001075011000060200065719700006150002527680000
38211774       3818403234060070   5512002001SANTOS MILTON ELIAS      521547878       250192323 520215478786V    R           D             0224030 06689890001217637006689890006689890007907527120418100006703346045210066898900000522001217637000060200086968600006150003344950000
38211813       3817601274060079   5512002001PEREZ YOLANDA NORALY     520519475       040191333 623205194754M    R           D             0224030 050553610006329810050553610050553610056883420960519000047278230552100505536100005220006329810000602000657197000061500025276800006160000505540000
38211994       3819204075060098   5512002001SERRANO,MYRIAM DE JESUS  520151225       100588353 527201512250M    R           D             0224030 03197545000728703003197545003197545003926248057555800003350690045210031975450000522000728703000060200041568100006150001598770000
38212092       3822607777060098   5512002001IBARRA SONIA ELIZABETH   524074872       260192323 527240748725M    R           D             0224030 03725848000984198003725848003725848004710046067065200004039394045210037258480000522000984198000060200048436000006150001862920000
38212131       3826550042060092   5512002001VILLARREAL MARIELA A.    521748897       100492313 523217488974M    R           D             0224030 03197545000510291003197545003197545003707836057555800003132278045210031975450000522000510291000060200041568100006150001598770000
38212165       3822608676060098   5512002001CREMONA MARIA DE LOS A   518614002       030693303 527186140023M    R           D             0224030 03461697000966154003461697003461697004427851062310600003804745045210034616970000522000966154000060200045002100006150001730850000
38212173       3835408676060047   5512002001VALOR SANDRA LILIANA     520594805       210291323 727205948053M    R           D             0224030 063060680011594940063060680063060680074655621261213000062043490552100630606800005220011594940000602000819789000061500031530300006160001261210000
38212322       3835407592060070   5512002001ORELLANA NELIDA AZUCENA  521974010       300692313 727219740102M    R           D             0224030 066898900011755140066898900066898900078654041337979000065274250552100668989000005220011755140000602000869686000061500033449500006160001337980000
38212335       3837709857060064   5512002001NAVARRO NILDA SERRANO DE 517467987       180890333 527174679873M    R           D             0224030 07133547000779144007133547007133547007912691128403800006628653045210071335470000522000779144000060200092736100006150003566770000
38212385       3838511953060070   5512002001SOSA FERREYRA OSVALDO    520153622       211091323 520201536228V    R           D             0224030 06689890000748839006689890006689890007438729120418100006234548045210066898900000522000748839000060200086968600006150003344950000
38212393       3825710362060098   5512002001JUAREZ SAUL ALFREDO      517514236       040693303 520175142364V    R           D             0224030 03962271001000347003962271003962271004962618071320900004249409045210039622710000522001000347000060200051509500006150001981140000
38212432       3825711721060098   5512002001PEZZINI MONICA DEL V R   518603699       130588353 527186036994M    R           D             0224030 03197545000510291003197545003197545003707836057555800003132278045210031975450000522000510291000060200041568100006150001598770000
38212445       3838512306060070   5512002001ALBORNOZ MONICA RAMONA   523973877       120991323 527239738775M    R           D             0224030 06689890000756974006689890006689890007446864120418100006242683045210066898900000522000756974000060200086968600006150003344950000
38213085       3825712167060098   5512002001ACOSTA RITA L            520153022       010592313 527201530224M    R           D             0224030 03197545000510291003197545003197545003707836057555800003132278045210031975450000522000510291000060200041568100006150001598770000
38213205       3838511864060070   5512002001LANDRIEL REINA N         521344802       260392313 627213448027M    R           D             0224030 066898900011810870066898900066898900078709771271080000065998970552100668989000005220011810870000602000869686000061500033449500006160000668990000
38213221       3838511713060070   5512002001LEGUIZAMON NESTOR M      522104701       291191323 520221047010V    R           D             0224030 06689890001211021006689890006689890007900911120418100006696730045210066898900000522001211021000060200086968600006150003344950000
38213263       3822607576060098   5512002001RISSO PATRON IMELDA DEL C518611893       240591323 627186118931M    R           D             0224030 042541510010167410042541510042541510052708920808290000044626020552100425415100005220010167410000602000553040000061500021270800006160000425420000
38213394       3838511721060047   5512002001SALTO MARIO D            517890938       070191333 520178909380V    R           D             0224030 05843437001128842005843437005843437006972279105181900005920460045210058434370000522001128842000060200075964700006150002921720000
38213404       3825711752060070   5512002001MALDONADO JOSEFA DEL V   518429793       190392313 527184297936M    R           D             0224030 06689890000748839006689890006689890007438729120418100006234548045210066898900000522000748839000060200086968600006150003344950000
38213412       3825710996060098   5512002001CHAVEZ NORMA A           522547222       220693303 527225472225M    R           D             0224030 03197545000510291003197545003197545003707836057555800003132278045210031975450000522000510291000060200041568100006150001598770000
38213425       3825711632060070   5512002001NUNEZ BEATRIZ DEL V      520334725       201192313 527203347257M    R           D             0224030 06689890001186659006689890006689890007876549120418100006672368045210066898900000522001186659000060200086968600006150003344950000
38213543       3824209304060098   5512002001SOSA MARCELO G           520959905       210891323 520209599059V    R           D             0224030 10458302001310868010458302010458302011769170188249400009886676045210104583020000522001310868000060200135957900006150005229150000
38213705       3839350057060047   5512002001ALMARAZ ESTHER DEL VALLE 518102497       080693303 527181024971M    R           D             0224030 05843437000691022005843437005843437006534459105181900005482640045210058434370000522000691022000060200075964700006150002921720000
38213865       3825710996060098   5512002001PERALTA REINA VIVIANA    522250618       220693303 627222506188M    R           D             0224030 031975450005076280031975450031975450037051730607533000030976400552100319754500005220005076280000602000415681000061500015987700006160000319750000
38213881       3830701394060064   5512002001SANTILLAN TELMA ROXANA   521910148       260892313 527219101487M    R           D             0224030 06278339001158548006278339006278339007436887113010100006306786045210062783390000522001158548000060200081618400006150003139170000
38214023       3824209134060098   5512002001CHAVEZ MARIA I A DE      517502454       071286373 527175024544M    R           D             0224030 03197545000948111003197545003197545004145656057555800003570098045210031975450000522000948111000060200041568100006150001598770000
38214031       3824209134060098   5512002001MARRON FRANKLIN MARCELO  516620015       010987363 520166200157V    R           D             0224030 03197545000510291003197545003197545003707836057555800003132278045210031975450000522000510291000060200041568100006150001598770000
38214094       3825711856060070   5512002001CUELLAR RAUL OSCAR       517966829       070492313 520179668298V    R           D             0224030 06689890001186659006689890006689890007876549120418100006672368045210066898900000522001186659000060200086968600006150003344950000
38214434       3821106221060070   5512002001DIAZ MARIANA GRACIELA    521679050       030493303 527216790508M    R           D             0224030 06689890001186659006689890006689890007876549120418100006672368045210066898900000522001186659000060200086968600006150003344950000
38214565       3832303482060070   5512002001CASTANO ROQUE A          523621778       131091323 620236217788V    R           D             0224030 066898900012364810066898900066898900079263711271080000066552910552100668989000005220012364810000602000869686000061500033449500006160000668990000
38214654       3825710621060098   5512002001IBARRA SILVIA B          522415131       070793303 523224151314M    R           D             0224030 03461697000966154003461697003461697004427851062310600003804745045210034616970000522000966154000060200045002100006150001730850000
38214743       3822607611060098   5512002001LUNA ELDA JUAREZ DE      518318794       121188353 627183187940M    R           D             0224030 031975450005076280031975450031975450037051730607533000030976400552100319754500005220005076280000602000415681000061500015987700006160000319750000
38215142       3825711736060098   5512002001CASTANO MERCEDES E       522618158       020693303 527226181585M    R           D             0224030 05310756001111220005310756005310756006421976095593600005466040045210053107560000522001111220000060200069039800006150002655380000
38215163       3822607611060098   5512002001TORRES MARCELO DEL V     517215302       130987363 520172153020V    R           D             0224030 03197545000728703003197545003197545003926248057555800003350690045210031975450000522000728703000060200041568100006150001598770000
38215192       3824209857060098   5512002001LUNA GABRIELA DEL V      522941117       070193313 627229411174M    R           D             0224030 042541510005954690042541510042541510048496200808290000040413300552100425415100005220005954690000602000553040000061500021270800006160000425420000
38215294       3817601703060098   5512002001SIERRA MARIA INES        521894340       180693303 527218943409M    R           D             0224030 04254151001020284004254151004254151005274435076574800004508687045210042541510000522001020284000060200055304000006150002127080000
38215304       3824209714060098   5512002001ALDERETE MONICA D B DE   520155634       180990333 527201556347M    R           D             0224030 03461697000528334003461697003461697003990031062310600003366925045210034616970000522000528334000060200045002100006150001730850000
38215341       3817601123060070   5512002001ZABALA ANIBAL OSVALDO    521342296       210892313 620213422961V    R           D             0224030 058901390011271260058901390058901390070172651119126000058981390552100589013900005220011271260000602000765718000061500029450700006160000589010000
38215532       3824208711060098   5512002001GONZALEZ REINA A         518154871       300192323 527181548717M    R           D             0224030 03197545000510291003197545003197545003707836057555800003132278045210031975450000522000510291000060200041568100006150001598770000
38215794       3825711237060098   5512002001SUAREZ ORLANDO DEL V     518376824       060588353 520183768248V    R           D             0224030 10458302001310868010458302010458302011769170188249400009886676045210104583020000522001310868000060200135957900006150005229150000
38215833       3821107487060098   5512002001BARRIENTOS GRACIELA      522422185       150492313 627224221857M    R           D             0224030 034616970005254510034616970034616970039871480657723000033294250552100346169700005220005254510000602000450021000061500017308500006160000346170000
38215862       3837710056060070   5512002001ROMERO LILI Z            523164030       150693303 523231640304M    R           D             0224030 06689890001186659006689890006689890007876549120418100006672368045210066898900000522001186659000060200086968600006150003344950000
38216224       3835408011060070   5512002001FARIAS JOSE LUIS         521562862       180492313 520215628621V    R           D             0224030 05890138001132032005890138005890138007022170106022500005961945045210058901380000522001132032000060200076571800006150002945070000
38216342       3824210095060098   5512002001CRUZ SULMA YOLANDA       518400385       110192323 727184003851M    R           D             0224030 037258480005401700037258480037258480042660180745169000035208490552100372584800005220005401700000602000484360000061500018629200006160000745170000
38216745       3857104462060079   5512002001CUEVA GARCIELA DEL VALLE 522440060       010793303 627224400603M    R           D             0224030 050553610006329810050553610050553610056883420960519000047278230552100505536100005220006329810000602000657197000061500025276800006160000505540000
38216774       3818402881060070   5512001001BRAVO ELMINA DE JESUS    521342256       220491323 527213422567M    R           D             0224030 06689890001186659006689890006689890007876549120418100006672368045210066898900000522001186659000060200086968600006150003344950000
38217173       3829600336060079   5512002001RODRIGUEZ FABIANA M      521726738       100592313 727217267388M    R           D             0224030 050553610006287700050553610050553610056841311011072000046730590552100505536100005220006287700000602000657197000061500025276800006160001011070000
38217335       3835408212060070   5512002001PAZ LUCIA I              518517706       070388353 527185177063M    R           D             0224030 06689890001186659006689890006689890007876549120418100006672368045210066898900000522001186659000060200086968600006150003344950000
38217623       3831502857060070   5512002001ACOSTA VICTOR ROLANDO    514706141       210685383 520147061413V    R           D             0224030 06689890001186659006689890006689890007876549120418100006672368045210066898900000522001186659000060200086968600006150003344950000
38217995       3817601661060098   5512002001MOYANO VICENTE OMAR      517170596       050592313 520171705968V    R           D             0224030 03725848000984198003725848003725848004710046067065200004039394045210037258480000522000984198000060200048436000006150001862920000
38218072       3818403296060098   5512002001BARRAZA SONIA MARIEL     527293237       261092313 627272932374M    R           D             0224030 037258480009810940037258480037258480047069420707910000039990320552100372584800005220009810940000602000484360000061500018629200006160000372580000
38218221       3818403137060098   5512002001MONTES MARIEL E          518537334       180491323 527185373342M    R           D             0224030 03461696000764789003461696003461696004226485062310500003603380045210034616960000522000764789000060200045002000006150001730850000
38218263       3826550073060092   5512002001BRAVO CABRAL ELVA INES   521343949       251291323 627213439494M    R           D             0224030 031975450005076280031975450031975450037051730607533000030976400552100319754500005220005076280000602000415681000061500015987700006160000319750000
38218352       3821107197060047   5512002001VILLARREAL MARIA TERESA  522242423       220992313 527222424238M    R           D             0224030 05843437000691022005843437005843437006534459105181900005482640045210058434370000522000691022000060200075964700006150002921720000
38218412       3822608637060098   5512002001OLMOS MARGARITA          521993608       040693303 627219936082M    R           D             0224030 037258480009810940037258480037258480047069420707910000039990320552100372584800005220009810940000602000484360000061500018629200006160000372580000
38218674       3825711326060098   5512002001RODRIGUEZ ADRIANA E      522390580       240693303 527223905809M    R           D             0224030 08346297001166523008346297008346297009512820150233400008010486045210083462970000522001166523000060200108501900006150004173150000
38218975       3821106406060070   5512002001GALVAN WALTER R          516620222       150492313 520166202222V    R           D             0224030 06689890001186659006689890006689890007876549120418100006672368045210066898900000522001186659000060200086968600006150003344950000
38218983       3824210095060098   5512002001CASTANO MIRTA VAZQUEZ    518086037       051191323 627180860377M    R           D             0224030 037258480007946680037258480037258480045205160707910000038126060552100372584800005220007946680000602000484360000061500018629200006160000372580000
38218991       3825711326060098   5512002001MALDONADO LILIANA I DE   518037051       071093303 527180370515M    R           D             0224030 03197545000510291003197545003197545003707836057555800003132278045210031975450000522000510291000060200041568100006150001598770000
38219031       3822607777060098   5512002001JUAREZ CARLOS FABIAN     522969327       150991323 520229693272V    R           D             0224030 03725848000984198003725848003725848004710046067065200004039394045210037258480000522000984198000060200048436000006150001862920000
38219141       3815300263060098   5512002001LEDDA MYRIAN ADRIANA     522242568       011293303 827222425684M    R           D             0224030 031975450005023010031975450031975450036998460671484000030283620552100319754500005220005023010000602000415681000061500015987700006160000959260000
38219332       3833105183060070   5512002001LLANOS BLANCA I          520157432       150393303 527201574329M    R           D             0224030 06689890001186659006689890006689890007876549120418100006672368045210066898900000522001186659000060200086968600006150003344950000
38219434       3819203717060098   5512002001MOREIRA JOSE LUIS        518471582       150492313 720184715822V    R           D             0224030 042541510008588730042541510042541510051130240850831000042621930552100425415100005220008588730000602000553040000061500021270800006160000850830000
38219463       3825710822060070   5512002001JUGO FELISA DEL C        520503926       090394293 527205039266M    R           D             0224030 06689890001186659006689890006689890007876549120418100006672368045210066898900000522001186659000060200086968600006150003344950000
38219515       3833105875060070   5512002001GOMEZ ZULEMA ESTHER      523187801       100394293 627231878012M    R           D             0224030 066898900011810870066898900066898900078709771271080000065998970552100668989000005220011810870000602000869686000061500033449500006160000668990000
38219963       3831503192060064   5512002001BAZAN GUSTAVO RICARDO    521631321       100394293 520216313217V    R           D             0224030 07133547001217456007133547007133547008351003128403800007066965045210071335470000522001217456000060200092736100006150003566770000
38219971       3818403192060098   5512002001RODRIGUEZ CARINA E       521112623       160692313 827211126235M    R           D             0224030 042541510010096530042541510042541510052638040893373000043704310552100425415100005220010096530000602000553040000061500021270800006160001276250000
38220105       3818402842060098   5512002001LOISEAU MARIA DE LOS A   520519463       240793303 627205194636M    R           D             0224030 037258480009810940037258480037258480047069420707910000039990320552100372584800005220009810940000602000484360000061500018629200006160000372580000
38220163       3818403281060098   5512002001IBARRA RAMONA LILIANA    518494787       141292313 827184947876M    R           D             0224030 037258480005370670037258480037258480042629150782427000034804880552100372584800005220005370670000602000484360000061500018629200006160001117750000
38220184       3835407537060070   5512002001PEREYRA CARLOS JULIO     527980496       110993303 620279804962V    R           D             0224030 066898900011810870066898900066898900078709771271080000065998970552100668989000005220011810870000602000869686000061500033449500006160000668990000
38220223       3822608251060098   5512002001HERRERA DANIEL A         518603898       240691323 520186038984V    R           D             0224030 04254151001020284004254151004254151005274435076574800004508687045210042541510000522001020284000060200055304000006150002127080000
38220325       3839350034060038   5512002001ESCOBEDO NELIDA A        517889861       060191333 627178898618M    R           D             0224030 058434370006861550058434370058434370065295921110253000054193390552100584343700005220006861550000602000759647000061500029217200006160000584340000
38220333       3817601073060098   5512002001APUD RAMON ANTONIO       522211768       280394293 520222117683V    R           D             0224030 04254151001020284004254151004254151005274435076574800004508687045210042541510000522001020284000060200055304000006150002127080000
38220472       3854701073060070   5512002001JIMENEZ MARTIN R E       520333741       100394293 520203337419V    R           D             0224030 06689890001186659006689890006689890007876549120418100006672368045210066898900000522001186659000060200086968600006150003344950000
38220574       3825710806060098   5512002001HERRERA CLAUDIA A        523335174       290394293 527233351747M    R           D             0224030 04254151001020284004254151004254151005274435076574800004508687045210042541510000522001020284000060200055304000006150002127080000
38220684       3819203501060047   5512002001JIMENEZ MERCEDES DEL C   520151505       200787363 627201515055M    R           D             0224030 063060680007173700063060680063060680070234381198153000058252850552100630606800005220007173700000602000819789000061500031530300006160000630610000
38220773       3833104446060070   5512002001DIAZ MARCELO F           521642943       250294293 520216429436V    R           D             0224030 06689890001186659006689890006689890007876549120418100006672368045210066898900000522001186659000060200086968600006150003344950000
38220794       3815300286060098   5512002001ALVAREZ SILVIA B         521632927       150992313 627216329274M    R           D             0224030 031975450005076280031975450031975450037051730607533000030976400552100319754500005220005076280000602000415681000061500015987700006160000319750000
38220891       3815300127060098   5512002001GOMEZ CORREA MIRTA L     514658798       040693303 623146587984M    R           D             0224030 037258480009810940037258480037258480047069420707910000039990320552100372584800005220009810940000602000484360000061500018629200006160000372580000
38221402       3816100827060098   5512002001GEREZ NANCY ELVECIA      520931091       230492313 527209310916M    R           D             0224030 03461697000966154003461697003461697004427851062310600003804745045210034616970000522000966154000060200045002100006150001730850000
38221431       3817601274060098   5512002001NAVARRO TERESA G DE      517890899       190491323 627178908990M    R           D             0224030 031975450005076280031975450031975450037051730607533000030976400552100319754500005220005076280000602000415681000061500015987700006160000319750000
38221452       3822607843060098   5512002001TAIGUAN NOEMI            520151748       091290333 527201517481M    R           D             0224030 08346803000728703008346803008346803009075506150242400007573082045210083468030000522000728703000060200108508400006150004173400000
38221575       3822607611060098   5512002001CRISTINA DEL V. SUAREZ   520594638       020493303 527205946387M    R           D             0224030 03197545000510291003197545003197545003707836057555800003132278045210031975450000522000510291000060200041568100006150001598770000
38221711       3822607576060098   5512002001CONTRERAS CARLOS A       520153672       200993303 620201536724V    R           D             0224030 042541510005789210042541510042541510048330720808290000040247820552100425415100005220005789210000602000553040000061500021270800006160000425420000
38221753       3837709061060070   5512002001FERNANDEZ JOSE D         520557773       070394293 520205577735V    R           D             0224030 06689890001186659006689890006689890007876549120418100006672368045210066898900000522001186659000060200086968600006150003344950000
38222021       3829600472060070   5512002001MANRIQUE ANDREA DE LOS A 523280986       240394293 627232809863M    R           D             0224030 066898900011810870066898900066898900078709771271080000065998970552100668989000005220011810870000602000869686000061500033449500006160000668990000
38222131       3828100305060047   5512002001TOFANELLI MARIA E        524883484       210391323 527248834841M    R           D             0224030 06014188000702685006014188006014188006716873108255300005634320045210060141880000522000702685000060200078184400006150003007090000
38222144       3817600994060098   5512002001DIAZ ALICIA B            520805979       160692313 627208059799M    R           D             0224030 042541510005789210042541510042541510048330720808290000040247820552100425415100005220005789210000602000553040000061500021270800006160000425420000
38222173       3817601355060098   5512002001FEREZ IRIS MARIELA       523808208       300793303 627238082086M    R           D             0224030 034616970009632710034616970034616970044249680657723000037672450552100346169700005220009632710000602000450021000061500017308500006160000346170000
38222212       3822607843060098   5512002001QUINTEROS MARCELA B      522023006       280393303 527220230061M    R           D             0224030 03197545000510291003197545003197545003707836057555800003132278045210031975450000522000510291000060200041568100006150001598770000
38222445       3816100603060098   5512002001MALDONADO MINERVA A C DE 530821796       080793303 627308217960M    R           D             0224030 034616970011968420034616970034616970046585390657723000040008160552100346169700005220011968420000602000450021000061500017308500006160000346170000
38222453       3854701564060079   5512002001BORDA EDITH ISABEL       525002276       101091323 527250022765M    R           D             0224030 05055361000637191005055361005055361005692552090996500004782587045210050553610000522000637191000060200065719700006150002527680000
38222555       3829600843060079   5512002001GOMEZ JORGELINA          522864101       230394293 523228641014M    R           D             0224030 05055361000637191005055361005055361005692552090996500004782587045210050553610000522000637191000060200065719700006150002527680000
38222563       3831502014060047   5512002001GOMEZ VIVIANA B DE       518506545       130789343 727185065451M    R           D             0224030 058434370006812860058434370058434370065247231168688000053560350552100584343700005220006812860000602000759647000061500029217200006160001168690000
38222801       3818402374060098   5512002001MEDINA LUCIA V           520564512       240192323 627205645123M    R           D             0224030 031975450005076280031975450031975450037051730607533000030976400552100319754500005220005076280000602000415681000061500015987700006160000319750000
38222893       3835408564060070   5512002001TORRES SANTOS Y.         521181417       130193313 523211814179V    R           D             0224030 06689890000748839006689890006689890007438729120418100006234548045210066898900000522000748839000060200086968600006150003344950000
38222995       3825711326060098   5512002001TREJO MIRIAM R C DE      518157385       100394293 527181573851M    R           D             0224030 03197545000510291003197545003197545003707836057555800003132278045210031975450000522000510291000060200041568100006150001598770000
38223043       3818402432060098  15512002001LEDESMA FANY MARIEL      520156042       140394293 527201560425M   7R           D             0224030 0119471300000000000119471300119471300119471302150490000097966403521001194713000060200015531300006150000597360000
38223182       3817601885060098   5512002001SALVI SELVA M DEL VALLE  522463945       110394293 527224639452M    R           D             0224030 03461697000528334003461697003461697003990031062310600003366925045210034616970000522000528334000060200045002100006150001730850000
38223213       3859407777060047   5512002001CORONEL MARIO ALFREDO    520151927       160394293 620201519277V    R           D             0224030 067686970011864050067686970067686970079551021286053000066690490552100676869700005220011864050000602000879931000061500033843500006160000676870000
38223221       3818402544060098   5512002001GALVAN MARIA ELENA       521631157       110394293 723216311574M    R           D             0224030 031975450005049650031975450031975450037025100639509000030630010552100319754500005220005049650000602000415681000061500015987700006160000639510000
38223242       3822607843060098   5512002001VILLALBA ELVIO           520154239       040390333 520201542392V    R           D             0224030 03197545000510291003197545003197545003707836057555800003132278045210031975450000522000510291000060200041568100006150001598770000
38223491       3825710273060098   5512002001BARGAS MARTA ALEJANDRA   522154959       181293303 627221549592M    R           D             0224030 031975450005076280031975450031975450037051730607533000030976400552100319754500005220005076280000602000415681000061500015987700006160000319750000
38223522       3838510466060070   5512002001DIAZ SILVIA RAMONA       521597219       110494293 523215972194M    R           D             0224030 06689890001186659006689890006689890007876549120418100006672368045210066898900000522001186659000060200086968600006150003344950000
38223661       3862111655060064   5512002001MEDINA SILVINA ELISA     522336428       180693303 623223364284     R           D             0224030 062783390011533190062783390062783390074316581192884000062387740552100627833900005220011533190000602000816184000061500031391700006160000627830000
38223705       3824209134060098   5512002001CORIA GRACIELA LILIANA   518516274       190290333 527185162740M    R           D             0224030 03197545000728703003197545003197545003926248057555800003350690045210031975450000522000728703000060200041568100006150001598770000
38223771       3825710996060098   5512002001PAZ MERCEDES BEATRIZ     521089487       250192323 627210894875M    R           D             0224030 031975450005076280031975450031975450037051730607533000030976400552100319754500005220005076280000602000415681000061500015987700006160000319750000
38223912       3824209134060098   5512002001DIAZ MARTA MIGUELINA     518575477       280394293 523185754774M    R           D             0224030 03197545000948111003197545003197545004145656057555800003570098045210031975450000522000948111000060200041568100006150001598770000
38223954       3825711616060098   5512002001VILLAVICENCIO MONICA L   517719050       150394293 627177190506M    R           D             0224030 037258480009810940037258480037258480047069420707910000039990320552100372584800005220009810940000602000484360000061500018629200006160000372580000
38223975       3824209931060098  15512002001ORELLANA MARIO LEOCADIO  517739079       121292313 620177390799V   7R           D             0224030 00000000000004840000000000000000000000004840000000000000004840015220000048400000
38223983       3853200553060079  15512002001JIMENEZ MARIA EUGENIA    523048375       040793303 527230483758M   7R           D             0224030 0469348000000000000469348000469348000469348008448260000384865403521004693480000060200061015200006150002346740000
38223991       3824209134060098   5512002001MARRON MARCELO F         516620015       011187363 520166200157V    R           D             0224030 02905665000490355002905665002905665003396020052301900002873001045210029056650000522000490355000060200037773600006150001452830000
38224023       3830701355060047   5512002001URQUIZA RICARDO OMAR     516725733       060589343 520167257330V    R           D             0224030 06306068001164424006306068006306068007470492113509200006335400045210063060680000522001164424000060200081978900006150003153030000
38224285       3854701885060079   5512002001CASTILLO JOSE ALBERTO    517187687       031090333 520171876878V    R           D             0224030 05452319000664306005452319005452319006116625098141700005135208045210054523190000522000664306000060200070880100006150002726160000
38224395       3815300232060098   5512002001PEREYRA FANNY RAQUEL     522617653       120193313 727226176530M    R           D             0224030 031975450007180490031975450031975450039155940639509000032760850552100319754500005220007180490000602000415681000061500015987700006160000639510000
38224405       3830701556060047   5512002001PEREZ MIRIAM INES        521340096       190192323 527213400962M    R           D             0224030 05843437000691022005843437005843437006534459105181900005482640045210058434370000522000691022000060200075964700006150002921720000
38224434       3817601885060098   5512002001LUNA SILVA MARIA E       521112571       190693303 527211125719M    R           D             0224030 03461697000528334003461697003461697003990031062310600003366925045210034616970000522000528334000060200045002100006150001730850000
38226965       3835407603060064   5512002001ANAYA NORA MABEL         518108913       220491323 627181089135M    R           D             0224030 058507340011244660058507340058507340069752001111639000058635610552100585073400005220011244660000602000760595000061500029253700006160000585070000
38231004       3833104311060070   5512002001SUAREZ MARIA LILIANA     520624749       240691323 527206247490M    R           D             0224030 06689890001186659006689890006689890007876549120418100006672368045210066898900000522001186659000060200086968600006150003344950000
38231143       3824209834060070   5512002001BRAVO CARLOS REYMUNDO    517744219       231290333 520177442195V    R           D             0224030 066898900011787850066898900066898900078686751505226000063634490552100668989000005220011787850000602000869686000061500033449500006650003010450000
38258454       3837710064060064   5512002001TEVEZ ALBERTO JUAN       521783672       180494293 620217836728V    R           D             0224030 071335470007732020071335470071335470079067491355373000065513760552100713354700005220007732020000602000927361000061500035667700006160000713350000
38258501       3829600947060070   5512002001SASO JOSE EDUARDO        522070131       210494293 720220701310V    R           D             0224030 066898900011755140066898900066898900078654041337979000065274250552100668989000005220011755140000602000869686000061500033449500006160001337980000
38258543       3816100561060098   5512002001GOMEZ MARI NANCY         527293204       100394293 627272932048M    R           D             0224030 034616970005254510034616970034616970039871480657723000033294250552100346169700005220005254510000602000450021000061500017308500006160000346170000
38258593       3818402277060098  15512002001DIAZ MARIA JOSEFA        522420967       100393303 627224209679M   7R           D             0224030 011166600007297000011166600011166600018463600212166000016341940552100111666000005220007297000000602000145166000061500005583300006160000111670000
38258603       3816100561060047   5512002001FARIAS LELIA DEL CARMEN  526852260       150389343 627268522609M    R           D             0224030 063060680007173700063060680063060680070234381198153000058252850552100630606800005220007173700000602000819789000061500031530300006160000630610000
38258632       3835407673060070   5512002001FRIAS EVANGELINA DEL C   522119297       250494293 523221192974M    R           D             0224030 06689890001186659006689890006689890007876549120418100006672368045210066898900000522001186659000060200086968600006150003344950000
38258661       3822608003060098   5512002001DE LA SILVA MANUEL O     526852263       070789343 520268522639V    R           D             0224030 034616970005153580034616970034616970039770550778882000031981730552100346169700005220005153580000602000450021000061500017308500006650001557760000
38258844       3822608301060070   5512002001MARTINEZ SANDRA P DE     522123459       280394293 627221234591M    R           D             0224030 066898900011810870066898900066898900078709771271080000065998970552100668989000005220011810870000602000869686000061500033449500006160000668990000
38258975       3838510211060064   5512002001AGUERO SANDRA O DE       517562225       091089343 527175622255M    R           D             0224030 059864590006783510059864590059864590066648101346954000053178560552100598645900005220006783510000602000778240000061500029932300006650002693910000
38259015       3825710273060098   5512002001MORENO HUGO ORLANDO      521975627       170694293 520219756276V    R           D             0224030 03197545000510291003197545003197545003707836057555800003132278045210031975450000522000510291000060200041568100006150001598770000
38259023       3838510273060098   5512002001MORENO HUGO ORLANDO      521975627       180594293 520219756276V    R           D             0224030 02905665000490355002905665002905665003396020052301900002873001045210029056650000522000490355000060200037773600006150001452830000
38259052       3838510691060070   5512002001BENAVIDEZ CESAR EDGARDO  517911832       190688353 820179118328V    R           D             0224030 066898900011699410066898900066898900078598311404878000064549530552100668989000005220011699410000602000869686000061500033449500006160002006970000
38259214       3817610547060064   5512002001HOYOS SANDRA A DE        518090232       251088353 527180902320M    R           D             0224030 05423131000662313005423131005423131006085444097616400005109280045210054231310000522000662313000060200070500700006150002711570000
38259442       3825711953060098   5512002001RODRIGUEZ REMBERTO       516024422       260285383 520160244225V    R           D             0224030 04254151001020284004254151004254151005274435076574800004508687045210042541510000522001020284000060200055304000006150002127080000
38259463       3822608034060098   5512002001TISSERA CARLOS SERGIO    518040501       161188353 520180405012V    R           D             0224030 03197545000510291003197545003197545003707836057555800003132278045210031975450000522000510291000060200041568100006150001598770000
38259772       3830701324060070   5512002001GOROSITO SILVIA ADRIANA  528211848       090394293 527282118489M    R           D             0224030 06689890000748839006689890006689890007438729120418100006234548045210066898900000522000748839000060200086968600006150003344950000
38260265       3822608065060098  15512002001NAVARRO JUAN ANGEL       516615816       220487363 520166158169V    R           D             0224030 04254151000439116004254151004254151004693267076574800003927519045210042541510000522000439116000060200055304000006150002127080000
38260401       3816100321060098   5512002001ALVAREZ NORMA B.         522142917       260594293 627221429171M    R           D             0224030 034616970005254510034616970034616970039871480657723000033294250552100346169700005220005254510000602000450021000061500017308500006160000346170000
38260765       3816100843060098   5512001001CHAPARRO MARIA DE LAS M  518064937       240890333 627180649374M    R           D             0224030 029056650004879340029056650029056650033935990552076000028415230552100290566500005220004879340000602000377736000061500014528300006160000290570000
38260951       3820305724060070   5512002001GOMEZ RAUL E             520422026       050494293 520204220264V    R           D             0224030 06689890001186659006689890006689890007876549120418100006672368045210066898900000522001186659000060200086968600006150003344950000
38261062       3837709722060079   5512002001RUIZ CLAUDIA             520805963       180592313 627208059632M    R           D             0224030 046584050006061960046584050046584050052646010885097000043795040552100465840500005220006061960000602000605593000061500023292000006160000465840000
38261101       3824209134060098   5512002001GUERRA GLORIA BEATRIZ    518183049       270292313 527181830498M    R           D             0224030 03197545000510291003197545003197545003707836057555800003132278045210031975450000522000510291000060200041568100006150001598770000
38261172       3826550107060092   5512002001BARRIONUEVO MARIA DEL V  523373915       310594293 623233739154M    R           D             0224030 031975450005076280031975450031975450037051730607533000030976400552100319754500005220005076280000602000415681000061500015987700006160000319750000
38261533       3828100135060064   5512002001JIMENEZ JUAN PEDRO       520154376       081091323 520201543763V    R           D             0224030 05850735000696732005850735005850735006547467105313300005494334045210058507350000522000696732000060200076059600006150002925370000
38261693       3838511462060070   5512002001CORONEL MARTA I C        518564224       160889343 727185642246M    R           D             0224030 066898900011755140066898900066898900078654041337979000065274250552100668989000005220011755140000602000869686000061500033449500006160001337980000
38262071       3820304992060098   5512002001KRIGER MARIZA DE LAS M   517658153       060686373 527176581536M    R           D             0224030 03725848000984198003725848003725848004710046067065200004039394045210037258480000522000984198000060200048436000006150001862920000
38262173       3833104721060064   5512002001GIMENEZ MARIO ANGEL      517961148       120894293 520179611482V    R           D             0224030 07133547001269261007133547007133547008402808128403800007118770045210071335470000522001269261000060200092736100006150003566770000
