38000131       3816100874060098   5512002001LLANOS,MARGARITA NANCY   517066586       180904183 523170665864M    R           D             0923030 051475450005832620051475450051475450057308071229058000045017490552100514754500005220005832620000602000669181000061500025737700007460003025000000
38000173       3824209687060098   5512002001CARABAJAL NORMA GRACIELA 525276017       170108153 527252760178M    R           D             0923030 050154700005742400050154700050154700055897101270020000043196900552100501547000005220005742400000602000652011000061500025077400007460003672350000
38000262       3816100592060098  15512002001RODRIGUEZ,SILVIA NOEMI   525470711       150611123 627254707118M    R           D             0923030 0435509100036485000435509100435509100471994111923180000352762306521004355091000052200036485000006020005661620000615000217755000061600004355100007460003648500000
38000275       3824209134060098   5512002001TORRES ROSALIA VERONICA  527283990       150811123 527272839900M    R           D             0923030 043550910005291320043550910043550910048842231313049000035711740552100435509100005220005291320000602000566162000061500021775500007460005291320000
38000534       3819204187060098   5512002001RUIZ,GRACIELA MABEL      525837711       110504193 527258377112M    R           D             0923030 048833940003463080048833940048833940052297021181511000040481910552100488339400005220003463080000602000634841000061500024417000007460003025000000
38000631       3819204214060098   5512002001VARGAS,SILVIA SUSANA     521039406       280392313 627210394066M    R           D             0923030 0346169700037951100346169700346169700384120810372340000280397406521003461697000052200037951100006020004500210000615000173085000061600003461700007460003795110000
38000665       3825711721060098  15512002001CORONEL,SUSANA ELIZABETH 527392181       170904183 527273921813M    R           D             0923030 046212470001459400046212470046212470047671870977764000037894230552100462124700005220001459400000602000600762000061500023106200007460001459400000
38000801       3861309134060098   5512002001VALDEZ JOSE RAMON        528724181       281013093 520287241810V    R           D             0923030 040909400002921790040909400040909400043831191028548000033545710552100409094000005220002921790000602000531822000061500020454700007460002921790000
38000843       3838510161060098   5512002001ORELLANA SONIA MERCEDES  529613183       290812113 527296131836M    R           D             0923030 052796210005922830052796210052796210058719041252832000046190720552100527962100005220005922830000602000686351000061500026398100007460003025000000
38001132       3826550057060098   5512002001JAIMES,CLAUDIA NATALI    532685653       020513103 527326856539M    R           D             0923030 042230160005201110042230160042230160047431271280254000034628730552100422301600005220005201110000602000548992000061500021115100007460005201110000
38001433       3818402045060098  15512002001VILLALBA,EVA EDIT        523017815       180413103 527230178157M    R           D             0923030 042230160001459400042230160042230160043689560906083000034628730552100422301600005220001459400000602000548992000061500021115100007460001459400000
38001491       3824209207060070   5512001001CARRIZO PATRICIA ALEJANDR529276385       170613103 527292763854M    R           D             0923030 060406980006442690060406980060406980066849671389826000052951410552100604069800005220006442690000602000785291000061500030203500007460003025000000
38001501       3824209826060098   5512002001BOTTARO ROSANA ANDREA    521440356       091202203 527214403566M    R           D             0923030 04593518000326371004593518004593518004919889082683300004093056045210045935180000522000326371000060200059715700006150002296760000
38001543       3825723022060098   5512002001NAVARRO MONICA VALERIA   531081528       191212103 523310815284M    R           D             0923030 042230160005201110042230160042230160047431271280254000034628730552100422301600005220005201110000602000548992000061500021115100007460005201110000
38001645       3825723022060098   5512002001RODRIGUEZ CRISTIAN ANTONI527608059       261212103 520276080599V    R           D             0923030 042230160003012010042230160042230160045242171061344000034628730552100422301600005220003012010000602000548992000061500021115100007460003012010000
38001695       3824209134060098   5512002001MICHEL ELIANA BEATRIZ    534263660       210513103 527342636603M    R           D             0923030 042230160005201110042230160042230160047431271280254000034628730552100422301600005220005201110000602000548992000061500021115100007460005201110000
38001844       3822607642060098   5512002001ROMANI MARIA DE LOS ANGEL532438689       181212103 527324386896M    R           D             0923030 042230160005201110042230160042230160047431271280254000034628730552100422301600005220005201110000602000548992000061500021115100007460005201110000
38001904       3861309826060098   5512002001JAIME SONIA ELIZABETH    532054053       291013093 523320540534M    R           D             0923030 040909400005110890040909400040909400046020291247458000033545710552100409094000005220005110890000602000531822000061500020454700007460005110890000
38001962       3856303822060098   5512002001VALDIVIA,ROSA CECILIA    531337001       150811123 527313370017M    R           D             0923030 054116970006013050054116970054116970060130021276606000047363960552100541169700005220006013050000602000703521000061500027058500007460003025000000
38002052       3862112086060098   5512002001VILLALBA IBANA MARIEL    534353129       020513103 527343531295M    R           D             0923030 052796210005922830052796210052796210058719041252832000046190720552100527962100005220005922830000602000686351000061500026398100007460003025000000
38002264       3819204075060098   5512002001ESPINOLA,MARIA LUJAN     533063163       120811123 527330631630M    R           D             0923030 043550910003102220043550910043550910046653131094139000035711740552100435509100005220003102220000602000566162000061500021775500007460003102220000
38002293       3824209625060098   5512002001ANASTACIA CARINA MARGARIT526423942       190613103 527264239422M    R           D             0923030 047513180003372870047513180047513180050886051192524000038960810552100475131800005220003372870000602000617671000061500023756600007460003372870000
38002361       3816100592060098   5512002001SUAREZ,PAMELA SOLEDAD    529453597       150811123 527294535972M    R           D             0923030 043550910005291320043550910043550910048842231086417000037978060552100435509100005220005291320000602000566162000061500021775500007460003025000000
38002374       3861309583060098   5512002001PINERO CONSOLACION       518252891       230707163 527182528914M    R           D             0923030 055437730006103260055437730055437730061540991300379000048537200552100554377300005220006103260000602000720690000061500027718900007460003025000000
38002531       3855502327060098   5512002001HOYOS,RITA ALEJANDRA     528744453       010909143 527287444538M    R           D             0923030 046192430003282650046192430046192430049475081159729000037877790552100461924300005220003282650000602000600502000061500023096200007460003282650000
38002565       3816100545060098  15512002001CASTANO,HORACIO EMANUEL  529384437       120811123 520293844373V    R           D             0923030 046192430001459400046192430046192430047651830977404000037877790552100461924300005220001459400000602000600502000061500023096200007460001459400000
38002581       3824209714060098   5512002001CABRERA ROBERTA GRACIELA 526909074       031212103 527269090745M    R           D             0923030 044871670003192440044871670044871670048064111110190000036962210552100448716700005220003192440000602000583332000061500022435800007460003025000000
38002604       3824209826060098   5512002001MEDINA SILVANA LUCRECIA  529123872       011213093 527291238721M    R           D             0923030 040909400005110890040909400040909400046020291247458000033545710552100409094000005220005110890000602000531822000061500020454700007460005110890000
38002735       3816100827060098   5512002001GUTIERREZ,ANGELA ADRIANA 528944156       301110123 527289441560M    R           D             0923030 046192430005471750046192430046192430051664181278498000038879200552100461924300005220005471750000602000600502000061500023096200007460004470340000
38002743       3862110621060098   5512002001VILLALBA PABLO ALBERTO   533207764       190411123 520332077644V    R           D             0923030 046192430005471750046192430046192430051664181378639000037877790552100461924300005220005471750000602000600502000061500023096200007460005471750000
38003045       3825710853060098   5512002001GALVAN ADRIANA AMANDA    521879949       120197263 527218799499M    R           D             0923030 051475460003643520051475460051475460055118981290910000042209880552100514754600005220003643520000602000669181000061500025737700007460003643520000
38003184       3824209714060098   5512002001CORDOBA MICAELA MAGALI   532108839       201212103 527321088398M    R           D             0923030 044871670003192440044871670044871670048064111126934000036794770552100448716700005220003192440000602000583332000061500022435800007460003192440000
38003354       3862113035060098  15512002001IBANEZ NOELIA ROSA BEATRI533207731       300213103 527332077312M    R           D             0923030 042230160003648500042230160042230160045878661124993000034628730552100422301600005220003648500000602000548992000061500021115100007460003648500000
38003684       3856303501060098   5512002001GONZALEZ,NESTOR FABIAN   528143755       051011113 520281437551V    R           D             0923030 044871670003192440044871670044871670048064111126934000036794770552100448716700005220003192440000602000583332000061500022435800007460003192440000
38004062       3853200715060098   5512002001GOMEZ,VANESS RAFAELA     530773063       190911113 523307730634M    R           D             0923030 044871670005381540044871670044871670050253211345844000036794770552100448716700005220005381540000602000583332000061500022435800007460005381540000
38004211       3835407746060098   5512002001VILLALOBOS EMMA TERESITA 525992439       290607163 527259924397M    R           D             0923030 044872020005381540044872020044872020050253561345850000036795060552100448720200005220005381540000602000583336000061500022436000007460005381540000
38004224       3859408146060098   5512002001FUENTES SANDRA MABENL    522177071       181111113 523221770714M    R           D             0923030 042230160005201110042230160042230160047431271280254000034628730552100422301600005220005201110000602000548992000061500021115100007460005201110000
38004261       3817601502060098   5512002001HERNANDEZ DOMINGUEZ MARIA526636125       120909133 523266361254M    R           D             0923030 043550910005291320043550910043550910048842231313049000035711740552100435509100005220005291320000602000566162000061500021775500007460005291320000
38004334       3822607506060098   5512002001ARANDA BLANCA ISABEL     526220719       070711123 527262207191M    R           D             0923030 043550910003102220043550910043550910046653131094139000035711740552100435509100005220003102220000602000566162000061500021775500007460003102220000
38004384       3822608274060098   5512002001RODRIGUEZ LILIA SUSANA   523625834       280905173 627236258349M    R           D             0923030 0488339400034386500488339400488339400522725912717100000395554906521004883394000052200034386500006020006348410000615000244170000061600004883400007460003438650000
38004465       3821106774060098  15512002001PALADEA YANINA ELIZABETH 531417663       180611123 523314176634M    R           D             0923030 043550910001459400043550910043550910045010310929857000035711740552100435509100005220001459400000602000566162000061500021775500007460001459400000
38004562       3817601452060098   5512002001RAMIREZ KARINA           529236397       090508153 523292363974M    R           D             0923030 047513180005561970047513180047513180053075151342803000039647120552100475131800005220005561970000602000617671000061500023756600007460004875660000
38004855       3859408316060098   5512002001SALTO VALERIA RUFINA     534310417       191212103 527343104176M    R           D             0923030 044871670005381540044871670044871670050253211316895000037084260552100448716700005220005381540000602000583332000061500022435800007460005092050000
38004965       3817601637060098   5512002001YTURRE XIMENA SOLEDAD    526094885       090505183 527260948852M    R           D             0923030 051475450003643520051475450051475450055118971229058000042828390552100514754500005220003643520000602000669181000061500025737700007460003025000000
38005055       3822608371060098   5512002001LEGUIZAMON LAURA VANESA  530318083       050712113 523303180834M    R           D             0923030 044871670005381540044871670044871670050253211303108000037222130552100448716700005220005381540000602000583332000061500022435800007460004954180000
38005102       3859407634060098   5512002001VISGARRA MARCELA VANESA  531141165       060511123 527311411654M    R           D             0923030 043550910003102220043550910043550910046653131094139000035711740552100435509100005220003102220000602000566162000061500021775500007460003102220000
38005453       3859407707060098   5512002001CORVALAN ANA MARIA       517675394       240900223 627176753949M    R           D             0923030 0554418600038842300554418600554418600593260913558950000457671406521005544186000052200038842300006020007207440000615000277209000061600005544200007460003025000000
38005534       3822607611060098   5512002001ROLDAN KARINA ESTRELLA   521937540       260511123 527219375404M    R           D             0923030 043550910003102220043550910043550910046653131094139000035711740552100435509100005220003102220000602000566162000061500021775500007460003102220000
38005851       3822608146060098   5512002001CELARIO PAOLA ANDREA     527022447       011204183 623270224474M    R           D             0923030 0462124700032604200462124700462124700494728912040780000374321106521004621247000052200032604200006020006007620000615000231062000061600004621200007460003260420000
38005885       3822607843060098   5512002001AVILA CESAR DAVID        516310625       251091313 520163106257V    R           D             0923030 031975460003643520031975460031975460035618980939910000026219880552100319754600005220003643520000602000415681000061500015987700007460003643520000
38006213       3822607611060098   5512002001JUAREZ DEVORA GRACIELA   527037680       150811123 627270376806M    R           D             0923030 0435509100030821900435509100435509100466331011356870000352762306521004355091000052200030821900006020005661620000615000217755000061600004355100007460003082190000
38006234       3822607657060098   5512002001SORIA LIDIA ADRIANA      530443014       260610133 527304430147M    R           D             0923030 043550910003102220043550910043550910046653131094139000035711740552100435509100005220003102220000602000566162000061500021775500007460003102220000
38006734       3859407882060098   5512002001ALVAREZ MARIA ALEJANNDRA 520153929       290111123 527201539299M    R           D             0923030 048833940005652180048833940048833940054486121306412000041422000552100488339400005220005652180000602000634841000061500024417000007460004274010000
38006852       3822607731060098   5512002001LEGUIZAMON ELDA SILVINA  527793894       020605183 523277938944M    R           D             0923030 048833940005652180048833940048833940054486121246246000042023660552100488339400005220005652180000602000634841000061500024417000007460003672350000
38006873       3822607522060098   5512002001SUAREZ DEBORA FABIANA    526890392       111209133 527268903920M    R           D             0923030 046192430005471750046192430046192430051664181319030000038473880552100461924300005220005471750000602000600502000061500023096200007460004875660000
38007104       3835407754060098   5512002001LAFFON NOELIA LUCIANA    526789841       140605183 527267898419M    R           D             0923030 048853980003463080048853980048853980052317061225680000040060260552100488539800005220003463080000602000635102000061500024427000007460003463080000
38007175       3822608034060098   5512002001BRAVO MARIA SOLEDAD      526396771       251111113 527263967718M    R           D             0923030 042230160003012010042230160042230160045242171061344000034628730552100422301600005220003012010000602000548992000061500021115100007460003012010000
38007633       3822607642060098   5512002001GOMEZ CLAUDIA ANALIA     534168982       120712113 527341689827M    R           D             0923030 042230160005201110042230160042230160047431271280254000034628730552100422301600005220005201110000602000548992000061500021115100007460005201110000
38007751       3859408146060098   5512002001CORTES VALERIA ALEJANDRA 533627112       120711123 627336271121M    R           D             0923030 0435509100052712900435509100435509100488222013545970000352762306521004355091000052200052712900006020005661620000615000217755000061600004355100007460005271290000
38007772       3822607897060070   5512002001CEJAS JUAN JOSE          525382884       240604193 520253828847V    R           D             0923030 070403870007125540070403870070403870077529411569769000061831720552100704038700005220007125540000602000915250000061500035201900007460003025000000
38007992       3859407506060098   5512002001VELARDEZ CLAUDIA PATRICIA520916694       080707163 527209166947M    R           D             0923030 044871670003192440044871670044871670048064111126934000036794770552100448716700005220003192440000602000583332000061500022435800007460003192440000
38008024       3835407642060098   5512002001JUGO GUILLERMO ARIEL     524233512       250811123 520242335121V    R           D             0923030 043550910003102220043550910043550910046653131094139000035711740552100435509100005220003102220000602000566162000061500021775500007460003102220000
38008142       3859408661060098   5512002001TOLEDO ADRIANA ELIZABETH 535177733       020612113 527351777333M    R           D             0923030 052796210005922830052796210052796210058719041252832000046190720552100527962100005220005922830000602000686351000061500026398100007460003025000000
38008354       3822608316060098   5512002001CORTEZ MARIA CONCEPCION  517655797       100413123 523176557974M    R           D             0923030 043273630005272380043273630043273630048546011306163000035484380552100432736300005220005272380000602000562557000061500021636800007460005272380000
38008451       3822608653060098   5512002001ZABALA ALBERTO FERNANDO  528400654       260604193 520284006543V    R           D             0923030 056758480006193480056758480056758480062951961601652000046935440552100567584800005220006193480000602000737860000061500028379200007460005800000000
38008621       3822608107060098   5512002001PEREZ MIRIAM MARCELA     522299784       100804193 523222997844M    R           D             0923030 051495500005832620051495500051495500057328121229420000045033920552100514955000005220005832620000602000669442000061500025747800007460003025000000
38008702       3822607707060098   5512002001CORVALAN CLAUDIA DOLORES 526351806       140605183 527263518069M    R           D             0923030 051475450003643520051475450051475450055118971229058000042828390552100514754500005220003643520000602000669181000061500025737700007460003025000000
38008773       3822607611060098   5512001001MENA MARIANA MARIEL      528754719       210512113 627287547191M    R           D             0923030 0422301600029930700422301600422301600452232311016800000342064306521004223016000052200029930700006020005489920000615000211151000061600004223000007460002993070000
38008841       3820305024060098   5512002001ESCALADA ARIEL GUSTAVO   527903926       240506173 520279039263V    R           D             0923030 051495500005832620051495500051495500057328121232347000045004650552100514955000005220005832620000602000669442000061500025747800007460003054270000
38008951       3822607723060098   5512002001GUZMAN GLORIA JOSEFINA   517662343       250793303 527176623433M    R           D             0923030 051475460003643520051475460051475460055118981290910000042209880552100514754600005220003643520000602000669181000061500025737700007460003643520000
38009033       3822607657060098   5512002001PEREZ EMILIA MERCEDES    529785643       010614103 727297856435M    R           D             0923030 0422301600029741400422301600422301600452043011420170000337841306521004223016000052200029741400006020005489920000615000211151000061600008446000007460002974140000
38009193       3859407673060098   5512002001BARRERA CORINA MARGARITA 531753631       140613103 527317536319M    R           D             0923030 052796210005922830052796210052796210058719041252832000046190720552100527962100005220005922830000602000686351000061500026398100007460003025000000
38009452       3859408065060098   5512002001CORDOBA MARTA DEL V.     522197948       181108143 627221979481M    R           D             0923030 0541370100037951100541370100541370100579321213311030000446210906521005413701000052200037951100006020007037810000615000270685000061600005413700007460003025000000
38009494       3822607634060098   5512002001GONZALEZ NOELIA VANESA   533385128       231212103 527333851283M    R           D             0923030 042230160005201110042230160042230160047431271280254000034628730552100422301600005220005201110000602000548992000061500021115100007460005201110000
38009504       3822607827060098   5512002001TOLEDO CARLOS FERNANDO   529930838       120811123 520299308384V    R           D             0923030 054116970003823950054116970054116970057940921276606000045174860552100541169700005220003823950000602000703521000061500027058500007460003025000000
38009525       3822608556060098   5512002001CAMPOS CLAUDIO HERNAN    532506648       270512113 520325066483V    R           D             0923030 052796210005922830052796210052796210058719041252832000046190720552100527962100005220005922830000602000686351000061500026398100007460003025000000
38009745       3859407576060098   5512002001NAVARRO CINTHIA ROXANA   531988987       031212103 627319889871M    R           D             0923030 0527962100037060000527962100527962100565022113056280000434459306521005279621000052200037060000006020006863510000615000263981000061600005279600007460003025000000
38009753       3822607715060070   5512002001LEDESMA ALEJANDRA DEL V. 523450999       180413103 527234509999M    R           D             0923030 072403250007262110072403250072403250079665361605758000063607780552100724032500005220007262110000602000941242000061500036201600007460003025000000
38009805       3822607634060098   5512002001ZERDA IVANA NATALI       531976998       250411123 527319769981M    R           D             0923030 043550910005291320043550910043550910048842231313049000035711740552100435509100005220005291320000602000566162000061500021775500007460005291320000
38009902       3835407634060098   5512002001BARRIONUEVO CECILIA C.   526368157       160110133 727263681571M    R           D             0923030 0435509100030621500435509100435509100466130611772340000348407206521004355091000052200030621500006020005661620000615000217755000061600008710200007460003062150000
38009923       3822607642060098   5512002001BELTRAN JOSE AUGUSTO     529103417       080612113 623291034179V    R           D             0923030 0422301600051821700422301600422301600474123313205900000342064306521004223016000052200051821700006020005489920000615000211151000061600004223000007460005182170000
38010115       3859408096060070   5512002001LEGUIZAMON LORENA PAOLA  530538652       161210123 527305386524M    R           D             0923030 074402630007398680074402630074402630081801311641747000065383840552100744026300005220007398680000602000967234000061500037201300007460003025000000
38010204       3822607634060098   5512002001ROMANI MURIEL ELIZABETH  530742349       120511123 527307423494M    R           D             0923030 043550910005291320043550910043550910048842231313049000035711740552100435509100005220005291320000602000566162000061500021775500007460005291320000
38010212       3859407963060098   5512002001SALTO ROSANA MARILU      524696377       051011113 527246963776M    R           D             0923030 047513180005561970047513180047513180053075151282638000040248770552100475131800005220005561970000602000617671000061500023756600007460004274010000
38010225       3859407545060098   5512002001PECCI CARLA GISELA       533629156       150612113 527336291564M    R           D             0923030 042230160003012010042230160042230160045242171061344000034628730552100422301600005220003012010000602000548992000061500021115100007460003012010000
38010495       3822607665060098   5512002001VEGA YANINA TERESA ANDREA527906967       280613103 527279069671M    R           D             0923030 047513180005561970047513180047513180053075151302272000040052430552100475131800005220005561970000602000617671000061500023756600007460004470350000
38010521       3822607553060098   5512002001BUTARELLI MONICA A.      527686497       020405183 627276864977M    R           D             0923030 0514754500036168800514754500514754500550923312805330000422870006521005147545000052200036168800006020006691810000615000257377000061600005147500007460003025000000
38010814       3835408243060098   5512002001GARNICA MARCELA ELIZABETH520732380       071011113 527207323808M    R           D             0923030 042230160003012010042230160042230160045242171061344000034628730552100422301600005220003012010000602000548992000061500021115100007460003012010000
38011205       3822607611060098   5512002001DIAZ SILVIA ELIZABETH    523584077       150811123 623235840774M    R           D             0923030 0435509100030821900435509100435509100466331011356870000352762306521004355091000052200030821900006020005661620000615000217755000061600004355100007460003082190000
38011331       3859407611060098   5512002001ALBARRACIN MARIA ELENA   531391973       041011113 627313919736M    R           D             0923030 0422301600029930700422301600422301600452232311016800000342064306521004223016000052200029930700006020005489920000615000211151000061600004223000007460002993070000
38011441       3822607723060098   5512002001SEPULVEDA MARIA DE LOS A.525584202       101012103 527255842027M    R           D             0923030 042230160005201110042230160042230160047431271280254000034628730552100422301600005220005201110000602000548992000061500021115100007460005201110000
38011742       3822607592060098   5512002001PONCE NORMA BEATRIZ      516330628       150987353 827163306285M    R           D             0923030 0620415100042589300620415100620415100663004416053730000502467106521006204151000052200042589300006020008065400000615000310208000061600018612500007460003025000000
38092015       3834607182060047   5512002001SOSA DIOSQUEZ NIEVES E   516309440       060983393 527163094407M    R           D             0923030 077934380005450820077934380077934380083385201705319000066332010552100779343800005220005450820000602001013147000061500038967200007460003025000000
38105994       3817601096060070   5512002001SANDEZ JOSE DOMINGO      516404742       230984383 620164047424V    R           D             0923030 0863988900081623700863988900863988900945612622215790000723454706521008639889000052200081623700006020011231860000615000431994000061600008639900007460005800000000
38107035       3856304187060079   5512002001ARIAS JOSEFINA BEATRIZ   517211951       260784393 623172119514M    R           D             0923030 074023180005138240074023180074023180079161421406440000065097020552100740231800005220005138240000602000962301000061500037011600006160000740230000
38107522       3833104493060070   5512002001ZERDA GERARDO RAUL       516656733       080683403 720166567336V    R           D             0923030 0784013800075736900784013800784013800859750721480280000644947906521007840138000052200075736900006020010192180000615000392007000061600015680300007460005800000000
38109545       3831503095060070   5512002001PALMAS JULIO LORENZO     516884776       180485383 623168847769V    R           D             0923030 0863988900081623700863988900863988900945612619440790000751204706521008639889000052200081623700006020011231860000615000431994000061600008639900007460003025000000
38111602       3837708773060070   5512002001LEDESMA MOISES APOLINAR  516442670       010285383 520164426700V    R           D             0923030 086398890008218100086398890086398890094616992135180000073265190552100863988900005220008218100000602001123186000061500043199400007460005800000000
38112043       3837709745060064   5512002001GONZALEZ ESTER DEL VALLE 517779167       140786373 727177791674M    R           D             0923030 0822833900056432800822833900822833900879266719481680000684449906521008228339000052200056432800006020010696840000615000411417000061600016456700007460003025000000
38113612       3829600522060070   5512002001SANTILLAN ZOILO ENRIQUE  516842940       270886373 720168429402V    R           D             0923030 0863988900081066400863988900863988900945055320304780000742007506521008639889000052200081066400006020011231860000615000431994000061600017279800007460003025000000
38113654       3824209753060070   5512002001MORALES VICTOR LIBERATO  517072914       140886373 620170729146V    R           D             0923030 0863988900081623700863988900863988900945612622215790000723454706521008639889000052200081623700006020011231860000615000431994000061600008639900007460005800000000
38113722       3824209873060070   5512001001RIVERO HUGO OSVALDO      516614750       150385383 620166147507V    R           D             0923030 0784013800076227500784013800784013800860241317921260000681028706521007840138000052200076227500006020010192180000615000392007000061600007840100007460003025000000
38115224       3835407506060047   5512002001BIZCARRA GABRIELA DEL C  517765930       011086363 623177659304M    R           D             0923030 0779343800054021400779343800779343800833365220209670000631268506521007793438000052200054021400006020010131470000615000389672000061600007793400007460005402140000
38116393       3822608003060098   5512002001ZERDA NILDA TEJEDA DE    517453217       160486373 627174532171M    R           D             0923030 0541169700059842100541169700541169700601011816082230000440189506521005411697000052200059842100006020007035210000615000270585000061600005411700007460005800000000
38117501       3838510764060064   5512002001MANSILLA WALTER FERNANDO 517028814       110386373 523170288149V    R           D             0923030 082283390007936980082283390082283390090220371783601000072384360552100822833900005220007936980000602001069684000061500041141700007460003025000000
38118463       3838512086060070   5512002001MAGUNA RAUL EULOGIO      514814752       030484393 520148147524V    R           D             0923030 070403870007125540070403870070403870077529411569769000061831720552100704038700005220007125540000602000915250000061500035201900007460003025000000
38118785       3830701734060070   5512002001SUAREZ ISAURO            516198505       160486373 620161985059V    R           D             0923030 08639889000791160008639889008639889009431049245339900006977650075210086398890000522000791160000060200112318600006150004319940000616000086399000066500038879500007460004230250000
38119304       3825711736060098   5512002001BAZAN TERESA DEL VALLE   517765969       010587363 627177659695M    R           D             0923030 0514834100036168800514834100514834100551002913398720000417015706521005148341000052200036168800006020006692840000615000257417000061600005148300007460003616880000
38119773       3838510273060047   5512002001LEGUIZAMON WALTER CEFERIN514985104       180287363 620149851047V    R           D             0923030 0779343800054021400779343800779343800833365220209670000631268506521007793438000052200054021400006020010131470000615000389672000061600007793400007460005402140000
38119972       3815300062060098  15512002001AGUDO DORA MERCEDES      517563917       100887363 527175639174M    R           D             0923030 056758480003648500056758480056758480060406981324152000047165460552100567584800005220003648500000602000737860000061500028379200007460003025000000
38122593       3817601177060070   5512002001JUAREZ SEGUNDO MARIO     516820666       061087353 520168206667V    R           D             0923030 078401380007671820078401380078401380086073201929975000066773450552100784013800005220007671820000602001019218000061500039200700007460005187500000
38122624       3818402262060098   5512002001LEDESMA EMMA VIRGINIA    517498192       300487363 527174981928M    R           D             0923030 051483410003643520051483410051483410055126931291053000042216400552100514834100005220003643520000602000669284000061500025741700007460003643520000
38122941       3829600681060064   5512002001PAJON HECTOR ORLANDO     517779283       240987353 520177792838V    R           D             0923030 082283390005747880082283390082283390088031271783601000070195260552100822833900005220005747880000602001069684000061500041141700007460003025000000
38123471       3819204005060070   5512002001VILLALBA PEDRO ENRIQUE   516885016       070586373 520168850167V    R           D             0923030 086398890008218100086398890086398890094616991857680000076040190552100863988900005220008218100000602001123186000061500043199400007460003025000000
38125591       3832304214060047   5512002001JIMENEZ MARIA REMBERTO   516280370       110587363 520162803701V    R           D             0923030 082560670005766820082560670082560670088327491788592000070441570552100825606700005220005766820000602001073289000061500041280300007460003025000000
38125855       3820306027060098   5512002001VILLAGRAN JOSE OMAR      517966808       061087353 520179668085V    R           D             0923030 062041510006554340062041510062041510068595851419248000054403370552100620415100005220006554340000602000806540000061500031020800007460003025000000
38126055       3822607642060098   5512002001CARPIO SILVIA VIVIANA    517438019       041187353 527174380193M    R           D             0923030 0514828000035236600514828000514828000550064614608630000403978306521005148280000052200035236600006020006692760000615000257414000066500023167300007460003025000000
38126903       3833105361060070   5512002001REVAINERA CARLOS A       518479541       120588353 520184795419V    R           D             0923030 086398890006029000086398890086398890092427891857680000073851090552100863988900005220006029000000602001123186000061500043199400007460003025000000
38128971       3830701444060070   5512002001SABALZA LUIS MARCELO     521343923       270888353 520213439236V    R           D             0923030 074402630007398680074402630074402630081801311919247000062608840552100744026300005220007398680000602000967234000061500037201300007460005800000000
38133735       3824209826060079   5512001001SORIA WALTER ROGER       514214718       170182413 620142147182V    R           D             0923030 0700536200048704000700536200700536200749240216335190000585888306521007005362000052200048704000006020009106970000615000350268000061600007005400007460003025000000
38134032       3820305585060070   5512002001QUIROGA OMAR OVIDIO      520156187       300389343 520201561877V    R           D             0923030 086398890008218100086398890086398890094616991857680000076040190552100863988900005220008218100000602001123186000061500043199400007460003025000000
38134223       3821107201060070   5512002001CUELLAR ERASMO DELIVANO  518515014       170588353 520185150144V    R           D             0923030 086398890008218100086398890086398890094616991857680000076040190552100863988900005220008218100000602001123186000061500043199400007460003025000000
38135944       3829600793060098   5512002001VILLARREAL,ROSANA DEL V. 517816790       050588353 527178167907M    R           D             0923030 051483410003643520051483410051483410055126931229201000042834920552100514834100005220003643520000602000669284000061500025741700007460003025000000
38136843       3833105136060070   5512002001ARGANARAZ VICTOR OMAR    516002765       170389343 520160027658V    R           D             0923030 086398890008218100086398890086398890094616991857680000076040190552100863988900005220008218100000602001123186000061500043199400007460003025000000
38137195       3820306074060098   5512002001SORIA LUIS OMAR          516526621       280689343 620165266219V    R           D             0923030 0514834800036168800514834800514834800551003612806850000422935106521005148348000052200036168800006020006692850000615000257417000061600005148300007460003025000000
38137462       3821106372060070   5512002001PALAVECINO SILVIA SUSANA 517716087       021087353 527177160879M    R           D             0923030 086398890006029000086398890086398890092427891857680000073851090552100863988900005220006029000000602001123186000061500043199400007460003025000000
38138785       3825711906060098   5512002001RODRIGUEZ RAMON ROSA     517675352       210390333 520176753529V    R           D             0923030 062041510006554340062041510062041510068595851696748000051628370552100620415100005220006554340000602000806540000061500031020800007460005800000000
38139841       3822608316060098   5512002001GONZALEZ GLORIA LOTO DE  516457005       010690333 527164570059M    R           D             0923030 05411697000382395005411697005411697005794092097410600004819986045210054116970000522000382395000060200070352100006150002705850000
38140091       3830701355060079   5512002001LLINAS VALERIA           518520948       120189343 527185209488M    R           D             0923030 074023180007372760074023180074023180081395941912417000062271770552100740231800005220007372760000602000962301000061500037011600007460005800000000
38140884       3838511624060079   5512002001DIAS ADRIANA INES CAMPOS 517750451       100887363 627177504519M    R           D             0923030 0740231800051382400740231800740231800791614219202640000599587806521007402318000052200051382400006020009623010000615000370116000061600007402300007460005138240000
38140923       3834607305060070   5512002001SAYAGO MIRIHAM ELIZABETH 517033819       230388353 527170338192M    R           D             0923030 07840138000548272007840138007840138008388410141122500006977185045210078401380000522000548272000060200101921800006150003920070000
38141181       3832304164060070   5512002001BASUALDO,REYNA CRISTINA  518550961       090588353 527185509619M    R           D             0923030 074402630007398680074402630074402630081801311919247000062608840552100744026300005220007398680000602000967234000061500037201300007460005800000000
38141335       3838510717060064   5512002001GUZMAN PATRICIA LILIA    518300384       070590333 523183003844     R           D             0923030 078007340007644900078007340078007340085652241706632000068585920552100780073400005220007644900000602001014095000061500039003700007460003025000000
38141644       3835407576060047   5512002001LOPEZ VICTOR MARCELO     516467943       210286373 520164679439V    R           D             0923030 096439570006714830096439570096439570103154402315912000079995280552100964395700005220006714830000602001253714000061500048219800007460005800000000
38141791       3855502014060079  15512002001OZAN ANTONIO RITO        516910422       140587363 520169104221V    R           D             0923030 0700615700013280600700615700700615700713896317091910000542977206521007006157000052200013280600006020009108000000615000350308000066500031527700007460001328060000
38142763       3835407955060070   5512002001LEIVA ESTELA IBA#EZ DE   517164999       010690333 523171649994M    R           D             0923030 086398890008218100086398890086398890094616991857680000076040190552100863988900005220008218100000602001123186000061500043199400007460003025000000
38142852       3837709401060064   5512001001MALDONADO NILDA          520220412       090590333 527202204126M    R           D             0923030 073731300005163720073731300073731300078895021843536000060459660552100737313000005220005163720000602000958507000061500036865700007460005163720000
38142954       3825710226060098   5512002001LUKES HAYDA SUSANA       520604527       110590333 527206045278M    R           D             0923030 062041510006554340062041510062041510068595851419248000054403370552100620415100005220006554340000602000806540000061500031020800007460003025000000
38143154       3861308815060070   5512002001HERNANDEZ CARLOS MARCIAL 517139851       030888353 520171398518V    R           D             0923030 074402630007398680074402630074402630081801311881762000062983690552100744026300005220007398680000602000967234000061500037201300007460005425150000
38144032       3822608421060070   5512002001SANTILLAN GLORIA ELENA   518495290       040588353 623184952904M    R           D             0923030 0863988900081623700863988900863988900945612619440790000751204706521008639889000052200081623700006020011231860000615000431994000061600008639900007460003025000000
38144231       3833105794060070   5512002001SANCHEZ REYES ANTONIO    516442696       030489343 620164426964V    R           D             0923030 0863988900081623700863988900863988900945612620646040000739152206521008639889000052200081623700006020011231860000615000431994000061600008639900007460004230250000
38144391       3835407553060064   5512002001ROLDAN ANA SERAFINA      521002629       010690333 527210026296M    R           D             0923030 082283390007936980082283390082283390090220372061101000069609360552100822833900005220007936980000602001069684000061500041141700007460005800000000
38144422       3834606743060064   5512002001FERNANDEZ CARLOTA B DEL V517124089       290787363 727171240897M    R           D             0923030 0822833900078323800822833900822833900901157722256680000678590906521008228339000052200078323800006020010696840000615000411417000061600016456700007460005800000000
38145295       3838511616060064   5512002001INIGUEZ NORMA DIAZ DE    517840321       110790333 623178403214     R           D             0923030 0780073500075961700780073500780073500856035217846400000677571206521007800735000052200075961700006020010140960000615000390037000061600007800700007460003025000000
38145392       3833104895060070   5512002001NAZAR RAUL RENE          518542714       240487363 620185427146V    R           D             0923030 0863988900059732700863988900863988900923721622215790000701563706521008639889000052200059732700006020011231860000615000431994000061600008639900007460005800000000
38145635       3824209985060070   5512002001GRIGUELI CLAUDIA M.P.DE  518262180       210689343 627182621809M    R           D             0923030 08639889000791160008639889008639889009431049233287400007098175075210086398890000522000791160000060200112318600006150004319940000616000086399000066500038879500007460003025000000
38145724       3833105256060070   5512002001MALDONADO SARA NOEMI     517563882       180888353 627175638828M    R           D             0923030 0744026300073529500744026300744026300817555819936500000618190806521007440263000052200073529500006020009672340000615000372013000061600007440300007460005800000000
38145745       3833106027060064   5512002001TORREZ LILIANA DEL VALLE 518090722       210189343 527180907225M    R           D             0923030 090835470008521140090835470090835470099356612215038000077206230552100908354700005220008521140000602001180861000061500045417700007460005800000000
38146534       3881402494060098   5512002001TOTO MARIELA ALEJANDRA   521342371       120390333 627213423717M    R           D             0923030 0620415100065189000620415100620415100685604114812900000537475106521006204151000052200065189000006020008065400000615000310208000061600006204200007460003025000000
38147983       3858606735060079   5512002001JIMENEZ ROSSANA ADRIANA  521609456       160590333 827216094560M    R           D             0923030 0700710300047861800700710300700710300748572119501090000553561206521007007103000052200047861800006020009109230000615000350355000061600021021300007460004786180000
38148175       3856304214060079   5512002001SAYAGO JORGE A           516620043       180887363 720166200432V    R           D             0923030 074023180007281930074023180074023180081305111480463000066500480552100740231800005220007281930000602000962301000061500037011600006160001480460000
38148405       3818402753060070   5512002001ENCALADA ROXANA DEL V    521725640       020591323 727217256408M    R           D             0923030 0863988900081066400863988900863988900945055320304780000742007506521008639889000052200081066400006020011231860000615000431994000061600017279800007460003025000000
38148413       3837709896060070   5512001001VERON GLADYS BEATRIZ     520153669       160189343 727201536699M    R           D             0923030 0863988900081066400863988900863988900945055320304780000742007506521008639889000052200081066400006020011231860000615000431994000061600017279800007460003025000000
38148471       3816100793060098   5512002001BEDU ADRIANA BEATRIZ     528139077       080491323 627281390770M    R           D             0923030 0514925800036168800514925800514925800551094612808600000423008606521005149258000052200036168800006020006694040000615000257463000061600005149300007460003025000000
38148675       3832303822060070   5512002001PALACIOS ADALBERTO       517991464       130489343 620179914647V    R           D             0923030 0863988900081623700863988900863988900945612619440790000751204706521008639889000052200081623700006020011231860000615000431994000061600008639900007460003025000000
38149451       3821107313060098  15512002001SNEIDENIT MARIA ESTHER   521342963       110888353 727213429634M    R           D             0923030 0514754600014594000514754600514754600529348611754490000411803706521005147546000052200014594000006020006691810000615000257377000061600010295100007460001459400000
38149511       3817601606060098   5512002001JIMENEZ MARIA ELENA      520152367       230491323 527201523678M    R           D             0923030 051480730005832620051480730051480730057313351506653000042246820552100514807300005220005832620000602000669249000061500025740400007460005800000000
38149841       3822607707060098   5512002001OLIVERA VICTORIA DEL C   521179315       150491323 527211793150M    R           D             0923030 056758480004004380056758480056758480060762861364266000047120200552100567584800005220004004380000602000737860000061500028379200007460003426140000
38150122       3835407916060070   5512002001BAEZ RENE WILFREDO       518254085       260390333 520182540855V    R           D             0923030 086398890008218100086398890086398890094616991857680000076040190552100863988900005220008218100000602001123186000061500043199400007460003025000000
38150253       3825711253060070   5512002001GALVAN ALBERTO DEL VALLE 517731477       190790333 520177314774V    R           D             0923030 086398890008218100086398890086398890094616991857680000076040190552100863988900005220008218100000602001123186000061500043199400007460003025000000
38150342       3854701692060079   5512002001SALTO DANIELA LILIANA    520544236       170689343 727205442362M    R           D             0923030 0700615700048282900700615700700615700748898618840600000560492606521007006157000052200048282900006020009108000000615000350308000061600014012300007460004828290000
38150795       3835408003060064   5512002001CAMPOS TERESITA LUCIA    527293275       260291323 627272932757M    R           D             0923030 0780105400054070700780105400780105400834176117847010000655706006521007801054000052200054070700006020010141370000615000390053000061600007801100007460003025000000
38151254       3829600715060047   5512002001CHAZARRETA EDITH GRACIELA524175438       280390333 527241754389M    R           D             0923030 082560670007955920082560670082560670090516591943592000071080670552100825606700005220007955920000602001073289000061500041280300007460004575000000
38151453       3832303756060079   5512002001SANCHEZ SILVIA E         520152362       240487363 827201523627M    R           D             0923030 0700536200047861800700536200700536200748398019497440000553423606521007005362000052200047861800006020009106970000615000350268000061600021016100007460004786180000
38152043       3816100746060070   5512002001SUAREZ RAMON ANGEL       520154684       011091333 520201546843V    R           D             0923030 086398890008218100086398890086398890094616991857680000076040190552100863988900005220008218100000602001123186000061500043199400007460003025000000
38152051       3825710996060098   5512002001RODRIGUEZ ISOLINA DEL V  520898091       061191313 627208980918M    R           D             0923030 05147659000349702005147659005147659005497361155940300003937958075210051476590000522000349702000060200066919600006150002573830000616000051477000066500023164500007460003497020000
38152844       3817600986060070   5512002001ACUNA MERCEDES BENITO    518041015       190491323 520180410156V    R           D             0923030 074402630007398680074402630074402630081801311641747000065383840552100744026300005220007398680000602000967234000061500037201300007460003025000000
38153044       3818402811060098   5512002001INIGO VIVIANA ALEJANDRA  521339530       211090323 527213395306M    R           D             0923030 051492580003643520051492580051492580055136101291219000042223910552100514925800005220003643520000602000669404000061500025746300007460003643520000
38153772       3837710025060064   5512002001TORRES ORQUIDIA ENRIQUETA516107426       231089333 827161074263M    R           D             0923030 0822833900077800900822833900822833900900634823079510000669839706521008228339000052200077800900006020010696840000615000411417000061600024685000007460005800000000
38153785       3821106921060070   5512002001JUAREZ DELIVANO MIGUEL A 521786355       090492313 520217863555V    R           D             0923030 086398890008218100086398890086398890094616992135180000073265190552100863988900005220008218100000602001123186000061500043199400007460005800000000
38154273       3821107286060098   5512002001ARROYO VICTOR HUGO       517042785       150492313 820170427859V    R           D             0923030 054116970003737440054116970054116970057854411136457000046489840552100541169700005220003737440000602000703521000061500027058500006160001623510000
38154532       3822607657060098   5512002001JIMENEZ HECTOR JESUS     514637020       090583403 523146370209V    R           D             0923030 051475460003643520051475460051475460055118981229058000042828400552100514754600005220003643520000602000669181000061500025737700007460003025000000
38154553       3835408556060070   5512002001CARO HECTOR RODOLFO      521709081       280492313 720217090815V    R           D             0923030 0863988900081066400863988900863988900945055320304780000742007506521008639889000052200081066400006020011231860000615000431994000061600017279800007460003025000000
38154663       3820304462060098   5512002001OCARANZA NORMA LIZ       518089927       280988343 627180899273M    R           D             0923030 0514754600036168800514754600514754600550923412805330000422870106521005147546000052200036168800006020006691810000615000257377000061600005147500007460003025000000
38154993       3817601622060070   5512002001ROJAS RAINERIO MARIA     518102412       210492313 520181024128V    R           D             0923030 078401380005482720078401380078401380083884101713725000066746850552100784013800005220005482720000602001019218000061500039200700007460003025000000
38155033       3838511357060070   5512002001BARON LELI M FERREYRA DE 517782969       230791323 727177829698M    R           D             0923030 0863988900081066400863988900863988900945055320304780000742007506521008639889000052200081066400006020011231860000615000431994000061600017279800007460003025000000
38155091       3816100506060070   5512002001ALTAMIRANDA CARLOS A     517511837       160190333 620175118374V    R           D             0923030 0863988900081623700863988900863988900945612621840940000727203206521008639889000052200081623700006020011231860000615000431994000061600008639900007460005425150000
38155274       3824209134060079   5512002001GUERRA CLAUDIA LILIANA   517782993       211188343 527177829930M    R           D             0923030 070053620004912520070053620070053620074966141752217000057443970552100700536200005220004912520000602000910697000061500035026800007460004912520000
38155295       3824209134060098   5512002001SAYAGO NORMA MARISABEL   516620228       251288343 527166202286M    R           D             0923030 051475460003643520051475460051475460055118981290910000042209880552100514754600005220003643520000602000669181000061500025737700007460003643520000
38155813       3822608003060098   5512002001FLAMENCO ANDREA O DE     530590609       010291323 727305906099M    R           D             0923030 0541250100037662800541250100541250100578912913850000000440412906521005412501000052200037662800006020007036250000615000270625000061600010825000007460003025000000
38156084       3821106712060070   5512002001ARIAS RAMON ABELARDO     516638302       050490333 720166383022V    R           D             0923030 0863988900059175400863988900863988900923164320304780000720116506521008639889000052200059175400006020011231860000615000431994000061600017279800007460003025000000
38156351       3820305496060070   5512002001ABREGU VICTOR EDUARDO    520153459       110590333 620201534594V    R           D             0923030 0863988900081623700863988900863988900945612619440790000751204706521008639889000052200081623700006020011231860000615000431994000061600008639900007460003025000000
38156445       3825710675060064   5512002001LEGUIZAMON LUIS JORGE    518101313       150592313 520181013134V    R           D             0923030 082283390007936980082283390082283390090220371783601000072384360552100822833900005220007936980000602001069684000061500041141700007460003025000000
38156885       3822607611060098   5512002001PUCHETA CLAUDIA MABEL    518310821       160590333 527183108218M    R           D             0923030 051492580003643520051492580051492580055136101291219000042223910552100514925800005220003643520000602000669404000061500025746300007460003643520000
38157022       3821106801060098   5512002001SANCHEZ ARTURO ROQUE     516885169       200487363 520168851694V    R           D             0923030 0567584800060538100567584800567584800628122915795650000470166406521005675848000052200060538100006020007378600000615000283792000066500025541300007460003025000000
38157221       3831503296060070   5512002001BARRAZA ELISA VICTORIA   527293236       120891323 527272932366M    R           D             0923030 078401380007671820078401380078401380086073201713725000068935950552100784013800005220007671820000602001019218000061500039200700007460003025000000
38157284       3818402053060070   5512002001COMAN GREGORIA DEL V     517724700       131188343 527177247001M    R           D             0923030 086398890008218100086398890086398890094616992135180000073265190552100863988900005220008218100000602001123186000061500043199400007460005800000000
38157535       3820305337060098   5512002001ROCABADO MIRIAN TREJO DE 521044323       120491323 627210443237M    R           D             0923030 0567584800061624400567584800567584800629209216584100000463368206521005675848000052200061624400006020007378600000615000283792000061600005675800007460005800000000
38157962       3818402312060098   5512002001GRAMAJO CRISTINA C DE    520151106       020890333 527201511068M    R           D             0923030 051492580003643520051492580051492580055136101291219000042223910552100514925800005220003643520000602000669404000061500025746300007460003643520000
38157975       3818402873060070   5512002001CUELLAR JOSE LUCIANO     520578142       150491323 720205781421V    R           D             0923030 0863988900081066400863988900863988900945055320304780000742007506521008639889000052200081066400006020011231860000615000431994000061600017279800007460003025000000
38157983       3817601885060098   5512002001PALOMINO NANCY M PEREYRA 521342759       240791323 527213427593M    R           D             0923030 054124920003823950054124920054124920057948871276749000045181380552100541249200005220003823950000602000703624000061500027062500007460003025000000
38160952       3824209931060064   5512002001GALVAN DANIEL ALBERTO    520672867       260389343 720206728672V    R           D             0923030 0908354700084023000908354700908354700992377723967090000752706806521009083547000052200084023000006020011808610000615000454177000061600018167100007460005800000000
38162124       3825712167060098   5512002001FRIAS FRANCISCO DANIEL   517908956       210189343 520179089565V    R           D             0923030 051475460003643520051475460051475460055118981290910000042209880552100514754600005220003643520000602000669181000061500025737700007460003643520000
38172234       3828100143060064   5512002001KOLEFF VICTOR ANTONIO    516221594       190485383 523162215949V    R           D             0923030 07800734000764490007800734007800734008565224140413200007161092045210078007340000522000764490000060200101409500006150003900370000
38189422       3833104655060070   5512002001RAMIREZ SUSANA           520589816       230492313 527205898161M    R           D             0923030 086398890008218100086398890086398890094616991857680000076040190552100863988900005220008218100000602001123186000061500043199400007460003025000000
38189914       3822607746060098   5512002001NERVO MIRIAM MABEL       518514651       240990323 527185146516M    R           D             0923030 051492580003643520051492580051492580055136101229367000042842430552100514925800005220003643520000602000669404000061500025746300007460003025000000
38190473       3835407681060070   5512002001CHAPARRO MIGUEL R        516212951       251088343 520162129512V    R           D             0923030 086398890008218100086398890086398890094616991857680000076040190552100863988900005220008218100000602001123186000061500043199400007460003025000000
38190643       3837708757060070   5512002001NUNEZ BETI S             517583311       210389343 827175833116M    R           D             0923030 0863988900080509200863988900863988900944498121168770000732810406521008639889000052200080509200006020011231860000615000431994000061600025919700007460003025000000
38191005       3852400271060079   5512002001SAYAGO ZULEMA            520910510       080693303 527209105107M    R           D             0923030 070073660004912520070073660070073660074986181747576000057510420552100700736600005220004912520000602000910958000061500035036800007460004862500000
38191152       3883704342060098   5512002001JUAREZ MARTA N           516561388       040693303 527165613886M    R           D             0923030 054124920003823950054124920054124920057948871276749000045181380552100541249200005220003823950000602000703624000061500027062500007460003025000000
38195601       3817601904060070   5512002001SERRANO JOSE E           521910096       050992303 520219100966V    R           D             0923030 086398890008218100086398890086398890094616991857680000076040190552100863988900005220008218100000602001123186000061500043199400007460003025000000
38196314       3819203981060098   5512002001MESSINA MYRIAM E         517840410       160491323 527178404100M    R           D             0923030 051475460003643520051475460051475460055118981290910000042209880552100514754600005220003643520000602000669181000061500025737700007460003643520000
38200883       3819203981060098   5512002001DIAZ AIDA MARGARITA      517840685       080693303 527178406855M    R           D             0923030 051475460003643520051475460051475460055118981290910000042209880552100514754600005220003643520000602000669181000061500025737700007460003643520000
38203593       3824209401060098   5512002001GRAMAJO ELIDA ROSA       521669591       030693303 527216695912M    R           D             0923030 054124920003823950054124920054124920057948871276749000045181380552100541249200005220003823950000602000703624000061500027062500007460003025000000
38205901       3862110621060079   5512002001GALVAN ROXANA R          522415102       121291313 727224151026M    R           D             0923030 0740236200072819300740236200740236200813055517829720000634758306521007402362000052200072819300006020009623070000615000370118000061600014804700007460003025000000
38206305       3822607947060098   5512002001ACOSTA ROSANA A          522032071       121092303 527220320710M    R           D             0923030 062041510006554340062041510062041510068595851419248000054403370552100620415100005220006554340000602000806540000061500031020800007460003025000000
38208072       3824209931060098   5512002001TREZAMI FELIX LUCIO      517322531       200190333 620173225319V    R           D             0923030 06204151000635944006204151006204151006840095176047700005079618075210062041510000522000635944000060200080654000006150003102080000616000062042000066500027918700007460003025000000
38208394       3820304423060098   5512002001PROKOP MARGARITA Y       520551134       291290323 727205511348M    R           D             0923030 0567584800039423100567584800567584800607007915294000000454067906521005675848000052200039423100006020007378600000615000283792000061600011351700007460003942310000
38208763       3825711616060098   5512002001MUNOZ SILVIA SOSA DE     517677491       290291323 627176774911M    R           D             0923030 0567584800039733400567584800567584800607318213809100000469227206521005675848000052200039733400006020007378600000615000283792000061600005675800007460003025000000
38209031       3834607375060047   5512002001GALEANO MABEL            516661917       140486373 527166619179M    R           D             0923030 077934380005450820077934380077934380083385201825844000065126760552100779343800005220005450820000602001013147000061500038967200007460004230250000
38209073       3828100271060047   5512002001JIMENEZ MARCIA ZULEMA    518157487       030491323 527181574874M    R           D             0923030 077934380005450820077934380077934380083385201705319000066332010552100779343800005220005450820000602001013147000061500038967200007460003025000000
38209133       3825712144060098   5512002001MORENO ADELMA ISABEL     522722734       150891323 627227227341M    R           D             0923030 0514955000036168800514955000514955000551123813401040000417113406521005149550000052200036168800006020006694420000615000257478000061600005149600007460003616880000
38209175       3817601131060070   5512002001OYARZABAL FRANCISCO DAVID521631180       161189333 623216311809     R           D             0923030 0863988900059732700863988900863988900923721619440790000729313706521008639889000052200059732700006020011231860000615000431994000061600008639900007460003025000000
38209183       3838510733060064   5512002001SANTILLAN OSCAR ALBERTO  517183964       170989333 520171839646V    R           D             0923030 078007340007644900078007340078007340085652241984132000065810920552100780073400005220007644900000602001014095000061500039003700007460005800000000
38209191       3832304102060070   5512002001JIMENEZ JUAN MARTIN      520170731       110491323 620201707316V    R           D             0923030 0784013800076227500784013800784013800860241317921260000681028706521007840138000052200076227500006020010192180000615000392007000061600007840100007460003025000000
38209455       3819203474060070   5512002001CORIA REGINA MALDONADO   520170658       040491323 527201706586M    R           D             0923030 086398890008218100086398890086398890094616991857680000076040190552100863988900005220008218100000602001123186000061500043199400007460003025000000
38209683       3838511906060098   5512002001FRIAZ RENE HUMBERTO      517675412       200392313 520176754126V    R           D             0923030 06204151000436524006204151006204151006640675111674800005523927045210062041510000522000436524000060200080654000006150003102080000
38209832       3821106774060098   5512002001JIMENEZ LUCAS OMAR       520307207       250690333 620203072075V    R           D             0923030 0514925800036168800514925800514925800551094612808600000423008606521005149258000052200036168800006020006694040000615000257463000061600005149300007460003025000000
38209971       3820306116060070   5512002001PEREZ MIRTA GRACIELA     520686081       100393303 627206860818M    R           D             0923030 0863988900081623700863988900863988900945612619440790000751204706521008639889000052200081623700006020011231860000615000431994000061600008639900007460003025000000
38210215       3838511937060070   5512002001PALAVECINO VICTOR ABEL   520153449       090693303 520201534497V    R           D             0923030 086398890008218100086398890086398890094616992135180000073265190552100863988900005220008218100000602001123186000061500043199400007460005800000000
38210223       3825712314060070   5512002001RODRIGUEZ GLADYS NOEMI   521678014       160392313 627216780146M    R           D             0923030 0863988900081623700863988900863988900945612619440790000751204706521008639889000052200081623700006020011231860000615000431994000061600008639900007460003025000000
38210325       3815300255060098  15512002001JIMENEZ JUAN CARLOS DEL V516561329       010688353 620165613296V   7R           D             0923030 06018798000145940006018798006018798006164738156035800004604380075210060187980000522000145940000060200078244400006150003009400000616000060188000066500027084600007460001459400000
38210485       3825712295060070   5512002001SUAREZ EDGARDO           516884844       210488353 520168848448V    R           D             0923030 086398890008218100086398890086398890094616991857680000076040190552100863988900005220008218100000602001123186000061500043199400007460003025000000
38210493       3825712191060098   5512002001JUAREZ CLAUDIA MAGALI    523048319       020693303 527230483197M    R           D             0923030 05149550000200393005149550005149550005349943092692000004423023045210051495500000522000200393000060200066944200006150002574780000
38210671       3859407777060079   5512002001JUAREZ MERI MARCELA      520563976       210392313 823205639764M    R           D             0923030 0779927500074977300779927500779927500854904822178480000633120006521007799275000052200074977300006020010139060000615000389964000061600023397800007460005800000000
38210825       3817601073060070   5512002001GALVAN JULIO CESAR       520333722       280188353 620203337222V    R           D             0923030 0824001400078925600824001400824001400902927018681030000716116706521008240014000052200078925600006020010712020000615000412001000061600008240000007460003025000000
38211465       3837709157060064   5512001001SOSA FELIX SEGUNDO       516858026       220486373 520168580267V    R           D             0923030 090835470006332040090835470090835470097167512058063000076586880552100908354700005220006332040000602001180861000061500045417700007460004230250000
38211525       3819204075060098   5512002001IBANEZ DAVID RUBEN       521139431       020391323 620211394316V    R           D             0923030 051492580003616880051492580051492580055109460978360000045325860552100514925800005220003616880000602000669404000061500025746300006160000514930000
38211533       3820306027060098   5512002001VALDIVIA VICTOR MARCELINO516524885       231290323 520165248857V    R           D             0923030 062041510006554340062041510062041510068595851696748000051628370552100620415100005220006554340000602000806540000061500031020800007460005800000000
38211575       3832304075060079   5512002001LEDESMA SILVINA YANEL    522440551       041092303 527224405516M    R           D             0923030 070053620007101620070053620070053620077155241840965000058745590552100700536200005220007101620000602000910697000061500035026800007460005800000000
38211774       3818403234060070   5512002001SANTOS MILTON ELIAS      521547878       250192313 520215478786V    R           D             0923030 086398890008218100086398890086398890094616992135180000073265190552100863988900005220008218100000602001123186000061500043199400007460005800000000
38211813       3817601274060079   5512002001PEREZ YOLANDA NORALY     520519475       040191323 623205194754M    R           D             0923030 0700536200048704000700536200700536200749240218180590000567434306521007005362000052200048704000006020009106970000615000350268000061600007005400007460004870400000
38211994       3819204075060098   5512002001SERRANO,MYRIAM DE JESUS  520151225       100588353 527201512250M    R           D             0923030 051483410003643520051483410051483410055126931229201000042834920552100514834100005220003643520000602000669284000061500025741700007460003025000000
38212092       3822607777060098   5512002001IBARRA SONIA ELIZABETH   524074872       260192313 527240748725M    R           D             0923030 056758480006193480056758480056758480062951961324152000049710440552100567584800005220006193480000602000737860000061500028379200007460003025000000
38212131       3826550042060092   5512002001VILLARREAL MARIELA A.    521748897       100492313 523217488974M    R           D             0923030 05149550000364352005149550005149550005513902092692000004586982045210051495500000522000364352000060200066944200006150002574780000
38212165       3822608676060098   5512002001CREMONA MARIA DE LOS A   518614002       030693303 527186140023M    R           D             0923030 054117400006013050054117400054117400060130451276613000047364320552100541174000005220006013050000602000703526000061500027058700007460003025000000
38212173       3835408676060047   5512002001VALOR SANDRA LILIANA     520594805       210291323 727205948053M    R           D             0923030 0825606700078508600825606700825606700904115322312130000680994006521008256067000052200078508600006020010732890000615000412803000061600016512100007460005800000000
38212322       3835407592060070   5512002001ORELLANA NELIDA AZUCENA  521974010       300692313 727219740102M    R           D             0923030 0863988900081066400863988900863988900945055321510030000729955006521008639889000052200081066400006020011231860000615000431994000061600017279800007460004230250000
38212335       3837709857060064   5512002001NAVARRO NILDA SERRANO DE 517467987       180890333 527174679873M    R           D             0923030 090835470006332040090835470090835470097167511937538000077792130552100908354700005220006332040000602001180861000061500045417700007460003025000000
38212385       3838511953060070   5512002001SOSA FERREYRA OSVALDO    520153622       211091313 520201536228V    R           D             0923030 086398890006029000086398890086398890092427891857680000073851090552100863988900005220006029000000602001123186000061500043199400007460003025000000
38212393       3825710362060098   5512002001JUAREZ SAUL ALFREDO      517514236       040693303 520175142364V    R           D             0923030 05912271000635497005912271005912271006547768106420900005483559045210059122710000522000635497000060200076859500006150002956140000
38212432       3825711721060098   5512002001PEZZINI MONICA DEL V R   518603699       130588353 527186036994M    R           D             0923030 051475460003643520051475460051475460055118981290910000042209880552100514754600005220003643520000602000669181000061500025737700007460003643520000
38212445       3838512306060070   5512002001ALBORNOZ MONICA RAMONA   523973877       120991313 527239738775M    R           D             0923030 086398890006029000086398890086398890092427892135180000071076090552100863988900005220006029000000602001123186000061500043199400007460005800000000
38213085       3825712167060098   5512002001ACOSTA RITA L            520153022       010592313 527201530224M    R           D             0923030 051477090003643520051477090051477090055120611290939000042211220552100514770900005220003643520000602000669202000061500025738500007460003643520000
38213205       3838511864060070   5512002001LANDRIEL REINA N         521344802       260392313 627213448027M    R           D             0923030 0863988900081623700863988900863988900945612619440790000751204706521008639889000052200081623700006020011231860000615000431994000061600008639900007460003025000000
38213221       3838511713060070   5512002001LEGUIZAMON NESTOR M      522104701       291191313 520221047010V    R           D             0923030 086398890008218100086398890086398890094616992104678000073570210552100863988900005220008218100000602001123186000061500043199400007460005494980000
38213263       3822607576060098   5512002001RISSO PATRON IMELDA DEL C518611893       240591323 627186118931M    R           D             0923030 0620415100065189000620415100620415100685604117587900000509725106521006204151000052200065189000006020008065400000615000310208000061600006204200007460005800000000
38213394       3838511721060047   5512002001SALTO MARIO D            517890938       070191323 520178909380V    R           D             0923030 077934380007639920077934380077934380085574301982819000065746110552100779343800005220007639920000602001013147000061500038967200007460005800000000
38213404       3825711752060070   5512002001MALDONADO JOSEFA DEL V   518429793       190392313 527184297936M    R           D             0923030 086398890006029000086398890086398890092427891857680000073851090552100863988900005220006029000000602001123186000061500043199400007460003025000000
38213412       3825710996060098   5512002001CHAVEZ NORMA A           522547222       220693303 527225472225M    R           D             0923030 051495500003643520051495500051495500055139021229420000042844820552100514955000005220003643520000602000669442000061500025747800007460003025000000
38213425       3825711632060070   5512002001NUNEZ BEATRIZ DEL V      520334725       201192303 527203347257M    R           D             0923030 086398890008218100086398890086398890094616991857680000076040190552100863988900005220008218100000602001123186000061500043199400007460003025000000
38213705       3839350057060047   5512002001ALMARAZ ESTHER DEL VALLE 518102497       080693303 527181024971M    R           D             0923030 077934380005450820077934380077934380083385201947901000063906190552100779343800005220005450820000602001013147000061500038967200007460005450820000
38213865       3825710996060098   5512002001PERALTA REINA VIVIANA    522250618       220693303 627222506188M    R           D             0923030 0514955000036168800514955000514955000551123812809160000423032206521005149550000052200036168800006020006694420000615000257478000061600005149600007460003025000000
38213881       3830701394060064   5512002001SANTILLAN TELMA ROXANA   521910148       260892313 527219101487M    R           D             0923030 082283390007936980082283390082283390090220371904126000071179110552100822833900005220007936980000602001069684000061500041141700007460004230250000
38214023       3824209134060098   5512002001CHAVEZ MARIA I A DE      517502454       071286363 527175024544M    R           D             0923030 051475890005832620051475890051475890057308511229066000045017850552100514758900005220005832620000602000669187000061500025737900007460003025000000
38214031       3824209134060098   5512002001MARRON FRANKLIN MARCELO  516620015       010987363 520166200157V    R           D             0923030 051475460003643520051475460051475460055118981290910000042209880552100514754600005220003643520000602000669181000061500025737700007460003643520000
38214094       3825711856060070   5512002001CUELLAR RAUL OSCAR       517966829       070492313 520179668298V    R           D             0923030 086398890008218100086398890086398890094616991857680000076040190552100863988900005220008218100000602001123186000061500043199400007460003025000000
38214434       3821106221060070  15512002001DIAZ MARIANA GRACIELA    521679050       030493303 527216790508M    R           D             0923030 086398890002408010086398890086398890088806901795981000070847090552100863988900005220002408010000602001123186000061500043199400007460002408010000
38214565       3832303482060070   5512002001CASTANO ROQUE A          523621778       131091313 620236217788V    R           D             0923030 0863988900081623700863988900863988900945612622215790000723454706521008639889000052200081623700006020011231860000615000431994000061600008639900007460005800000000
38214654       3825710621060098   5512002001IBARRA SILVIA B          522415131       070793303 523224151314M    R           D             0923030 054117400006013050054117400054117400060130451276613000047364320552100541174000005220006013050000602000703526000061500027058700007460003025000000
38214743       3822607611060098   5512002001LUNA ELDA JUAREZ DE      518318794       121188343 527183187940M    R           D             0923030 051495500003643520051495500051495500055139021229420000042844820552100514955000005220003643520000602000669442000061500025747800007460003025000000
38215142       3825711736060098   5512002001CASTANO MERCEDES E       522618158       020693303 527226181585M    R           D             0923030 07262761000727607007262761007262761007990368130729700006683071045210072627610000522000727607000060200094415900006150003631380000
38215163       3822607611060098   5512002001TORRES MARCELO DEL V     517215302       130987353 520172153020V    R           D             0923030 051483410003643520051483410051483410055126931229201000042834920552100514834100005220003643520000602000669284000061500025741700007460003025000000
38215192       3824209857060098   5512002001LUNA GABRIELA DEL V      522941117       070193303 627229411174M    R           D             0923030 0620415100043298000620415100620415100663713116117700000502536106521006204151000052200043298000006020008065400000615000310208000061600006204200007460004329800000
38215294       3817601703060098   5512002001SIERRA MARIA INES        521894340       180693303 527218943409M    R           D             0923030 062041510006554340062041510062041510068595851419248000054403370552100620415100005220006554340000602000806540000061500031020800007460003025000000
38215304       3824209714060098   5512002001ALDERETE MONICA D B DE   520155634       180990323 527201556347M    R           D             0923030 054116970003823950054116970054116970057940921356501000044375910552100541169700005220003823950000602000703521000061500027058500007460003823950000
38215341       3817601123060070   5512002001ZABALA ANIBAL OSVALDO    521342296       210892313 620213422961V    R           D             0923030 0784013800076227500784013800784013800860241317921260000681028706521007840138000052200076227500006020010192180000615000392007000061600007840100007460003025000000
38215532       3824208711060098   5512002001GONZALEZ REINA A         518154871       300192313 527181548717M    R           D             0923030 051495500003643520051495500051495500055139021291272000042226300552100514955000005220003643520000602000669442000061500025747800007460003643520000
38215833       3821107487060098   5512002001BARRIENTOS GRACIELA      522422185       150492313 627224221857M    R           D             0923030 0541249200037951100541249200541249200579200314078850000438411806521005412492000052200037951100006020007036240000615000270625000061600005412500007460003795110000
38215862       3837710056060070   5512002001ROMERO LILI Z            523164030       150693303 523231640304M    R           D             0923030 086398890008218100086398890086398890094616991857680000076040190552100863988900005220008218100000602001123186000061500043199400007460003025000000
38216224       3835408011060070   5512002001FARIAS JOSE LUIS         521562862       180492313 520215628621V    R           D             0923030 078401820007671820078401820078401820086073641991233000066161310552100784018200005220007671820000602001019224000061500039200900007460005800000000
38216342       3824210095060098   5512002001CRUZ SULMA YOLANDA       518400385       110192313 727184003851M    R           D             0923030 0567785300039423100567785300567785300607208414380710000463401306521005677853000052200039423100006020007381210000615000283893000061600011355700007460003025000000
38216745       3857104462060079   5512002001CUEVA GARCIELA DEL VALLE 522440060       010793303 627224400603M    R           D             0923030 0700736600048704000700736600700736600749440618184400000567596606521007007366000052200048704000006020009109580000615000350368000061600007007400007460004870400000
38216774       3818402881060070   5512001001BRAVO ELMINA DE JESUS    521342256       220491323 527213422567M    R           D             0923030 086398890008218100086398890086398890094616991857680000076040190552100863988900005220008218100000602001123186000061500043199400007460003025000000
38217173       3829600336060079   5512002001RODRIGUEZ FABIANA M      521726738       100592313 727217267388M    R           D             0923030 0700736600048282900700736600700736600749019518843020000560589306521007007366000052200048282900006020009109580000615000350368000061600014014700007460004828290000
38217335       3835408212060070   5512002001PAZ LUCIA I              518517706       070388353 527185177063M    R           D             0923030 086398890008218100086398890086398890094616991857680000076040190552100863988900005220008218100000602001123186000061500043199400007460003025000000
38217623       3831502857060070   5512002001ACOSTA VICTOR ROLANDO    514706141       210685383 520147061413V    R           D             0923030 086398890008218100086398890086398890094616991857680000076040190552100863988900005220008218100000602001123186000061500043199400007460003025000000
38217995       3817601661060098   5512002001MOYANO VICENTE OMAR      517170596       050592313 520171705968V    R           D             0923030 056758480006193480056758480056758480062951961601652000046935440552100567584800005220006193480000602000737860000061500028379200007460005800000000
38218072       3818403296060098   5512002001BARRAZA SONIA MARIEL     527293237       261092303 627272932374M    R           D             0923030 0567584800061624400567584800567584800629209213809100000491118206521005675848000052200061624400006020007378600000615000283792000061600005675800007460003025000000
38218221       3818403137060098   5512002001MONTES MARIEL E          518537334       180491323 527185373342M    R           D             0923030 054131400003823950054131400054131400057955351276865000045186700552100541314000005220003823950000602000703708000061500027065700007460003025000000
38218263       3826550073060092   5512002001BRAVO CABRAL ELVA INES   521343949       251291313 627213439494M    R           D             0923030 051495500003616880051495500051495500055112380978416000045328220552100514955000005220003616880000602000669442000061500025747800006160000514960000
38218352       3821107197060047   5512002001VILLARREAL MARIA TERESA  522242423       220992303 527222424238M    R           D             0923030 077934380005450820077934380077934380083385201947901000063906190552100779343800005220005450820000602001013147000061500038967200007460005450820000
38218412       3822608637060098   5512002001OLMOS MARGARITA          521993608       040693303 627219936082M    R           D             0923030 0567584800061624400567584800567584800629209216584100000463368206521005675848000052200061624400006020007378600000615000283792000061600005675800007460005800000000
38218975       3821106406060070   5512002001GALVAN WALTER R          516620222       150492313 520166202222V    R           D             0923030 086398890008218100086398890086398890094616991857680000076040190552100863988900005220008218100000602001123186000061500043199400007460003025000000
38218983       3824210095060098   5512002001CASTANO MIRTA VAZQUEZ    518086037       051191313 627180860377M    R           D             0923030 0567785300039733400567785300567785300607518714761270000459906006521005677853000052200039733400006020007381210000615000283893000061600005677900007460003973340000
38218991       3825711326060098   5512002001MALDONADO LILIANA I DE   518037051       071093293 527180370515M    R           D             0923030 051495500003643520051495500051495500055139021229420000042844820552100514955000005220003643520000602000669442000061500025747800007460003025000000
38219031       3822607777060098   5512002001JUAREZ CARLOS FABIAN     522969327       150991313 520229693272V    R           D             0923030 056758480006193480056758480056758480062951961564167000047310290552100567584800005220006193480000602000737860000061500028379200007460005425150000
38219141       3815300263060098   5512002001LEDDA MYRIAN ADRIANA     522242568       011293293 827222425684M    R           D             0923030 051475460003563610051475460051475460055039071080984000044229230552100514754600005220003563610000602000669181000061500025737700006160001544260000
38219332       3833105183060070   5512002001LLANOS BLANCA I          520157432       150393303 527201574329M    R           D             0923030 086398890008218100086398890086398890094616992135180000073265190552100863988900005220008218100000602001123186000061500043199400007460005800000000
38219434       3819203717060098  15512002001MOREIRA JOSE LUIS        518471582       150492313 720184715822V    R           D             0923030 0620415100014594000620415100620415100635009113867710000496332006521006204151000052200014594000006020008065400000615000310208000061600012408300007460001459400000
38219463       3825710822060070   5512002001JUGO FELISA DEL C        520503926       090394293 527205039266M    R           D             0923030 086398890008218100086398890086398890094616991857680000076040190552100863988900005220008218100000602001123186000061500043199400007460003025000000
38219515       3833105875060070   5512002001GOMEZ ZULEMA ESTHER      523187801       100394293 627231878012M    R           D             0923030 0863988900081623700863988900863988900945612619440790000751204706521008639889000052200081623700006020011231860000615000431994000061600008639900007460003025000000
38219963       3831503192060064   5512002001BAZAN GUSTAVO RICARDO    521631321       100394293 520216313217V    R           D             0923030 090835470008521140090835470090835470099356612215038000077206230552100908354700005220008521140000602001180861000061500045417700007460005800000000
38219971       3818403192060098   5512002001RODRIGUEZ CARINA E       521112623       160692313 727211126235M    R           D             0923030 0620415100064834700620415100620415100685249815433310000530916706521006204151000052200064834700006020008065400000615000310208000061600012408300007460003025000000
38220105       3818402842060098   5512002001LOISEAU MARIA DE LOS A   520519463       240793303 627205194636M    R           D             0923030 0567584800052997000567584800567584800620581816083800000459743806521005675848000052200052997000006020007378600000615000283792000061600005675800007460005299700000
38220163       3818403281060098   5512002001IBARRA RAMONA LILIANA    518494787       141292303 827184947876M    R           D             0923030 0567584800039112700567584800567584800606697515830540000448392106521005675848000052200039112700006020007378600000615000283792000061600017027500007460003911270000
38220184       3835407537060070   5512002001PEREYRA CARLOS JULIO     527980496       110993293 720279804962V    R           D             0923030 0863988900081066400863988900863988900945055320304780000742007506521008639889000052200081066400006020011231860000615000431994000061600017279800007460003025000000
38220223       3822608251060098   5512002001HERRERA DANIEL A         518603898       240691323 520186038984V    R           D             0923030 062041510006554340062041510062041510068595851419248000054403370552100620415100005220006554340000602000806540000061500031020800007460003025000000
38220325       3839350034060038   5512002001ESCOBEDO NELIDA A        517889861       060191323 627178898618M    R           D             0923030 0779343800054021400779343800779343800833365220209670000631268506521007793438000052200054021400006020010131470000615000389672000061600007793400007460005402140000
38220333       3817601073060098   5512002001APUD RAMON ANTONIO       522211768       280394293 520222117683V    R           D             0923030 062041510006554340062041510062041510068595851419248000054403370552100620415100005220006554340000602000806540000061500031020800007460003025000000
38220472       3854701073060070   5512002001JIMENEZ MARTIN R E       520333741       100394293 520203337419V    R           D             0923030 086398890008218100086398890086398890094616992119929000073417700552100863988900005220008218100000602001123186000061500043199400007460005647490000
38220574       3825710806060098   5512002001HERRERA CLAUDIA A        523335174       290394293 527233351747M    R           D             0923030 062041510006554340062041510062041510068595851419248000054403370552100620415100005220006554340000602000806540000061500031020800007460003025000000
38220684       3819203501060047   5512002001JIMENEZ MERCEDES DEL C   520151505       200787363 627201515055M    R           D             0923030 0825606700057142900825606700825606700882749621400820000668741406521008256067000052200057142900006020010732890000615000412803000061600008256100007460005714290000
38220773       3833104446060070   5512002001DIAZ MARCELO F           521642943       250294293 520216429436V    R           D             0923030 086398890008218100086398890086398890094616991857680000076040190552100863988900005220008218100000602001123186000061500043199400007460003025000000
38220794       3815300286060098   5512002001ALVAREZ SILVIA B         521632927       150992303 627216329274M    R           D             0923030 0514955000036168800514955000514955000551123812809160000423032206521005149550000052200036168800006020006694420000615000257478000061600005149600007460003025000000
38220891       3815300127060098   5512002001GOMEZ CORREA MIRTA L     514658798       040693303 623146587984M    R           D             0923030 0567584800061624400567584800567584800629209213809100000491118206521005675848000052200061624400006020007378600000615000283792000061600005675800007460003025000000
38221402       3816100827060098   5512002001GEREZ NANCY ELVECIA      520931091       230492313 527209310916M    R           D             0923030 054117400006013050054117400054117400060130451554113000044589320552100541174000005220006013050000602000703526000061500027058700007460005800000000
38221423       3816100827060098   5512002001LOBOS OLGA B             517547498       270293303 527175474981M    R           D             0923030 054117400006013050054117400054117400060130451554113000044589320552100541174000005220006013050000602000703526000061500027058700007460005800000000
38221431       3817601274060098   5512002001NAVARRO TERESA G DE      517890899       190491323 627178908990M    R           D             0923030 0514925800036168800514925800514925800551094613400480000417089806521005149258000052200036168800006020006694040000615000257463000061600005149300007460003616880000
38221575       3822607611060098   5512002001CRISTINA DEL V. SUAREZ   520594638       020493303 527205946387M    R           D             0923030 051495500003643520051495500051495500055139021291272000042226300552100514955000005220003643520000602000669442000061500025747800007460003643520000
38221711       3822607576060098   5512002001CONTRERAS CARLOS A       520153672       200993293 620201536724V    R           D             0923030 0620415100043298000620415100620415100663713116117700000502536106521006204151000052200043298000006020008065400000615000310208000061600006204200007460004329800000
38221724       3822608115060070   5512002001AYALA LUISA HAIDEE       517910859       170394293 627179108599M    R           D             0923030 0863988900081623700863988900863988900945612619440790000751204706521008639889000052200081623700006020011231860000615000431994000061600008639900007460003025000000
38221753       3837709061060070   5512002001FERNANDEZ JOSE D         520557773       070394293 520205577735V    R           D             0923030 086398890008218100086398890086398890094616991978205000074834940552100863988900005220008218100000602001123186000061500043199400007460004230250000
38222021       3829600472060070   5512002001MANRIQUE ANDREA DE LOS A 523280986       240394293 827232809863M    R           D             0923030 0863988900080509200863988900863988900944498123943770000705060406521008639889000052200080509200006020011231860000615000431994000061600025919700007460005800000000
38222131       3828100305060047   5512002001TOFANELLI MARIA E        524883484       210391323 527248834841M    R           D             0923030 079641870005567450079641870079641870085209321736053000067848790552100796418700005220005567450000602001035344000061500039820900007460003025000000
38222144       3817600994060098   5512002001DIAZ ALICIA B            520805979       160692313 627208059799M    R           D             0923030 0620415100043298000620415100620415100663713116117700000502536106521006204151000052200043298000006020008065400000615000310208000061600006204200007460004329800000
38222173       3817601355060098   5512002001FEREZ IRIS MARIELA       523808208       300793303 627238082086M    R           D             0923030 0541174000059842100541174000541174000601016113307300000467943106521005411740000052200059842100006020007035260000615000270587000061600005411700007460003025000000
38222212       3822607843060098   5512002001QUINTEROS MARCELA B      522023006       280393303 527220230061M    R           D             0923030 051475460003643520051475460051475460055118981290910000042209880552100514754600005220003643520000602000669181000061500025737700007460003643520000
38222445       3816100603060098  15512002001MALDONADO MINERVA A C DE 530821796       080793303 627308217960M    R           D             0923030 0541174000036485000541174000541174000577659013307300000444586006521005411740000052200036485000006020007035260000615000270587000061600005411700007460003025000000
38222453       3854701564060079   5512002001BORDA EDITH ISABEL       525002276       101091313 527250022765M    R           D             0923030 070073660004912520070073660070073660074986181563826000059347920552100700736600005220004912520000602000910958000061500035036800007460003025000000
38222555       3829600843060079   5512002001GOMEZ JORGELINA          522864101       230394293 523228641014M    R           D             0923030 070073660004912520070073660070073660074986181563826000059347920552100700736600005220004912520000602000910958000061500035036800007460003025000000
38222563       3831502014060047   5512002001GOMEZ VIVIANA B DE       518506545       130789343 727185065451M    R           D             0923030 0779424000053534700779424000779424000832958718613480000646823906521007794240000052200053534700006020010132510000615000389712000061600015588500007460003025000000
38222801       3818402374060098   5512002001MEDINA LUCIA V           520564512       240192313 627205645123M    R           D             0923030 0514955000036168800514955000514955000551123813401040000417113406521005149550000052200036168800006020006694420000615000257478000061600005149600007460003616880000
38222893       3835408564060070   5512002001TORRES SANTOS Y.         521181417       130193303 523211814179V    R           D             0923030 086398890006029000086398890086398890092427891857680000073851090552100863988900005220006029000000602001123186000061500043199400007460003025000000
38222995       3825711326060098   5512002001TREJO MIRIAM R C DE      518157385       100394293 527181573851M    R           D             0923030 051495500003643520051495500051495500055139021229420000042844820552100514955000005220003643520000602000669442000061500025747800007460003025000000
38223043       3818402432060098   5512002001LEDESMA FANY MARIEL      520156042       140394293 527201560425M    R           D             0923030 051475890002368290051475890051475890053844180961366000044230520552100514758900005220002368290000602000669187000061500025737900007460000348000000
38223182       3817601885060098   5512002001SALVI SELVA M DEL VALLE  522463945       110394293 527224639452M    R           D             0923030 054124920003823950054124920054124920057948871276749000045181380552100541249200005220003823950000602000703624000061500027062500007460003025000000
38223213       3859407777060047   5512002001CORONEL MARIO ALFREDO    520151927       160394293 620201519277V    R           D             0923030 0871869700082155400871869700871869700954025120795780000746067306521008718697000052200082155400006020011334310000615000435935000061600008718700007460004230250000
38223221       3818402544060098   5512002001GALVAN MARIA ELENA       521631157       110394293 723216311574M    R           D             0923030 0514955000035902400514955000514955000550857413324110000417616306521005149550000052200035902400006020006694420000615000257478000061600010299100007460003025000000
38223242       3822607843060098   5512002001VILLALBA ELVIO           520154239       040390333 520201542392V    R           D             0923030 051492580003643520051492580051492580055136101229367000042842430552100514925800005220003643520000602000669404000061500025746300007460003025000000
38223491       3825710273060098   5512002001BARGAS MARTA ALEJANDRA   522154959       181293293 627221549592M    R           D             0923030 0514955000036168800514955000514955000551123813401040000417113406521005149550000052200036168800006020006694420000615000257478000061600005149600007460003616880000
38223522       3838510466060070   5512002001DIAZ SILVIA RAMONA       521597219       110494293 523215972194M    R           D             0923030 086398890008218100086398890086398890094616991857680000076040190552100863988900005220008218100000602001123186000061500043199400007460003025000000
38223661       3862111655060064   5512002001MEDINA SILVINA ELISA     522336428       180693303 623223364284     R           D             0923030 0822833900078846800822833900822833900901680718658840000715092306521008228339000052200078846800006020010696840000615000411417000061600008228300007460003025000000
38223705       3824209134060098   5512002001CORIA GRACIELA LILIANA   518516274       190290333 527185162740M    R           D             0923030 051492580000910880051492580051492580052403461017955000042223910552100514925800005220000910880000602000669404000061500025746300007460000910880000
38223771       3825710996060098   5512002001PAZ MERCEDES BEATRIZ     521089487       250192313 627210894875M    R           D             0923030 0514955000036168800514955000514955000551123813401040000417113406521005149550000052200036168800006020006694420000615000257478000061600005149600007460003616880000
38223912       3824209134060098   5512002001DIAZ MARTA MIGUELINA     518575477       280394293 523185754774M    R           D             0923030 051487390005832620051487390051487390057320011229273000045027280552100514873900005220005832620000602000669336000061500025743700007460003025000000
38223954       3825711616060098  15512002001VILLAVICENCIO MONICA L   517719050       150394293 627177190506M    R           D             0923030 0567785300036485000567785300567785300604270313812930000466141006521005677853000052200036485000006020007381210000615000283893000061600005677900007460003025000000
