38726952       3857105392060098   5512002001CAMPOS NOEMI LILIANA     525245715       081009133 527252457157M    R           D             1122030 02079284000486952002079284002079284002566236037427100002191965045210020792840000522000486952000060200027030700006150001039640000
38727592       3820305136060098   5512002001SOSA AMELIA DEL VALLE    525124893       080105173 627251248937M    R           D             1122030 024856650005131180024856650024856650029987830472276000025265070552100248566500005220005131180000602000323136000061500012428300006160000248570000
38728792       3815300232060098   5512002001LUNA CECILIA AMALIA      526807211       241201203 627268072115M    R           D             1122030 020792840005705390020792840020792840026498230395064000022547590552100207928400005220005705390000602000270307000061500010396400006160000207930000
38729112       3820304462060098   5512002001RODRIGUEZ MARTA ISABEL   525818980       010106163 527258189804M    R           D             1122030 01878098000360813001878098001878098002238911033805800001900853045210018780980000522000360813000060200024415300006150000939050000
38729471       3820304961060098   5512002001SANDOVAL LUCRECIA DEL V  533065620       040310123 523330656204M    R           D             1122030 01929604000364468001929604001929604002294072034732900001946743045210019296040000522000364468000060200025084900006150000964800000
38729992       3833104423060064   5512002001GOMEZ SUSANA NOEMI       527608512       090191313 727276085129M    R           D             1122030 037946170004864950037946170037946170042811120758923000035221890552100379461700005220004864950000602000493300000061500018973100006160000758920000
38730202       3820305635060070   5512002001VILLALBA NORA ESTHER     516417022       290805173 627164170220M    R           D             1122030 035955860005880050035955860035955860041835910683161000035004300552100359558600005220005880050000602000467426000061500017977900006160000359560000
38730215       3833104992060098   5512002001MELIN KARINA NOEMI       532082455       040508143 627320824554M    R           D             1122030 020792840003734390020792840020792840024527230395064000020576590552100207928400005220003734390000602000270307000061500010396400006160000207930000
38730511       3820304462060098   5512002001ACOSTA JULIA ESTELA      528594160       120808143 527285941607M    R           D             1122030 01808363000392142001808363001808363002200505032550500001875000045210018083630000522000392142000060200023508700006150000904180000
38730773       3857104841060098   5512002001CHAIRA ORTIZ MERCEDES N  528784531       030811113 527287845311M    R           D             1122030 01740633000447681001740633001740633002188314031331400001875000045210017406330000522000447681000060200022628200006150000870320000
38730964       3820305426060098   5512002001CARABAJAL SILVINA DEL CAR528594362       160911113 627285943626M    R           D             1122030 017406330003505890017406330017406330020912220330720000017605020552100174063300005220003505890000602000226282000061500008703200006160000174060000
38740273       3816100882060098   5512002001IBANEZ CENTENO FABIANA L.521968419       270603193 527219684199M    R           D             1122030 01945828000365439001945828001945828002311267035024900001961018045210019458280000522000365439000060200025295800006150000972910000
38740281       3832303451060064   5512002001JUARES,JESSICA ANABEL    526459473       060904183 527264594737M    R           D             1122030 03136773000249824003136773003136773003386597056461900002821978045210031367730000522000249824000060200040778000006150001568390000
38740663       3819203466060098   5512002001QUIROGA MANUEL ALAJANDRO 526394856       250904183 520263948565V    R           D             1122030 02487669000402450002487669002487669002890119044778000002442339045210024876690000522000402450000060200032339700006150001243830000
38740773       3819204214060098   5512002001CALDES VERÀNICA SILVANA  525276004       260304183 527252760046M    R           D             1122030 02081288000684052002081288002081288002765340037463100002390709045210020812880000522000684052000060200027056700006150001040640000
38740943       3819203892060098   5512002001DIAZ ESILDA ADELA        524494158       260304183 527244941589M    R           D             1122030 01945828000365439001945828001945828002311267035024900001961018045210019458280000522000365439000060200025295800006150000972910000
38741245       3819203892060098   5512002001SONZOGNI NORMA ELIZABETH 514032294       090995273 527140322941M    R           D             1122030 02216749000383944002216749002216749002600693039901400002201679045210022167490000522000383944000060200028817700006150001108370000
38726672       3820304825060098   5512002001CORONEL GABRIELA ANALIA  529814077       021214073 627298140778M    R           D             1122030 018083630004102260018083630018083630022185890343589000018750000552100180836300005220004102260000602000235087000061500009041800006160000180840000
38726805       3820305032060098   5512002001GONZALEZ DANIEL ALBERTO  527903919       150807153 520279039190V    R           D             1122030 02417935000510084002417935002417935002928019043522900002492790045210024179350000522000510084000060200031433200006150001208970000
38726821       3857104922060098   5512002001MOORE FRANCISCO GERMAN   524012100       101108133 520240121000V    R           D             1122030 01943824000365439001943824001943824002309263034988800001959375045210019438240000522000365439000060200025269700006150000971910000
38727055       3857104551060098   5512002001DIAZ RAUL ARTURO         514412645       030406163 523144126459M    R           D             1122030 02417935000707184002417935002417935003125119043522900002689890045210024179350000522000707184000060200031433200006150001208970000
38727071       3857105287060098   5512002001ANRIQUEZ JORGE JOSE.     531250027       210815073 520312500273V    R           D             1122030 02214744000496204002214744002214744002710948039865400002312294045210022147440000522000496204000060200028791700006150001107370000
38727424       3833104686060098   5512002001BARRIENTOS VERONICA BEATR529814853       150508143 527298148531M    R           D             1122030 01943824000365439001943824001943824002309263034988800001959375045210019438240000522000365439000060200025269700006150000971910000
38727445       3857105016060098   5512002001SORIA VERONICA ELIZABETH 524894357       261007153 527248943578M    R           D             1122030 02011554000482325002011554002011554002493879036208000002131799045210020115540000522000482325000060200026150200006150001005780000
38727461       3857106124060098   5512002001LOPEZ JORGE ALBERTO      529844771       270110123 520298447712V    R           D             1122030 02350205000505457002350205002350205002855662042303700002432625045210023502050000522000505457000060200030552700006150001175100000
38727571       3820304462060098   5512002001VILLALBA MIRIAN ANDREA   527392852       170310123 527273928524M    R           D             1122030 01810368000390499001810368001810368002200867032586600001875001045210018103680000522000390499000060200023534800006150000905180000
38727673       3820304624060098   5512002001LESCANO ANTONIO EMILIO   512064774       030314083 520120647742V    R           D             1122030 02214744000496204002214744002214744002710948039865400002312294045210022147440000522000496204000060200028791700006150001107370000
38727762       3857104311060098   5512002001ALBARRACIN RAMONA DEL    523577341       111005173 523235773414M    R           D             1122030 02485709000514710002485709002485709003000419044742700002552992045210024857090000522000514710000060200032314200006150001242850000
38727851       3820305755060098   5512002001HERRERA LUIS ANTONIO     528535798       120208143 520285357986V    R           D             1122030 01943824000477699001943824001943824002421523034988800002071635045210019438240000522000477699000060200025269700006150000971910000
38728912       3820305001060098  15512002001PEREZ NORA VANESA LORENA 529814648       300608143 527298146482M    R           D             1122030 01943824000384200001943824001943824002328024034988800001978136045210019438240000522000384200000060200025269700006150000971910000
38728954       3820304303060098   5512002001LEGUIZAMON SILVANA G     526394868       130910123 527263948683M    R           D             1122030 02350205000505457002350205002350205002855662042303700002432625045210023502050000522000505457000060200030552700006150001175100000
38729073       3820306027060098   5512002001GUTIERREZ JOSE LUIS      527964629       190413093 520279646291V    R           D             1122030 02214744000496204002214744002214744002710948039865400002312294045210022147440000522000496204000060200028791700006150001107370000
38729094       3857105086060070   5512002001GETTE VERONICA DEL VALLE 525002286       310806163 527250022862M    R           D             1122030 03495016000583518003495016003495016004078534062910300003449431045210034950160000522000583518000060200045435200006150001747510000
38729824       3820304624060098  15512002001RUIZ RITA NILDA DEL VALLE532055058       210408143 527320550586M    R           D             1122030 02350205000320086002350205002350205002670291042303700002247254045210023502050000522000320086000060200030552700006150001175100000
38726575       3820304601060098   5512002001ANDRADA CAROLINA ELIZABET535739219       050515073 527357392190M    R           D             1122030 02214744000496204002214744002214744002710948039865400002312294045210022147440000522000496204000060200028791700006150001107370000
38726651       3820304922060098   5512002001SALTO SILVINA DEL VALLE  528049199       120810123 527280491999M    R           D             1122030 01943824000365439001943824001943824002309263034988800001959375045210019438240000522000365439000060200025269700006150000971910000
38726753       3820305554060070   5512002001ARIAS VIVIANA MABEL      524240486       050810123 527242404861M    R           D             1122030 03390481000576514003390481003390481003966995061028700003356708045210033904810000522000576514000060200044076300006150001695240000
38727005       3820306074060098  15512002001ROBLES YANINA SOLEDAD    529811654       190906163 527298116540M    R           D             1122030 02149019000384200002149019002149019002533219038682300002146396045210021490190000522000384200000060200027937200006150001074510000
38727393       3820305794060098   5512002001MENDOZA PATRICIA NORINA  532663932       120206163 527326639325M    R           D             1122030 02417970000510084002417970002417970002928054043523500002492819045210024179700000522000510084000060200031433600006150001208990000
38727474       3833105392060064   5512002001CANLLO MIGUEL ANGEL      513790627       290987353 523137906279M    R           D             1122030 03794617000407019003794617003794617004201636068303100003518605045210037946170000522000407019000060200049330000006150001897310000
38727704       3857105337060098   5512002001CHAVEZ RAMONA ESTER      525584300       041001213 627255843007M    R           D             1122030 023502050007010780023502050023502050030512830446539000026047440552100235020500005220007010780000602000305527000061500011751000006160000235020000
38728072       3857104686060098   5512002001JUAREZ MARIA ELENA       521343554       100990323 527213435545M    R           D             1122030 022005250001797800022005250022005250023803050495118000018851870552100220052500005220001797800000602000286068000061500011002600006650000990240000
38728174       3820305562060070   5512002001YBARRA MARTA CRISTINA    525388524       161011113 527253885241M    R           D             1122030 03287950000372411003287950003287950003660361059183200003068529045210032879500000522000372411000060200042743400006150001643980000
38728195       3820305345060098   5512002001BARRAZA ROSENDA DEL VALLE226718368       161005173 627267183681M    R           D             1122030 024856650005655750024856650024856650030512400472276000025789640552100248566500005220005655750000602000323136000061500012428300006160000248570000
38728365       3857104686060098   5512002001CISNEROS PATRICIA SUSANA 532082418       210507153 523320824184M    R           D             1122030 02011554000370065002011554002011554002381619036208000002019539045210020115540000522000370065000060200026150200006150001005780000
38729125       3833104686060064   5512002001SOSA BLANCA AMERICA      520887551       190699233 527208875510M    R           D             1122030 03467699000469392003467699003467699003937091062418600003312905045210034676990000522000469392000060200045080100006150001733850000
38730532       3820305032060098   5512002001HERRERA VANESSA ESTELLA  528530629       161208133 527285306294M    R           D             1122030 02350205000505457002350205002350205002855662042303700002432625045210023502050000522000505457000060200030552700006150001175100000
38730671       3821106766060098   5512002001CANCINOS MARIA EVA       532973037       050717053 524329730375M    R           D             1122030 01605173000558758001605173001605173002163931028893100001875000045210016051730000522000558758000060200020867200006150000802590000
38730812       3820304462060098   5512002001CASTAGNA ANDREA EDITH    526438874       110808143 527264388746M    R           D             1122030 01808363000159086001808363001808363001967449032550500001641944045210018083630000522000159086000060200023508700006150000904180000
38730922       3857105867060070   5512002001MIRANDA ANA CAROLINA     516565900       270907153 727165659002M    R           D             1122030 034930110005786560034930110034930110040716670698602000033730650552100349301100005220005786560000602000454091000061500017465100006160000698600000
38731075       3817601703060098   5512002001CONTRERAS ROMINA ALEXANDR536640114       010716063 527366401143M    R           D             1122030 02147014000491578002147014002147014002638592038646300002252129045210021470140000522000491578000060200027911200006150001073510000
38726842       3857106147060098   5512002001SALVATIERRA JULIO A.     516007768       240400223 623160077689V    R           D             1122030 026908600005268280026908600026908600032176880511264000027064240552100269086000005220005268280000602000349812000061500013454300006160000269090000
38727063       3820304462060098   5512002001GEREZ NORMA LUCRECIA     523041114       010595273 727230411145M    R           D             1122030 022167490005783130022167490022167490027950620443349000023517130552100221674900005220005783130000602000288177000061500011083700006160000443350000
38727453       3820304342060098   5512002001BASUALDO LAURA ALEXANDRA 531596055       130710123 527315960555M    R           D             1122030 01943824000477699001943824001943824002421523034988800002071635045210019438240000522000477699000060200025269700006150000971910000
38728352       3857104543060098   5512002001LAGOS VERONICA ANALIA    528496906       270608143 527284969060M    R           D             1122030 01929604000279628001929604001929604002209232034732900001861903045210019296040000522000279628000060200025084900006150000964800000
38728925       3857105933060098   5512002001MORENO ANALIA DEL CARMEN 517663355       180193293 727176633552M    R           D             1122030 024856650005115270024856650024856650029971920497132000025000600552100248566500005220005115270000602000323136000061500012428300006160000497130000
38729515       3857104462060098  15512002001IBANEZ ADELINA GRACIELA  513001838       280307153 527130018381M    R           D             1122030 01876129000271940001876129001876129002148069033770300001810366045210018761290000522000271940000060200024389700006150000938060000
38729573       3820305821060070   5512002001CARRIZO RAMON ANTONIO    527021410       160802203 520270214100V    R           D             1122030 03650924000284944003650924003650924003935868065716600003278702045210036509240000522000284944000060200047462000006150001825460000
38729625       3857104744060098  15512002001RUIZ JUAN JAVIER         532506834       300309133 520325068346V    R           D             1122030 02350205000384200002350205002350205002734405042303700002311368045210023502050000522000384200000060200030552700006150001175100000
38729714       3833104477060070   5512002001FERNANDEZ MARTA INES     526095086       180808143 527260950865M    R           D             1122030 03185419000562507003185419003185419003747926057337500003174551045210031854190000522000562507000060200041410400006150001592710000
38729874       3820306074060098   5512002001JIMENEZ ROSSANA ADRIANA  521609456       160590323 527216094560M    R           D             1122030 02065065000176620002065065002065065002241685037171100001869974045210020650650000522000176620000060200026845800006150001032530000
38730105       3833106074060098   5512002001SANTILLAN SILVANA SOLEDAD525027833       151107143 727250278336M    R           D             1122030 018083630004283090018083630018083630022366720361672000018750000552100180836300005220004283090000602000235087000061500009041800006160000361670000
38730142       3822607642060098   5512002001GUTIERREZ ROSA MARCELA   521344777       021008143 627213447772M    R           D             1122030 018083630005522590018083630018083630023606220343589000020170330552100180836300005220005522590000602000235087000061500009041800006160000180840000
38730273       3857104462060098   5512002001LEIVA ANAHI DEL VALLE    528744120       200514083 527287441202M    R           D             1122030 01672903000503220001672903001672903002176123030112200001875001045210016729030000522000503220000060200021747700006150000836450000
38730972       3820304922060098   5512002001COMAN MARIANA ALEJANDRA  530076740       260515073 527300767406M    R           D             1122030 01808363000553286001808363001808363002361649032550500002036144045210018083630000522000553286000060200023508700006150000904180000
38731114       3833105241060098   5512002001LEDESMA JULIO ANTONIO    525972390       170505173 520259723907V    R           D             1122030 02485665000514710002485665002485665003000375044741900002552956045210024856650000522000514710000060200032313600006150001242830000
38731261       3820304833060098   5512002001CASTILLO MARIA INES      521791697       070196263 527217916971M    R           D             1122030 02606906000325891002606906002606906002932797046924300002463554045210026069060000522000325891000060200033889800006150001303450000
38740215       3819203772060070   5512002001VILLALVA CRISTIAN ADOLFO 525368073       220904183 520253680734V    R           D             1122030 03595542000590521003595542003595542004186063064719700003538866045210035955420000522000590521000060200046742000006150001797770000
38741944       3818402513060098   5512002001LEGUIZAMON SUSY YANET    525175494       050405173 527251754948M    R           D             1122030 02485665000596753002485665002485665003082418044741900002634999045210024856650000522000596753000060200032313600006150001242830000
38741952       3818403137060098   5512002001CUELLAR GUILLERMINA E.   523740213       300608143 527237402133M    R           D             1122030 01943824000365439001943824001943824002309263034988800001959375045210019438240000522000365439000060200025269700006150000971910000
38742034       3855502103060098   5512002001MALDONADO JUAN CARLOS    529231297       070607153 520292312971V    R           D             1122030 02417935000707184002417935002417935003125119043522900002689890045210024179350000522000707184000060200031433200006150001208970000
38742385       3822607545060098   5512002001SALTO KARINA ALEJANDRA   526855912       111105163 823268559124M    R           D             1122030 018780980003913020018780980018780980022694000394401000018749990552100187809800005220003913020000602000244153000061500009390500006160000563430000
38742505       3819203892060098   5512002001RIZZA,LINDA DEBORA       525946330       020706163 527259463306M    R           D             1122030 01876094000360813001876094001876094002236907033769700001899210045210018760940000522000360813000060200024389200006150000938050000
38742932       3831502521060098   5512001001BARRIOS CELIA LEONOR     524738419       160807153 527247384192M    R           D             1122030 02418088000397824002418088002418088002815912043525500002380657045210024180880000522000397824000060200031435100006150001209040000
38743093       3856303756060098   5512002001BARRIONUEVO,CRISTEL V.   532685474       171111103 527326854749M    R           D             1122030 01740633000447681001740633001740633002188314031331400001875000045210017406330000522000447681000060200022628200006150000870320000
38743132       3831502575060098   5512002001PEREYRA GLADYS DEL VALLE 533617113       150807153 527336171135M    R           D             1122030 02417935000510084002417935002417935002928019043522900002492790045210024179350000522000510084000060200031433200006150001208970000
38743404       3819204187060098   5512002001AMENGUAL, CLAUDIA SOLEDAD533137210       100304183 527331372108M    R           D             1122030 02079353000374692002079353002079353002454045037428400002079761045210020793530000522000374692000060200027031600006150001039680000
38743514       3815300286060098   5512002001MARQUEZ BLANCA G.DEL V.  527581780       040405173 527275817800M    R           D             1122030 01945828000365439001945828001945828002311267035024900001961018045210019458280000522000365439000060200025295800006150000972910000
38743721       3818403362060098   5512002001HERRERA ADRIANA BEATRIZ  525964671       280606163 727259646710M    R           D             1122030 020135580003676720020135580020135580023812300402712000019785180552100201355800005220003676720000602000261763000061500010067800006160000402710000
38743904       3819204021060098   5512002001VILLAGRAN,GABRIELA BEATRI525887817       021211103 527258878170M    R           D             1122030 02011554000482325002011554002011554002493879036208000002131799045210020115540000522000482325000060200026150200006150001005780000
38743933       3818402312060098   5512002001CRUZ SILVIA LILIAN       527391516       100804183 527273915163M    R           D             1122030 01943824000365439001943824001943824002309263034988800001959375045210019438240000522000365439000060200025269700006150000971910000
38744065       3818402374060098   5512002001ALVAREZ GLORIA TERESA    514546369       141202193 527145463691M    R           D             1122030 03027507000748821003027507003027507003776328054495100003231377045210030275070000522000748821000060200039357600006150001513750000
38744141       3818402521060098   5512002001SAYAGO ANDREA VERONICA   527064098       270302203 727270640988M    R           D             1122030 026231300004611250026231300026231300030842550524627000025596280552100262313000005220004611250000602000341007000061500013115700006160000524630000
38744303       3856303427060098   5512002001SAAD,MARIA DE LOS A.     531120270       190412103 527311202702M    R           D             1122030 01740633000447681001740633001740633002188314031331400001875000045210017406330000522000447681000060200022628200006150000870320000
38744324       3831502583060070   5512002001DIAZ CLAUDIA VANESSA     528918947       070907153 527289189470M    R           D             1122030 03493011000583518003493011003493011004076529062874200003447787045210034930110000522000583518000060200045409100006150001746510000
38729905       3883705426060098   5512002001GIGENA KARINA VERONICA   525499761       141107143 527254997612M    R           D             1122030 01808363000392142001808363001808363002200505032550500001875000045210018083630000522000392142000060200023508700006150000904180000
38729921       3833105136060098   5512002001SILVA NANCY MARIEL       523740577       041206153 527237405779M    R           D             1122030 02417970000510084002417970002417970002928054043523500002492819045210024179700000522000510084000060200031433600006150001208990000
38730951       3857104895060098   5512002001PALOMO MARIA ANDREA      528530754       181110113 527285307541M    R           D             1122030 02282475000388571002282475002282475002671046041084600002260200045210022824750000522000388571000060200029672200006150001141240000
38731203       3820305392060098   5512002001SALTO INES VERONICA      530175001       251007153 527301750019M    R           D             1122030 02147014000491578002147014002147014002638592038646300002252129045210021470140000522000491578000060200027911200006150001073510000
38740435       3832304187060047   5512002001VILLALBA ADELA DEL PILAR 517675362       270386363 627176753620M    R           D             1122030 038088360006872370038088360038088360044960730723679000037723940552100380883600005220006872370000602000495149000061500019044200006160000380880000
38740765       3819204214060098   5512002001GALINDEZ SANDRA DEL VALLE517782977       260889333 527177829779M    R           D             1122030 02350205000590297002350205002350205002940502042303700002517465045210023502050000522000590297000060200030552700006150001175100000
38741703       3818402262060098   5512001001LUNA MARIA EUGENIA       526291756       261205163 627262917563M    R           D             1122030 018761290004719890018761290018761290023481180356464000019916540552100187612900005220004719890000602000243897000061500009380600006160000187610000
38741711       3818402312060098  15512002001AYUNTA CARMEN DEL VALLE  520231427       130606163 527202314274M    R           D             1122030 01878098000271940001878098001878098002150038033805800001811980045210018780980000522000271940000060200024415300006150000939050000
38741855       3831502157060070   5512002001ZERDA CLAUDIA ALEJANDRA  525042485       151107143 627250424855M    R           D             1122030 033904810005741690033904810033904810039646500644192000033204580552100339048100005220005741690000602000440763000061500016952400006160000339050000
38742013       3818402811060098   5512002001GOMEZ ADRIANA DEL VALLE  526304441       070806163 527263044415M    R           D             1122030 01878098000360813001878098001878098002238911033805800001900853045210018780980000522000360813000060200024415300006150000939050000
38742102       3816100336060098   5512002001SUAREZ,NORMA BEATRIZ     520448031       160605173 527204480317M    R           D             1122030 01943824000365439001943824001943824002309263034988800001959375045210019438240000522000365439000060200025269700006150000971910000
38742123       3831502447060070   5512002001YBARRA SILVINA PAOLA     526097655       050607153 527260976554M    R           D             1122030 03082888000555504003082888003082888003638392055491900003083473045210030828880000522000555504000060200040077500006150001541440000
38742144       3818402544060098   5512002001LLANOS CLAUDIA DEL C.    526855910       210408143 727268559103M    R           D             1122030 018083630004663910018083630018083630022747540361672000019130820552100180836300005220004663910000602000235087000061500009041800006160000361670000
38742322       3818403137060098   5512002001MAZZA NORMA BEATRIZ      522763358       100394283 627227633587M    R           D             1122030 023522090003917180023522090023522090027439270446919000022970080552100235220900005220003917180000602000305787000061500011761000006160000235220000
38742411       3818402327060098   5512002001ROMERO SILVINA ALEJANDRA 527392469       150806163 627273924693M    R           D             1122030 020135580003688690020135580020135580023824270382577000019998500552100201355800005220003688690000602000261763000061500010067800006160000201360000
38742911       3818402811060098   5512002001TOLEDO PATRICIA ALEJANDRA522618183       080805173 627226181836M    R           D             1122030 019458280005613990019458280019458280025072270369707000021375200552100194582800005220005613990000602000252958000061500009729100006160000194580000
38743111       3818402374060098   5512002001CORONEL ANA MARIELA      526368685       131006163 527263686859M    R           D             1122030 01878098000360813001878098001878098002238911033805800001900853045210018780980000522000360813000060200024415300006150000939050000
38740422       3856303892060098   5512002001SALVATIERRA MAYRA G.     521339771       221004183 527213397716M    R           D             1122030 01945828000365439001945828001945828002311267035024900001961018045210019458280000522000365439000060200025295800006150000972910000
38740702       3819203965060098   5512002001SAYAGO NESTOR FABIAN     521829935       200302203 620218299351V    R           D             1122030 023502050005039780023502050023502050028541830446539000024076440552100235020500005220005039780000602000305527000061500011751000006160000235020000
38741224       3819203981060098   5512002001SALVATIERRA WALTER R.    523154677       120504183 520231546775V    R           D             1122030 01945828000477699001945828001945828002423527035024900002073278045210019458280000522000477699000060200025295800006150000972910000
38741842       3855502811060098   5512002001MEDINA PATRICIA ELIZABETH524967109       010908143 527249671091M    R           D             1122030 01808363000356186001808363001808363002164549032550500001839044045210018083630000522000356186000060200023508700006150000904180000
38742393       3819204214060098   5512002001VERON SANTOS,SECUNDINO   512387149       051011113 523123871499V    R           D             1122030 01876093000360812001876093001876093002236905033769700001899208045210018760930000522000360812000060200024389200006150000938050000
38742424       3818402811060098   5512002001MENDOZA MARIA INES       524407765       110496263 527244077655M    R           D             1122030 02216749000383944002216749002216749002600693039901400002201679045210022167490000522000383944000060200028817700006150001108370000
38742725       3818402811060098   5512002001TORRES IVANA YESICA      528139799       150807153 527281397996M    R           D             1122030 01876094000360813001876094001876094002236907033769700001899210045210018760940000522000360813000060200024389200006150000938050000
38743022       3831503307060098   5512001001GONZALEZ GRACIELA E.     527415024       170807153 527274150241M    R           D             1122030 02417935000510084002417935002417935002928019043522900002492790045210024179350000522000510084000060200031433200006150001208970000
38743624       3818402262060098   5512002001CASASOLA ROXANA NANYN    520900720       100404183 527209007202M    R           D             1122030 01943824000365439001943824001943824002309263034988800001959375045210019438240000522000365439000060200025269700006150000971910000
38743831       3818402907060070   5512002001SANTILLAN OLGA ANGELICA  521555896       160807153 527215558962M    R           D             1122030 02877870000427688002877870002877870003305558051801700002787541045210028778700000522000427688000060200037412300006150001438940000
38745312       3818402312060098   5512002001DIAS VALERIA FERNANDA    528048717       091106153 727280487177M    R           D             1122030 018761290003740970018761290018761290022502260375226000018750000552100187612900005220003740970000602000243897000061500009380600006160000375230000
38745354       3855502575060098   5512002001RODRIGUEZ JOSEFA DEL V.  521089407       030608143 627210894077M    R           D             1122030 023502050005039780023502050023502050028541830446539000024076440552100235020500005220005039780000602000305527000061500011751000006160000235020000
38745362       3825712191060098   5512002001ORELLANO IVANNA M.DEL V. 523480044       141005173 527234800448M    R           D             1122030 01945828000365439001945828001945828002311267035024900001961018045210019458280000522000365439000060200025295800006150000972910000
38745503       3816100321060098   5512002001SEQUEIRA,ELBA MARINA     533207753       170512103 527332077533M    R           D             1122030 01876093000473072001876093001876093002349165033769700002011468045210018760930000522000473072000060200024389200006150000938050000
38745613       3818402486060070   5512002001SERRANO MIRIAM ELIZABETH 523282198       180407153 627232821987M    R           D             1122030 034930550004688270034930550034930550039618820663681000032982010552100349305500005220004688270000602000454097000061500017465300006160000349310000
38745702       3829600762060070   5512002001FRIAS,MARIANA FERNANDA   525777180       180810123 627257771801M    R           D             1122030 029803570004342370029803570029803570034145940566268000028483260552100298035700005220004342370000602000387446000061500014901800006160000298040000
38745731       3818402374060098   5512002001HERRERA MARIANA ELISA    527772553       151100213 527277725539M    R           D             1122030 02079743000477892002079743002079743002557635037435400002183281045210020797430000522000477892000060200027036700006150001039870000
38731101       3857104543060070   5512002001CARO SILVIA ANALIA       527772588       031207143 527277725881M    R           D             1122030 02980357000548500002980357002980357003528857053646400002992393045210029803570000522000548500000060200038744600006150001490180000
38731151       3820305442060070   5512002001VELIZ MARIA DE LOS ANGELE527906958       181110113 527279069582M    R           D             1122030 03287950000569511003287950003287950003857461059183200003265629045210032879500000522000569511000060200042743400006150001643980000
38731274       3857105016060098  15512002001BARROS MARCELA ANABEL    535744805       191113083 527357448056M    R           D             1122030 01943824000384200001943824001943824002328024034988800001978136045210019438240000522000384200000060200025269700006150000971910000
38740671       3819203524060070   5512002001PAVON MIGUEL ANGEL       523555402       280503193 720235554020V    R           D             1122030 035955420005854890035955420035955420041810310719108000034619230552100359554200005220005854890000602000467420000061500017977700006160000719110000
38740993       3832304091060098   5512002001SALTO BENJAMINA DEL VALLE522316942       191103183 727223169428M    R           D             1122030 019458280005316680019458280019458280024774960389166000020883300552100194582800005220005316680000602000252958000061500009729100006160000389170000
38741355       3832304187060098   5512002001LUNA CINTIA VERONICA     527064214       260704183 623270642144M    R           D             1122030 020792840005705390020792840020792840026498230395064000022547590552100207928400005220005705390000602000270307000061500010396400006160000207930000
38742314       3818402312060098   5512002001CARABAJAL ELSA BEATRIZ   518157400       180202203 727181574009M    R           D             1122030 020812880003721860020812880020812880024534740416257000020372170552100208128800005220003721860000602000270567000061500010406400006160000416260000
38742712       3855503362060098   5512002001PEREA LUISA ELIZABET     512502084       010906163 523125020844M    R           D             1122030 02013558000370065002013558002013558002383623036244100002021182045210020135580000522000370065000060200026176300006150001006780000
38742822       3831502536060070   5512002001VIZCARRA ZULMA ALICIA    518550927       221200213 527185509279M    R           D             1122030 03800604000604528003800604003800604004405132068410900003721023045210038006040000522000604528000060200049407900006150001900300000
38743001       3853200882060098   5512002001MALDONADO,SUSANA BEATRIZ 517563907       040605173 627175639077M    R           D             1122030 019438240003642990019438240019438240023081230369326000019387970552100194382400005220003642990000602000252697000061500009719100006160000194380000
38743412       3855502312060098  15512002001BUSTAMANTE MARIA LORENA  526192024       160107153 527261920242M    R           D             1122030 01876129000384200001876129001876129002260329033770300001922626045210018761290000522000384200000060200024389700006150000938060000
38743771       3854701711060098   5512002001BULACIO NATALIA MARIANA  525301897       071005173 627253018971M    R           D             1122030 022166280006919380022166280022166280029085660421159000024874070552100221662800005220006919380000602000288162000061500011083100006160000221660000
38744455       3855502552060098   5512002001CASTANO NORMA ROSANA     525499984       030701213 527254999844M    R           D             1122030 02623130000411703002623130002623130003034833047216400002562669045210026231300000522000411703000060200034100700006150001311570000
38744714       3831502045060098  15512002001TOLOZA CARLOS ALBERTO    522770947       110506163 520227709473V    R           D             1122030 01876094000384200001876094001876094002260294033769700001922597045210018760940000522000384200000060200024389200006150000938050000
38744722       3855502552060070   5512002001TICHY CARLOS LUJAN       526964110       151107143 620269641100V    R           D             1122030 033904810005741690033904810033904810039646500644192000033204580552100339048100005220005741690000602000440763000061500016952400006160000339050000
38745053       3855502277060098   5512002001TREJO FERREYRA MARIBEL   530252257       300309133 527302522575M    R           D             1122030 02350205000393197002350205002350205002743402042303700002320365045210023502050000522000393197000060200030552700006150001175100000
38745061       3818402312060098   5512002001CAMPOS LORENA DEL PILAR  524967420       200704183 527249674201M    R           D             1122030 01945828000365439001945828001945828002311267035024900001961018045210019458280000522000365439000060200025295800006150000972910000
38744544       3855502304060070   5512001001ALBARRACIN BERNARDA M.   525748855       221004183 527257488557M    R           D             1122030 03597547000590521003597547003597547004188068064755800003540510045210035975470000522000590521000060200046768100006150001798770000
38744654       3818402374060098   5512002001SERRANO GUSTAVO FELIPE   522049386       050309133 520220493866V    R           D             1122030 01808363000468446001808363001808363002276809032550500001951304045210018083630000522000468446000060200023508700006150000904180000
38744683       3817601692060098   5512002001GOITEA JUAN ALBERTO      523889918       260406163 520238899185V    R           D             1122030 01878098000360813001878098001878098002238911033805800001900853045210018780980000522000360813000060200024415300006150000939050000
38744751       3818402374060098   5512002001GOMEZ MERCEDES AUGUSTA   516805209       050309133 527168052095M    R           D             1122030 01808363000392142001808363001808363002200505032550500001875000045210018083630000522000392142000060200023508700006150000904180000
38744942       3818403137060098   5512002001CORDOBA GUILLERMO F.     525642092       280800223 523256420929V    R           D             1122030 02282475000388571002282475002282475002671046041084600002260200045210022824750000522000388571000060200029672200006150001141240000
38744955       3831502045060098   5512002001VILLALBA PAULINA ISIDORA 522832314       150306163 523228323144M    R           D             1122030 01876740000360813001876740001876740002237553033781300001899740045210018767400000522000360813000060200024397600006150000938370000
38745663       3855503056060098   5512002001ARANDA RINA MABEL        526354549       020304183 523263545494M    R           D             1122030 02485665000711810002485665002485665003197475044741900002750056045210024856650000522000711810000060200032313600006150001242830000
38745862       3825711284060098  15512002001OCHOA CLAUDIA BIBIANA    522156552       050504183 727221565520M    R           D             1122030 019458280002719400019458280019458280022177680389166000018286020552100194582800005220002719400000602000252958000061500009729100006160000389170000
38745993       3816100793060098   5512002001METZLER,MARIEL ELIZABETH 525617917       230911113 527256179178M    R           D             1122030 01740633000463820001740633001740633002204453031331400001891139045210017406330000522000463820000060200022628200006150000870320000
38746334       3818402521060098   5512002001NAVARRO MARISA ELVIRA    530973707       080508143 527309737070M    R           D             1122030 02350205000505457002350205002350205002855662042303700002432625045210023502050000522000505457000060200030552700006150001175100000
38746415       3818402374060098   5512002001CORREA GALVAN MARIA T.   524459642       080605173 827244596423M    R           D             1122030 019438240004182680019438240019438240023620920408203000019538890552100194382400005220004182680000602000252697000061500009719100006160000583150000
38746813       3818403137060098   5512002001GIMENEZ MIRTA            527190712       041206153 527271907120M    R           D             1122030 02011589000370065002011589002011589002381654036208600002019568045210020115890000522000370065000060200026150700006150001005790000
38746855       3855502552060098   5512002001PALAVECINO WILSON E.     528468642       260509133 520284686420V    R           D             1122030 02351753000505457002351753002351753002857210042331600002433894045210023517530000522000505457000060200030572800006150001175880000
38747034       3818403281060098   5512002001AGUERO BEATRIZ DEL VALLE 528125139       120606163 627281251398M    R           D             1122030 021490190004902690021490190021490190026392880408313000022309750552100214901900005220004902690000602000279372000061500010745100006160000214900000
38747102       3819203427060098   5512002001PRADOS,MARIA DE LOS A.   522636792       110612103 527226367921M    R           D             1122030 01740633000463820001740633001740633002204453031331400001891139045210017406330000522000463820000060200022628200006150000870320000
38747181       3817601274060098   5512002001SAYAGO MIRIAN ELIZABETH  524451112       220506163 524244511127M    R           D             1122030 01878098000473073001878098001878098002351171033805800002013113045210018780980000522000473073000060200024415300006150000939050000
38747322       3818402327060098   5512002001RODRIGUEZ ESTELA MARYS   521949164       060103193 527219491641M    R           D             1122030 02081288000177592002081288002081288002258880037463100001884249045210020812880000522000177592000060200027056700006150001040640000
38745744       3855502111060098   5512002001HOYOS MARIELA PAOLA      529881090       210408143 527298810900M    R           D             1122030 01943824000477699001943824001943824002421523034988800002071635045210019438240000522000477699000060200025269700006150000971910000
38746083       3854701386060098   5512002001CACERES NORMA DEL VALLE  522956015       211002203 527229560153M    R           D             1122030 02621126000721063002621126002621126003342189047180200002870387045210026211260000522000721063000060200034074600006150001310560000
38746101       3816100851060070   5512002001PAJON,DIEGO FABIAN       525190940       210611113 520251909408V    R           D             1122030 03287950000569511003287950003287950003857461059183200003265629045210032879500000522000569511000060200042743400006150001643980000
38746193       3816100882060098   5512002001ISASMENDI SELLAN ANA S.  532859899       010212103 627328598995M    R           D             1122030 017406330003505890017406330017406330020912220330720000017605020552100174063300005220003505890000602000226282000061500008703200006160000174060000
38746431       3818402544060098   5512002001PONCE CLAUDIA ANALIA     527392979       080508143 527273929792M    R           D             1122030 01808363000392142001808363001808363002200505032550500001875000045210018083630000522000392142000060200023508700006150000904180000
38746703       3816100882060098   5512002001SAYAGO,ANDREA BELEN      531825181       250911113 527318251814M    R           D             1122030 01740633000447681001740633001740633002188314031331400001875000045210017406330000522000447681000060200022628200006150000870320000
38747021       3818403137060098   5512002001SUAREZ JULIA AMELIA      523305892       190608143 527233058926M    R           D             1122030 01943824000365439001943824001943824002309263034988800001959375045210019438240000522000365439000060200025269700006150000971910000
38747283       3817601606060098  15512002001ACUNA MARILINA SOLEDAD   526410974       101201203 523264109744M    R           D             1122030 02079284000074840002079284002079284002154124037427100001779853045210020792840000522000074840000060200027030700006150001039640000
38747372       3817601274060098   5512002001DAVID ADRIANA MAGALI     517169317       140300223 627171693174M    R           D             1122030 021474570005751090021474570021474570027225660408017000023145490552100214745700005220005751090000602000279169000061500010737300006160000214750000
38747932       3831502277060098   5512002001AVIDO MARIA SOLEDAD      530577883       251007153 723305778834M    R           D             1122030 024179350003947530024179350024179350028126880483588000023291000552100241793500005220003947530000602000314332000061500012089700006160000483590000
38748064       3818402014060098   5512002001MEDINA ANDREA FABIANA    525664435       030704183 727256644350M    R           D             1122030 019458280003631580019458280019458280023089860389166000019198200552100194582800005220003631580000602000252958000061500009729100006160000389170000
38748072       3830701692060098  15512002001RUIZ SANDRA MARISA       518452847       120900223 627184528474M    R           D             1122030 021490190002719400021490190021490190024209590408313000020126460552100214901900005220002719400000602000279372000061500010745100006160000214900000
38748292       3819203892060098   5512002001BARRAZA,MAURA YISSELA    534168912       240812103 527341689126M    R           D             1122030 01740633000463820001740633001740633002204453031331400001891139045210017406330000522000463820000060200022628200006150000870320000
38748462       3818402312060098   5512002001MONTES NORMA DEL VALLE   516339980       130606163 527163399801M    R           D             1122030 01878098000360813001878098001878098002238911033805800001900853045210018780980000522000360813000060200024415300006150000939050000
38749523       3822607634060098   5512002001INFANTE TELLO MARIA E.   529384309       290409133 527293843096M    R           D             1122030 01808363000392142001808363001808363002200505032550500001875000045210018083630000522000392142000060200023508700006150000904180000
38750265       3822607553060098   5512002001SANDOVAL NORA SUSANA     518062577       011106163 527180625777M    R           D             1122030 02147049000491578002147049002147049002638627038646800002252159045210021470490000522000491578000060200027911600006150001073520000
38750435       3822608146060098   5512002001RUIZ CESAR DAVID         529342288       250310123 520293422886V    R           D             1122030 01808363000468446001808363001808363002276809032550500001951304045210018083630000522000468446000060200023508700006150000904180000
38747411       3818402374060098  15512002001GUZMAN MARIA DE LOS A.   526368914       131006163 627263689149M    R           D             1122030 018761290002719400018761290018761290021480690356464000017916050552100187612900005220002719400000602000243897000061500009380600006160000187610000
38747694       3816100754060098   5512002001CONTRERAS,NESTOR VALENTIN533492579       110712103 520334925790V    R           D             1122030 02011554000482325002011554002011554002493879036208000002131799045210020115540000522000482325000060200026150200006150001005780000
38747762       3818402312060098   5512002001JUAREZ ANALIA MATILDE    524732990       120606163 527247329906M    R           D             1122030 01878098000473073001878098001878098002351171033805800002013113045210018780980000522000473073000060200024415300006150000939050000
38747974       3817601703060098   5512002001SANCHEZ MARIEL EVELINA   521132888       220198243 727211328881M    R           D             1122030 027565860004173210027565860027565860031739070551317000026225900552100275658600005220004173210000602000358356000061500013782900006160000551320000
38748124       3818402633060098   5512002001SANCHEZ AMERICA ESTER    523587955       251007153 527235879552M    R           D             1122030 02417935000510084002417935002417935002928019043522900002492790045210024179350000522000510084000060200031433200006150001208970000
38748221       3818402521060098   5512002001LOPEZ DANIELA ANDREA     523837952       021202193 627238379526M    R           D             1122030 024857000005131180024857000024857000029988180472283000025265350552100248570000005220005131180000602000323141000061500012428500006160000248570000
38748323       3821106484060098   5512002001PALAVECINO NANCI EDITH   523373912       080604183 727233739125M    R           D             1122030 022167490004934730022167490022167490027102220443349000022668730552100221674900005220004934730000602000288177000061500011083700006160000443350000
38748344       3831502463060070   5512002001CACERES NANCY ESTER      528902490       180609133 527289024900M    R           D             1122030 03390481000576514003390481003390481003966995061028700003356708045210033904810000522000576514000060200044076300006150001695240000
38749751       3822608452060098   5512002001CORDOBA MARIA ANTONIA    523733674       210408143 727237336742M    R           D             1122030 023502400006996000023502400023502400030498400470048000025797920552100235024000005220006996000000602000305531000061500011751200006160000470050000
38751253       3817601556060098   5512002001HERRERA CLAUDIA EVANGELIN521791989       040608143 523217919894M    R           D             1122030 01808363000468446001808363001808363002276809032550500001951304045210018083630000522000468446000060200023508700006150000904180000
38752225       3822608316060098   5512002001ROMERO PATRICIA LAURA    530300296       260509133 727303002966M    R           D             1122030 019438240004754180019438240019438240024192420388764000020304780552100194382400005220004754180000602000252697000061500009719100006160000388760000
38752631       3822608146060098   5512002001MEDINA CESAR GABRIEL     525470554       270309133 520254705544V    R           D             1122030 01808363000468446001808363001808363002276809032550500001951304045210018083630000522000468446000060200023508700006150000904180000
38752864       3819204187060098   5512002001CORVALAN IRMA ESTELA     527485574       150908143 527274855741M    R           D             1122030 01943824000365439001943824001943824002309263034988800001959375045210019438240000522000365439000060200025269700006150000971910000
38753404       3822607545060098   5512002001AMAYA REINA DEL VALLE    524950077       150807153 627249500777M    R           D             1122030 018760940003597290018760940018760940022358230356458000018793650552100187609400005220003597290000602000243892000061500009380500006160000187610000
38754751       3822607843060098   5512002001JUAREZ HERNAN JULIO      523555663       110808143 520235556635V    R           D             1122030 01808363000392142001808363001808363002200505032550500001875000045210018083630000522000392142000060200023508700006150000904180000
38754874       3822607642060098   5512002001ALBARRACIN FLORENCIO A.  517468213       040309133 520174682136V    R           D             1122030 01808363000468446001808363001808363002276809032550500001951304045210018083630000522000468446000060200023508700006150000904180000
38755045       3859408676060098   5512002001JIMENEZ AIDA ROSARIO     522612934       090508143 527226129346M    R           D             1122030 01943824000477699001943824001943824002421523034988800002071635045210019438240000522000477699000060200025269700006150000971910000
38744052       3818402567060098   5512002001DIAZ HECTOR ANDRES       526189691       260406163 520261896916V    R           D             1122030 02417979000510084002417979002417979002928063043523600002492827045210024179790000522000510084000060200031433700006150001208990000
38744811       3839350107060098   5512002001MERCADO MONICA MABEL     521340193       030306163 527213401934M    R           D             1122030 01878098000473073001878098001878098002351171033805800002013113045210018780980000522000473073000060200024415300006150000939050000
38745121       3818402374060098   5512002001ALMEIDA LILIANA DEL VALLE514546363       040206163 627145463632M    R           D             1122030 018760940004159790018760940018760940022920730356458000019356150552100187609400005220004159790000602000243892000061500009380500006160000187610000
38745215       3855502142060070   5512002001PRADO SORAYA KATHERINE   521910025       180906163 527219100251M    R           D             1122030 02879831000541497002879831002879831003421328051837000002902958045210028798310000522000541497000060200037437800006150001439920000
38745252       3831503137060098   5512002001GALVAN MARTA ISABEL      513511085       190505173 627135110855M    R           D             1122030 020812880003734390020812880020812880024547270395444000020592830552100208128800005220003734390000602000270567000061500010406400006160000208130000
38745391       3819203717060098   5512002001LAYUS SALVATIERRA,IVANA  531466682       150911113 527314666823M    R           D             1122030 02282475000500831002282475002282475002783306041084600002372460045210022824750000522000500831000060200029672200006150001141240000
38745532       3818402231060070   5512002001GOMEZ BEATRIZ CRISTINA   526774866       180702203 527267748662M    R           D             1122030 03800604000604528003800604003800604004405132068410900003721023045210038006040000522000604528000060200049407900006150001900300000
38745634       3825712191060098   5512002001TABOADA DOMINGA RAIMUNDA 520961919       030407153 527209619194M    R           D             1122030 01876145000360813001876145001876145002236958033770600001899252045210018761450000522000360813000060200024389900006150000938070000
38745914       3818402262060098   5512002001AVILA SILVANA LUZ        526636109       020404183 527266361098M    R           D             1122030 01945486000365439001945486001945486002310925035018700001960738045210019454860000522000365439000060200025291300006150000972740000
38746135       3855502262060098   5512002001JIMENEZ EVANGELINA E.    524193024       231207143 527241930241M    R           D             1122030 01808363000392142001808363001808363002200505032550500001875000045210018083630000522000392142000060200023508700006150000904180000
38746994       3819203451060098   5512002001FIGUEROA MIRIAM SOLEDAD  527037742       071210113 623270377424M    R           D             1122030 020115890003688690020115890020115890023804580382202000019982560552100201158900005220003688690000602000261507000061500010057900006160000201160000
38747615       3818402811060098   5512002001LEIVA DELIA NOEMI        518606956       131006163 527186069566M    R           D             1122030 01876129000360813001876129001876129002236942033770300001899239045210018761290000522000360813000060200024389700006150000938060000
38747712       3818402811060098   5512002001NAHUM KARINA LILIANA     526003607       130905173 527260036071M    R           D             1122030 01943824000514040001943824001943824002457864034988800002107976045210019438240000522000514040000060200025269700006150000971910000
38748425       3818403137060098   5512002001MALDONADO CLARA NOEMI    525642065       110808143 527256420657M    R           D             1122030 01943824000468639001943824001943824002412463034988800002062575045210019438240000522000468639000060200025269700006150000971910000
38748522       3820305995060098   5512002001SANCHEZ MERCEDES ANGELICA526097605       120808143 527260976058M    R           D             1122030 02079284000486952002079284002079284002566236037427100002191965045210020792840000522000486952000060200027030700006150001039640000
38748674       3825712191060098   5512002001ARGANARAZ DORIS DANIELA  525860957       060705173 527258609579M    R           D             1122030 01945828000562539001945828001945828002508367035024900002158118045210019458280000522000562539000060200025295800006150000972910000
38748734       3818403033060098   5512002001VITTAR MONICA BIBIANA    521067604       110808143 527210676045M    R           D             1122030 02079284000486952002079284002079284002566236037427100002191965045210020792840000522000486952000060200027030700006150001039640000
38755472       3838511214060098  15512002001HERRERA GRACIELA DEL VALL530318133       121108133 523303181334M    R           D             1122030 01943824000384200001943824001943824002328024034988800001978136045210019438240000522000384200000060200025269700006150000971910000
38755951       3835413004060070   5512002001SILVA CESAR GUSTAVO      526530014       120808143 520265300147V    R           D             1122030 03390481000576514003390481003390481003966995061028700003356708045210033904810000522000576514000060200044076300006150001695240000
38756431       3835407746060098   5512002001CONTRERAS SILVIA GRACIELA521925662       250310123 527219256626M    R           D             1122030 01808363000392142001808363001808363002200505032550500001875000045210018083630000522000392142000060200023508700006150000904180000
38756554       3835407522060064   5512002001PIZZICHINI SANDRA MARCELA524238501       100106163 527242385018M    R           D             1122030 02809856000536717002809856002809856003346573050577400002840799045210028098560000522000536717000060200036528100006150001404930000
38756583       3835407642060098  15512002001LEGUINA LORENA MARISEL   518788351       140510123 527187883518M    R           D             1122030 01808363000384200001808363001808363002192563032550500001867058045210018083630000522000384200000060200023508700006150000904180000
38756842       3822607642060098   5512002001KALENUK IVANA BEATRIZ    525596049       200505173 527255960496M    R           D             1122030 01945828000365439001945828001945828002311267035024900001961018045210019458280000522000365439000060200025295800006150000972910000
38757453       3822607634060098   5512002001GOMEZ REYNA ANALI        524013881       080808143 627240138811M    R           D             1122030 018083630004102250018083630018083630022185880343589000018749990552100180836300005220004102250000602000235087000061500009041800006160000180840000
38757791       3815300271060098   5512002001ABUD MARCELO HUGO        521745536       070605173 520217455368V    R           D             1122030 01945828000365439001945828001945828002311267035024900001961018045210019458280000522000365439000060200025295800006150000972910000
38757801       3815300294060098   5512002001MASTROICOVO OLDRA M      522415109       030401213 927224151093M    R           D             1122030 020812880005381890020812880020812880026194770457883000021615940552100208128800005220005381890000602000270567000061500010406400006160000832520000
38757911       3825712191060098   5512002001LOTO MARIA G             524519489       160203193 627245194892M    R           D             1122030 019458280004674990019458280019458280024133270369707000020436200552100194582800005220004674990000602000252958000061500009729100006160000194580000
38758695       3825712191060098   5512002001ALMIRON MELBA LEONOR     523480005       161199223 527234800057M    R           D             1122030 02149019000520168002149019002149019002669187038682300002282364045210021490190000522000520168000060200027937200006150001074510000
38758721       3815300294060098   5512002001PINTO MARIA VALERIA      526078671       100506163 727260786712M    R           D             1122030 018780980004709050018780980018780980023490030375620000019733830552100187809800005220004709050000602000244153000061500009390500006160000375620000
38759691       3818402076060098  15512002001IBANEZ GRISELDA N        528902468       050506163 527289024684M    R           D             1122030 02013558000197100002013558002013558002210658036244100001848217045210020135580000522000197100000060200026176300006150001006780000
38760231       3815300224060098   5512002001MATTEO MARIA FERNANDA    528900102       080506163 527289001021M    R           D             1122030 01878098000360813001878098001878098002238911033805800001900853045210018780980000522000360813000060200024415300006150000939050000
38760702       3828100305060098  15512002001MALDONADO MIRTA PAOLA    525270850       041104173 527252708508M    R           D             1122030 02081288000384200002081288002081288002465488037463100002090857045210020812880000522000384200000060200027056700006150001040640000
38761305       3815300224060098   5512002001ORELLANA CLAUDIO F       525438377       090904183 620254383776V    R           D             1122030 019458280004765590019458280019458280024223870369707000020526800552100194582800005220004765590000602000252958000061500009729100006160000194580000
38761732       3815300305060098   5512002001ROJAS CECILIA DEL VALLE  517548240       111005173 527175482402M    R           D             1122030 02079284000486952002079284002079284002566236037427100002191965045210020792840000522000486952000060200027030700006150001039640000
38748792       3819204187060098   5512002001ALBORNOZ,ANA AZUCENA     530590150       050912103 523305901504M    R           D             1122030 01876093000360812001876093001876093002236905033769700001899208045210018760930000522000360812000060200024389200006150000938050000
38748933       3831502103060098   5512002001SANCHEZ MARGARITA SUSANA 525357723       110808143 527253577237M    R           D             1122030 02350205000505457002350205002350205002855662042303700002432625045210023502050000522000505457000060200030552700006150001175100000
38749125       3854701637060098   5512002001VIEYRA NORMA ZONIA       516885025       290405173 527168850250M    R           D             1122030 01943824000674799001943824001943824002618623034988800002268735045210019438240000522000674799000060200025269700006150000971910000
38749332       3859408475060098   5512002001BRAVO MANUEL ALEJANDRO   525880708       210507153 520258807082V    R           D             1122030 02417935000510084002417935002417935002928019043522900002492790045210024179350000522000510084000060200031433200006150001208970000
38749714       3822607963060098   5512002001CEJAS MONICA BEATRIZ     523042673       121100213 527230426738M    R           D             1122030 02350205000702557002350205002350205003052762042303700002629725045210023502050000522000702557000060200030552700006150001175100000
38751033       3822607642060098   5512002001AGUERO ALICIA FABIANA    528048988       160309133 527280489889M    R           D             1122030 01808363000550489001808363001808363002358852032550500002033347045210018083630000522000550489000060200023508700006150000904180000
38752335       3822608243060098   5512002001CUELLO EMMA RITA         518616329       120410123 527186163295M    R           D             1122030 01808363000356186001808363001808363002164549032550500001839044045210018083630000522000356186000060200023508700006150000904180000
38752775       3822608065060098   5512002001PALOMO MANSILLA ALDO D   520397240       260792303 720203972408V    R           D             1122030 027565860005295810027565860027565860032861670551317000027348500552100275658600005220005295810000602000358356000061500013782900006160000551320000
38752851       3859407634060098   5512002001GOMEZ RITA MERCEDES A.   524277910       270207153 527242779105M    R           D             1122030 01876129000360813001876129001876129002236942033770300001899239045210018761290000522000360813000060200024389700006150000938060000
38752872       3822607634060098   5512002001SANCHEZ AISA SOLEDAD     523837917       240105173 727238379178M    R           D             1122030 019458280003631580019458280019458280023089860389166000019198200552100194582800005220003631580000602000252958000061500009729100006160000389170000
38753535       3822607514060098   5512002001GOLES MONICA MARIELA     524918696       250310123 527249186967M    R           D             1122030 01808363000392142001808363001808363002200505032550500001875000045210018083630000522000392142000060200023508700006150000904180000
38755142       3822607642060098  15512002001CANCINO MARIA LORENA     528048740       090506163 527280487401M    R           D             1122030 01876094000445188001876094001876094002321282033769700001983585045210018760940000522000445188000060200024389200006150000938050000
38755163       3822607634060098   5512002001CARRIZO MYRIAM ELIZABETH 516771467       020100223 627167714671M    R           D             1122030 021490190003780090021490190021490190025270280408313000021187150552100214901900005220003780090000602000279372000061500010745100006160000214900000
38755752       3822608637060098   5512002001AVILA CINTIA KARINA      527907678       031207143 527279076783M    R           D             1122030 02079284000486952002079284002079284002566236037427100002191965045210020792840000522000486952000060200027030700006150001039640000
38756101       3835408316060098  15512002001ROJAS SANDRA SUSANA      523802648       170807153 727238026488M    R           D             1122030 020115540004311500020115540020115540024427040402311000020403930552100201155400005220004311500000602000261502000061500010057800006160000402310000
38756664       3822607723060098   5512002001GUZMAN RUBEN FERNANDO    517080515       100605173 520170805152V    R           D             1122030 01943824000562539001943824001943824002506363034988800002156475045210019438240000522000562539000060200025269700006150000971910000
38756855       3822607634060098   5512002001PAVON ELENA EDITH        524194591       080808143 527241945915M    R           D             1122030 01808363000392142001808363001808363002200505032550500001875000045210018083630000522000392142000060200023508700006150000904180000
38762034       3828100294060098   5512002001HERRERA IRMA GRACIELA    513702796       100104183 527137027963M    R           D             1122030 01943824000674799001943824001943824002618623034988800002268735045210019438240000522000674799000060200025269700006150000971910000
38764015       3815300271060098   5512002001MOREIRA NOEMI DEL VALLE  527908755       120906163 627279087556M    R           D             1122030 018780980004159790018780980018780980022940770356839000019372380552100187809800005220004159790000602000244153000061500009390500006160000187810000
38766101       3815300286060098   5512002001MALDONADO MONICA MABEL   524578696       190506163 523245786964M    R           D             1122030 01876094000548073001876094001876094002424167033769700002086470045210018760940000522000548073000060200024389200006150000938050000
38766525       3825712191060098   5512002001MIRANDA ROSA JOSEFINA    520353675       140498243 527203536750M    R           D             1122030 02216749000383944002216749002216749002600693039901400002201679045210022167490000522000383944000060200028817700006150001108370000
38766753       3854701355060098   5512002001CHAZARRETA MARIO ROBERTO 517345353       181109123 520173453532V    R           D             1122030 01943824000477699001943824001943824002421523034988800002071635045210019438240000522000477699000060200025269700006150000971910000
38767461       3825710996060098   5512002001SEQUEIRA LORENA SOLEDAD  527348212       131006163 527273482127M    R           D             1122030 01876129000360813001876129001876129002236942033770300001899239045210018761290000522000360813000060200024389700006150000938060000
38767801       3816100336060098   5512002001LOZA ISABEL ELVIRA       510294951       260607153 527102949515M    R           D             1122030 01876094000360813001876094001876094002236907033769700001899210045210018760940000522000360813000060200024389200006150000938050000
38767982       3825710996060098   5512002001MORALES YACANTE MARA VERO528429026       230310123 527284290262M    R           D             1122030 01808363000392142001808363001808363002200505032550500001875000045210018083630000522000392142000060200023508700006150000904180000
38768205       3825713035060098   5512002001SOSA CLAUDIA LILIANA     523811067       010602203 627238110675M    R           D             1122030 020812880003734390020812880020812880024547270395444000020592830552100208128800005220003734390000602000270567000061500010406400006160000208130000
38768302       3838513035060047   5512002001CRUZ OFELIA DEL CARMEN   513511923       010703193 527135119232M    R           D             1122030 03099112000444215003099112003099112003543327055784100002985486045210030991120000522000444215000060200040288500006150001549560000
38768344       3817601274060098   5512002001PAZ MIRIAM MARGOT        516860586       111109123 527168605868M    R           D             1122030 01808363000392142001808363001808363002200505032550500001875000045210018083630000522000392142000060200023508700006150000904180000
38768572       3825710323060098   5512002001SORIA MARIO EDUARDO      527010105       131109123 520270101055V    R           D             1122030 01808363000392142001808363001808363002200505032550500001875000045210018083630000522000392142000060200023508700006150000904180000
38768603       3825713035060098   5512002001MOYANO VANESA SOLEDAD    528870541       170205173 627288705416M    R           D             1122030 019458280004205490019458280019458280023663770369707000019966700552100194582800005220004205490000602000252958000061500009729100006160000194580000
38769002       3838513035060098   5512002001CORDOBA MARIA SANDRA     528875471       090805173 527288754719M    R           D             1122030 01945828000468639001945828001945828002414467035024900002064218045210019458280000522000468639000060200025295800006150000972910000
38769264       3838511326060098  15512002001HERRERA MYRIAM ALEJANDRA 530118473       281009133 527301184730M    R           D             1122030 01808363000307896001808363001808363002116259032550500001790754045210018083630000522000307896000060200023508700006150000904180000
38769405       3862113035060079   5512002001REYES MAGDALENA DEL VALLE513603250       170904183 527136032505M    R           D             1122030 02760328000608472002760328002760328003368800049685900002871941045210027603280000522000608472000060200035884300006150001380160000
38769905       3825713035060098   5512002001GOMEZ PABLO AGUSTIN      523321622       240203193 520233216225V    R           D             1122030 01943824000562539001943824001943824002506363034988800002156475045210019438240000522000562539000060200025269700006150000971910000
38756931       3859407681060098   5512002001GUERRERO SILVIA ROSANA   527001519       010306163 627270015196M    R           D             1122030 024199390005085480024199390024199390029284870459788000024686990552100241993900005220005085480000602000314592000061500012099700006160000241990000
38757461       3835407707060098   5512002001RODRIGUEZ MYRIAM EDITH   531169960       230905173 527311699607M    R           D             1122030 02214744000383944002214744002214744002598688039865400002200034045210022147440000522000383944000060200028791700006150001107370000
38758205       3852400127060098   5512002001MONTENEGRO GERMAN        524950885       121001213 720249508854V    R           D             1122030 023522090005025000023522090023522090028547090470441000023842680552100235220900005220005025000000602000305787000061500011761000006160000470440000
38758412       3815300313060098   5512002001HOYOS CINTYA MARIELA     520155517       120904183 527201555170M    R           D             1122030 019438240006696680019438240019438240026134920437360000021761320552100194382400005220006696680000602000252697000061500009719100006650000874720000
38758514       3815300224060098   5512002001PERALTA DANIEL           518588507       220102203 520185885071V    R           D             1122030 02081288000374692002081288002081288002455980037463100002081349045210020812880000522000374692000060200027056700006150001040640000
38759191       3815300271060098   5512002001JUAREZ ANGELICA CONSTANTI520307266       221004183 527203072665M    R           D             1122030 01943824000562539001943824001943824002506363034988800002156475045210019438240000522000562539000060200025269700006150000971910000
38760532       3828100313060098   5512002001PEREZ SAMBATARO PATRICIA 520307418       180507153 727203074188M    R           D             1122030 018760940005557450018760940018760940024318390375219000020566200552100187609400005220005557450000602000243892000061500009380500006160000375220000
38761703       3815300015060098   5512002001ESPECHE CASIMIRA ANDREA  521343111       110804183 527213431116M    R           D             1122030 02081288000486952002081288002081288002568240037463100002193609045210020812880000522000486952000060200027056700006150001040640000
38761821       3828100174060098   5512002001CISTERNA MARIA MARCELA   524943213       121103183 527249432135M    R           D             1122030 01945828000562539001945828001945828002508367035024900002158118045210019458280000522000562539000060200025295800006150000972910000
38762194       3815300232060098   5512002001PADILLA PAOLA ROXANA     527390445       011005173 527273904455M    R           D             1122030 01943824000562539001943824001943824002506363034988800002156475045210019438240000522000562539000060200025269700006150000971910000
38763831       3828100112060098   5512002001CEJAS CELIA DEL V        522767111       220606163 523227671114M    R           D             1122030 01876094000360813001876094001876094002236907033769700001899210045210018760940000522000360813000060200024389200006150000938050000
38765024       3828100174060098   5512002001PEREA CLAUDIA ROSANNA    523335209       150807153 527233352093M    R           D             1122030 01876094000360813001876094001876094002236907033769700001899210045210018760940000522000360813000060200024389200006150000938050000
38765511       3815300286060098  15512002001CONTRERAS VIOLETA A      520626386       251293283 527206263860M    R           D             1122030 02214780000074840002214780002214780002289620039866000001890960045210022147800000522000074840000060200028792100006150001107390000
38765702       3815300247060098   5512002001GUTIERREZ NORMA GRACIELA 523778885       180906163 527237788856M    R           D             1122030 02011554000370065002011554002011554002381619036208000002019539045210020115540000522000370065000060200026150200006150001005780000
38766651       3854701355060098   5512002001LESCANO ISABEL ESTHER    514272919       270908143 527142729194M    R           D             1122030 01943824000477699001943824001943824002421523034988800002071635045210019438240000522000477699000060200025269700006150000971910000
38766892       3838512175060098   5512002001JAIMEZ SILVIA NOEMI      524429844       061108133 527244298449M    R           D             1122030 02350205000505457002350205002350205002855662042303700002432625045210023502050000522000505457000060200030552700006150001175100000
38766944       3817601274060098   5512002001BARROCA SERGIO ALBERTO   526040135       091009133 520260401352V    R           D             1122030 01808363000392142001808363001808363002200505032550500001875000045210018083630000522000392142000060200023508700006150000904180000
38770503       3825713035060098   5512002001PAZ ELENA DE JESUS       520958686       170204183 527209586865M    R           D             1122030 01945486000365439001945486001945486002310925035018700001960738045210019454860000522000365439000060200025291300006150000972740000
38770702       3838513035060079   5512002001VASQUEZ ANA MARIA        513912929       180799233 527139129291M    R           D             1122030 03067680000639168003067680003067680003706848055218200003154666045210030676800000522000639168000060200039879800006150001533840000
38770804       3825713035060098   5512002001DIAZ LOPEZ CLAUDIA DEL V 521632775       280307153 527216327751M    R           D             1122030 01876129000360813001876129001876129002236942033770300001899239045210018761290000522000360813000060200024389700006150000938060000
38770943       3826550042060098   5512002001PINTO ANA MARINA         529815205       140510123 527298152059M    R           D             1122030 01808363000468446001808363001808363002276809032550500001951304045210018083630000522000468446000060200023508700006150000904180000
38772903       3815300077060098   5512002001RODRIGUEZ ANA MARIEL     524513998       061108133 527245139980M    R           D             1122030 01808363000468446001808363001808363002276809032550500001951304045210018083630000522000468446000060200023508700006150000904180000
38773394       3838512183060098   5512002001ARANDA RAFAEL ANTONIO    525535717       100802203 520255357175V    R           D             1122030 02081288000374692002081288002081288002455980037463100002081349045210020812880000522000374692000060200027056700006150001040640000
38773603       3825710981060098   5512002001ESCALADA LIDIA VERONICA  530695030       300309133 523306950304M    R           D             1122030 01943824000533949001943824001943824002477773034988800002127885045210019438240000522000533949000060200025269700006150000971910000
38773784       3862110192060098   5512001001VALDIVIA ALEJANDRA FELINA533293453       190510123 527332934533M    R           D             1122030 02350205000505457002350205002350205002855662042303700002432625045210023502050000522000505457000060200030552700006150001175100000
38773792       3833104856060098   5512002001LEDESMA GLADIS AIDEE     516733741       060309133 523167337414M    R           D             1122030 02350205000505457002350205002350205002855662042303700002432625045210023502050000522000505457000060200030552700006150001175100000
38775184       3825711292060070   5512002001MALDONADO MIRIAM ANDREA  532539914       220610123 527325399142M    R           D             1122030 03390481000576514003390481003390481003966995061028700003356708045210033904810000522000576514000060200044076300006150001695240000
38775414       3862111914060098   5512002001AGUILERA NANCY DEL VALLE 527917641       190211113 527279176419M    R           D             1122030 02011554000482325002011554002011554002493879036208000002131799045210020115540000522000482325000060200026150200006150001005780000
38777123       3825711407060098   5512002001RAMIREZ CARLOS ANDRES    530684653       280912103 520306846532V    R           D             1122030 01740633000447681001740633001740633002188314031331400001875000045210017406330000522000447681000060200022628200006150000870320000
38777194       3854701692060098   5512002001SANDOVAL PAOLA ELIZABETH 533597402       020512103 527335974021M    R           D             1122030 01740633000463820001740633001740633002204453031331400001891139045210017406330000522000463820000060200022628200006150000870320000
38777851       3821106766060098   5512002001CORIA MAYRA GISELLE      534637142       250614083 527346371426M    R           D             1122030 01808363000468446001808363001808363002276809032550500001951304045210018083630000522000468446000060200023508700006150000904180000
38779492       3817601502060098   5512002001VEGA IVON SOLANGE        529392749       010109133 527293927494M    R           D             1122030 01808363000553286001808363001808363002361649032550500002036144045210018083630000522000553286000060200023508700006150000904180000
38780553       3856303466060098   5512002001CORONEL RITA VANESA      532307923       120914083 523323079234M    R           D             1122030 02214744000383944002214744002214744002598688039865400002200034045210022147440000522000383944000060200028791700006150001107370000
38810641       3853200947060098   5512002001JIMENEZ VICTOR DANIEL    526724262       171002203 520267242624V    R           D             1122030 02621126000523963002621126002621126003145089047180200002673287045210026211260000522000523963000060200034074600006150001310560000
38745341       3824209134060098   5512002001BERTOTO ADRIAN ESTEBAN   524967659       230801213 520249676595V    R           D             1122030 02079284000681255002079284002079284002760539037427100002386268045210020792840000522000681255000060200027030700006150001039640000
38745443       3818402946060070   5512002001CERRIZUELA RUBEN LEANDRO 518260248       270304183 520182602486V    R           D             1122030 03595542000590521003595542003595542004186063064719700003538866045210035955420000522000590521000060200046742000006150001797770000
38745621       3818403106060070   5512002001FARIAS WALTER REMIGIO    526993123       210408143 520269931230V    R           D             1122030 03390481000576514003390481003390481003966995061028700003356708045210033904810000522000576514000060200044076300006150001695240000
38746041       3818402262060098   5512002001KRUPKA NORMA BEATRIZ     524746960       240409133 627247469600M    R           D             1122030 018083630004102250018083630018083630022185880343589000018749990552100180836300005220004102250000602000235087000061500009041800006160000180840000
38746423       3818403315060070   5512002001NAVARRO CLAUDIA SOLEDAD  526617981       120608143 527266179818M    R           D             1122030 03185419000562507003185419003185419003747926057337500003174551045210031854190000522000562507000060200041410400006150001592710000
38746444       3831502544060098   5512002001PEREZ LUCIA DEL CARMEN   523161436       260509133 527231614368M    R           D             1122030 01808363000468446001808363001808363002276809032550500001951304045210018083630000522000468446000060200023508700006150000904180000
38746892       3856304075060098   5512002001LLARULL,SANDRA VIVIANA   522243766       080612103 527222437666M    R           D             1122030 01781982000413775001781982001781982002195757032075700001875000045210017819820000522000413775000060200023165800006150000890990000
38746973       3817601692060098   5512002001CORNETTI SILVANA LUISINA 524724429       191101203 527247244293M    R           D             1122030 02081288000374692002081288002081288002455980037463100002081349045210020812880000522000374692000060200027056700006150001040640000
38747563       3818403362060098   5512002001SILVA JORGE RAFAEL       527506675       200306163 620275066754V    R           D             1122030 020135580003688690020135580020135580023824270382577000019998500552100201355800005220003688690000602000261763000061500010067800006160000201360000
38747864       3818402312060098  15512002001CASTILLO FRANCISCA A.    521824841       240106163 527218248417M    R           D             1122030 01878098000271940001878098001878098002150038033805800001811980045210018780980000522000271940000060200024415300006150000939050000
38748331       3818403137060098   5512002001ROJAS SULMA CRISTINA     526808465       110808143 527268084652M    R           D             1122030 01943824000365439001943824001943824002309263034988800001959375045210019438240000522000365439000060200025269700006150000971910000
38748394       3855502277060098   5512002001LOPEZ SELVA ISABEL       529238999       270812103 527292389995M    R           D             1122030 02282475000388571002282475002282475002671046041084600002260200045210022824750000522000388571000060200029672200006150001141240000
38748771       3830701491060064   5512002001FLORIDIA LUCY MARIEL     518155576       060604183 527181555764M    R           D             1122030 02919496000431946002919496002919496003351442052550900002825933045210029194960000522000431946000060200037953400006150001459750000
38749463       3822608146060098   5512002001SANCINI LAURA GABRIELA   527448051       160806163 527274480519M    R           D             1122030 01876094000360813001876094001876094002236907033769700001899210045210018760940000522000360813000060200024389200006150000938050000
38749861       3822607576060098   5512002001ALBORNOZ ABEL ROLANDO    526660929       170806163 523266609299V    R           D             1122030 02417935000397824002417935002417935002815759043522900002380530045210024179350000522000397824000060200031433200006150001208970000
38749905       3822607657060098   5512002001TREJO MYRIAN AZUCENA     517676959       220905173 727176769594M    R           D             1122030 019447590003631580019447590019447590023079170388952000019189650552100194475900005220003631580000602000252819000061500009723800006160000388950000
38749963       3835408653060098   5512002001POGONZA MIRIAN ZULEMA    522348670       251007153 627223486709M    R           D             1122030 024179350003962880024179350024179350028142230459408000023548150552100241793500005220003962880000602000314332000061500012089700006160000241790000
38767005       3838513035060098   5512002001CARBALLO LORENA PAOLA    529451758       020505173 527294517583M    R           D             1122030 01945828000204613001945828001945828002150441035024900001800192045210019458280000522000204613000060200025295800006150000972910000
38767241       3817601645060070   5512002001CARABAJAL MARIA JORGELINA523163869       290109133 527231638690M    R           D             1122030 03390481000576514003390481003390481003966995061028700003356708045210033904810000522000576514000060200044076300006150001695240000
38767704       3825711326060098  15512002001ALVARADO MIRNA CARINA    523523534       090508143 527235235345M    R           D             1122030 01808363000307896001808363001808363002116259032550500001790754045210018083630000522000307896000060200023508700006150000904180000
38768271       3825711164060098   5512002001BENAVIDES NANCY BEATRIZ  526189624       040105173 527261896244M    R           D             1122030 02065064000288880002065064002065064002353944037171100001982233045210020650640000522000288880000060200026845800006150001032530000
38768904       3825713035060098   5512002001SALVATIERRA RITA ANALIA  521968509       091200213 527219685098M    R           D             1122030 02081288000571792002081288002081288002653080037463100002278449045210020812880000522000571792000060200027056700006150001040640000
38769104       3838511326060098   5512002001CABRERA SANDRA MARISEL   521701195       261005173 627217011952M    R           D             1122030 019458280004765590019458280019458280024223870369707000020526800552100194582800005220004765590000602000252958000061500009729100006160000194580000
38769604       3825713035060098   5512002001CASTANO PATRICIA ELIZABET525709157       030907153 527257091576M    R           D             1122030 01876094000510963001876094001876094002387057033769700002049360045210018760940000522000510963000060200024389200006150000938050000
38769743       3817601042060098   5512002001MATTAR GRISELDA VANINA   529068850       181106153 527290688502M    R           D             1122030 01878098000360813001878098001878098002238911033805800001900853045210018780980000522000360813000060200024415300006150000939050000
38769751       3854701301060098   5512002001LOBO NORMA BEATRIZ       517765916       180510123 527177659164M    R           D             1122030 02350205000505457002350205002350205002855662042303700002432625045210023502050000522000505457000060200030552700006150001175100000
38769772       3825711284060098   5512002001BRUCHMANN NADIA EUGENIA  528086171       051109123 527280861710M    R           D             1122030 01808363000392142001808363001808363002200505032550500001875000045210018083630000522000392142000060200023508700006150000904180000
38770053       3817601502060098   5512002001LOPEZ GABRIELA RITA      532542294       140510123 527325422942M    R           D             1122030 01808363000392142001808363001808363002200505032550500001875000045210018083630000522000392142000060200023508700006150000904180000
38770715       3825711407060098   5512002001GEREZ MARIA FERNANDA     528125222       141105163 523281252224M    R           D             1122030 01876094000360813001876094001876094002236907033769700001899210045210018760940000522000360813000060200024389200006150000938050000
38771253       3830701692060098   5512002001HERRERA SILVINA BEATRIZ  529096351       010104183 527290963511M    R           D             1122030 01943824000365439001943824001943824002309263034988800001959375045210019438240000522000365439000060200025269700006150000971910000
38771703       3825713035060098   5512002001MORE ANGELICA ELIZABETH  517340653       040687353 527173406539M    R           D             1122030 02271897000584948002271897002271897002856845040894200002447903045210022718970000522000584948000060200029534700006150001135950000
38772241       3854701394060098   5512002001RAMOS ANALIA SOLEDAD     530690178       111110113 527306901783M    R           D             1122030 02011554000370065002011554002011554002381619036208000002019539045210020115540000522000370065000060200026150200006150001005780000
38772555       3817601274060098   5512002001VIDARTE PAOLA CAROLINA   526585887       170610123 527265858878M    R           D             1122030 01808363000553286001808363001808363002361649032550500002036144045210018083630000522000553286000060200023508700006150000904180000
38772885       3862111044060098   5512002001MALDONADO IGLESIAS MARTA 523687891       081095273 527236878916M    R           D             1122030 02756586000533215002756586002756586003289801049618500002793616045210027565860000522000533215000060200035835600006150001378290000
38750655       3859408637060098   5512002001AVELLANEDA MYRIAN ANDREA 523411330       200695273 527234113300M    R           D             1122030 02485665000317610002485665002485665002803275044741900002355856045210024856650000522000317610000060200032313600006150001242830000
38750833       3835407754060098  15512002001CHEIN VALERIA DEL VALLE  527908605       310310123 527279086053M    R           D             1122030 01943824000384200001943824001943824002328024034988800001978136045210019438240000522000384200000060200025269700006150000971910000
38751334       3822608146060098   5512002001BRAVO GABRIELA ZULEMA    529068581       130410123 527290685813M    R           D             1122030 01808363000665546001808363001808363002473909032550500002148404045210018083630000522000665546000060200023508700006150000904180000
38751423       3859407986060098   5512002001ACOSTA LORENA ISABEL     525665651       220509133 527256656510M    R           D             1122030 02079284000486952002079284002079284002566236037427100002191965045210020792840000522000486952000060200027030700006150001039640000
38752505       3822607634060098   5512002001LEDESMA CLAUDIA ELIZABETH522142884       130906163 624221428842M    R           D             1122030 018780980003597290018780980018780980022378270356839000018809880552100187809800005220003597290000602000244153000061500009390500006160000187810000
38752814       3822608146060098   5512002001TORRES STELLA MARIS      526635589       090508143 527266355896M    R           D             1122030 01808363000468446001808363001808363002276809032550500001951304045210018083630000522000468446000060200023508700006150000904180000
38752911       3822608065060098   5512002001SILVA MARTA GRACIELA     523305933       080508143 527233059337M    R           D             1122030 02350205000505457002350205002350205002855662042303700002432625045210023502050000522000505457000060200030552700006150001175100000
38753205       3835408146060098   5512002001DIAZ NORA MABEL          524014246       160807153 527240142460M    R           D             1122030 01876094000670173001876094001876094002546267033769700002208570045210018760940000522000670173000060200024389200006150000938050000
38753373       3822607843060098   5512002001COSTILLA MONTIEL LUCY    530271652       300309133 527302716523M    R           D             1122030 01808363000392142001808363001808363002200505032550500001875000045210018083630000522000392142000060200023508700006150000904180000
38753742       3822607634060098   5512002001CERRANO NATALIA VALERIA  523687796       080508143 627236877960M    R           D             1122030 018083630004102250018083630018083630022185880343589000018749990552100180836300005220004102250000602000235087000061500009041800006160000180840000
38754243       3822607723060098   5512002001ARGANARAZ MARISEL KARINA 523981863       140508143 523239818633M    R           D             1122030 01808363000665546001808363001808363002473909032550500002148404045210018083630000522000665546000060200023508700006150000904180000
38754552       3822607634060098   5512002001HOYOS HUGO WALTER        520379161       141191303 620203791616V    R           D             1122030 022147450003825790022147450022147450025973240420801000021765230552100221474500005220003825790000602000287917000061500011073700006160000221470000
38754581       3822608034060098   5512002001ROJAS MONICA ELIZABETH   526396703       100908143 627263967033M    R           D             1122030 018083630004114090018083630018083630022197720343589000018761830552100180836300005220004114090000602000235087000061500009041800006160000180840000
38754714       3822607506060098   5512002001GOITIA HILDA AMALIA      520393893       240409133 523203938934M    R           D             1122030 01808363000468446001808363001808363002276809032550500001951304045210018083630000522000468446000060200023508700006150000904180000
38755435       3859407642060098  15512002001SANTOS LORENA EDITH      530807233       250310123 527308072334M    R           D             1122030 01808363000384200001808363001808363002192563032550500001867058045210018083630000522000384200000060200023508700006150000904180000
38755561       3822607843060098  15512002001BARRIENTOS CLAUDIA A     521701080       060309203 627217010808M    R           D             1122030 020812880004403070020812880020812880025215950395444000021261510552100208128800005220004403070000602000270567000061500010406400006160000208130000
38755744       3822608146060098   5512002001REA ANGEL ARIEL          524221384       120508143 520242213840V    R           D             1122030 01808363000468446001808363001808363002276809032550500001951304045210018083630000522000468446000060200023508700006150000904180000
38810824       3825711326060098   5512002001GRAMAJO CECILIA CAROLINA 527391311       200408143 523273913114M    R           D             1122030 01808363000392142001808363001808363002200505032550500001875000045210018083630000522000392142000060200023508700006150000904180000
38810942       3816100456060098   5512002001PAZ,NELIDA PATRICIA      514423191       070513093 527144231916M    R           D             1122030 01995688000481242001995688001995688002476930035922300002117707045210019956880000522000481242000060200025943900006150000997840000
38810963       3853200425060098   5512002001GRAMAJO,DANIEL RICARDO   529177935       040510123 520291779353V    R           D             1122030 02079284000486952002079284002079284002566236037427100002191965045210020792840000522000486952000060200027030700006150001039640000
38811582       3855502977060098   5512002001BRAVO,MARCELA ALEJANDRA  524466027       141095273 523244660274M    R           D             1122030 02756586000533215002756586002756586003289801049618500002793616045210027565860000522000533215000060200035835600006150001378290000
38811605       3821106774060098   5512002001SARMIENTO ANA LUJAN      529236699       030513093 527292366995M    R           D             1122030 01672903000356693001672903001672903002029596030112200001728474045210016729030000522000356693000060200021747700006150000836450000
38813343       3825712384060098  15512002001LEDESMA NORMA VICTORIA   521343930       300196263 627213439303M    R           D             1122030 022147450002822440022147450022147450024969890420801000020761880552100221474500005220002822440000602000287917000061500011073700006160000221470000
38813835       3825711721060098   5512002001MELIAN MARCELA ALEJANDRA 530953419       090813093 627309534196M    R           D             1122030 016729030006553790016729030016729030023282820317851000020104310552100167290300005220006553790000602000217477000061500008364500006160000167290000
38814315       3815300271060098  15512002001IBANEZ DELIA MARCIA DE JE530798384       130912103 527307983848M    R           D             1122030 01740633000368061001740633001740633002108694031331400001795380045210017406330000522000368061000060200022628200006150000870320000
38814394       3821107375060098   5512002001REMEDI OSCAR ELIAS       520604851       111190313 520206048515V    R           D             1122030 02065065000176620002065065002065065002241685037171100001869974045210020650650000522000176620000060200026845800006150001032530000
38814912       3815300286060098   5512002001GONZALES MARIELA DEL V.  523041021       220312103 527230410211M    R           D             1122030 01740633000447681001740633001740633002188314031331400001875000045210017406330000522000447681000060200022628200006150000870320000
38815824       3825710996060098   5512002001LEIVA CLAUDIA BEATRIZ    529451790       310513093 527294517907M    R           D             1122030 01672903000503220001672903001672903002176123030112200001875001045210016729030000522000503220000060200021747700006150000836450000
38816561       3859407707060098   5512002001ABREGU FRANCISCA MARCELA 527485530       051214073 523274855304M    R           D             1122030 01943824000365439001943824001943824002309263034988800001959375045210019438240000522000365439000060200025269700006150000971910000
38816943       3862110393060098   5512002001PEREZ ANGELA DANIELA     526729341       051214073 523267293414M    R           D             1122030 02214744000383944002214744002214744002598688039865400002200034045210022147440000522000383944000060200028791700006150001107370000
38817371       3816100336060098   5512002001TULA ANA MARISEL         533887550       241014083 527338875504M    R           D             1122030 01672903000503220001672903001672903002176123030112200001875001045210016729030000522000503220000060200021747700006150000836450000
38817431       3825711125060098   5512002001LOBO YOHANA GILDA        534880015       270812103 527348800154M    R           D             1122030 01876093000388825001876093001876093002264918033769700001927221045210018760930000522000388825000060200024389200006150000938050000
38817805       3858607197060098   5512002001ALVAREZ VIRGINIA DE LOS A534329908       270314083 527343299082M    R           D             1122030 01672903000503220001672903001672903002176123030112200001875001045210016729030000522000503220000060200021747700006150000836450000
38818403       3858607182060098   5512002001ORELLANA SANDRA NOEMI    526368180       241113083 627263681806M    R           D             1122030 016729030005199490016729030016729030021928520317851000018750010552100167290300005220005199490000602000217477000061500008364500006160000167290000
38750341       3822607611060098   5512002001PAZ PATRICIA BEATRIZ     522206969       141107143 527222069691M    R           D             1122030 01808363000392142001808363001808363002200505032550500001875000045210018083630000522000392142000060200023508700006150000904180000
